{
  "contractName": "DoublyLinkedList",
  "abi": [
    {
      "constant": true,
      "inputs": [
        {
          "name": "self",
          "type": "DoublyLinkedList.IndexedUint storage"
        },
        {
          "name": "_collection_index",
          "type": "bytes32"
        },
        {
          "name": "_item",
          "type": "uint256"
        }
      ],
      "name": "find",
      "outputs": [
        {
          "name": "_item_index",
          "type": "uint256"
        }
      ],
      "payable": false,
      "stateMutability": "view",
      "type": "function"
    },
    {
      "constant": true,
      "inputs": [
        {
          "name": "self",
          "type": "DoublyLinkedList.Address storage"
        },
        {
          "name": "_item",
          "type": "address"
        }
      ],
      "name": "find",
      "outputs": [
        {
          "name": "_item_index",
          "type": "uint256"
        }
      ],
      "payable": false,
      "stateMutability": "view",
      "type": "function"
    },
    {
      "constant": true,
      "inputs": [
        {
          "name": "self",
          "type": "DoublyLinkedList.Bytes storage"
        },
        {
          "name": "_item",
          "type": "bytes32"
        }
      ],
      "name": "find",
      "outputs": [
        {
          "name": "_item_index",
          "type": "uint256"
        }
      ],
      "payable": false,
      "stateMutability": "view",
      "type": "function"
    },
    {
      "constant": true,
      "inputs": [
        {
          "name": "self",
          "type": "DoublyLinkedList.Data storage"
        },
        {
          "name": "_item",
          "type": "bytes32"
        }
      ],
      "name": "find",
      "outputs": [
        {
          "name": "_item_index",
          "type": "uint256"
        }
      ],
      "payable": false,
      "stateMutability": "view",
      "type": "function"
    },
    {
      "constant": true,
      "inputs": [
        {
          "name": "self",
          "type": "DoublyLinkedList.Uint storage"
        },
        {
          "name": "_item",
          "type": "uint256"
        }
      ],
      "name": "find",
      "outputs": [
        {
          "name": "_item_index",
          "type": "uint256"
        }
      ],
      "payable": false,
      "stateMutability": "view",
      "type": "function"
    },
    {
      "constant": true,
      "inputs": [
        {
          "name": "self",
          "type": "DoublyLinkedList.Uint storage"
        },
        {
          "name": "_item_index",
          "type": "uint256"
        }
      ],
      "name": "get",
      "outputs": [
        {
          "name": "_item",
          "type": "uint256"
        }
      ],
      "payable": false,
      "stateMutability": "view",
      "type": "function"
    },
    {
      "constant": true,
      "inputs": [
        {
          "name": "self",
          "type": "DoublyLinkedList.Data storage"
        },
        {
          "name": "_item_index",
          "type": "uint256"
        }
      ],
      "name": "get",
      "outputs": [
        {
          "name": "_item",
          "type": "bytes32"
        }
      ],
      "payable": false,
      "stateMutability": "view",
      "type": "function"
    },
    {
      "constant": true,
      "inputs": [
        {
          "name": "self",
          "type": "DoublyLinkedList.Bytes storage"
        },
        {
          "name": "_item_index",
          "type": "uint256"
        }
      ],
      "name": "get",
      "outputs": [
        {
          "name": "_item",
          "type": "bytes32"
        }
      ],
      "payable": false,
      "stateMutability": "view",
      "type": "function"
    },
    {
      "constant": true,
      "inputs": [
        {
          "name": "self",
          "type": "DoublyLinkedList.IndexedUint storage"
        },
        {
          "name": "_collection_index",
          "type": "bytes32"
        },
        {
          "name": "_item_index",
          "type": "uint256"
        }
      ],
      "name": "get",
      "outputs": [
        {
          "name": "_item",
          "type": "uint256"
        }
      ],
      "payable": false,
      "stateMutability": "view",
      "type": "function"
    },
    {
      "constant": true,
      "inputs": [
        {
          "name": "self",
          "type": "DoublyLinkedList.Address storage"
        },
        {
          "name": "_item_index",
          "type": "uint256"
        }
      ],
      "name": "get",
      "outputs": [
        {
          "name": "_item",
          "type": "address"
        }
      ],
      "payable": false,
      "stateMutability": "view",
      "type": "function"
    },
    {
      "constant": false,
      "inputs": [
        {
          "name": "self",
          "type": "DoublyLinkedList.IndexedUint storage"
        },
        {
          "name": "_collection_index",
          "type": "bytes32"
        },
        {
          "name": "_data",
          "type": "uint256"
        }
      ],
      "name": "append",
      "outputs": [
        {
          "name": "_success",
          "type": "bool"
        }
      ],
      "payable": false,
      "stateMutability": "nonpayable",
      "type": "function"
    },
    {
      "constant": false,
      "inputs": [
        {
          "name": "self",
          "type": "DoublyLinkedList.IndexedAddress storage"
        },
        {
          "name": "_collection_index",
          "type": "bytes32"
        },
        {
          "name": "_data",
          "type": "address"
        }
      ],
      "name": "append",
      "outputs": [
        {
          "name": "_success",
          "type": "bool"
        }
      ],
      "payable": false,
      "stateMutability": "nonpayable",
      "type": "function"
    },
    {
      "constant": false,
      "inputs": [
        {
          "name": "self",
          "type": "DoublyLinkedList.IndexedBytes storage"
        },
        {
          "name": "_collection_index",
          "type": "bytes32"
        },
        {
          "name": "_data",
          "type": "bytes32"
        }
      ],
      "name": "append",
      "outputs": [
        {
          "name": "_success",
          "type": "bool"
        }
      ],
      "payable": false,
      "stateMutability": "nonpayable",
      "type": "function"
    },
    {
      "constant": false,
      "inputs": [
        {
          "name": "self",
          "type": "DoublyLinkedList.Uint storage"
        },
        {
          "name": "_data",
          "type": "uint256"
        }
      ],
      "name": "append",
      "outputs": [
        {
          "name": "_success",
          "type": "bool"
        }
      ],
      "payable": false,
      "stateMutability": "nonpayable",
      "type": "function"
    },
    {
      "constant": false,
      "inputs": [
        {
          "name": "self",
          "type": "DoublyLinkedList.Bytes storage"
        },
        {
          "name": "_data",
          "type": "bytes32"
        }
      ],
      "name": "append",
      "outputs": [
        {
          "name": "_success",
          "type": "bool"
        }
      ],
      "payable": false,
      "stateMutability": "nonpayable",
      "type": "function"
    },
    {
      "constant": false,
      "inputs": [
        {
          "name": "self",
          "type": "DoublyLinkedList.Address storage"
        },
        {
          "name": "_data",
          "type": "address"
        }
      ],
      "name": "append",
      "outputs": [
        {
          "name": "_success",
          "type": "bool"
        }
      ],
      "payable": false,
      "stateMutability": "nonpayable",
      "type": "function"
    },
    {
      "constant": false,
      "inputs": [
        {
          "name": "self",
          "type": "DoublyLinkedList.IndexedUint storage"
        },
        {
          "name": "_collection_index",
          "type": "bytes32"
        },
        {
          "name": "_item",
          "type": "uint256"
        }
      ],
      "name": "remove_item",
      "outputs": [
        {
          "name": "_success",
          "type": "bool"
        }
      ],
      "payable": false,
      "stateMutability": "nonpayable",
      "type": "function"
    },
    {
      "constant": false,
      "inputs": [
        {
          "name": "self",
          "type": "DoublyLinkedList.Bytes storage"
        },
        {
          "name": "_item",
          "type": "bytes32"
        }
      ],
      "name": "remove_item",
      "outputs": [
        {
          "name": "_success",
          "type": "bool"
        }
      ],
      "payable": false,
      "stateMutability": "nonpayable",
      "type": "function"
    },
    {
      "constant": false,
      "inputs": [
        {
          "name": "self",
          "type": "DoublyLinkedList.IndexedBytes storage"
        },
        {
          "name": "_collection_index",
          "type": "bytes32"
        },
        {
          "name": "_item",
          "type": "bytes32"
        }
      ],
      "name": "remove_item",
      "outputs": [
        {
          "name": "_success",
          "type": "bool"
        }
      ],
      "payable": false,
      "stateMutability": "nonpayable",
      "type": "function"
    },
    {
      "constant": false,
      "inputs": [
        {
          "name": "self",
          "type": "DoublyLinkedList.IndexedAddress storage"
        },
        {
          "name": "_collection_index",
          "type": "bytes32"
        },
        {
          "name": "_item",
          "type": "address"
        }
      ],
      "name": "remove_item",
      "outputs": [
        {
          "name": "_success",
          "type": "bool"
        }
      ],
      "payable": false,
      "stateMutability": "nonpayable",
      "type": "function"
    },
    {
      "constant": false,
      "inputs": [
        {
          "name": "self",
          "type": "DoublyLinkedList.Uint storage"
        },
        {
          "name": "_item",
          "type": "uint256"
        }
      ],
      "name": "remove_item",
      "outputs": [
        {
          "name": "_success",
          "type": "bool"
        }
      ],
      "payable": false,
      "stateMutability": "nonpayable",
      "type": "function"
    },
    {
      "constant": false,
      "inputs": [
        {
          "name": "self",
          "type": "DoublyLinkedList.Address storage"
        },
        {
          "name": "_item",
          "type": "address"
        }
      ],
      "name": "remove_item",
      "outputs": [
        {
          "name": "_success",
          "type": "bool"
        }
      ],
      "payable": false,
      "stateMutability": "nonpayable",
      "type": "function"
    },
    {
      "constant": true,
      "inputs": [
        {
          "name": "self",
          "type": "DoublyLinkedList.Bytes storage"
        }
      ],
      "name": "total",
      "outputs": [
        {
          "name": "_total_count",
          "type": "uint256"
        }
      ],
      "payable": false,
      "stateMutability": "view",
      "type": "function"
    },
    {
      "constant": true,
      "inputs": [
        {
          "name": "self",
          "type": "DoublyLinkedList.IndexedBytes storage"
        },
        {
          "name": "_collection_index",
          "type": "bytes32"
        }
      ],
      "name": "total",
      "outputs": [
        {
          "name": "_total_count",
          "type": "uint256"
        }
      ],
      "payable": false,
      "stateMutability": "view",
      "type": "function"
    },
    {
      "constant": true,
      "inputs": [
        {
          "name": "self",
          "type": "DoublyLinkedList.Data storage"
        }
      ],
      "name": "total",
      "outputs": [
        {
          "name": "_total_count",
          "type": "uint256"
        }
      ],
      "payable": false,
      "stateMutability": "view",
      "type": "function"
    },
    {
      "constant": true,
      "inputs": [
        {
          "name": "self",
          "type": "DoublyLinkedList.IndexedAddress storage"
        },
        {
          "name": "_collection_index",
          "type": "bytes32"
        }
      ],
      "name": "total",
      "outputs": [
        {
          "name": "_total_count",
          "type": "uint256"
        }
      ],
      "payable": false,
      "stateMutability": "view",
      "type": "function"
    },
    {
      "constant": true,
      "inputs": [
        {
          "name": "self",
          "type": "DoublyLinkedList.IndexedUint storage"
        },
        {
          "name": "_collection_index",
          "type": "bytes32"
        }
      ],
      "name": "total",
      "outputs": [
        {
          "name": "_total_count",
          "type": "uint256"
        }
      ],
      "payable": false,
      "stateMutability": "view",
      "type": "function"
    },
    {
      "constant": true,
      "inputs": [
        {
          "name": "self",
          "type": "DoublyLinkedList.Address storage"
        }
      ],
      "name": "total",
      "outputs": [
        {
          "name": "_total_count",
          "type": "uint256"
        }
      ],
      "payable": false,
      "stateMutability": "view",
      "type": "function"
    },
    {
      "constant": true,
      "inputs": [
        {
          "name": "self",
          "type": "DoublyLinkedList.Uint storage"
        }
      ],
      "name": "total",
      "outputs": [
        {
          "name": "_total_count",
          "type": "uint256"
        }
      ],
      "payable": false,
      "stateMutability": "view",
      "type": "function"
    },
    {
      "constant": true,
      "inputs": [
        {
          "name": "self",
          "type": "DoublyLinkedList.IndexedBytes storage"
        },
        {
          "name": "_collection_index",
          "type": "bytes32"
        }
      ],
      "name": "start",
      "outputs": [
        {
          "name": "_index",
          "type": "uint256"
        }
      ],
      "payable": false,
      "stateMutability": "view",
      "type": "function"
    },
    {
      "constant": true,
      "inputs": [
        {
          "name": "self",
          "type": "DoublyLinkedList.IndexedAddress storage"
        },
        {
          "name": "_collection_index",
          "type": "bytes32"
        }
      ],
      "name": "start",
      "outputs": [
        {
          "name": "_index",
          "type": "uint256"
        }
      ],
      "payable": false,
      "stateMutability": "view",
      "type": "function"
    },
    {
      "constant": true,
      "inputs": [
        {
          "name": "self",
          "type": "DoublyLinkedList.Bytes storage"
        }
      ],
      "name": "start",
      "outputs": [
        {
          "name": "_index",
          "type": "uint256"
        }
      ],
      "payable": false,
      "stateMutability": "view",
      "type": "function"
    },
    {
      "constant": true,
      "inputs": [
        {
          "name": "self",
          "type": "DoublyLinkedList.Address storage"
        }
      ],
      "name": "start",
      "outputs": [
        {
          "name": "_index",
          "type": "uint256"
        }
      ],
      "payable": false,
      "stateMutability": "view",
      "type": "function"
    },
    {
      "constant": true,
      "inputs": [
        {
          "name": "self",
          "type": "DoublyLinkedList.Data storage"
        }
      ],
      "name": "start",
      "outputs": [
        {
          "name": "_item_index",
          "type": "uint256"
        }
      ],
      "payable": false,
      "stateMutability": "view",
      "type": "function"
    },
    {
      "constant": true,
      "inputs": [
        {
          "name": "self",
          "type": "DoublyLinkedList.Uint storage"
        }
      ],
      "name": "start",
      "outputs": [
        {
          "name": "_index",
          "type": "uint256"
        }
      ],
      "payable": false,
      "stateMutability": "view",
      "type": "function"
    },
    {
      "constant": true,
      "inputs": [
        {
          "name": "self",
          "type": "DoublyLinkedList.IndexedUint storage"
        },
        {
          "name": "_collection_index",
          "type": "bytes32"
        }
      ],
      "name": "start",
      "outputs": [
        {
          "name": "_index",
          "type": "uint256"
        }
      ],
      "payable": false,
      "stateMutability": "view",
      "type": "function"
    },
    {
      "constant": true,
      "inputs": [
        {
          "name": "self",
          "type": "DoublyLinkedList.Bytes storage"
        }
      ],
      "name": "start_item",
      "outputs": [
        {
          "name": "_start_item",
          "type": "bytes32"
        }
      ],
      "payable": false,
      "stateMutability": "view",
      "type": "function"
    },
    {
      "constant": true,
      "inputs": [
        {
          "name": "self",
          "type": "DoublyLinkedList.IndexedBytes storage"
        },
        {
          "name": "_collection_index",
          "type": "bytes32"
        }
      ],
      "name": "start_item",
      "outputs": [
        {
          "name": "_start_item",
          "type": "bytes32"
        }
      ],
      "payable": false,
      "stateMutability": "view",
      "type": "function"
    },
    {
      "constant": true,
      "inputs": [
        {
          "name": "self",
          "type": "DoublyLinkedList.Address storage"
        }
      ],
      "name": "start_item",
      "outputs": [
        {
          "name": "_start_item",
          "type": "address"
        }
      ],
      "payable": false,
      "stateMutability": "view",
      "type": "function"
    },
    {
      "constant": true,
      "inputs": [
        {
          "name": "self",
          "type": "DoublyLinkedList.IndexedUint storage"
        },
        {
          "name": "_collection_index",
          "type": "bytes32"
        }
      ],
      "name": "start_item",
      "outputs": [
        {
          "name": "_start_item",
          "type": "uint256"
        }
      ],
      "payable": false,
      "stateMutability": "view",
      "type": "function"
    },
    {
      "constant": true,
      "inputs": [
        {
          "name": "self",
          "type": "DoublyLinkedList.Uint storage"
        }
      ],
      "name": "start_item",
      "outputs": [
        {
          "name": "_start_item",
          "type": "uint256"
        }
      ],
      "payable": false,
      "stateMutability": "view",
      "type": "function"
    },
    {
      "constant": true,
      "inputs": [
        {
          "name": "self",
          "type": "DoublyLinkedList.Data storage"
        }
      ],
      "name": "start_item",
      "outputs": [
        {
          "name": "_item",
          "type": "bytes32"
        }
      ],
      "payable": false,
      "stateMutability": "view",
      "type": "function"
    },
    {
      "constant": true,
      "inputs": [
        {
          "name": "self",
          "type": "DoublyLinkedList.IndexedAddress storage"
        },
        {
          "name": "_collection_index",
          "type": "bytes32"
        }
      ],
      "name": "start_item",
      "outputs": [
        {
          "name": "_start_item",
          "type": "address"
        }
      ],
      "payable": false,
      "stateMutability": "view",
      "type": "function"
    },
    {
      "constant": true,
      "inputs": [
        {
          "name": "self",
          "type": "DoublyLinkedList.IndexedBytes storage"
        },
        {
          "name": "_collection_index",
          "type": "bytes32"
        }
      ],
      "name": "end",
      "outputs": [
        {
          "name": "_index",
          "type": "uint256"
        }
      ],
      "payable": false,
      "stateMutability": "view",
      "type": "function"
    },
    {
      "constant": true,
      "inputs": [
        {
          "name": "self",
          "type": "DoublyLinkedList.Uint storage"
        }
      ],
      "name": "end",
      "outputs": [
        {
          "name": "_index",
          "type": "uint256"
        }
      ],
      "payable": false,
      "stateMutability": "view",
      "type": "function"
    },
    {
      "constant": true,
      "inputs": [
        {
          "name": "self",
          "type": "DoublyLinkedList.Bytes storage"
        }
      ],
      "name": "end",
      "outputs": [
        {
          "name": "_index",
          "type": "uint256"
        }
      ],
      "payable": false,
      "stateMutability": "view",
      "type": "function"
    },
    {
      "constant": true,
      "inputs": [
        {
          "name": "self",
          "type": "DoublyLinkedList.IndexedAddress storage"
        },
        {
          "name": "_collection_index",
          "type": "bytes32"
        }
      ],
      "name": "end",
      "outputs": [
        {
          "name": "_index",
          "type": "uint256"
        }
      ],
      "payable": false,
      "stateMutability": "view",
      "type": "function"
    },
    {
      "constant": true,
      "inputs": [
        {
          "name": "self",
          "type": "DoublyLinkedList.Data storage"
        }
      ],
      "name": "end",
      "outputs": [
        {
          "name": "_item_index",
          "type": "uint256"
        }
      ],
      "payable": false,
      "stateMutability": "view",
      "type": "function"
    },
    {
      "constant": true,
      "inputs": [
        {
          "name": "self",
          "type": "DoublyLinkedList.IndexedUint storage"
        },
        {
          "name": "_collection_index",
          "type": "bytes32"
        }
      ],
      "name": "end",
      "outputs": [
        {
          "name": "_index",
          "type": "uint256"
        }
      ],
      "payable": false,
      "stateMutability": "view",
      "type": "function"
    },
    {
      "constant": true,
      "inputs": [
        {
          "name": "self",
          "type": "DoublyLinkedList.Address storage"
        }
      ],
      "name": "end",
      "outputs": [
        {
          "name": "_index",
          "type": "uint256"
        }
      ],
      "payable": false,
      "stateMutability": "view",
      "type": "function"
    },
    {
      "constant": true,
      "inputs": [
        {
          "name": "self",
          "type": "DoublyLinkedList.Uint storage"
        }
      ],
      "name": "end_item",
      "outputs": [
        {
          "name": "_end_item",
          "type": "uint256"
        }
      ],
      "payable": false,
      "stateMutability": "view",
      "type": "function"
    },
    {
      "constant": true,
      "inputs": [
        {
          "name": "self",
          "type": "DoublyLinkedList.Data storage"
        }
      ],
      "name": "end_item",
      "outputs": [
        {
          "name": "_item",
          "type": "bytes32"
        }
      ],
      "payable": false,
      "stateMutability": "view",
      "type": "function"
    },
    {
      "constant": true,
      "inputs": [
        {
          "name": "self",
          "type": "DoublyLinkedList.IndexedUint storage"
        },
        {
          "name": "_collection_index",
          "type": "bytes32"
        }
      ],
      "name": "end_item",
      "outputs": [
        {
          "name": "_end_item",
          "type": "uint256"
        }
      ],
      "payable": false,
      "stateMutability": "view",
      "type": "function"
    },
    {
      "constant": true,
      "inputs": [
        {
          "name": "self",
          "type": "DoublyLinkedList.Bytes storage"
        }
      ],
      "name": "end_item",
      "outputs": [
        {
          "name": "_end_item",
          "type": "bytes32"
        }
      ],
      "payable": false,
      "stateMutability": "view",
      "type": "function"
    },
    {
      "constant": true,
      "inputs": [
        {
          "name": "self",
          "type": "DoublyLinkedList.Address storage"
        }
      ],
      "name": "end_item",
      "outputs": [
        {
          "name": "_end_item",
          "type": "address"
        }
      ],
      "payable": false,
      "stateMutability": "view",
      "type": "function"
    },
    {
      "constant": true,
      "inputs": [
        {
          "name": "self",
          "type": "DoublyLinkedList.IndexedAddress storage"
        },
        {
          "name": "_collection_index",
          "type": "bytes32"
        }
      ],
      "name": "end_item",
      "outputs": [
        {
          "name": "_end_item",
          "type": "address"
        }
      ],
      "payable": false,
      "stateMutability": "view",
      "type": "function"
    },
    {
      "constant": true,
      "inputs": [
        {
          "name": "self",
          "type": "DoublyLinkedList.IndexedBytes storage"
        },
        {
          "name": "_collection_index",
          "type": "bytes32"
        }
      ],
      "name": "end_item",
      "outputs": [
        {
          "name": "_end_item",
          "type": "bytes32"
        }
      ],
      "payable": false,
      "stateMutability": "view",
      "type": "function"
    },
    {
      "constant": true,
      "inputs": [
        {
          "name": "self",
          "type": "DoublyLinkedList.IndexedUint storage"
        },
        {
          "name": "_collection_index",
          "type": "bytes32"
        },
        {
          "name": "_item_index",
          "type": "uint256"
        }
      ],
      "name": "valid",
      "outputs": [
        {
          "name": "_yes",
          "type": "bool"
        }
      ],
      "payable": false,
      "stateMutability": "view",
      "type": "function"
    },
    {
      "constant": true,
      "inputs": [
        {
          "name": "self",
          "type": "DoublyLinkedList.Data storage"
        },
        {
          "name": "_item_index",
          "type": "uint256"
        }
      ],
      "name": "valid",
      "outputs": [
        {
          "name": "_yes",
          "type": "bool"
        }
      ],
      "payable": false,
      "stateMutability": "view",
      "type": "function"
    },
    {
      "constant": true,
      "inputs": [
        {
          "name": "self",
          "type": "DoublyLinkedList.Uint storage"
        },
        {
          "name": "_item_index",
          "type": "uint256"
        }
      ],
      "name": "valid",
      "outputs": [
        {
          "name": "_yes",
          "type": "bool"
        }
      ],
      "payable": false,
      "stateMutability": "view",
      "type": "function"
    },
    {
      "constant": true,
      "inputs": [
        {
          "name": "self",
          "type": "DoublyLinkedList.Bytes storage"
        },
        {
          "name": "_item_index",
          "type": "uint256"
        }
      ],
      "name": "valid",
      "outputs": [
        {
          "name": "_yes",
          "type": "bool"
        }
      ],
      "payable": false,
      "stateMutability": "view",
      "type": "function"
    },
    {
      "constant": true,
      "inputs": [
        {
          "name": "self",
          "type": "DoublyLinkedList.IndexedAddress storage"
        },
        {
          "name": "_collection_index",
          "type": "bytes32"
        },
        {
          "name": "_item_index",
          "type": "uint256"
        }
      ],
      "name": "valid",
      "outputs": [
        {
          "name": "_yes",
          "type": "bool"
        }
      ],
      "payable": false,
      "stateMutability": "view",
      "type": "function"
    },
    {
      "constant": true,
      "inputs": [
        {
          "name": "self",
          "type": "DoublyLinkedList.Address storage"
        },
        {
          "name": "_item_index",
          "type": "uint256"
        }
      ],
      "name": "valid",
      "outputs": [
        {
          "name": "_yes",
          "type": "bool"
        }
      ],
      "payable": false,
      "stateMutability": "view",
      "type": "function"
    },
    {
      "constant": true,
      "inputs": [
        {
          "name": "self",
          "type": "DoublyLinkedList.IndexedBytes storage"
        },
        {
          "name": "_collection_index",
          "type": "bytes32"
        },
        {
          "name": "_item_index",
          "type": "uint256"
        }
      ],
      "name": "valid",
      "outputs": [
        {
          "name": "_yes",
          "type": "bool"
        }
      ],
      "payable": false,
      "stateMutability": "view",
      "type": "function"
    },
    {
      "constant": true,
      "inputs": [
        {
          "name": "self",
          "type": "DoublyLinkedList.Data storage"
        },
        {
          "name": "_item",
          "type": "bytes32"
        }
      ],
      "name": "valid_item",
      "outputs": [
        {
          "name": "_yes",
          "type": "bool"
        }
      ],
      "payable": false,
      "stateMutability": "view",
      "type": "function"
    },
    {
      "constant": true,
      "inputs": [
        {
          "name": "self",
          "type": "DoublyLinkedList.IndexedUint storage"
        },
        {
          "name": "_collection_index",
          "type": "bytes32"
        },
        {
          "name": "_item",
          "type": "uint256"
        }
      ],
      "name": "valid_item",
      "outputs": [
        {
          "name": "_yes",
          "type": "bool"
        }
      ],
      "payable": false,
      "stateMutability": "view",
      "type": "function"
    },
    {
      "constant": true,
      "inputs": [
        {
          "name": "self",
          "type": "DoublyLinkedList.Uint storage"
        },
        {
          "name": "_item",
          "type": "uint256"
        }
      ],
      "name": "valid_item",
      "outputs": [
        {
          "name": "_yes",
          "type": "bool"
        }
      ],
      "payable": false,
      "stateMutability": "view",
      "type": "function"
    },
    {
      "constant": true,
      "inputs": [
        {
          "name": "self",
          "type": "DoublyLinkedList.IndexedBytes storage"
        },
        {
          "name": "_collection_index",
          "type": "bytes32"
        },
        {
          "name": "_item",
          "type": "bytes32"
        }
      ],
      "name": "valid_item",
      "outputs": [
        {
          "name": "_yes",
          "type": "bool"
        }
      ],
      "payable": false,
      "stateMutability": "view",
      "type": "function"
    },
    {
      "constant": true,
      "inputs": [
        {
          "name": "self",
          "type": "DoublyLinkedList.Bytes storage"
        },
        {
          "name": "_item",
          "type": "bytes32"
        }
      ],
      "name": "valid_item",
      "outputs": [
        {
          "name": "_yes",
          "type": "bool"
        }
      ],
      "payable": false,
      "stateMutability": "view",
      "type": "function"
    },
    {
      "constant": true,
      "inputs": [
        {
          "name": "self",
          "type": "DoublyLinkedList.IndexedAddress storage"
        },
        {
          "name": "_collection_index",
          "type": "bytes32"
        },
        {
          "name": "_item",
          "type": "address"
        }
      ],
      "name": "valid_item",
      "outputs": [
        {
          "name": "_yes",
          "type": "bool"
        }
      ],
      "payable": false,
      "stateMutability": "view",
      "type": "function"
    },
    {
      "constant": true,
      "inputs": [
        {
          "name": "self",
          "type": "DoublyLinkedList.Address storage"
        },
        {
          "name": "_item",
          "type": "address"
        }
      ],
      "name": "valid_item",
      "outputs": [
        {
          "name": "_yes",
          "type": "bool"
        }
      ],
      "payable": false,
      "stateMutability": "view",
      "type": "function"
    },
    {
      "constant": true,
      "inputs": [
        {
          "name": "self",
          "type": "DoublyLinkedList.Bytes storage"
        },
        {
          "name": "_current_index",
          "type": "uint256"
        }
      ],
      "name": "previous",
      "outputs": [
        {
          "name": "_previous_index",
          "type": "uint256"
        }
      ],
      "payable": false,
      "stateMutability": "view",
      "type": "function"
    },
    {
      "constant": true,
      "inputs": [
        {
          "name": "self",
          "type": "DoublyLinkedList.Uint storage"
        },
        {
          "name": "_current_index",
          "type": "uint256"
        }
      ],
      "name": "previous",
      "outputs": [
        {
          "name": "_previous_index",
          "type": "uint256"
        }
      ],
      "payable": false,
      "stateMutability": "view",
      "type": "function"
    },
    {
      "constant": true,
      "inputs": [
        {
          "name": "self",
          "type": "DoublyLinkedList.IndexedBytes storage"
        },
        {
          "name": "_collection_index",
          "type": "bytes32"
        },
        {
          "name": "_current_index",
          "type": "uint256"
        }
      ],
      "name": "previous",
      "outputs": [
        {
          "name": "_previous_index",
          "type": "uint256"
        }
      ],
      "payable": false,
      "stateMutability": "view",
      "type": "function"
    },
    {
      "constant": true,
      "inputs": [
        {
          "name": "self",
          "type": "DoublyLinkedList.IndexedUint storage"
        },
        {
          "name": "_collection_index",
          "type": "bytes32"
        },
        {
          "name": "_current_index",
          "type": "uint256"
        }
      ],
      "name": "previous",
      "outputs": [
        {
          "name": "_previous_index",
          "type": "uint256"
        }
      ],
      "payable": false,
      "stateMutability": "view",
      "type": "function"
    },
    {
      "constant": true,
      "inputs": [
        {
          "name": "self",
          "type": "DoublyLinkedList.IndexedAddress storage"
        },
        {
          "name": "_collection_index",
          "type": "bytes32"
        },
        {
          "name": "_current_index",
          "type": "uint256"
        }
      ],
      "name": "previous",
      "outputs": [
        {
          "name": "_previous_index",
          "type": "uint256"
        }
      ],
      "payable": false,
      "stateMutability": "view",
      "type": "function"
    },
    {
      "constant": true,
      "inputs": [
        {
          "name": "self",
          "type": "DoublyLinkedList.Data storage"
        },
        {
          "name": "_current_index",
          "type": "uint256"
        }
      ],
      "name": "previous",
      "outputs": [
        {
          "name": "_previous_index",
          "type": "uint256"
        }
      ],
      "payable": false,
      "stateMutability": "view",
      "type": "function"
    },
    {
      "constant": true,
      "inputs": [
        {
          "name": "self",
          "type": "DoublyLinkedList.Address storage"
        },
        {
          "name": "_current_index",
          "type": "uint256"
        }
      ],
      "name": "previous",
      "outputs": [
        {
          "name": "_previous_index",
          "type": "uint256"
        }
      ],
      "payable": false,
      "stateMutability": "view",
      "type": "function"
    },
    {
      "constant": true,
      "inputs": [
        {
          "name": "self",
          "type": "DoublyLinkedList.IndexedAddress storage"
        },
        {
          "name": "_collection_index",
          "type": "bytes32"
        },
        {
          "name": "_current_item",
          "type": "address"
        }
      ],
      "name": "previous_item",
      "outputs": [
        {
          "name": "_previous_item",
          "type": "address"
        }
      ],
      "payable": false,
      "stateMutability": "view",
      "type": "function"
    },
    {
      "constant": true,
      "inputs": [
        {
          "name": "self",
          "type": "DoublyLinkedList.IndexedUint storage"
        },
        {
          "name": "_collection_index",
          "type": "bytes32"
        },
        {
          "name": "_current_item",
          "type": "uint256"
        }
      ],
      "name": "previous_item",
      "outputs": [
        {
          "name": "_previous_item",
          "type": "uint256"
        }
      ],
      "payable": false,
      "stateMutability": "view",
      "type": "function"
    },
    {
      "constant": true,
      "inputs": [
        {
          "name": "self",
          "type": "DoublyLinkedList.Uint storage"
        },
        {
          "name": "_current_item",
          "type": "uint256"
        }
      ],
      "name": "previous_item",
      "outputs": [
        {
          "name": "_previous_item",
          "type": "uint256"
        }
      ],
      "payable": false,
      "stateMutability": "view",
      "type": "function"
    },
    {
      "constant": true,
      "inputs": [
        {
          "name": "self",
          "type": "DoublyLinkedList.Data storage"
        },
        {
          "name": "_current_item",
          "type": "bytes32"
        }
      ],
      "name": "previous_item",
      "outputs": [
        {
          "name": "_previous_item",
          "type": "bytes32"
        }
      ],
      "payable": false,
      "stateMutability": "view",
      "type": "function"
    },
    {
      "constant": true,
      "inputs": [
        {
          "name": "self",
          "type": "DoublyLinkedList.IndexedBytes storage"
        },
        {
          "name": "_collection_index",
          "type": "bytes32"
        },
        {
          "name": "_current_item",
          "type": "bytes32"
        }
      ],
      "name": "previous_item",
      "outputs": [
        {
          "name": "_previous_item",
          "type": "bytes32"
        }
      ],
      "payable": false,
      "stateMutability": "view",
      "type": "function"
    },
    {
      "constant": true,
      "inputs": [
        {
          "name": "self",
          "type": "DoublyLinkedList.Bytes storage"
        },
        {
          "name": "_current_item",
          "type": "bytes32"
        }
      ],
      "name": "previous_item",
      "outputs": [
        {
          "name": "_previous_item",
          "type": "bytes32"
        }
      ],
      "payable": false,
      "stateMutability": "view",
      "type": "function"
    },
    {
      "constant": true,
      "inputs": [
        {
          "name": "self",
          "type": "DoublyLinkedList.Address storage"
        },
        {
          "name": "_current_item",
          "type": "address"
        }
      ],
      "name": "previous_item",
      "outputs": [
        {
          "name": "_previous_item",
          "type": "address"
        }
      ],
      "payable": false,
      "stateMutability": "view",
      "type": "function"
    },
    {
      "constant": true,
      "inputs": [
        {
          "name": "self",
          "type": "DoublyLinkedList.IndexedBytes storage"
        },
        {
          "name": "_collection_index",
          "type": "bytes32"
        },
        {
          "name": "_current_index",
          "type": "uint256"
        }
      ],
      "name": "next",
      "outputs": [
        {
          "name": "_next_index",
          "type": "uint256"
        }
      ],
      "payable": false,
      "stateMutability": "view",
      "type": "function"
    },
    {
      "constant": true,
      "inputs": [
        {
          "name": "self",
          "type": "DoublyLinkedList.Uint storage"
        },
        {
          "name": "_current_index",
          "type": "uint256"
        }
      ],
      "name": "next",
      "outputs": [
        {
          "name": "_next_index",
          "type": "uint256"
        }
      ],
      "payable": false,
      "stateMutability": "view",
      "type": "function"
    },
    {
      "constant": true,
      "inputs": [
        {
          "name": "self",
          "type": "DoublyLinkedList.Data storage"
        },
        {
          "name": "_current_index",
          "type": "uint256"
        }
      ],
      "name": "next",
      "outputs": [
        {
          "name": "_next_index",
          "type": "uint256"
        }
      ],
      "payable": false,
      "stateMutability": "view",
      "type": "function"
    },
    {
      "constant": true,
      "inputs": [
        {
          "name": "self",
          "type": "DoublyLinkedList.IndexedUint storage"
        },
        {
          "name": "_collection_index",
          "type": "bytes32"
        },
        {
          "name": "_current_index",
          "type": "uint256"
        }
      ],
      "name": "next",
      "outputs": [
        {
          "name": "_next_index",
          "type": "uint256"
        }
      ],
      "payable": false,
      "stateMutability": "view",
      "type": "function"
    },
    {
      "constant": true,
      "inputs": [
        {
          "name": "self",
          "type": "DoublyLinkedList.Address storage"
        },
        {
          "name": "_current_index",
          "type": "uint256"
        }
      ],
      "name": "next",
      "outputs": [
        {
          "name": "_next_index",
          "type": "uint256"
        }
      ],
      "payable": false,
      "stateMutability": "view",
      "type": "function"
    },
    {
      "constant": true,
      "inputs": [
        {
          "name": "self",
          "type": "DoublyLinkedList.Bytes storage"
        },
        {
          "name": "_current_index",
          "type": "uint256"
        }
      ],
      "name": "next",
      "outputs": [
        {
          "name": "_next_index",
          "type": "uint256"
        }
      ],
      "payable": false,
      "stateMutability": "view",
      "type": "function"
    },
    {
      "constant": true,
      "inputs": [
        {
          "name": "self",
          "type": "DoublyLinkedList.IndexedAddress storage"
        },
        {
          "name": "_collection_index",
          "type": "bytes32"
        },
        {
          "name": "_current_index",
          "type": "uint256"
        }
      ],
      "name": "next",
      "outputs": [
        {
          "name": "_next_index",
          "type": "uint256"
        }
      ],
      "payable": false,
      "stateMutability": "view",
      "type": "function"
    },
    {
      "constant": true,
      "inputs": [
        {
          "name": "self",
          "type": "DoublyLinkedList.Uint storage"
        },
        {
          "name": "_current_item",
          "type": "uint256"
        }
      ],
      "name": "next_item",
      "outputs": [
        {
          "name": "_next_item",
          "type": "uint256"
        }
      ],
      "payable": false,
      "stateMutability": "view",
      "type": "function"
    },
    {
      "constant": true,
      "inputs": [
        {
          "name": "self",
          "type": "DoublyLinkedList.IndexedBytes storage"
        },
        {
          "name": "_collection_index",
          "type": "bytes32"
        },
        {
          "name": "_current_item",
          "type": "bytes32"
        }
      ],
      "name": "next_item",
      "outputs": [
        {
          "name": "_next_item",
          "type": "bytes32"
        }
      ],
      "payable": false,
      "stateMutability": "view",
      "type": "function"
    },
    {
      "constant": true,
      "inputs": [
        {
          "name": "self",
          "type": "DoublyLinkedList.IndexedUint storage"
        },
        {
          "name": "_collection_index",
          "type": "bytes32"
        },
        {
          "name": "_current_item",
          "type": "uint256"
        }
      ],
      "name": "next_item",
      "outputs": [
        {
          "name": "_next_item",
          "type": "uint256"
        }
      ],
      "payable": false,
      "stateMutability": "view",
      "type": "function"
    },
    {
      "constant": true,
      "inputs": [
        {
          "name": "self",
          "type": "DoublyLinkedList.Address storage"
        },
        {
          "name": "_current_item",
          "type": "address"
        }
      ],
      "name": "next_item",
      "outputs": [
        {
          "name": "_next_item",
          "type": "address"
        }
      ],
      "payable": false,
      "stateMutability": "view",
      "type": "function"
    },
    {
      "constant": true,
      "inputs": [
        {
          "name": "self",
          "type": "DoublyLinkedList.IndexedAddress storage"
        },
        {
          "name": "_collection_index",
          "type": "bytes32"
        },
        {
          "name": "_current_item",
          "type": "address"
        }
      ],
      "name": "next_item",
      "outputs": [
        {
          "name": "_next_item",
          "type": "address"
        }
      ],
      "payable": false,
      "stateMutability": "view",
      "type": "function"
    },
    {
      "constant": true,
      "inputs": [
        {
          "name": "self",
          "type": "DoublyLinkedList.Data storage"
        },
        {
          "name": "_current_item",
          "type": "bytes32"
        }
      ],
      "name": "next_item",
      "outputs": [
        {
          "name": "_next_item",
          "type": "bytes32"
        }
      ],
      "payable": false,
      "stateMutability": "view",
      "type": "function"
    },
    {
      "constant": true,
      "inputs": [
        {
          "name": "self",
          "type": "DoublyLinkedList.Bytes storage"
        },
        {
          "name": "_current_item",
          "type": "bytes32"
        }
      ],
      "name": "next_item",
      "outputs": [
        {
          "name": "_next_item",
          "type": "bytes32"
        }
      ],
      "payable": false,
      "stateMutability": "view",
      "type": "function"
    }
  ],
  "bytecode": "0x6060604052341561000f57600080fd5b61326e8061001e6000396000f300606060405260043610610477576000357c0100000000000000000000000000000000000000000000000000000000900463ffffffff1680630ad2f1e41461047c5780630cf65c5d146104b55780630f779552146104ee57806311ef1f681461051a5780631240ff5a1461055357806312e3853d1461057f578063141f30d1146105ab57806315e8f335146105ec578063165a1b3e14610621578063204820301461065a57806322fddb16146106de578063255314821461070a5780632788c74d1461073e5780632a144178146107735780632dfabf0d146107b4578063303f7146146107e857806334646f451461081d57806337b30633146108635780633ae697421461089c5780633b6650fe146108c857806340c6bb18146109015780634444b4711461093657806344b132fb1461097c57806345a103cc146109be57806349c8cd5714610a045780634caf5c7214610a395780634cdd415414610a7b57806350d7409014610abd57806352c6bbf414610b0c57806355a0a1bf14610b4957806356717c7914610b82578063582f30b414610bb65780635abec84714610bf35780635e0d4aa914610c1f57806362bc354714610c4b57806365a6b14d14610c77578063675a4ef014610cb457806367ea4be214610d385780636d1d1e5614610d7a5780636e2d580514610db3578063706853de14610dec5780637436b4e814610e2d57806377ed072f14610e7357806379355bf414610ea85780637a36245814610eea5780637ee0a58314610f2c5780638780ec5414610f7757806387fca8a614610fb95780638c8e985c146110305780638dc8bc2b1461106957806390716d41146110b857806393e65fb7146111195780639500c08e1461115657806395108fc81461118f578063966277fb146111c45780639682eb121461120e5780639f9b1c981461126a578063a48a7fbb146112a3578063a7b9777c146112e5578063a87c11211461135c578063a9786fe5146113a2578063b0c29efb146113db578063b0d6b1cc14611440578063b197bf0b1461149c578063b598c31a146114c8578063b894bf9314611524578063bd25ecbf14611550578063bd3d106f1461157c578063be4517ef146115b1578063bed5fa9a146115fb578063bf8a2ac614611634578063bfbfe9d914611683578063c3338488146116c5578063c4e2ba331461171d578063c501bf5614611767578063c5549126146117cc578063cc71a88d14611801578063cd4292a71461183a578063cf06689d14611873578063d2e98bca146118b4578063d3209ca0146118f1578063d372d5f61461192a578063d61488b714611963578063d70fcee4146119b1578063d9970ab3146119e6578063dbcdc19d14611a12578063dc96b2fa14611a53578063de2c312e14611a87578063dfffdce314611ac9578063e29ae7ac14611b0f578063e837332314611b3b578063e8e7fed214611b70578063ec40b89714611b9c578063f1f9d1c414611bd1578063f46574aa14611c1f578063fa8a047414611c77578063facf138e14611cb4578063fbec360f14611ced578063fcc7e24714611d2e575b600080fd5b61049f600480803590602001909190803560001916906020019091905050611d67565b6040518082815260200191505060405180910390f35b6104d8600480803590602001909190803560001916906020019091905050611d96565b6040518082815260200191505060405180910390f35b6105046004808035906020019091905050611dad565b6040518082815260200191505060405180910390f35b61053d600480803590602001909190803560001916906020019091905050611dc2565b6040518082815260200191505060405180910390f35b6105696004808035906020019091905050611df5565b6040518082815260200191505060405180910390f35b6105956004808035906020019091905050611e0e565b6040518082815260200191505060405180910390f35b6105ce600480803590602001909190803560001916906020019091905050611e23565b60405180826000191660001916815260200191505060405180910390f35b61060b6004808035906020019091908035906020019091905050611e6b565b6040518082815260200191505060405180910390f35b6106406004808035906020019091908035906020019091905050611ed4565b604051808215151515815260200191505060405180910390f35b61069c60048080359060200190919080356000191690602001909190803573ffffffffffffffffffffffffffffffffffffffff16906020019091905050611eee565b604051808273ffffffffffffffffffffffffffffffffffffffff1673ffffffffffffffffffffffffffffffffffffffff16815260200191505060405180910390f35b6106f46004808035906020019091905050611f3c565b6040518082815260200191505060405180910390f35b6107206004808035906020019091905050611f51565b60405180826000191660001916815260200191505060405180910390f35b61075d6004808035906020019091908035906020019091905050611f66565b6040518082815260200191505060405180910390f35b610796600480803590602001909190803560001916906020019091905050611f7d565b60405180826000191660001916815260200191505060405180910390f35b6107ca6004808035906020019091905050611f94565b60405180826000191660001916815260200191505060405180910390f35b6108076004808035906020019091908035906020019091905050611fcb565b6040518082815260200191505060405180910390f35b610849600480803590602001909190803560001916906020019091908035906020019091905050612034565b604051808215151515815260200191505060405180910390f35b610886600480803590602001909190803560001916906020019091905050612068565b6040518082815260200191505060405180910390f35b6108b26004808035906020019091905050612097565b6040518082815260200191505060405180910390f35b6108eb6004808035906020019091908035600019169060200190919050506120ac565b6040518082815260200191505060405180910390f35b6109206004808035906020019091908035906020019091905050612113565b6040518082815260200191505060405180910390f35b610962600480803590602001909190803560001916906020019091908035906020019091905050612131565b604051808215151515815260200191505060405180910390f35b6109a8600480803590602001909190803560001916906020019091908035906020019091905050612162565b6040518082815260200191505060405180910390f35b6109ea600480803590602001909190803560001916906020019091908035906020019091905050612193565b604051808215151515815260200191505060405180910390f35b610a2360048080359060200190919080359060200190919050506121c4565b6040518082815260200191505060405180910390f35b610a656004808035906020019091908035600019169060200190919080359060200190919050506121db565b6040518082815260200191505060405180910390f35b610aa7600480803590602001909190803560001916906020019091908035906020019091905050612213565b6040518082815260200191505060405180910390f35b610af2600480803590602001909190803573ffffffffffffffffffffffffffffffffffffffff16906020019091905050612248565b604051808215151515815260200191505060405180910390f35b610b2f600480803590602001909190803560001916906020019091905050612278565b604051808215151515815260200191505060405180910390f35b610b6c60048080359060200190919080356000191690602001909190505061228f565b6040518082815260200191505060405180910390f35b610b9860048080359060200190919050506122be565b60405180826000191660001916815260200191505060405180910390f35b610bd96004808035906020019091908035600019169060200190919050506122d3565b604051808215151515815260200191505060405180910390f35b610c0960048080359060200190919050506122ea565b6040518082815260200191505060405180910390f35b610c3560048080359060200190919050506122ff565b6040518082815260200191505060405180910390f35b610c616004808035906020019091905050612318565b6040518082815260200191505060405180910390f35b610c9a60048080359060200190919080356000191690602001909190505061232d565b604051808215151515815260200191505060405180910390f35b610cf660048080359060200190919080356000191690602001909190803573ffffffffffffffffffffffffffffffffffffffff16906020019091905050612344565b604051808273ffffffffffffffffffffffffffffffffffffffff1673ffffffffffffffffffffffffffffffffffffffff16815260200191505060405180910390f35b610d64600480803590602001909190803560001916906020019091908035906020019091905050612392565b6040518082815260200191505060405180910390f35b610d9d6004808035906020019091908035600019169060200190919050506123c6565b6040518082815260200191505060405180910390f35b610dd66004808035906020019091908035600019169060200190919050506123f5565b6040518082815260200191505060405180910390f35b610e0f600480803590602001909190803560001916906020019091905050612424565b60405180826000191660001916815260200191505060405180910390f35b610e59600480803590602001909190803560001916906020019091908035906020019091905050612453565b604051808215151515815260200191505060405180910390f35b610e926004808035906020019091908035906020019091905050612484565b6040518082815260200191505060405180910390f35b610ed460048080359060200190919080356000191690602001909190803590602001909190505061249e565b6040518082815260200191505060405180910390f35b610f166004808035906020019091908035600019169060200190919080359060200190919050506124cf565b6040518082815260200191505060405180910390f35b610f61600480803590602001909190803573ffffffffffffffffffffffffffffffffffffffff16906020019091905050612500565b6040518082815260200191505060405180910390f35b610fa3600480803590602001909190803560001916906020019091908035906020019091905050612530565b6040518082815260200191505060405180910390f35b610fee600480803590602001909190803573ffffffffffffffffffffffffffffffffffffffff16906020019091905050612561565b604051808273ffffffffffffffffffffffffffffffffffffffff1673ffffffffffffffffffffffffffffffffffffffff16815260200191505060405180910390f35b611053600480803590602001909190803560001916906020019091905050612595565b6040518082815260200191505060405180910390f35b61109e600480803590602001909190803573ffffffffffffffffffffffffffffffffffffffff169060200190919050506125c4565b604051808215151515815260200191505060405180910390f35b6110d760048080359060200190919080359060200190919050506125f4565b604051808273ffffffffffffffffffffffffffffffffffffffff1673ffffffffffffffffffffffffffffffffffffffff16815260200191505060405180910390f35b61113c60048080359060200190919080356000191690602001909190505061260f565b604051808215151515815260200191505060405180910390f35b611175600480803590602001909190803590602001909190505061265e565b604051808215151515815260200191505060405180910390f35b6111ae6004808035906020019091908035906020019091905050612678565b6040518082815260200191505060405180910390f35b6111f46004808035906020019091908035600019169060200190919080356000191690602001909190505061268f565b604051808215151515815260200191505060405180910390f35b61125060048080359060200190919080356000191690602001909190803573ffffffffffffffffffffffffffffffffffffffff169060200190919050506126c0565b604051808215151515815260200191505060405180910390f35b61128d60048080359060200190919080356000191690602001909190505061270a565b6040518082815260200191505060405180910390f35b6112cf60048080359060200190919080356000191690602001909190803590602001909190505061273d565b6040518082815260200191505060405180910390f35b61131a600480803590602001909190803573ffffffffffffffffffffffffffffffffffffffff1690602001909190505061276e565b604051808273ffffffffffffffffffffffffffffffffffffffff1673ffffffffffffffffffffffffffffffffffffffff16815260200191505060405180910390f35b6113886004808035906020019091908035600019169060200190919080359060200190919050506127a2565b604051808215151515815260200191505060405180910390f35b6113c160048080359060200190919080359060200190919050506127d6565b604051808215151515815260200191505060405180910390f35b6113fe600480803590602001909190803560001916906020019091905050612803565b604051808273ffffffffffffffffffffffffffffffffffffffff1673ffffffffffffffffffffffffffffffffffffffff16815260200191505060405180910390f35b61148260048080359060200190919080356000191690602001909190803573ffffffffffffffffffffffffffffffffffffffff16906020019091905050612836565b604051808215151515815260200191505060405180910390f35b6114b26004808035906020019091905050612880565b6040518082815260200191505060405180910390f35b61150a60048080359060200190919080356000191690602001909190803573ffffffffffffffffffffffffffffffffffffffff16906020019091905050612891565b604051808215151515815260200191505060405180910390f35b61153a60048080359060200190919050506128db565b6040518082815260200191505060405180910390f35b61156660048080359060200190919050506128ec565b6040518082815260200191505060405180910390f35b61159b6004808035906020019091908035906020019091905050612901565b6040518082815260200191505060405180910390f35b6115e160048080359060200190919080356000191690602001909190803560001916906020019091905050612918565b604051808215151515815260200191505060405180910390f35b61161a6004808035906020019091908035906020019091905050612949565b604051808215151515815260200191505060405180910390f35b611669600480803590602001909190803573ffffffffffffffffffffffffffffffffffffffff16906020019091905050612960565b604051808215151515815260200191505060405180910390f35b6116af600480803590602001909190803560001916906020019091908035906020019091905050612990565b6040518082815260200191505060405180910390f35b6116db60048080359060200190919050506129c8565b604051808273ffffffffffffffffffffffffffffffffffffffff1673ffffffffffffffffffffffffffffffffffffffff16815260200191505060405180910390f35b61174d600480803590602001909190803560001916906020019091908035600019169060200190919050506129e1565b604051808215151515815260200191505060405180910390f35b61178a600480803590602001909190803560001916906020019091905050612a12565b604051808273ffffffffffffffffffffffffffffffffffffffff1673ffffffffffffffffffffffffffffffffffffffff16815260200191505060405180910390f35b6117eb6004808035906020019091908035906020019091905050612a45565b6040518082815260200191505060405180910390f35b6118206004808035906020019091908035906020019091905050612a5c565b604051808215151515815260200191505060405180910390f35b61185d600480803590602001909190803560001916906020019091905050612a73565b6040518082815260200191505060405180910390f35b611896600480803590602001909190803560001916906020019091905050612aa2565b60405180826000191660001916815260200191505060405180910390f35b6118d36004808035906020019091908035906020019091905050612ab9565b60405180826000191660001916815260200191505060405180910390f35b611914600480803590602001909190803560001916906020019091905050612b25565b6040518082815260200191505060405180910390f35b6119496004808035906020019091908035906020019091905050612b54565b604051808215151515815260200191505060405180910390f35b61199360048080359060200190919080356000191690602001909190803560001916906020019091905050612b6e565b60405180826000191660001916815260200191505060405180910390f35b6119d06004808035906020019091908035906020019091905050612b9f565b6040518082815260200191505060405180910390f35b6119fc6004808035906020019091905050612bb6565b6040518082815260200191505060405180910390f35b611a35600480803590602001909190803560001916906020019091905050612bcb565b60405180826000191660001916815260200191505060405180910390f35b611a696004808035906020019091905050612bfa565b60405180826000191660001916815260200191505060405180910390f35b611ab3600480803590602001909190803560001916906020019091908035906020019091905050612c31565b6040518082815260200191505060405180910390f35b611af5600480803590602001909190803560001916906020019091908035906020019091905050612c62565b604051808215151515815260200191505060405180910390f35b611b256004808035906020019091905050612c96565b6040518082815260200191505060405180910390f35b611b5a6004808035906020019091908035906020019091905050612ca4565b6040518082815260200191505060405180910390f35b611b866004808035906020019091905050612cbf565b6040518082815260200191505060405180910390f35b611bbb6004808035906020019091908035906020019091905050612cd4565b6040518082815260200191505060405180910390f35b611c0160048080359060200190919080356000191690602001909190803560001916906020019091905050612cf2565b60405180826000191660001916815260200191505060405180910390f35b611c356004808035906020019091905050612d23565b604051808273ffffffffffffffffffffffffffffffffffffffff1673ffffffffffffffffffffffffffffffffffffffff16815260200191505060405180910390f35b611c966004808035906020019091908035906020019091905050612d3c565b60405180826000191660001916815260200191505060405180910390f35b611cd36004808035906020019091908035906020019091905050612d53565b604051808215151515815260200191505060405180910390f35b611d10600480803590602001909190803560001916906020019091905050612d6a565b60405180826000191660001916815260200191505060405180910390f35b611d51600480803590602001909190803560001916906020019091905050612db2565b6040518082815260200191505060405180910390f35b6000611d8e83600001600084600019166000191681526020019081526020016000206128db565b905092915050565b6000611da583600001836120ac565b905092915050565b6000611dbb82600001612c96565b9050919050565b6000611de98360000160008460001916600019168152602001908152602001600020612bfa565b60019004905092915050565b6000611e0382600001612bfa565b600190049050919050565b6000611e1c82600001612c96565b9050919050565b6000806000611e3285856120ac565b9150600082141515611e5b57611e488583611fcb565b9050611e548582612ab9565b9250611e63565b600060010292505b505092915050565b60006001151583600401600084815260200190815260200160002060009054906101000a900460ff1615151415611ec9578260050160018303815481101515611eb057fe5b9060005260206000209060030201600201549050611ece565b600090505b92915050565b6000611ee68360000183600102612de1565b905092915050565b6000611f2f84600001600085600019166000191681526020019081526020016000208373ffffffffffffffffffffffffffffffffffffffff16600102611e23565b6001900490509392505050565b6000611f4a82600001612880565b9050919050565b6000611f5f82600001611f94565b9050919050565b6000611f758360000183611fcb565b905092915050565b6000611f8c8360000183611e23565b905092915050565b600080611fa083612880565b9050600081141515611fbd57611fb68382612ab9565b9150611fc5565b600060010291505b50919050565b60006001151583600401600084815260200190815260200160002060009054906101000a900460ff161515141561202957826005016001830381548110151561201057fe5b906000526020600020906003020160010154905061202e565b600090505b92915050565b600061205f84600001600085600019166000191681526020019081526020016000208360010261260f565b90509392505050565b600061208f8360000160008460001916600019168152602001908152602001600020612880565b905092915050565b60006120a582600001612c96565b9050919050565b6000808360030160008460001916600019168152602001908152602001600020541480156120de575060008360020154145b156120ec576000905061210d565b82600301600083600019166000191681526020019081526020016000205490505b92915050565b60006121258360000183600102611e23565b60019004905092915050565b60006121598460000160008560001916600019168152602001908152602001600020836127d6565b90509392505050565b600061218a846000016000856000191660001916815260200190815260200160002083611e6b565b90509392505050565b60006121bb8460000160008560001916600019168152602001908152602001600020836127d6565b90509392505050565b60006121d38360000183611fcb565b905092915050565b6000612206846000016000856000191660001916815260200190815260200160002083600102612d6a565b6001900490509392505050565b600061223b846000016000856000191660001916815260200190815260200160002083612ab9565b6001900490509392505050565b6000612270836000018373ffffffffffffffffffffffffffffffffffffffff1660010261260f565b905092915050565b60006122878360000183612de1565b905092915050565b60006122b68360000160008460001916600019168152602001908152602001600020612c96565b905092915050565b60006122cc82600001612bfa565b9050919050565b60006122e28360000183612e27565b905092915050565b60006122f8826000016128db565b9050919050565b600061230d82600001611f94565b600190049050919050565b6000612326826000016128db565b9050919050565b600061233c836000018361260f565b905092915050565b600061238584600001600085600019166000191681526020019081526020016000208373ffffffffffffffffffffffffffffffffffffffff16600102612d6a565b6001900490509392505050565b60006123bd8460000160008560001916600019168152602001908152602001600020836001026120ac565b90509392505050565b60006123ed8360000160008460001916600019168152602001908152602001600020612880565b905092915050565b600061241c8360000160008460001916600019168152602001908152602001600020612c96565b905092915050565b600061244b8360000160008460001916600019168152602001908152602001600020612bfa565b905092915050565b600061247b8460000160008560001916600019168152602001908152602001600020836127d6565b90509392505050565b600061249683600001836001026120ac565b905092915050565b60006124c6846000016000856000191660001916815260200190815260200160002083611fcb565b90509392505050565b60006124f7846000016000856000191660001916815260200190815260200160002083611fcb565b90509392505050565b6000612528836000018373ffffffffffffffffffffffffffffffffffffffff166001026120ac565b905092915050565b6000612558846000016000856000191660001916815260200190815260200160002083611fcb565b90509392505050565b6000612589836000018373ffffffffffffffffffffffffffffffffffffffff16600102611e23565b60019004905092915050565b60006125bc8360000160008460001916600019168152602001908152602001600020612880565b905092915050565b60006125ec836000018373ffffffffffffffffffffffffffffffffffffffff16600102612de1565b905092915050565b60006126038360000183612ab9565b60019004905092915050565b600080836003016000846000191660001916815260200190815260200160002054905083600401600082815260200190815260200160002060009054906101000a900460ff1691505092915050565b6000612670836000018360010261260f565b905092915050565b60006126878360000183611e6b565b905092915050565b60006126b7846000016000856000191660001916815260200190815260200160002083612e27565b90509392505050565b600061270184600001600085600019166000191681526020019081526020016000208373ffffffffffffffffffffffffffffffffffffffff16600102612e27565b90509392505050565b60006127318360000160008460001916600019168152602001908152602001600020611f94565b60019004905092915050565b6000612765846000016000856000191660001916815260200190815260200160002083611e6b565b90509392505050565b6000612796836000018373ffffffffffffffffffffffffffffffffffffffff16600102612d6a565b60019004905092915050565b60006127cd846000016000856000191660001916815260200190815260200160002083600102612de1565b90509392505050565b600082600401600083815260200190815260200160002060009054906101000a900460ff16905092915050565b600061282a8360000160008460001916600019168152602001908152602001600020612bfa565b60019004905092915050565b600061287784600001600085600019166000191681526020019081526020016000208373ffffffffffffffffffffffffffffffffffffffff1660010261260f565b90509392505050565b600081600101549050809050919050565b60006128d284600001600085600019166000191681526020019081526020016000208373ffffffffffffffffffffffffffffffffffffffff16600102612de1565b90509392505050565b600081600001549050809050919050565b60006128fa82600001612880565b9050919050565b60006129108360000183611fcb565b905092915050565b6000612940846000016000856000191660001916815260200190815260200160002083612de1565b90509392505050565b600061295883600001836127d6565b905092915050565b6000612988836000018373ffffffffffffffffffffffffffffffffffffffff16600102612e27565b905092915050565b60006129bb846000016000856000191660001916815260200190815260200160002083600102611e23565b6001900490509392505050565b60006129d682600001612bfa565b600190049050919050565b6000612a0984600001600085600019166000191681526020019081526020016000208361260f565b90509392505050565b6000612a398360000160008460001916600019168152602001908152602001600020611f94565b60019004905092915050565b6000612a548360000183611e6b565b905092915050565b6000612a6b83600001836127d6565b905092915050565b6000612a9a83600001600084600019166000191681526020019081526020016000206128db565b905092915050565b6000612ab18360000183612d6a565b905092915050565b60006001151583600401600084815260200190815260200160002060009054906101000a900460ff1615151415612b17578260050160018303815481101515612afe57fe5b9060005260206000209060030201600001549050612b1f565b600060010290505b92915050565b6000612b4c8360000160008460001916600019168152602001908152602001600020612c96565b905092915050565b6000612b668360000183600102612e27565b905092915050565b6000612b96846000016000856000191660001916815260200190815260200160002083611e23565b90509392505050565b6000612bae8360000183611e6b565b905092915050565b6000612bc482600001612880565b9050919050565b6000612bf28360000160008460001916600019168152602001908152602001600020611f94565b905092915050565b600080612c06836128db565b9050600081141515612c2357612c1c8382612ab9565b9150612c2b565b600060010291505b50919050565b6000612c59846000016000856000191660001916815260200190815260200160002083611e6b565b90509392505050565b6000612c8d846000016000856000191660001916815260200190815260200160002083600102612e27565b90509392505050565b600081600201549050919050565b6000612cb38360000183612ab9565b60019004905092915050565b6000612ccd826000016128db565b9050919050565b6000612ce68360000183600102612d6a565b60019004905092915050565b6000612d1a846000016000856000191660001916815260200190815260200160002083612d6a565b90509392505050565b6000612d3182600001611f94565b600190049050919050565b6000612d4b8360000183612ab9565b905092915050565b6000612d6283600001836127d6565b905092915050565b6000806000612d7985856120ac565b9150600082141515612da257612d8f8583611e6b565b9050612d9b8582612ab9565b9250612daa565b600060010292505b505092915050565b6000612dd983600001600084600019166000191681526020019081526020016000206128db565b905092915050565b600080612dee84846120ac565b9050600081141515612e1857612e048482612fc7565b1515612e0f57600080fd5b60019150612e1d565b600091505b8191505092915050565b6000806000612e3685856120ac565b141580612e4a575060008019168360001916145b15612e585760009150612fc0565b836005018054806001018281612e6e91906131b4565b9160005260206000209060030201600060606040519081016040528087600019168152602001886001015481526020016000815250909190915060008201518160000190600019169055602082015181600101556040820151816002015550509050600084600101541415612f1f5760008460000154141580612ef657506000846002015414155b15612f0057600080fd5b8084600101819055846000018190555060018460020181905550612f6b565b80846005016001866001015403815481101515612f3857fe5b90600052602060002090600302016002018190555080846001018190555083600201600081548092919060010191905055505b600184600401600083815260200190815260200160002060006101000a81548160ff02191690831515021790555080846003016000856000191660001916815260200190815260200160002081905550600191505b5092915050565b6000612fd16131e6565b6001151584600401600085815260200190815260200160002060009054906101000a900460ff16151514156131a857836005016001840381548110151561301457fe5b90600052602060002090600302016060604051908101604052908160008201546000191660001916815260200160018201548152602001600282015481525050905060008160200151141561307557806040015184600001819055506130a8565b806040015184600501600183602001510381548110151561309257fe5b9060005260206000209060030201600201819055505b6000816040015114156130c757806020015184600101819055506130fa565b80602001518460050160018360400151038154811015156130e457fe5b9060005260206000209060030201600101819055505b836005016001840381548110151561310e57fe5b9060005260206000209060030201600080820160009055600182016000905560028201600090555050600084600401600085815260200190815260200160002060006101000a81548160ff02191690831515021790555083600301600082600001516000191660001916815260200190815260200160002060009055836002016000815480929190600190039190505550600191506131ad565b600091505b5092915050565b8154818355818115116131e1576003028160030283600052602060002091820191016131e0919061320b565b5b505050565b6060604051908101604052806000801916815260200160008152602001600081525090565b61323f91905b8082111561323b576000808201600090556001820160009055600282016000905550600301613211565b5090565b905600a165627a7a7230582090f85d89bda04ed6368ec66dffcc5e0abfa5322fda67076755641ad983c886ac0029",
  "source": "pragma solidity ^0.4.19;\n\nlibrary DoublyLinkedList {\n\n  struct Item {\n    bytes32 item;\n    uint256 previous_index;\n    uint256 next_index;\n  }\n\n  struct Data {\n    uint256 first_index;\n    uint256 last_index;\n    uint256 count;\n    mapping(bytes32 => uint256) item_index;\n    mapping(uint256 => bool) valid_indexes;\n    Item[] collection;\n  }\n\n  struct IndexedUint {\n    mapping(bytes32 => Data) data;\n  }\n\n  struct IndexedAddress {\n    mapping(bytes32 => Data) data;\n  }\n\n  struct IndexedBytes {\n    mapping(bytes32 => Data) data;\n  }\n\n  struct Address {\n    Data data;\n  }\n\n  struct Bytes {\n    Data data;\n  }\n\n  struct Uint {\n    Data data;\n  }\n\n  uint256 constant NONE = uint256(0);\n  bytes32 constant EMPTY_BYTES = bytes32(0x0);\n  address constant NULL_ADDRESS = address(0x0);\n\n  function find(Data storage self, bytes32 _item)\n           public\n           constant\n           returns (uint256 _item_index)\n  {\n    if ((self.item_index[_item] == NONE) && (self.count == NONE)) {\n      _item_index = NONE;\n    } else {\n      _item_index = self.item_index[_item];\n    }\n  }\n\n  function get(Data storage self, uint256 _item_index)\n           public\n           constant\n           returns (bytes32 _item)\n  {\n    if (self.valid_indexes[_item_index] == true) {\n      _item = self.collection[_item_index - 1].item;\n    } else {\n      _item = EMPTY_BYTES;\n    }\n  }\n\n  function append(Data storage self, bytes32 _data)\n           internal\n           returns (bool _success)\n  {\n    if (find(self, _data) != NONE || _data == bytes32(\"\")) { // rejects addition of empty values\n      _success = false;\n    } else {\n      var _index = uint256(self.collection.push(Item({item: _data, previous_index: self.last_index, next_index: NONE})));\n      if (self.last_index == NONE) {\n        if ((self.first_index != NONE) || (self.count != NONE)) {\n          revert();\n        } else {\n          self.first_index = self.last_index = _index;\n          self.count = 1;\n        }\n      } else {\n        self.collection[self.last_index - 1].next_index = _index;\n        self.last_index = _index;\n        self.count++;\n      }\n      self.valid_indexes[_index] = true;\n      self.item_index[_data] = _index;\n      _success = true;\n    }\n  }\n\n  function remove(Data storage self, uint256 _index)\n           internal\n           returns (bool _success)\n  {\n    if (self.valid_indexes[_index] == true) {\n      Item memory item = self.collection[_index - 1];\n      if (item.previous_index == NONE) {\n        self.first_index = item.next_index;\n      } else {\n        self.collection[item.previous_index - 1].next_index = item.next_index;\n      }\n\n      if (item.next_index == NONE) {\n        self.last_index = item.previous_index;\n      } else {\n        self.collection[item.next_index - 1].previous_index = item.previous_index;\n      }\n      delete self.collection[_index - 1];\n      self.valid_indexes[_index] = false;\n      delete self.item_index[item.item];\n      self.count--;\n      _success = true;\n    } else {\n      _success = false;\n    }\n  }\n\n  function remove_item(Data storage self, bytes32 _item)\n           internal\n           returns (bool _success)\n  {\n    uint256 _item_index = find(self, _item);\n    if (_item_index != NONE) {\n      require(remove(self, _item_index));\n      _success = true;\n    } else {\n      _success = false;\n    }\n    return _success;\n  }\n\n  function total(Data storage self)\n           public\n           constant\n           returns (uint256 _total_count)\n  {\n    _total_count = self.count;\n  }\n\n  function start(Data storage self)\n           public\n           constant\n           returns (uint256 _item_index)\n  {\n    _item_index = self.first_index;\n    return _item_index;\n  }\n\n  function start_item(Data storage self)\n           public\n           constant\n           returns (bytes32 _item)\n  {\n    uint256 _item_index = start(self);\n    if (_item_index != NONE) {\n      _item = get(self, _item_index);\n    } else {\n      _item = EMPTY_BYTES;\n    }\n  }\n\n  function end(Data storage self)\n           public\n           constant\n           returns (uint256 _item_index)\n  {\n    _item_index = self.last_index;\n    return _item_index;\n  }\n\n  function end_item(Data storage self)\n           public\n           constant\n           returns (bytes32 _item)\n  {\n    uint256 _item_index = end(self);\n    if (_item_index != NONE) {\n      _item = get(self, _item_index);\n    } else {\n      _item = EMPTY_BYTES;\n    }\n  }\n\n  function valid(Data storage self, uint256 _item_index)\n           public\n           constant\n           returns (bool _yes)\n  {\n    _yes = self.valid_indexes[_item_index];\n    //_yes = ((_item_index - 1) < self.collection.length);\n  }\n\n  function valid_item(Data storage self, bytes32 _item)\n           public\n           constant\n           returns (bool _yes)\n  {\n    uint256 _item_index = self.item_index[_item];\n    _yes = self.valid_indexes[_item_index];\n  }\n\n  function previous(Data storage self, uint256 _current_index)\n           public\n           constant\n           returns (uint256 _previous_index)\n  {\n    if (self.valid_indexes[_current_index] == true) {\n      _previous_index = self.collection[_current_index - 1].previous_index;\n    } else {\n      _previous_index = NONE;\n    }\n  }\n\n  function previous_item(Data storage self, bytes32 _current_item)\n           public\n           constant\n           returns (bytes32 _previous_item)\n  {\n    uint256 _current_index = find(self, _current_item);\n    if (_current_index != NONE) {\n      uint256 _previous_index = previous(self, _current_index);\n      _previous_item = get(self, _previous_index);\n    } else {\n      _previous_item = EMPTY_BYTES;\n    }\n  }\n\n  function next(Data storage self, uint256 _current_index)\n           public\n           constant\n           returns (uint256 _next_index)\n  {\n    if (self.valid_indexes[_current_index] == true) {\n      _next_index = self.collection[_current_index - 1].next_index;\n    } else {\n      _next_index = NONE;\n    }\n  }\n\n  function next_item(Data storage self, bytes32 _current_item)\n           public\n           constant\n           returns (bytes32 _next_item)\n  {\n    uint256 _current_index = find(self, _current_item);\n    if (_current_index != NONE) {\n      uint256 _next_index = next(self, _current_index);\n      _next_item = get(self, _next_index);\n    } else {\n      _next_item = EMPTY_BYTES;\n    }\n  }\n\n  function find(Uint storage self, uint256 _item)\n           public\n           constant\n           returns (uint256 _item_index)\n  {\n    _item_index = find(self.data, bytes32(_item));\n  }\n\n  function get(Uint storage self, uint256 _item_index)\n           public\n           constant\n           returns (uint256 _item)\n  {\n    _item = uint256(get(self.data, _item_index));\n  }\n\n\n  function append(Uint storage self, uint256 _data)\n           public\n           returns (bool _success)\n  {\n    _success = append(self.data, bytes32(_data));\n  }\n\n  function remove(Uint storage self, uint256 _index)\n           internal\n           returns (bool _success)\n  {\n    _success = remove(self.data, _index);\n  }\n\n  function remove_item(Uint storage self, uint256 _item)\n           public\n           returns (bool _success)\n  {\n    _success = remove_item(self.data, bytes32(_item));\n  }\n\n  function total(Uint storage self)\n           public\n           constant\n           returns (uint256 _total_count)\n  {\n    _total_count = total(self.data);\n  }\n\n  function start(Uint storage self)\n           public\n           constant\n           returns (uint256 _index)\n  {\n    _index = start(self.data);\n  }\n\n  function start_item(Uint storage self)\n           public\n           constant\n           returns (uint256 _start_item)\n  {\n    _start_item = uint256(start_item(self.data));\n  }\n\n\n  function end(Uint storage self)\n           public\n           constant\n           returns (uint256 _index)\n  {\n    _index = end(self.data);\n  }\n\n  function end_item(Uint storage self)\n           public\n           constant\n           returns (uint256 _end_item)\n  {\n    _end_item = uint256(end_item(self.data));\n  }\n\n  function valid(Uint storage self, uint256 _item_index)\n           public\n           constant\n           returns (bool _yes)\n  {\n    _yes = valid(self.data, _item_index);\n  }\n\n  function valid_item(Uint storage self, uint256 _item)\n           public\n           constant\n           returns (bool _yes)\n  {\n    _yes = valid_item(self.data, bytes32(_item));\n  }\n\n  function previous(Uint storage self, uint256 _current_index)\n           public\n           constant\n           returns (uint256 _previous_index)\n  {\n    _previous_index = previous(self.data, _current_index);\n  }\n\n  function previous_item(Uint storage self, uint256 _current_item)\n           public\n           constant\n           returns (uint256 _previous_item)\n  {\n    _previous_item = uint256(previous_item(self.data, bytes32(_current_item)));\n  }\n\n  function next(Uint storage self, uint256 _current_index)\n           public\n           constant\n           returns (uint256 _next_index)\n  {\n    _next_index = next(self.data, _current_index);\n  }\n\n  function next_item(Uint storage self, uint256 _current_item)\n           public\n           constant\n           returns (uint256 _next_item)\n  {\n    _next_item = uint256(next_item(self.data, bytes32(_current_item)));\n  }\n\n  function find(Address storage self, address _item)\n           public\n           constant\n           returns (uint256 _item_index)\n  {\n    _item_index = find(self.data, bytes32(_item));\n  }\n\n  function get(Address storage self, uint256 _item_index)\n           public\n           constant\n           returns (address _item)\n  {\n    _item = address(get(self.data, _item_index));\n  }\n\n\n  function find(IndexedUint storage self, bytes32 _collection_index, uint256 _item)\n           public\n           constant\n           returns (uint256 _item_index)\n  {\n    _item_index = find(self.data[_collection_index], bytes32(_item));\n  }\n\n  function get(IndexedUint storage self, bytes32 _collection_index, uint256 _item_index)\n           public\n           constant\n           returns (uint256 _item)\n  {\n    _item = uint256(get(self.data[_collection_index], _item_index));\n  }\n\n\n  function append(IndexedUint storage self, bytes32 _collection_index, uint256 _data)\n           public\n           returns (bool _success)\n  {\n    _success = append(self.data[_collection_index], bytes32(_data));\n  }\n\n  function remove(IndexedUint storage self, bytes32 _collection_index, uint256 _index)\n           internal\n           returns (bool _success)\n  {\n    _success = remove(self.data[_collection_index], _index);\n  }\n\n  function remove_item(IndexedUint storage self, bytes32 _collection_index, uint256 _item)\n           public\n           returns (bool _success)\n  {\n    _success = remove_item(self.data[_collection_index], bytes32(_item));\n  }\n\n  function total(IndexedUint storage self, bytes32 _collection_index)\n           public\n           constant\n           returns (uint256 _total_count)\n  {\n    _total_count = total(self.data[_collection_index]);\n  }\n\n  function start(IndexedUint storage self, bytes32 _collection_index)\n           public\n           constant\n           returns (uint256 _index)\n  {\n    _index = start(self.data[_collection_index]);\n  }\n\n  function start_item(IndexedUint storage self, bytes32 _collection_index)\n           public\n           constant\n           returns (uint256 _start_item)\n  {\n    _start_item = uint256(start_item(self.data[_collection_index]));\n  }\n\n\n  function end(IndexedUint storage self, bytes32 _collection_index)\n           public\n           constant\n           returns (uint256 _index)\n  {\n    _index = end(self.data[_collection_index]);\n  }\n\n  function end_item(IndexedUint storage self, bytes32 _collection_index)\n           public\n           constant\n           returns (uint256 _end_item)\n  {\n    _end_item = uint256(end_item(self.data[_collection_index]));\n  }\n\n  function valid(IndexedUint storage self, bytes32 _collection_index, uint256 _item_index)\n           public\n           constant\n           returns (bool _yes)\n  {\n    _yes = valid(self.data[_collection_index], _item_index);\n  }\n\n  function valid_item(IndexedUint storage self, bytes32 _collection_index, uint256 _item)\n           public\n           constant\n           returns (bool _yes)\n  {\n    _yes = valid_item(self.data[_collection_index], bytes32(_item));\n  }\n\n  function previous(IndexedUint storage self, bytes32 _collection_index, uint256 _current_index)\n           public\n           constant\n           returns (uint256 _previous_index)\n  {\n    _previous_index = previous(self.data[_collection_index], _current_index);\n  }\n\n  function previous_item(IndexedUint storage self, bytes32 _collection_index, uint256 _current_item)\n           public\n           constant\n           returns (uint256 _previous_item)\n  {\n    _previous_item = uint256(previous_item(self.data[_collection_index], bytes32(_current_item)));\n  }\n\n  function next(IndexedUint storage self, bytes32 _collection_index, uint256 _current_index)\n           public\n           constant\n           returns (uint256 _next_index)\n  {\n    _next_index = next(self.data[_collection_index], _current_index);\n  }\n\n  function next_item(IndexedUint storage self, bytes32 _collection_index, uint256 _current_item)\n           public\n           constant\n           returns (uint256 _next_item)\n  {\n    _next_item = uint256(next_item(self.data[_collection_index], bytes32(_current_item)));\n  }\n\n  function append(Address storage self, address _data)\n           public\n           returns (bool _success)\n  {\n    _success = append(self.data, bytes32(_data));\n  }\n\n  function remove(Address storage self, uint256 _index)\n           internal\n           returns (bool _success)\n  {\n    _success = remove(self.data, _index);\n  }\n\n\n  function remove_item(Address storage self, address _item)\n           public\n           returns (bool _success)\n  {\n    _success = remove_item(self.data, bytes32(_item));\n  }\n\n  function total(Address storage self)\n           public\n           constant\n           returns (uint256 _total_count)\n  {\n    _total_count = total(self.data);\n  }\n\n  function start(Address storage self)\n           public\n           constant\n           returns (uint256 _index)\n  {\n    _index = start(self.data);\n  }\n\n  function start_item(Address storage self)\n           public\n           constant\n           returns (address _start_item)\n  {\n    _start_item = address(start_item(self.data));\n  }\n\n\n  function end(Address storage self)\n           public\n           constant\n           returns (uint256 _index)\n  {\n    _index = end(self.data);\n  }\n\n  function end_item(Address storage self)\n           public\n           constant\n           returns (address _end_item)\n  {\n    _end_item = address(end_item(self.data));\n  }\n\n  function valid(Address storage self, uint256 _item_index)\n           public\n           constant\n           returns (bool _yes)\n  {\n    _yes = valid(self.data, _item_index);\n  }\n\n  function valid_item(Address storage self, address _item)\n           public\n           constant\n           returns (bool _yes)\n  {\n    _yes = valid_item(self.data, bytes32(_item));\n  }\n\n  function previous(Address storage self, uint256 _current_index)\n           public\n           constant\n           returns (uint256 _previous_index)\n  {\n    _previous_index = previous(self.data, _current_index);\n  }\n\n  function previous_item(Address storage self, address _current_item)\n           public\n           constant\n           returns (address _previous_item)\n  {\n    _previous_item = address(previous_item(self.data, bytes32(_current_item)));\n  }\n\n  function next(Address storage self, uint256 _current_index)\n           public\n           constant\n           returns (uint256 _next_index)\n  {\n    _next_index = next(self.data, _current_index);\n  }\n\n  function next_item(Address storage self, address _current_item)\n           public\n           constant\n           returns (address _next_item)\n  {\n    _next_item = address(next_item(self.data, bytes32(_current_item)));\n  }\n\n  function append(IndexedAddress storage self, bytes32 _collection_index, address _data)\n           public\n           returns (bool _success)\n  {\n    _success = append(self.data[_collection_index], bytes32(_data));\n  }\n\n  function remove(IndexedAddress storage self, bytes32 _collection_index, uint256 _index)\n           internal\n           returns (bool _success)\n  {\n    _success = remove(self.data[_collection_index], _index);\n  }\n\n\n  function remove_item(IndexedAddress storage self, bytes32 _collection_index, address _item)\n           public\n           returns (bool _success)\n  {\n    _success = remove_item(self.data[_collection_index], bytes32(_item));\n  }\n\n  function total(IndexedAddress storage self, bytes32 _collection_index)\n           public\n           constant\n           returns (uint256 _total_count)\n  {\n    _total_count = total(self.data[_collection_index]);\n  }\n\n  function start(IndexedAddress storage self, bytes32 _collection_index)\n           public\n           constant\n           returns (uint256 _index)\n  {\n    _index = start(self.data[_collection_index]);\n  }\n\n  function start_item(IndexedAddress storage self, bytes32 _collection_index)\n           public\n           constant\n           returns (address _start_item)\n  {\n    _start_item = address(start_item(self.data[_collection_index]));\n  }\n\n\n  function end(IndexedAddress storage self, bytes32 _collection_index)\n           public\n           constant\n           returns (uint256 _index)\n  {\n    _index = end(self.data[_collection_index]);\n  }\n\n  function end_item(IndexedAddress storage self, bytes32 _collection_index)\n           public\n           constant\n           returns (address _end_item)\n  {\n    _end_item = address(end_item(self.data[_collection_index]));\n  }\n\n  function valid(IndexedAddress storage self, bytes32 _collection_index, uint256 _item_index)\n           public\n           constant\n           returns (bool _yes)\n  {\n    _yes = valid(self.data[_collection_index], _item_index);\n  }\n\n  function valid_item(IndexedAddress storage self, bytes32 _collection_index, address _item)\n           public\n           constant\n           returns (bool _yes)\n  {\n    _yes = valid_item(self.data[_collection_index], bytes32(_item));\n  }\n\n  function previous(IndexedAddress storage self, bytes32 _collection_index, uint256 _current_index)\n           public\n           constant\n           returns (uint256 _previous_index)\n  {\n    _previous_index = previous(self.data[_collection_index], _current_index);\n  }\n\n  function previous_item(IndexedAddress storage self, bytes32 _collection_index, address _current_item)\n           public\n           constant\n           returns (address _previous_item)\n  {\n    _previous_item = address(previous_item(self.data[_collection_index], bytes32(_current_item)));\n  }\n\n  function next(IndexedAddress storage self, bytes32 _collection_index, uint256 _current_index)\n           public\n           constant\n           returns (uint256 _next_index)\n  {\n    _next_index = next(self.data[_collection_index], _current_index);\n  }\n\n  function next_item(IndexedAddress storage self, bytes32 _collection_index, address _current_item)\n           public\n           constant\n           returns (address _next_item)\n  {\n    _next_item = address(next_item(self.data[_collection_index], bytes32(_current_item)));\n  }\n\n\n  function find(Bytes storage self, bytes32 _item)\n           public\n           constant\n           returns (uint256 _item_index)\n  {\n    _item_index = find(self.data, _item);\n  }\n\n  function get(Bytes storage self, uint256 _item_index)\n           public\n           constant\n           returns (bytes32 _item)\n  {\n    _item = get(self.data, _item_index);\n  }\n\n\n  function append(Bytes storage self, bytes32 _data)\n           public\n           returns (bool _success)\n  {\n    _success = append(self.data, _data);\n  }\n\n  function remove(Bytes storage self, uint256 _index)\n           internal\n           returns (bool _success)\n  {\n    _success = remove(self.data, _index);\n  }\n\n\n  function remove_item(Bytes storage self, bytes32 _item)\n           public\n           returns (bool _success)\n  {\n    _success = remove_item(self.data, _item);\n  }\n\n  function total(Bytes storage self)\n           public\n           constant\n           returns (uint256 _total_count)\n  {\n    _total_count = total(self.data);\n  }\n\n  function start(Bytes storage self)\n           public\n           constant\n           returns (uint256 _index)\n  {\n    _index = start(self.data);\n  }\n\n  function start_item(Bytes storage self)\n           public\n           constant\n           returns (bytes32 _start_item)\n  {\n    _start_item = start_item(self.data);\n  }\n\n\n  function end(Bytes storage self)\n           public\n           constant\n           returns (uint256 _index)\n  {\n    _index = end(self.data);\n  }\n\n  function end_item(Bytes storage self)\n           public\n           constant\n           returns (bytes32 _end_item)\n  {\n    _end_item = end_item(self.data);\n  }\n\n  function valid(Bytes storage self, uint256 _item_index)\n           public\n           constant\n           returns (bool _yes)\n  {\n    _yes = valid(self.data, _item_index);\n  }\n\n  function valid_item(Bytes storage self, bytes32 _item)\n           public\n           constant\n           returns (bool _yes)\n  {\n    _yes = valid_item(self.data, _item);\n  }\n\n  function previous(Bytes storage self, uint256 _current_index)\n           public\n           constant\n           returns (uint256 _previous_index)\n  {\n    _previous_index = previous(self.data, _current_index);\n  }\n\n  function previous_item(Bytes storage self, bytes32 _current_item)\n           public\n           constant\n           returns (bytes32 _previous_item)\n  {\n    _previous_item = previous_item(self.data, _current_item);\n  }\n\n  function next(Bytes storage self, uint256 _current_index)\n           public\n           constant\n           returns (uint256 _next_index)\n  {\n    _next_index = next(self.data, _current_index);\n  }\n\n  function next_item(Bytes storage self, bytes32 _current_item)\n           public\n           constant\n           returns (bytes32 _next_item)\n  {\n    _next_item = next_item(self.data, _current_item);\n  }\n\n  function append(IndexedBytes storage self, bytes32 _collection_index, bytes32 _data)\n           public\n           returns (bool _success)\n  {\n    _success = append(self.data[_collection_index], bytes32(_data));\n  }\n\n  function remove(IndexedBytes storage self, bytes32 _collection_index, uint256 _index)\n           internal\n           returns (bool _success)\n  {\n    _success = remove(self.data[_collection_index], _index);\n  }\n\n\n  function remove_item(IndexedBytes storage self, bytes32 _collection_index, bytes32 _item)\n           public\n           returns (bool _success)\n  {\n    _success = remove_item(self.data[_collection_index], bytes32(_item));\n  }\n\n  function total(IndexedBytes storage self, bytes32 _collection_index)\n           public\n           constant\n           returns (uint256 _total_count)\n  {\n    _total_count = total(self.data[_collection_index]);\n  }\n\n  function start(IndexedBytes storage self, bytes32 _collection_index)\n           public\n           constant\n           returns (uint256 _index)\n  {\n    _index = start(self.data[_collection_index]);\n  }\n\n  function start_item(IndexedBytes storage self, bytes32 _collection_index)\n           public\n           constant\n           returns (bytes32 _start_item)\n  {\n    _start_item = bytes32(start_item(self.data[_collection_index]));\n  }\n\n\n  function end(IndexedBytes storage self, bytes32 _collection_index)\n           public\n           constant\n           returns (uint256 _index)\n  {\n    _index = end(self.data[_collection_index]);\n  }\n\n  function end_item(IndexedBytes storage self, bytes32 _collection_index)\n           public\n           constant\n           returns (bytes32 _end_item)\n  {\n    _end_item = bytes32(end_item(self.data[_collection_index]));\n  }\n\n  function valid(IndexedBytes storage self, bytes32 _collection_index, uint256 _item_index)\n           public\n           constant\n           returns (bool _yes)\n  {\n    _yes = valid(self.data[_collection_index], _item_index);\n  }\n\n  function valid_item(IndexedBytes storage self, bytes32 _collection_index, bytes32 _item)\n           public\n           constant\n           returns (bool _yes)\n  {\n    _yes = valid_item(self.data[_collection_index], bytes32(_item));\n  }\n\n  function previous(IndexedBytes storage self, bytes32 _collection_index, uint256 _current_index)\n           public\n           constant\n           returns (uint256 _previous_index)\n  {\n    _previous_index = previous(self.data[_collection_index], _current_index);\n  }\n\n  function previous_item(IndexedBytes storage self, bytes32 _collection_index, bytes32 _current_item)\n           public\n           constant\n           returns (bytes32 _previous_item)\n  {\n    _previous_item = bytes32(previous_item(self.data[_collection_index], bytes32(_current_item)));\n  }\n\n  function next(IndexedBytes storage self, bytes32 _collection_index, uint256 _current_index)\n           public\n           constant\n           returns (uint256 _next_index)\n  {\n    _next_index = next(self.data[_collection_index], _current_index);\n  }\n\n  function next_item(IndexedBytes storage self, bytes32 _collection_index, bytes32 _current_item)\n           public\n           constant\n           returns (bytes32 _next_item)\n  {\n    _next_item = bytes32(next_item(self.data[_collection_index], bytes32(_current_item)));\n  }\n\n\n}\n",
  "sourcePath": "/home/rohit/Develop/solidity-collections-library/contracts/lib/DoublyLinkedList.sol",
  "compiler": {
    "name": "solc",
    "version": "0.4.19+commit.c4cbbb05.Emscripten.clang"
  },
  "schemaVersion": "1.0.1",
  "updatedAt": "2018-03-07T03:38:46.686Z"
}