{
  "contractName": "ExampleIndexedController",
  "abi": [
    {
      "constant": true,
      "inputs": [],
      "name": "storage_contract",
      "outputs": [
        {
          "name": "",
          "type": "address"
        }
      ],
      "payable": false,
      "stateMutability": "view",
      "type": "function"
    },
    {
      "inputs": [
        {
          "name": "_storage",
          "type": "address"
        }
      ],
      "payable": false,
      "stateMutability": "nonpayable",
      "type": "constructor"
    },
    {
      "constant": true,
      "inputs": [
        {
          "name": "_collection_index",
          "type": "bytes32"
        }
      ],
      "name": "get_first_in_indexed_bytes_collection",
      "outputs": [
        {
          "name": "_item",
          "type": "bytes32"
        }
      ],
      "payable": false,
      "stateMutability": "view",
      "type": "function"
    },
    {
      "constant": true,
      "inputs": [
        {
          "name": "_collection_index",
          "type": "bytes32"
        }
      ],
      "name": "get_last_in_indexed_bytes_collection",
      "outputs": [
        {
          "name": "_item",
          "type": "bytes32"
        }
      ],
      "payable": false,
      "stateMutability": "view",
      "type": "function"
    },
    {
      "constant": true,
      "inputs": [
        {
          "name": "_collection_index",
          "type": "bytes32"
        },
        {
          "name": "_current_item",
          "type": "bytes32"
        }
      ],
      "name": "get_next_in_indexed_bytes_collection",
      "outputs": [
        {
          "name": "_item",
          "type": "bytes32"
        }
      ],
      "payable": false,
      "stateMutability": "view",
      "type": "function"
    },
    {
      "constant": true,
      "inputs": [
        {
          "name": "_collection_index",
          "type": "bytes32"
        },
        {
          "name": "_current_item",
          "type": "bytes32"
        }
      ],
      "name": "get_previous_in_indexed_bytes_collection",
      "outputs": [
        {
          "name": "_item",
          "type": "bytes32"
        }
      ],
      "payable": false,
      "stateMutability": "view",
      "type": "function"
    },
    {
      "constant": true,
      "inputs": [
        {
          "name": "_collection_index",
          "type": "bytes32"
        }
      ],
      "name": "get_total_in_indexed_bytes_collection",
      "outputs": [
        {
          "name": "_total_count",
          "type": "uint256"
        }
      ],
      "payable": false,
      "stateMutability": "view",
      "type": "function"
    },
    {
      "constant": true,
      "inputs": [
        {
          "name": "_collection_index",
          "type": "bytes32"
        }
      ],
      "name": "get_first_in_indexed_addresses_collection",
      "outputs": [
        {
          "name": "_item",
          "type": "address"
        }
      ],
      "payable": false,
      "stateMutability": "view",
      "type": "function"
    },
    {
      "constant": true,
      "inputs": [
        {
          "name": "_collection_index",
          "type": "bytes32"
        }
      ],
      "name": "get_last_in_indexed_addresses_collection",
      "outputs": [
        {
          "name": "_item",
          "type": "address"
        }
      ],
      "payable": false,
      "stateMutability": "view",
      "type": "function"
    },
    {
      "constant": true,
      "inputs": [
        {
          "name": "_collection_index",
          "type": "bytes32"
        },
        {
          "name": "_current_item",
          "type": "address"
        }
      ],
      "name": "get_next_in_indexed_addresses_collection",
      "outputs": [
        {
          "name": "_item",
          "type": "address"
        }
      ],
      "payable": false,
      "stateMutability": "view",
      "type": "function"
    },
    {
      "constant": true,
      "inputs": [
        {
          "name": "_collection_index",
          "type": "bytes32"
        },
        {
          "name": "_current_item",
          "type": "address"
        }
      ],
      "name": "get_previous_in_indexed_addresses_collection",
      "outputs": [
        {
          "name": "_item",
          "type": "address"
        }
      ],
      "payable": false,
      "stateMutability": "view",
      "type": "function"
    },
    {
      "constant": true,
      "inputs": [
        {
          "name": "_collection_index",
          "type": "bytes32"
        }
      ],
      "name": "get_total_in_indexed_addresses_collection",
      "outputs": [
        {
          "name": "_total_count",
          "type": "uint256"
        }
      ],
      "payable": false,
      "stateMutability": "view",
      "type": "function"
    },
    {
      "constant": true,
      "inputs": [
        {
          "name": "_collection_index",
          "type": "bytes32"
        }
      ],
      "name": "get_first_in_indexed_uints_collection",
      "outputs": [
        {
          "name": "_item",
          "type": "uint256"
        }
      ],
      "payable": false,
      "stateMutability": "view",
      "type": "function"
    },
    {
      "constant": true,
      "inputs": [
        {
          "name": "_collection_index",
          "type": "bytes32"
        }
      ],
      "name": "get_last_in_indexed_uints_collection",
      "outputs": [
        {
          "name": "_item",
          "type": "uint256"
        }
      ],
      "payable": false,
      "stateMutability": "view",
      "type": "function"
    },
    {
      "constant": true,
      "inputs": [
        {
          "name": "_collection_index",
          "type": "bytes32"
        },
        {
          "name": "_current_item",
          "type": "uint256"
        }
      ],
      "name": "get_next_in_indexed_uints_collection",
      "outputs": [
        {
          "name": "_item",
          "type": "uint256"
        }
      ],
      "payable": false,
      "stateMutability": "view",
      "type": "function"
    },
    {
      "constant": true,
      "inputs": [
        {
          "name": "_collection_index",
          "type": "bytes32"
        },
        {
          "name": "_current_item",
          "type": "uint256"
        }
      ],
      "name": "get_previous_in_indexed_uints_collection",
      "outputs": [
        {
          "name": "_item",
          "type": "uint256"
        }
      ],
      "payable": false,
      "stateMutability": "view",
      "type": "function"
    },
    {
      "constant": true,
      "inputs": [
        {
          "name": "_collection_index",
          "type": "bytes32"
        }
      ],
      "name": "get_total_in_indexed_uints_collection",
      "outputs": [
        {
          "name": "_total_count",
          "type": "uint256"
        }
      ],
      "payable": false,
      "stateMutability": "view",
      "type": "function"
    }
  ],
  "bytecode": "0x608060405234801561001057600080fd5b506040516020806114dc83398101806040528101908080519060200190929190505050806000806101000a81548173ffffffffffffffffffffffffffffffffffffffff021916908373ffffffffffffffffffffffffffffffffffffffff16021790555050611459806100836000396000f3006080604052600436106100e6576000357c0100000000000000000000000000000000000000000000000000000000900463ffffffff168063060176fb146100eb5780632a2645b7146101385780633ca367691461017d57806346c81d52146101cc5780634791da151461023d5780635608daa71461028257806367ce5e15146103135780636f451a62146103605780638eef1cd4146103a55780639934289e14610416578063a0b6f6a714610471578063a0d5ae76146104c8578063afa1c8771461050d578063b3e7747714610552578063cd6f54f5146105ad578063f98bea8e146105fc575b600080fd5b3480156100f757600080fd5b5061011a600480360381019080803560001916906020019092919050505061068d565b60405180826000191660001916815260200191505060405180910390f35b34801561014457600080fd5b5061016760048036038101908080356000191690602001909291905050506106c2565b6040518082815260200191505060405180910390f35b34801561018957600080fd5b506101b66004803603810190808035600019169060200190929190803590602001909291905050506106f7565b6040518082815260200191505060405180910390f35b3480156101d857600080fd5b506101fb600480360381019080803560001916906020019092919050505061072e565b604051808273ffffffffffffffffffffffffffffffffffffffff1673ffffffffffffffffffffffffffffffffffffffff16815260200191505060405180910390f35b34801561024957600080fd5b5061026c6004803603810190808035600019169060200190929190505050610763565b6040518082815260200191505060405180910390f35b34801561028e57600080fd5b506102d16004803603810190808035600019169060200190929190803573ffffffffffffffffffffffffffffffffffffffff169060200190929190505050610798565b604051808273ffffffffffffffffffffffffffffffffffffffff1673ffffffffffffffffffffffffffffffffffffffff16815260200191505060405180910390f35b34801561031f57600080fd5b5061034260048036038101908080356000191690602001909291905050506107cf565b60405180826000191660001916815260200191505060405180910390f35b34801561036c57600080fd5b5061038f6004803603810190808035600019169060200190929190505050610804565b6040518082815260200191505060405180910390f35b3480156103b157600080fd5b506103d46004803603810190808035600019169060200190929190505050610839565b604051808273ffffffffffffffffffffffffffffffffffffffff1673ffffffffffffffffffffffffffffffffffffffff16815260200191505060405180910390f35b34801561042257600080fd5b506104536004803603810190808035600019169060200190929190803560001916906020019092919050505061086e565b60405180826000191660001916815260200191505060405180910390f35b34801561047d57600080fd5b506104866108a5565b604051808273ffffffffffffffffffffffffffffffffffffffff1673ffffffffffffffffffffffffffffffffffffffff16815260200191505060405180910390f35b3480156104d457600080fd5b506104f760048036038101908080356000191690602001909291905050506108ca565b6040518082815260200191505060405180910390f35b34801561051957600080fd5b5061053c60048036038101908080356000191690602001909291905050506108ff565b6040518082815260200191505060405180910390f35b34801561055e57600080fd5b5061058f60048036038101908080356000191690602001909291908035600019169060200190929190505050610934565b60405180826000191660001916815260200191505060405180910390f35b3480156105b957600080fd5b506105e660048036038101908080356000191690602001909291908035906020019092919050505061096b565b6040518082815260200191505060405180910390f35b34801561060857600080fd5b5061064b6004803603810190808035600019169060200190929190803573ffffffffffffffffffffffffffffffffffffffff1690602001909291905050506109a2565b604051808273ffffffffffffffffffffffffffffffffffffffff1673ffffffffffffffffffffffffffffffffffffffff16815260200191505060405180910390f35b60006106bb61069a6109d9565b73ffffffffffffffffffffffffffffffffffffffff166347ff9ac084610a02565b9050919050565b60006106f06106cf6109d9565b73ffffffffffffffffffffffffffffffffffffffff166378a6dcc984610aa5565b9050919050565b60006107266107046109d9565b73ffffffffffffffffffffffffffffffffffffffff1663385e6ee98585610b48565b905092915050565b600061075c61073b6109d9565b73ffffffffffffffffffffffffffffffffffffffff166348bc91fa84610bf4565b9050919050565b60006107916107706109d9565b73ffffffffffffffffffffffffffffffffffffffff1663ff5e46cc84610c97565b9050919050565b60006107c76107a56109d9565b73ffffffffffffffffffffffffffffffffffffffff1663a94fc5058585610d3a565b905092915050565b60006107fd6107dc6109d9565b73ffffffffffffffffffffffffffffffffffffffff1663d6f66e2284610e12565b9050919050565b60006108326108116109d9565b73ffffffffffffffffffffffffffffffffffffffff166381dd8e6e84610eb5565b9050919050565b60006108676108466109d9565b73ffffffffffffffffffffffffffffffffffffffff16631893101684610f58565b9050919050565b600061089d61087b6109d9565b73ffffffffffffffffffffffffffffffffffffffff1663b17054db8585610ffb565b905092915050565b6000809054906101000a900473ffffffffffffffffffffffffffffffffffffffff1681565b60006108f86108d76109d9565b73ffffffffffffffffffffffffffffffffffffffff1663c20681f1846110af565b9050919050565b600061092d61090c6109d9565b73ffffffffffffffffffffffffffffffffffffffff16639f666fe784611152565b9050919050565b60006109636109416109d9565b73ffffffffffffffffffffffffffffffffffffffff1663a7493d8a85856111f5565b905092915050565b600061099a6109786109d9565b73ffffffffffffffffffffffffffffffffffffffff1663d0d7639085856112a9565b905092915050565b60006109d16109af6109d9565b73ffffffffffffffffffffffffffffffffffffffff1663bf78a81d8585611355565b905092915050565b60008060009054906101000a900473ffffffffffffffffffffffffffffffffffffffff16905090565b60008383836040518263ffffffff167c0100000000000000000000000000000000000000000000000000000000028152600401808260001916600019168152602001915050602060405180830381600087803b158015610a6157600080fd5b505af1158015610a75573d6000803e3d6000fd5b505050506040513d6020811015610a8b57600080fd5b810190808051906020019092919050505090509392505050565b60008383836040518263ffffffff167c0100000000000000000000000000000000000000000000000000000000028152600401808260001916600019168152602001915050602060405180830381600087803b158015610b0457600080fd5b505af1158015610b18573d6000803e3d6000fd5b505050506040513d6020811015610b2e57600080fd5b810190808051906020019092919050505090509392505050565b6000848484846040518363ffffffff167c010000000000000000000000000000000000000000000000000000000002815260040180836000191660001916815260200182815260200192505050602060405180830381600087803b158015610baf57600080fd5b505af1158015610bc3573d6000803e3d6000fd5b505050506040513d6020811015610bd957600080fd5b81019080805190602001909291905050509050949350505050565b60008383836040518263ffffffff167c0100000000000000000000000000000000000000000000000000000000028152600401808260001916600019168152602001915050602060405180830381600087803b158015610c5357600080fd5b505af1158015610c67573d6000803e3d6000fd5b505050506040513d6020811015610c7d57600080fd5b810190808051906020019092919050505090509392505050565b60008383836040518263ffffffff167c0100000000000000000000000000000000000000000000000000000000028152600401808260001916600019168152602001915050602060405180830381600087803b158015610cf657600080fd5b505af1158015610d0a573d6000803e3d6000fd5b505050506040513d6020811015610d2057600080fd5b810190808051906020019092919050505090509392505050565b6000848484846040518363ffffffff167c01000000000000000000000000000000000000000000000000000000000281526004018083600019166000191681526020018273ffffffffffffffffffffffffffffffffffffffff1673ffffffffffffffffffffffffffffffffffffffff16815260200192505050602060405180830381600087803b158015610dcd57600080fd5b505af1158015610de1573d6000803e3d6000fd5b505050506040513d6020811015610df757600080fd5b81019080805190602001909291905050509050949350505050565b60008383836040518263ffffffff167c0100000000000000000000000000000000000000000000000000000000028152600401808260001916600019168152602001915050602060405180830381600087803b158015610e7157600080fd5b505af1158015610e85573d6000803e3d6000fd5b505050506040513d6020811015610e9b57600080fd5b810190808051906020019092919050505090509392505050565b60008383836040518263ffffffff167c0100000000000000000000000000000000000000000000000000000000028152600401808260001916600019168152602001915050602060405180830381600087803b158015610f1457600080fd5b505af1158015610f28573d6000803e3d6000fd5b505050506040513d6020811015610f3e57600080fd5b810190808051906020019092919050505090509392505050565b60008383836040518263ffffffff167c0100000000000000000000000000000000000000000000000000000000028152600401808260001916600019168152602001915050602060405180830381600087803b158015610fb757600080fd5b505af1158015610fcb573d6000803e3d6000fd5b505050506040513d6020811015610fe157600080fd5b810190808051906020019092919050505090509392505050565b6000848484846040518363ffffffff167c0100000000000000000000000000000000000000000000000000000000028152600401808360001916600019168152602001826000191660001916815260200192505050602060405180830381600087803b15801561106a57600080fd5b505af115801561107e573d6000803e3d6000fd5b505050506040513d602081101561109457600080fd5b81019080805190602001909291905050509050949350505050565b60008383836040518263ffffffff167c0100000000000000000000000000000000000000000000000000000000028152600401808260001916600019168152602001915050602060405180830381600087803b15801561110e57600080fd5b505af1158015611122573d6000803e3d6000fd5b505050506040513d602081101561113857600080fd5b810190808051906020019092919050505090509392505050565b60008383836040518263ffffffff167c0100000000000000000000000000000000000000000000000000000000028152600401808260001916600019168152602001915050602060405180830381600087803b1580156111b157600080fd5b505af11580156111c5573d6000803e3d6000fd5b505050506040513d60208110156111db57600080fd5b810190808051906020019092919050505090509392505050565b6000848484846040518363ffffffff167c0100000000000000000000000000000000000000000000000000000000028152600401808360001916600019168152602001826000191660001916815260200192505050602060405180830381600087803b15801561126457600080fd5b505af1158015611278573d6000803e3d6000fd5b505050506040513d602081101561128e57600080fd5b81019080805190602001909291905050509050949350505050565b6000848484846040518363ffffffff167c010000000000000000000000000000000000000000000000000000000002815260040180836000191660001916815260200182815260200192505050602060405180830381600087803b15801561131057600080fd5b505af1158015611324573d6000803e3d6000fd5b505050506040513d602081101561133a57600080fd5b81019080805190602001909291905050509050949350505050565b6000848484846040518363ffffffff167c01000000000000000000000000000000000000000000000000000000000281526004018083600019166000191681526020018273ffffffffffffffffffffffffffffffffffffffff1673ffffffffffffffffffffffffffffffffffffffff16815260200192505050602060405180830381600087803b1580156113e857600080fd5b505af11580156113fc573d6000803e3d6000fd5b505050506040513d602081101561141257600080fd5b810190808051906020019092919050505090509493505050505600a165627a7a7230582032f6cafb39f750f0e26374ba1686d5125a7f207598c34aa64320dfc4514c989d0029",
  "source": "pragma solidity ^0.4.19;\n\nimport \"../abstract/IndexedBytesIteratorController.sol\";\nimport \"../abstract/IndexedAddressIteratorController.sol\";\nimport \"../abstract/IndexedUintIteratorController.sol\";\nimport \"./ExampleIndexedStorage.sol\";\n\n/**\n  @title Example Indexed Controller\n  @author DigixGlobal Pte Ltd\n  @notice This contract utilizes: [Indexed Bytes Iterator Controller](/IndexedBytesIteratorController),\n                                  [Indexed Address Iterator Controller](/IndexedAddressIteratorController),\n                                  [Indexed UintIterator Controller](/IndexedUintIteratorController),\n                                  [Example Indexed Storage](/ExampleIndexedStorage)\n*/\ncontract ExampleIndexedController is IndexedBytesIteratorController, IndexedAddressIteratorController, IndexedUintIteratorController {\n\n\n  /// @notice State to be used as holder for the specified storage\n  /// @dev This example controller inherits from [IndexedBytesIteratorController](/IndexedBytesIteratorController),\n  ///    [IndexedAddressIteratorController](/IndexedAddressIteratorController), [IndexedUintIteratorController](IndexedUintIteratorController)\n  address public storage_contract;\n\n  /**\n    @notice Constructor for ExampleIndexedController\n    @param _storage Address of storage to use\n  */\n  constructor(address _storage) public {\n    storage_contract = _storage;\n  }\n\n  /**\n    @notice Initializes an instance of Example Storage\n  */\n  function example_storage()\n           internal\n           constant\n           returns (ExampleIndexedStorage _contract)\n  {\n    _contract = ExampleIndexedStorage(storage_contract);\n  }\n\n  /**\n    @notice Gets the first item of an Indexed Bytes collection\n    @param _collection_index Index of the Collection to evaluate\n    @return {\"_item\":\"Collection item\"}\n  */\n  function get_first_in_indexed_bytes_collection(bytes32 _collection_index)\n           public\n           constant\n           returns (bytes32 _item)\n  {\n    _item = get_first_from_indexed_bytesarray(example_storage().read_first_in_indexed_bytes_collection, _collection_index);\n  }\n\n  /**\n    @notice Gets the last item of an Indexed Bytes collection\n    @param _collection_index Index of the Collection to evaluate\n    @return {\"_item\":\"Collection item\"}\n  */\n  function get_last_in_indexed_bytes_collection(bytes32 _collection_index)\n           public\n           constant\n           returns (bytes32 _item)\n  {\n    _item = get_last_from_indexed_bytesarray(example_storage().read_last_in_indexed_bytes_collection, _collection_index);\n  }\n\n  /**\n    @notice Gets the next item of an Indexed Bytes collection based on the specified `_current_item`\n    @param _collection_index Index of the Collection to evaluate\n    @param _current_item The item to be used as base line\n    @return {\"_item\":\"Collection item\"}\n  */\n  function get_next_in_indexed_bytes_collection(bytes32 _collection_index, bytes32 _current_item)\n           public\n           constant\n           returns (bytes32 _item)\n  {\n    _item = get_next_from_indexed_bytesarray(example_storage().read_next_in_indexed_bytes_collection, _collection_index, _current_item);\n  }\n\n  /**\n    @notice Gets the previous item of an Indexed Bytes collection based on the specified `_current_item`\n    @param _collection_index Index of the Collection to evaluate\n    @param _current_item The item to be used as base line\n    @return {\"_item\":\"Collection item\"}\n  */\n  function get_previous_in_indexed_bytes_collection(bytes32 _collection_index, bytes32 _current_item)\n           public\n           constant\n           returns (bytes32 _item)\n  {\n    _item = get_previous_from_indexed_bytesarray(example_storage().read_previous_in_indexed_bytes_collection, _collection_index, _current_item);\n  }\n\n  /**\n    @notice Gets the total number of items in the Indexed Bytes collection\n    @param _collection_index Index of the Collection to evaluate\n    @return {\"_item\":\"Collection item\"}\n  */\n  function get_total_in_indexed_bytes_collection(bytes32 _collection_index)\n           public\n           constant\n           returns (uint256 _total_count)\n  {\n    _total_count = get_total_indexed_bytesarray(example_storage().read_total_in_indexed_bytes_collection, _collection_index);\n  }\n\n  /**\n    @notice Gets the first item in an Indexed Addresses collection\n    @param _collection_index Index of the Collection to evaluate\n    @return {\"_item\":\"Collection item\"}\n  */\n  function get_first_in_indexed_addresses_collection(bytes32 _collection_index)\n           public\n           constant\n           returns (address _item)\n  {\n    _item = get_first_from_indexed_addresses(example_storage().read_first_in_indexed_addresses_collection, _collection_index);\n  }\n\n  /**\n    @notice Gets the last item in an Indexed Addresses collection\n    @param _collection_index Index of the Collection to evaluate\n    @return {\"_item\":\"Collection item\"}\n  */\n  function get_last_in_indexed_addresses_collection(bytes32 _collection_index)\n           public\n           constant\n           returns (address _item)\n  {\n    _item = get_last_from_indexed_addresses(example_storage().read_last_in_indexed_addresses_collection, _collection_index);\n  }\n\n  /**\n    @notice Gets the next item in an Indexed Addresses collection based on the specified `_current_item`\n    @param _collection_index Index of the Collection to evaluate\n    @param _current_item The item the be used as base line\n    @return {\"_item\":\"Collection item\"}\n  */\n  function get_next_in_indexed_addresses_collection(bytes32 _collection_index, address _current_item)\n           public\n           constant\n           returns (address _item)\n  {\n    _item = get_next_from_indexed_addresses(example_storage().read_next_in_indexed_addresses_collection, _collection_index, _current_item);\n  }\n\n\n  /**\n    @notice Gets the previous item in an Indexed Addresses collection based on the specified `_current_item`\n    @param _collection_index Index of the Collection to evaluate\n    @param _current_item The item to be used as base line\n    @return {\"_item\":\"Collection item\"}\n  */\n  function get_previous_in_indexed_addresses_collection(bytes32 _collection_index, address _current_item)\n           public\n           constant\n           returns (address _item)\n  {\n    _item = get_previous_from_indexed_addresses(example_storage().read_previous_in_indexed_addresses_collection, _collection_index, _current_item);\n  }\n\n  /**\n    @notice Gets the total number of items in an Indexed Addresses collection\n    @param _collection_index Index of the Collection to evaluate\n    @return {\"_item\":\"Collection item\"}\n  */\n  function get_total_in_indexed_addresses_collection(bytes32 _collection_index)\n           public\n           constant\n           returns (uint256 _total_count)\n  {\n    _total_count = get_total_indexed_addresses(example_storage().read_total_in_indexed_addresses_collection, _collection_index);\n  }\n\n  /**\n    @notice Gets the first item in an Indexed Uints collection\n    @param _collection_index Index of the Collection to evaluate\n    @return {\"_item\":\"Collection item\"}\n  */\n  function get_first_in_indexed_uints_collection(bytes32 _collection_index)\n           public\n           constant\n           returns (uint256 _item)\n  {\n    _item = get_first_from_indexed_uints(example_storage().read_first_in_indexed_uints_collection, _collection_index);\n  }\n\n  /**\n    @notice Gets the last item in an Indexed Uints collection\n    @param _collection_index Index of the Collection to evaluate\n    @return {\"_item\":\"Collection item\"}\n  */\n  function get_last_in_indexed_uints_collection(bytes32 _collection_index)\n           public\n           constant\n           returns (uint256 _item)\n  {\n    _item = get_last_from_indexed_uints(example_storage().read_last_in_indexed_uints_collection, _collection_index);\n  }\n\n  /**\n    @notice Gets the next item in an Indexed Uints collection based on the specified `_current_item`\n    @param _collection_index Index of the Collection to evaluate\n    @param _current_item The item the be used as base line\n    @return {\"_item\":\"Collection item\"}\n  */\n  function get_next_in_indexed_uints_collection(bytes32 _collection_index, uint256 _current_item)\n           public\n           constant\n           returns (uint256 _item)\n  {\n    _item = get_next_from_indexed_uints(example_storage().read_next_in_indexed_uints_collection, _collection_index, _current_item);\n  }\n\n\n  /**\n    @notice Gets the previous item in an Indexed Uints collection based on the specified `_current_item`\n    @param _collection_index Index of the Collection to evaluate\n    @param _current_item The item to be used as base line\n    @return {\"_item\":\"Collection item\"}\n  */\n  function get_previous_in_indexed_uints_collection(bytes32 _collection_index, uint256 _current_item)\n           public\n           constant\n           returns (uint256 _item)\n  {\n    _item = get_previous_from_indexed_uints(example_storage().read_previous_in_indexed_uints_collection, _collection_index, _current_item);\n  }\n\n  /**\n    @notice Gets the total number of items in an Indexed Uints collection\n    @param _collection_index Index of the Collection to evaluate\n    @return {\"_item\":\"Collection item\"}\n  */\n  function get_total_in_indexed_uints_collection(bytes32 _collection_index)\n           public\n           constant\n           returns (uint256 _total_count)\n  {\n    _total_count = get_total_indexed_uints(example_storage().read_total_in_indexed_uints_collection, _collection_index);\n  }\n}\n",
  "sourcePath": "/home/rohit/Develop/solidity-collections-library/contracts/examples/ExampleIndexedController.sol",
  "compiler": {
    "name": "solc",
    "version": "0.4.24+commit.e67f0147.Emscripten.clang"
  },
  "schemaVersion": "2.0.0",
  "updatedAt": "2018-08-17T06:56:24.619Z"
}