{
  "contractName": "ExampleIndexedInteractive",
  "abi": [
    {
      "constant": true,
      "inputs": [],
      "name": "controller_contract",
      "outputs": [
        {
          "name": "",
          "type": "address"
        }
      ],
      "payable": false,
      "stateMutability": "view",
      "type": "function"
    },
    {
      "inputs": [
        {
          "name": "_controller",
          "type": "address"
        }
      ],
      "payable": false,
      "stateMutability": "nonpayable",
      "type": "constructor"
    },
    {
      "constant": true,
      "inputs": [
        {
          "name": "_collection_index",
          "type": "bytes32"
        },
        {
          "name": "_count",
          "type": "uint256"
        },
        {
          "name": "_from_start",
          "type": "bool"
        }
      ],
      "name": "list_indexed_bytes_collection",
      "outputs": [
        {
          "name": "_collection_items",
          "type": "bytes32[]"
        }
      ],
      "payable": false,
      "stateMutability": "view",
      "type": "function"
    },
    {
      "constant": true,
      "inputs": [
        {
          "name": "_collection_index",
          "type": "bytes32"
        },
        {
          "name": "_current_item",
          "type": "bytes32"
        },
        {
          "name": "_count",
          "type": "uint256"
        },
        {
          "name": "_from_start",
          "type": "bool"
        }
      ],
      "name": "list_indexed_bytes_collection_from",
      "outputs": [
        {
          "name": "_collection_items",
          "type": "bytes32[]"
        }
      ],
      "payable": false,
      "stateMutability": "view",
      "type": "function"
    },
    {
      "constant": true,
      "inputs": [
        {
          "name": "_collection_index",
          "type": "bytes32"
        },
        {
          "name": "_count",
          "type": "uint256"
        },
        {
          "name": "_from_start",
          "type": "bool"
        }
      ],
      "name": "list_indexed_addresses_collection",
      "outputs": [
        {
          "name": "_collection_items",
          "type": "address[]"
        }
      ],
      "payable": false,
      "stateMutability": "view",
      "type": "function"
    },
    {
      "constant": true,
      "inputs": [
        {
          "name": "_collection_index",
          "type": "bytes32"
        },
        {
          "name": "_current_item",
          "type": "address"
        },
        {
          "name": "_count",
          "type": "uint256"
        },
        {
          "name": "_from_start",
          "type": "bool"
        }
      ],
      "name": "list_indexed_addresses_collection_from",
      "outputs": [
        {
          "name": "_collection_items",
          "type": "address[]"
        }
      ],
      "payable": false,
      "stateMutability": "view",
      "type": "function"
    },
    {
      "constant": true,
      "inputs": [
        {
          "name": "_collection_index",
          "type": "bytes32"
        },
        {
          "name": "_count",
          "type": "uint256"
        },
        {
          "name": "_from_start",
          "type": "bool"
        }
      ],
      "name": "list_indexed_uints_collection",
      "outputs": [
        {
          "name": "_collection_items",
          "type": "uint256[]"
        }
      ],
      "payable": false,
      "stateMutability": "view",
      "type": "function"
    },
    {
      "constant": true,
      "inputs": [
        {
          "name": "_collection_index",
          "type": "bytes32"
        },
        {
          "name": "_current_item",
          "type": "uint256"
        },
        {
          "name": "_count",
          "type": "uint256"
        },
        {
          "name": "_from_start",
          "type": "bool"
        }
      ],
      "name": "list_indexed_uints_collection_from",
      "outputs": [
        {
          "name": "_collection_items",
          "type": "uint256[]"
        }
      ],
      "payable": false,
      "stateMutability": "view",
      "type": "function"
    }
  ],
  "bytecode": "0x608060405234801561001057600080fd5b506040516020806118bc83398101806040528101908080519060200190929190505050806000806101000a81548173ffffffffffffffffffffffffffffffffffffffff021916908373ffffffffffffffffffffffffffffffffffffffff16021790555050611839806100836000396000f300608060405260043610610083576000357c0100000000000000000000000000000000000000000000000000000000900463ffffffff1680630dcedf06146100885780633a7bca511461013257806357073694146101ce578063875b04401461026a578063b75950c1146102c1578063b8eff3f714610367578063e42671fb14610403575b600080fd5b34801561009457600080fd5b506100db60048036038101908080356000191690602001909291908035600019169060200190929190803590602001909291908035151590602001909291905050506104bf565b6040518080602001828103825283818151815260200191508051906020019060200280838360005b8381101561011e578082015181840152602081019050610103565b505050509050019250505060405180910390f35b34801561013e57600080fd5b50610177600480360381019080803560001916906020019092919080359060200190929190803515159060200190929190505050610563565b6040518080602001828103825283818151815260200191508051906020019060200280838360005b838110156101ba57808201518184015260208101905061019f565b505050509050019250505060405180910390f35b3480156101da57600080fd5b50610213600480360381019080803560001916906020019092919080359060200190929190803515159060200190929190505050610605565b6040518080602001828103825283818151815260200191508051906020019060200280838360005b8381101561025657808201518184015260208101905061023b565b505050509050019250505060405180910390f35b34801561027657600080fd5b5061027f6106a7565b604051808273ffffffffffffffffffffffffffffffffffffffff1673ffffffffffffffffffffffffffffffffffffffff16815260200191505060405180910390f35b3480156102cd57600080fd5b50610310600480360381019080803560001916906020019092919080359060200190929190803590602001909291908035151590602001909291905050506106cc565b6040518080602001828103825283818151815260200191508051906020019060200280838360005b83811015610353578082015181840152602081019050610338565b505050509050019250505060405180910390f35b34801561037357600080fd5b506103ac600480360381019080803560001916906020019092919080359060200190929190803515159060200190929190505050610770565b6040518080602001828103825283818151815260200191508051906020019060200280838360005b838110156103ef5780820151818401526020810190506103d4565b505050509050019250505060405180910390f35b34801561040f57600080fd5b506104686004803603810190808035600019169060200190929190803573ffffffffffffffffffffffffffffffffffffffff16906020019092919080359060200190929190803515159060200190929190505050610812565b6040518080602001828103825283818151815260200191508051906020019060200280838360005b838110156104ab578082015181840152602081019050610490565b505050509050019250505060405180910390f35b60606105598585856104cf6108b6565b73ffffffffffffffffffffffffffffffffffffffff166367ce5e156104f26108b6565b73ffffffffffffffffffffffffffffffffffffffff1663060176fb6105156108b6565b73ffffffffffffffffffffffffffffffffffffffff1663b3e774776105386108b6565b73ffffffffffffffffffffffffffffffffffffffff16639934289e8d6108df565b9050949350505050565b60606105fc84846105726108b6565b73ffffffffffffffffffffffffffffffffffffffff1663afa1c8776105956108b6565b73ffffffffffffffffffffffffffffffffffffffff16636f451a626105b86108b6565b73ffffffffffffffffffffffffffffffffffffffff1663cd6f54f56105db6108b6565b73ffffffffffffffffffffffffffffffffffffffff16633ca367698c610923565b90509392505050565b606061069e84846106146108b6565b73ffffffffffffffffffffffffffffffffffffffff16638eef1cd46106376108b6565b73ffffffffffffffffffffffffffffffffffffffff166346c81d5261065a6108b6565b73ffffffffffffffffffffffffffffffffffffffff1663f98bea8e61067d6108b6565b73ffffffffffffffffffffffffffffffffffffffff16635608daa78c610a94565b90509392505050565b6000809054906101000a900473ffffffffffffffffffffffffffffffffffffffff1681565b60606107668585856106dc6108b6565b73ffffffffffffffffffffffffffffffffffffffff1663afa1c8776106ff6108b6565b73ffffffffffffffffffffffffffffffffffffffff16636f451a626107226108b6565b73ffffffffffffffffffffffffffffffffffffffff1663cd6f54f56107456108b6565b73ffffffffffffffffffffffffffffffffffffffff16633ca367698d610c05565b9050949350505050565b6060610809848461077f6108b6565b73ffffffffffffffffffffffffffffffffffffffff166367ce5e156107a26108b6565b73ffffffffffffffffffffffffffffffffffffffff1663060176fb6107c56108b6565b73ffffffffffffffffffffffffffffffffffffffff1663b3e774776107e86108b6565b73ffffffffffffffffffffffffffffffffffffffff16639934289e8c610c49565b90509392505050565b60606108ac8585856108226108b6565b73ffffffffffffffffffffffffffffffffffffffff16638eef1cd46108456108b6565b73ffffffffffffffffffffffffffffffffffffffff166346c81d526108686108b6565b73ffffffffffffffffffffffffffffffffffffffff1663f98bea8e61088b6108b6565b73ffffffffffffffffffffffffffffffffffffffff16635608daa78d610dba565b9050949350505050565b60008060009054906101000a900473ffffffffffffffffffffffffffffffffffffffff16905090565b606081156108ff576108f88d8d8d60008c8c8c8c610dfe565b9050610913565b6109108d8d8d60008e8e8a8a610dfe565b90505b9c9b505050505050505050505050565b606081156109da576109d38c8b8b8f6040518263ffffffff167c0100000000000000000000000000000000000000000000000000000000028152600401808260001916600019168152602001915050602060405180830381600087803b15801561098c57600080fd5b505af11580156109a0573d6000803e3d6000fd5b505050506040513d60208110156109b657600080fd5b81019080805190602001909291905050508d60018c8c8c8c61111d565b9050610a85565b610a828c89898f6040518263ffffffff167c0100000000000000000000000000000000000000000000000000000000028152600401808260001916600019168152602001915050602060405180830381600087803b158015610a3b57600080fd5b505af1158015610a4f573d6000803e3d6000fd5b505050506040513d6020811015610a6557600080fd5b81019080805190602001909291905050508d60018e8e8a8a61111d565b90505b9b9a5050505050505050505050565b60608115610b4b57610b448c8b8b8f6040518263ffffffff167c0100000000000000000000000000000000000000000000000000000000028152600401808260001916600019168152602001915050602060405180830381600087803b158015610afd57600080fd5b505af1158015610b11573d6000803e3d6000fd5b505050506040513d6020811015610b2757600080fd5b81019080805190602001909291905050508d60018c8c8c8c6113f8565b9050610bf6565b610bf38c89898f6040518263ffffffff167c0100000000000000000000000000000000000000000000000000000000028152600401808260001916600019168152602001915050602060405180830381600087803b158015610bac57600080fd5b505af1158015610bc0573d6000803e3d6000fd5b505050506040513d6020811015610bd657600080fd5b81019080805190602001909291905050508d60018e8e8a8a6113f8565b90505b9b9a5050505050505050505050565b60608115610c2557610c1e8d8d8d60008c8c8c8c61111d565b9050610c39565b610c368d8d8d60008e8e8a8a61111d565b90505b9c9b505050505050505050505050565b60608115610d0057610cf98c8b8b8f6040518263ffffffff167c0100000000000000000000000000000000000000000000000000000000028152600401808260001916600019168152602001915050602060405180830381600087803b158015610cb257600080fd5b505af1158015610cc6573d6000803e3d6000fd5b505050506040513d6020811015610cdc57600080fd5b81019080805190602001909291905050508d60018c8c8c8c610dfe565b9050610dab565b610da88c89898f6040518263ffffffff167c0100000000000000000000000000000000000000000000000000000000028152600401808260001916600019168152602001915050602060405180830381600087803b158015610d6157600080fd5b505af1158015610d75573d6000803e3d6000fd5b505050506040513d6020811015610d8b57600080fd5b81019080805190602001909291905050508d60018e8e8a8a610dfe565b90505b9b9a5050505050505050505050565b60608115610dda57610dd38d8d8d60008c8c8c8c6113f8565b9050610dee565b610deb8d8d8d60008e8e8a8a6113f8565b90505b9c9b505050505050505050505050565b606060008060006060600080935089898f6040518263ffffffff167c0100000000000000000000000000000000000000000000000000000000028152600401808260001916600019168152602001915050602060405180830381600087803b158015610e6957600080fd5b505af1158015610e7d573d6000803e3d6000fd5b505050506040513d6020811015610e9357600080fd5b8101908080519060200190929190505050925060008c1480610ec057506000600102600019168360001916145b15610efd576000604051908082528060200260200182016040528015610ef55781602001602082028038833980820191505090505b50955061110c565b8b604051908082528060200260200182016040528015610f2c5781602001602082028038833980820191505090505b5091508a15610f62578c826000815181101515610f4557fe5b906020019060200201906000191690816000191681525050600193505b8c90508394505b8b85108015610f8057508260001916816000191614155b156110815787878f836040518363ffffffff167c0100000000000000000000000000000000000000000000000000000000028152600401808360001916600019168152602001826000191660001916815260200192505050602060405180830381600087803b158015610ff257600080fd5b505af1158015611006573d6000803e3d6000fd5b505050506040513d602081101561101c57600080fd5b81019080805190602001909291905050509050600060010260001916816000191614151561107457838060010194505080828681518110151561105b57fe5b9060200190602002019060001916908160001916815250505b8480600101955050610f69565b836040519080825280602002602001820160405280156110b05781602001602082028038833980820191505090505b509550600094505b8385101561110b5781858151811015156110ce57fe5b9060200190602002015186868151811015156110e657fe5b90602001906020020190600019169081600019168152505084806001019550506110b8565b5b505050505098975050505050505050565b606060008060006060600080935089898f6040518263ffffffff167c0100000000000000000000000000000000000000000000000000000000028152600401808260001916600019168152602001915050602060405180830381600087803b15801561118857600080fd5b505af115801561119c573d6000803e3d6000fd5b505050506040513d60208110156111b257600080fd5b8101908080519060200190929190505050925060008c14806111d45750600083145b156112115760006040519080825280602002602001820160405280156112095781602001602082028038833980820191505090505b5095506113e7565b8b6040519080825280602002602001820160405280156112405781602001602082028038833980820191505090505b5091508a1561126c578c82600081518110151561125957fe5b9060200190602002018181525050600193505b8c90508394505b8b851080156112825750828114155b156113665787878f836040518363ffffffff167c010000000000000000000000000000000000000000000000000000000002815260040180836000191660001916815260200182815260200192505050602060405180830381600087803b1580156112ec57600080fd5b505af1158015611300573d6000803e3d6000fd5b505050506040513d602081101561131657600080fd5b8101908080519060200190929190505050905060008114151561135957838060010194505080828681518110151561134a57fe5b90602001906020020181815250505b8480600101955050611273565b836040519080825280602002602001820160405280156113955781602001602082028038833980820191505090505b509550600094505b838510156113e65781858151811015156113b357fe5b9060200190602002015186868151811015156113cb57fe5b9060200190602002018181525050848060010195505061139d565b5b505050505098975050505050505050565b606060008060006060600080935089898f6040518263ffffffff167c0100000000000000000000000000000000000000000000000000000000028152600401808260001916600019168152602001915050602060405180830381600087803b15801561146357600080fd5b505af1158015611477573d6000803e3d6000fd5b505050506040513d602081101561148d57600080fd5b8101908080519060200190929190505050925060008c14806114db5750600073ffffffffffffffffffffffffffffffffffffffff168373ffffffffffffffffffffffffffffffffffffffff16145b156115185760006040519080825280602002602001820160405280156115105781602001602082028038833980820191505090505b5095506117fc565b8b6040519080825280602002602001820160405280156115475781602001602082028038833980820191505090505b5091508a156115a1578c82600081518110151561156057fe5b9060200190602002019073ffffffffffffffffffffffffffffffffffffffff16908173ffffffffffffffffffffffffffffffffffffffff1681525050600193505b8c90508394505b8b851080156115e357508273ffffffffffffffffffffffffffffffffffffffff168173ffffffffffffffffffffffffffffffffffffffff1614155b1561174d5787878f836040518363ffffffff167c01000000000000000000000000000000000000000000000000000000000281526004018083600019166000191681526020018273ffffffffffffffffffffffffffffffffffffffff1673ffffffffffffffffffffffffffffffffffffffff16815260200192505050602060405180830381600087803b15801561167957600080fd5b505af115801561168d573d6000803e3d6000fd5b505050506040513d60208110156116a357600080fd5b81019080805190602001909291905050509050600073ffffffffffffffffffffffffffffffffffffffff168173ffffffffffffffffffffffffffffffffffffffff1614151561174057838060010194505080828681518110151561170357fe5b9060200190602002019073ffffffffffffffffffffffffffffffffffffffff16908173ffffffffffffffffffffffffffffffffffffffff16815250505b84806001019550506115a8565b8360405190808252806020026020018201604052801561177c5781602001602082028038833980820191505090505b509550600094505b838510156117fb57818581518110151561179a57fe5b9060200190602002015186868151811015156117b257fe5b9060200190602002019073ffffffffffffffffffffffffffffffffffffffff16908173ffffffffffffffffffffffffffffffffffffffff16815250508480600101955050611784565b5b5050505050989750505050505050505600a165627a7a72305820da8797066e8b22c3755578460a5fc53dc358027e1aaa10749458227185ba8fc80029",
  "source": "pragma solidity ^0.4.19;\n\nimport \"../abstract/IndexedBytesIteratorInteractive.sol\";\nimport \"../abstract/IndexedAddressIteratorInteractive.sol\";\nimport \"../abstract/IndexedUintIteratorInteractive.sol\";\nimport \"./ExampleIndexedController.sol\";\n  /**\n    @title Example Indexed Interactive\n    @author DigixGlobal Pte Ltd\n */\ncontract ExampleIndexedInteractive is IndexedBytesIteratorInteractive, IndexedAddressIteratorInteractive, IndexedUintIteratorInteractive {\n\n  address public controller_contract;\n\n  /**\n    @notice Constructor\n    @param _controller The Controller to use\n  */\n  constructor(address _controller) public {\n    controller_contract = _controller;\n  }\n\n  /**\n    @notice Initializes an instance of ExampleIndexedController\n  */\n  function example_controller()\n           internal\n           constant\n           returns (ExampleIndexedController _contract)\n  {\n    _contract = ExampleIndexedController(controller_contract);\n  }\n\n\n  /**\n    @notice Lists collection of indexed Bytes from the start or end\n    @param _collection_index The Index of the Collection to evaluate\n    @param _count The Total number of items you wish to be returned\n    @param _from_start Whether to read items from start (or end)\n    @return {\"_collection_items\":\"Collection items\"}\n  */\n  function list_indexed_bytes_collection(bytes32 _collection_index, uint256 _count, bool _from_start)\n           public\n           constant\n           returns (bytes32[] _collection_items)\n  {\n    _collection_items = list_indexed_bytesarray(_collection_index, _count,\n                                    example_controller().get_first_in_indexed_bytes_collection,\n                                    example_controller().get_last_in_indexed_bytes_collection,\n                                    example_controller().get_next_in_indexed_bytes_collection,\n                                    example_controller().get_previous_in_indexed_bytes_collection,\n                                    _from_start);\n  }\n\n  /**\n    @notice Lists collection of Bytes starting from the specified `_current_item`, going forwards or backwards depending on `_from_start`\n    @param _collection_index The Index of the Collection to evaluate\n    @param _count The Total number of items you wish to be returned\n    @param _from_start Whether to read items forwards (or backwards)\n    @return {\"_collection_items\":\"Collection items\"}\n  */\n  function list_indexed_bytes_collection_from(bytes32 _collection_index, bytes32 _current_item, uint256 _count, bool _from_start)\n           public\n           constant\n           returns (bytes32[] _collection_items)\n  {\n    _collection_items = list_indexed_bytesarray_from(_collection_index, _current_item, _count,\n                                              example_controller().get_first_in_indexed_bytes_collection,\n                                              example_controller().get_last_in_indexed_bytes_collection,\n                                              example_controller().get_next_in_indexed_bytes_collection,\n                                              example_controller().get_previous_in_indexed_bytes_collection,\n                                              _from_start);\n  }\n\n  /**\n    @notice Lists collection of indexed Address from the start or end\n    @param _collection_index The Index of the Collection to evaluate\n    @param _count The Total number of items you wish to be returned\n    @param _from_start Whether to read items from start (or end)\n    @return {\"_collection_items\":\"Collection items\"}\n  */\n  function list_indexed_addresses_collection(bytes32 _collection_index, uint256 _count, bool _from_start)\n           public\n           constant\n           returns (address[] _collection_items)\n  {\n    _collection_items = list_indexed_addresses(_collection_index, _count,\n                                    example_controller().get_first_in_indexed_addresses_collection,\n                                    example_controller().get_last_in_indexed_addresses_collection,\n                                    example_controller().get_next_in_indexed_addresses_collection,\n                                    example_controller().get_previous_in_indexed_addresses_collection,\n                                    _from_start);\n  }\n\n  /**\n    @notice Lists collection of Address starting from the specified `_current_item`, going forwards or backwards depending on `_from_start`\n    @param _collection_index The Index of the Collection to evaluate\n    @param _count The Total number of items you wish to be returned\n    @param _from_start Whether to read items forwards (or backwards)\n    @return {\"_collection_items\":\"Collection items\"}\n  */\n  function list_indexed_addresses_collection_from(bytes32 _collection_index, address _current_item, uint256 _count, bool _from_start)\n           public\n           constant\n           returns (address[] _collection_items)\n  {\n    _collection_items = list_indexed_addresses_from(_collection_index, _current_item, _count,\n                                              example_controller().get_first_in_indexed_addresses_collection,\n                                              example_controller().get_last_in_indexed_addresses_collection,\n                                              example_controller().get_next_in_indexed_addresses_collection,\n                                              example_controller().get_previous_in_indexed_addresses_collection,\n                                              _from_start);\n  }\n\n  /**\n    @notice Lists collection of indexed Uints from the start or end\n    @param _collection_index The Index of the Collection to evaluate\n    @param _count The Total number of items you wish to be returned\n    @param _from_start Whether to read items from start (or end)\n    @return {\"_collection_items\":\"Collection items\"}\n  */\n  function list_indexed_uints_collection(bytes32 _collection_index, uint256 _count, bool _from_start)\n           public\n           constant\n           returns (uint256[] _collection_items)\n  {\n    _collection_items = list_indexed_uints(_collection_index, _count,\n                                    example_controller().get_first_in_indexed_uints_collection,\n                                    example_controller().get_last_in_indexed_uints_collection,\n                                    example_controller().get_next_in_indexed_uints_collection,\n                                    example_controller().get_previous_in_indexed_uints_collection,\n                                    _from_start);\n  }\n\n  /**\n    @notice Lists collection of Uints starting from the specified `_current_item`, going forwards or backwards depending on `_from_start`\n    @param _collection_index The Index of the Collection to evaluate\n    @param _count The Total number of items you wish to be returned\n    @param _from_start Whether to read items forwards (or backwards)\n    @return {\"_collection_items\":\"Collection items\"}\n  */\n  function list_indexed_uints_collection_from(bytes32 _collection_index, uint256 _current_item, uint256 _count, bool _from_start)\n           public\n           constant\n           returns (uint256[] _collection_items)\n  {\n    _collection_items = list_indexed_uints_from(_collection_index, _current_item, _count,\n                                              example_controller().get_first_in_indexed_uints_collection,\n                                              example_controller().get_last_in_indexed_uints_collection,\n                                              example_controller().get_next_in_indexed_uints_collection,\n                                              example_controller().get_previous_in_indexed_uints_collection,\n                                              _from_start);\n  }\n\n}\n",
  "sourcePath": "/home/rohit/Develop/solidity-collections-library/contracts/examples/ExampleIndexedInteractive.sol",
  "compiler": {
    "name": "solc",
    "version": "0.4.24+commit.e67f0147.Emscripten.clang"
  },
  "schemaVersion": "2.0.0",
  "updatedAt": "2018-08-17T06:56:24.620Z"
}