{
  "contractName": "ExampleIndexedInteractive",
  "abi": [
    {
      "constant": true,
      "inputs": [],
      "name": "controller_contract",
      "outputs": [
        {
          "name": "",
          "type": "address"
        }
      ],
      "payable": false,
      "stateMutability": "view",
      "type": "function"
    },
    {
      "inputs": [
        {
          "name": "_controller",
          "type": "address"
        }
      ],
      "payable": false,
      "stateMutability": "nonpayable",
      "type": "constructor"
    },
    {
      "constant": true,
      "inputs": [
        {
          "name": "_collection_index",
          "type": "bytes32"
        },
        {
          "name": "_count",
          "type": "uint256"
        },
        {
          "name": "_from_start",
          "type": "bool"
        }
      ],
      "name": "list_indexed_bytes_collection",
      "outputs": [
        {
          "name": "_collection_items",
          "type": "bytes32[]"
        }
      ],
      "payable": false,
      "stateMutability": "view",
      "type": "function"
    },
    {
      "constant": true,
      "inputs": [
        {
          "name": "_collection_index",
          "type": "bytes32"
        },
        {
          "name": "_current_item",
          "type": "bytes32"
        },
        {
          "name": "_count",
          "type": "uint256"
        },
        {
          "name": "_from_start",
          "type": "bool"
        }
      ],
      "name": "list_indexed_bytes_collection_from",
      "outputs": [
        {
          "name": "_collection_items",
          "type": "bytes32[]"
        }
      ],
      "payable": false,
      "stateMutability": "view",
      "type": "function"
    },
    {
      "constant": true,
      "inputs": [
        {
          "name": "_collection_index",
          "type": "bytes32"
        },
        {
          "name": "_count",
          "type": "uint256"
        },
        {
          "name": "_from_start",
          "type": "bool"
        }
      ],
      "name": "list_indexed_addresses_collection",
      "outputs": [
        {
          "name": "_collection_items",
          "type": "address[]"
        }
      ],
      "payable": false,
      "stateMutability": "view",
      "type": "function"
    },
    {
      "constant": true,
      "inputs": [
        {
          "name": "_collection_index",
          "type": "bytes32"
        },
        {
          "name": "_current_item",
          "type": "address"
        },
        {
          "name": "_count",
          "type": "uint256"
        },
        {
          "name": "_from_start",
          "type": "bool"
        }
      ],
      "name": "list_indexed_addresses_collection_from",
      "outputs": [
        {
          "name": "_collection_items",
          "type": "address[]"
        }
      ],
      "payable": false,
      "stateMutability": "view",
      "type": "function"
    },
    {
      "constant": true,
      "inputs": [
        {
          "name": "_collection_index",
          "type": "bytes32"
        },
        {
          "name": "_count",
          "type": "uint256"
        },
        {
          "name": "_from_start",
          "type": "bool"
        }
      ],
      "name": "list_indexed_uints_collection",
      "outputs": [
        {
          "name": "_collection_items",
          "type": "uint256[]"
        }
      ],
      "payable": false,
      "stateMutability": "view",
      "type": "function"
    },
    {
      "constant": true,
      "inputs": [
        {
          "name": "_collection_index",
          "type": "bytes32"
        },
        {
          "name": "_current_item",
          "type": "uint256"
        },
        {
          "name": "_count",
          "type": "uint256"
        },
        {
          "name": "_from_start",
          "type": "bool"
        }
      ],
      "name": "list_indexed_uints_collection_from",
      "outputs": [
        {
          "name": "_collection_items",
          "type": "uint256[]"
        }
      ],
      "payable": false,
      "stateMutability": "view",
      "type": "function"
    }
  ],
  "bytecode": "0x6060604052341561000f57600080fd5b60405160208061175683398101604052808051906020019091905050806000806101000a81548173ffffffffffffffffffffffffffffffffffffffff021916908373ffffffffffffffffffffffffffffffffffffffff160217905550506116db8061007b6000396000f300606060405260043610610083576000357c0100000000000000000000000000000000000000000000000000000000900463ffffffff1680630dcedf06146100885780633a7bca511461012557806357073694146101b5578063875b044014610245578063b75950c11461029a578063b8eff3f714610333578063e42671fb146103c3575b600080fd5b341561009357600080fd5b6100ce600480803560001916906020019091908035600019169060200190919080359060200190919080351515906020019091905050610472565b6040518080602001828103825283818151815260200191508051906020019060200280838360005b838110156101115780820151818401526020810190506100f6565b505050509050019250505060405180910390f35b341561013057600080fd5b61015e600480803560001916906020019091908035906020019091908035151590602001909190505061051c565b6040518080602001828103825283818151815260200191508051906020019060200280838360005b838110156101a1578082015181840152602081019050610186565b505050509050019250505060405180910390f35b34156101c057600080fd5b6101ee60048080356000191690602001909190803590602001909190803515159060200190919050506105c4565b6040518080602001828103825283818151815260200191508051906020019060200280838360005b83811015610231578082015181840152602081019050610216565b505050509050019250505060405180910390f35b341561025057600080fd5b61025861066c565b604051808273ffffffffffffffffffffffffffffffffffffffff1673ffffffffffffffffffffffffffffffffffffffff16815260200191505060405180910390f35b34156102a557600080fd5b6102dc6004808035600019169060200190919080359060200190919080359060200190919080351515906020019091905050610691565b6040518080602001828103825283818151815260200191508051906020019060200280838360005b8381101561031f578082015181840152602081019050610304565b505050509050019250505060405180910390f35b341561033e57600080fd5b61036c600480803560001916906020019091908035906020019091908035151590602001909190505061073b565b6040518080602001828103825283818151815260200191508051906020019060200280838360005b838110156103af578082015181840152602081019050610394565b505050509050019250505060405180910390f35b34156103ce57600080fd5b61041b60048080356000191690602001909190803573ffffffffffffffffffffffffffffffffffffffff1690602001909190803590602001909190803515159060200190919050506107e3565b6040518080602001828103825283818151815260200191508051906020019060200280838360005b8381101561045e578082015181840152602081019050610443565b505050509050019250505060405180910390f35b61047a611673565b61051285858561048861088d565b73ffffffffffffffffffffffffffffffffffffffff166367ce5e156104ab61088d565b73ffffffffffffffffffffffffffffffffffffffff1663060176fb6104ce61088d565b73ffffffffffffffffffffffffffffffffffffffff1663b3e774776104f161088d565b73ffffffffffffffffffffffffffffffffffffffff16639934289e8d6108b6565b9050949350505050565b610524611687565b6105bb848461053161088d565b73ffffffffffffffffffffffffffffffffffffffff1663afa1c87761055461088d565b73ffffffffffffffffffffffffffffffffffffffff16636f451a6261057761088d565b73ffffffffffffffffffffffffffffffffffffffff1663cd6f54f561059a61088d565b73ffffffffffffffffffffffffffffffffffffffff16633ca367698c610900565b90509392505050565b6105cc61169b565b61066384846105d961088d565b73ffffffffffffffffffffffffffffffffffffffff16638eef1cd46105fc61088d565b73ffffffffffffffffffffffffffffffffffffffff166346c81d5261061f61088d565b73ffffffffffffffffffffffffffffffffffffffff1663f98bea8e61064261088d565b73ffffffffffffffffffffffffffffffffffffffff16635608daa78c610a47565b90509392505050565b6000809054906101000a900473ffffffffffffffffffffffffffffffffffffffff1681565b610699611687565b6107318585856106a761088d565b73ffffffffffffffffffffffffffffffffffffffff1663afa1c8776106ca61088d565b73ffffffffffffffffffffffffffffffffffffffff16636f451a626106ed61088d565b73ffffffffffffffffffffffffffffffffffffffff1663cd6f54f561071061088d565b73ffffffffffffffffffffffffffffffffffffffff16633ca367698d610b8e565b9050949350505050565b610743611673565b6107da848461075061088d565b73ffffffffffffffffffffffffffffffffffffffff166367ce5e1561077361088d565b73ffffffffffffffffffffffffffffffffffffffff1663060176fb61079661088d565b73ffffffffffffffffffffffffffffffffffffffff1663b3e774776107b961088d565b73ffffffffffffffffffffffffffffffffffffffff16639934289e8c610bd8565b90509392505050565b6107eb61169b565b6108838585856107f961088d565b73ffffffffffffffffffffffffffffffffffffffff16638eef1cd461081c61088d565b73ffffffffffffffffffffffffffffffffffffffff166346c81d5261083f61088d565b73ffffffffffffffffffffffffffffffffffffffff1663f98bea8e61086261088d565b73ffffffffffffffffffffffffffffffffffffffff16635608daa78d610d1f565b9050949350505050565b60008060009054906101000a900473ffffffffffffffffffffffffffffffffffffffff16905090565b6108be611673565b81156108dc576108d58d8d8d60008c8c8c8c610d69565b90506108f0565b6108ed8d8d8d60008e8e8a8a610d69565b90505b9c9b505050505050505050505050565b610908611687565b81156109a55761099e8c8b8b8f6000604051602001526040518263ffffffff167c0100000000000000000000000000000000000000000000000000000000028152600401808260001916600019168152602001915050602060405180830381600087803b151561097757600080fd5b6102c65a03f1151561098857600080fd5b505050604051805190508d60018c8c8c8c611031565b9050610a38565b610a358c89898f6000604051602001526040518263ffffffff167c0100000000000000000000000000000000000000000000000000000000028152600401808260001916600019168152602001915050602060405180830381600087803b1515610a0e57600080fd5b6102c65a03f11515610a1f57600080fd5b505050604051805190508d60018e8e8a8a611031565b90505b9b9a5050505050505050505050565b610a4f61169b565b8115610aec57610ae58c8b8b8f6000604051602001526040518263ffffffff167c0100000000000000000000000000000000000000000000000000000000028152600401808260001916600019168152602001915050602060405180830381600087803b1515610abe57600080fd5b6102c65a03f11515610acf57600080fd5b505050604051805190508d60018c8c8c8c6112b5565b9050610b7f565b610b7c8c89898f6000604051602001526040518263ffffffff167c0100000000000000000000000000000000000000000000000000000000028152600401808260001916600019168152602001915050602060405180830381600087803b1515610b5557600080fd5b6102c65a03f11515610b6657600080fd5b505050604051805190508d60018e8e8a8a6112b5565b90505b9b9a5050505050505050505050565b610b96611687565b8115610bb457610bad8d8d8d60008c8c8c8c611031565b9050610bc8565b610bc58d8d8d60008e8e8a8a611031565b90505b9c9b505050505050505050505050565b610be0611673565b8115610c7d57610c768c8b8b8f6000604051602001526040518263ffffffff167c0100000000000000000000000000000000000000000000000000000000028152600401808260001916600019168152602001915050602060405180830381600087803b1515610c4f57600080fd5b6102c65a03f11515610c6057600080fd5b505050604051805190508d60018c8c8c8c610d69565b9050610d10565b610d0d8c89898f6000604051602001526040518263ffffffff167c0100000000000000000000000000000000000000000000000000000000028152600401808260001916600019168152602001915050602060405180830381600087803b1515610ce657600080fd5b6102c65a03f11515610cf757600080fd5b505050604051805190508d60018e8e8a8a610d69565b90505b9b9a5050505050505050505050565b610d2761169b565b8115610d4557610d3e8d8d8d60008c8c8c8c6112b5565b9050610d59565b610d568d8d8d60008e8e8a8a6112b5565b90505b9c9b505050505050505050505050565b610d71611673565b6000806000610d7e611673565b600080935089898f6000604051602001526040518263ffffffff167c0100000000000000000000000000000000000000000000000000000000028152600401808260001916600019168152602001915050602060405180830381600087803b1515610de857600080fd5b6102c65a03f11515610df957600080fd5b50505060405180519050925060008c1480610e1f57506000600102600019168360001916145b15610e4b576000604051805910610e335750595b90808252806020026020018201604052509550611020565b8b604051805910610e595750595b908082528060200260200182016040525091508a15610e9f578c826000815181101515610e8257fe5b906020019060200201906000191690816000191681525050600193505b8c90508394505b8b85108015610ebd57508260001916816000191614155b15610fa65787878f836000604051602001526040518363ffffffff167c0100000000000000000000000000000000000000000000000000000000028152600401808360001916600019168152602001826000191660001916815260200192505050602060405180830381600087803b1515610f3757600080fd5b6102c65a03f11515610f4857600080fd5b5050506040518051905090506000600102600019168160001916141515610f99578380600101945050808286815181101515610f8057fe5b9060200190602002019060001916908160001916815250505b8480600101955050610ea6565b83604051805910610fb45750595b90808252806020026020018201604052509550600094505b8385101561101f578185815181101515610fe257fe5b906020019060200201518686815181101515610ffa57fe5b9060200190602002019060001916908160001916815250508480600101955050610fcc565b5b505050505098975050505050505050565b611039611687565b6000806000611046611687565b600080935089898f6000604051602001526040518263ffffffff167c0100000000000000000000000000000000000000000000000000000000028152600401808260001916600019168152602001915050602060405180830381600087803b15156110b057600080fd5b6102c65a03f115156110c157600080fd5b50505060405180519050925060008c14806110dc5750600083145b156111085760006040518059106110f05750595b908082528060200260200182016040525095506112a4565b8b6040518059106111165750595b908082528060200260200182016040525091508a15611152578c82600081518110151561113f57fe5b9060200190602002018181525050600193505b8c90508394505b8b851080156111685750828114155b156112345787878f836000604051602001526040518363ffffffff167c010000000000000000000000000000000000000000000000000000000002815260040180836000191660001916815260200182815260200192505050602060405180830381600087803b15156111da57600080fd5b6102c65a03f115156111eb57600080fd5b50505060405180519050905060008114151561122757838060010194505080828681518110151561121857fe5b90602001906020020181815250505b8480600101955050611159565b836040518059106112425750595b90808252806020026020018201604052509550600094505b838510156112a357818581518110151561127057fe5b90602001906020020151868681518110151561128857fe5b9060200190602002018181525050848060010195505061125a565b5b505050505098975050505050505050565b6112bd61169b565b60008060006112ca61169b565b600080935089898f6000604051602001526040518263ffffffff167c0100000000000000000000000000000000000000000000000000000000028152600401808260001916600019168152602001915050602060405180830381600087803b151561133457600080fd5b6102c65a03f1151561134557600080fd5b50505060405180519050925060008c148061138c5750600073ffffffffffffffffffffffffffffffffffffffff168373ffffffffffffffffffffffffffffffffffffffff16145b156113b85760006040518059106113a05750595b90808252806020026020018201604052509550611662565b8b6040518059106113c65750595b908082528060200260200182016040525091508a15611430578c8260008151811015156113ef57fe5b9060200190602002019073ffffffffffffffffffffffffffffffffffffffff16908173ffffffffffffffffffffffffffffffffffffffff1681525050600193505b8c90508394505b8b8510801561147257508273ffffffffffffffffffffffffffffffffffffffff168173ffffffffffffffffffffffffffffffffffffffff1614155b156115c45787878f836000604051602001526040518363ffffffff167c01000000000000000000000000000000000000000000000000000000000281526004018083600019166000191681526020018273ffffffffffffffffffffffffffffffffffffffff1673ffffffffffffffffffffffffffffffffffffffff16815260200192505050602060405180830381600087803b151561151057600080fd5b6102c65a03f1151561152157600080fd5b505050604051805190509050600073ffffffffffffffffffffffffffffffffffffffff168173ffffffffffffffffffffffffffffffffffffffff161415156115b757838060010194505080828681518110151561157a57fe5b9060200190602002019073ffffffffffffffffffffffffffffffffffffffff16908173ffffffffffffffffffffffffffffffffffffffff16815250505b8480600101955050611437565b836040518059106115d25750595b90808252806020026020018201604052509550600094505b8385101561166157818581518110151561160057fe5b90602001906020020151868681518110151561161857fe5b9060200190602002019073ffffffffffffffffffffffffffffffffffffffff16908173ffffffffffffffffffffffffffffffffffffffff168152505084806001019550506115ea565b5b505050505098975050505050505050565b602060405190810160405280600081525090565b602060405190810160405280600081525090565b6020604051908101604052806000815250905600a165627a7a723058209a3e104e71813a7b553a5f94c82214c5c67489ae486f373226ad2a4c1b862bbf0029",
  "source": "pragma solidity ^0.4.19;\n\nimport \"../abstract/IndexedBytesIteratorInteractive.sol\";\nimport \"../abstract/IndexedAddressIteratorInteractive.sol\";\nimport \"../abstract/IndexedUintIteratorInteractive.sol\";\nimport \"./ExampleIndexedController.sol\";\n  /**\n    @title Example Indexed Interactive\n    @author DigixGlobal Pte Ltd\n */\ncontract ExampleIndexedInteractive is IndexedBytesIteratorInteractive, IndexedAddressIteratorInteractive, IndexedUintIteratorInteractive {\n\n  address public controller_contract;\n\n  /**\n    @notice Constructor\n    @param _controller The Controller to use\n  */\n  function ExampleIndexedInteractive(address _controller) public {\n    controller_contract = _controller;\n  }\n\n  /**\n    @notice Initializes an instance of ExampleIndexedController\n  */\n  function example_controller()\n           internal\n           constant\n           returns (ExampleIndexedController _contract)\n  {\n    _contract = ExampleIndexedController(controller_contract);\n  }\n\n\n  /**\n    @notice Lists collection of indexed Bytes from the start or end\n    @param _collection_index The Index of the Collection to evaluate\n    @param _count The Total number of items you wish to be returned\n    @param _from_start Whether to read items from start (or end)\n    @return {\"_collection_items\":\"Collection items\"}\n  */\n  function list_indexed_bytes_collection(bytes32 _collection_index, uint256 _count, bool _from_start)\n           public\n           constant\n           returns (bytes32[] _collection_items)\n  {\n    _collection_items = list_indexed_bytesarray(_collection_index, _count,\n                                    example_controller().get_first_in_indexed_bytes_collection,\n                                    example_controller().get_last_in_indexed_bytes_collection,\n                                    example_controller().get_next_in_indexed_bytes_collection,\n                                    example_controller().get_previous_in_indexed_bytes_collection,\n                                    _from_start);\n  }\n\n  /**\n    @notice Lists collection of Bytes starting from the specified `_current_item`, going forwards or backwards depending on `_from_start`\n    @param _collection_index The Index of the Collection to evaluate\n    @param _count The Total number of items you wish to be returned\n    @param _from_start Whether to read items forwards (or backwards)\n    @return {\"_collection_items\":\"Collection items\"}\n  */\n  function list_indexed_bytes_collection_from(bytes32 _collection_index, bytes32 _current_item, uint256 _count, bool _from_start)\n           public\n           constant\n           returns (bytes32[] _collection_items)\n  {\n    _collection_items = list_indexed_bytesarray_from(_collection_index, _current_item, _count,\n                                              example_controller().get_first_in_indexed_bytes_collection,\n                                              example_controller().get_last_in_indexed_bytes_collection,\n                                              example_controller().get_next_in_indexed_bytes_collection,\n                                              example_controller().get_previous_in_indexed_bytes_collection,\n                                              _from_start);\n  }\n\n  /**\n    @notice Lists collection of indexed Address from the start or end\n    @param _collection_index The Index of the Collection to evaluate\n    @param _count The Total number of items you wish to be returned\n    @param _from_start Whether to read items from start (or end)\n    @return {\"_collection_items\":\"Collection items\"}\n  */\n  function list_indexed_addresses_collection(bytes32 _collection_index, uint256 _count, bool _from_start)\n           public\n           constant\n           returns (address[] _collection_items)\n  {\n    _collection_items = list_indexed_addresses(_collection_index, _count,\n                                    example_controller().get_first_in_indexed_addresses_collection,\n                                    example_controller().get_last_in_indexed_addresses_collection,\n                                    example_controller().get_next_in_indexed_addresses_collection,\n                                    example_controller().get_previous_in_indexed_addresses_collection,\n                                    _from_start);\n  }\n\n  /**\n    @notice Lists collection of Address starting from the specified `_current_item`, going forwards or backwards depending on `_from_start`\n    @param _collection_index The Index of the Collection to evaluate\n    @param _count The Total number of items you wish to be returned\n    @param _from_start Whether to read items forwards (or backwards)\n    @return {\"_collection_items\":\"Collection items\"}\n  */\n  function list_indexed_addresses_collection_from(bytes32 _collection_index, address _current_item, uint256 _count, bool _from_start)\n           public\n           constant\n           returns (address[] _collection_items)\n  {\n    _collection_items = list_indexed_addresses_from(_collection_index, _current_item, _count,\n                                              example_controller().get_first_in_indexed_addresses_collection,\n                                              example_controller().get_last_in_indexed_addresses_collection,\n                                              example_controller().get_next_in_indexed_addresses_collection,\n                                              example_controller().get_previous_in_indexed_addresses_collection,\n                                              _from_start);\n  }\n\n  /**\n    @notice Lists collection of indexed Uints from the start or end\n    @param _collection_index The Index of the Collection to evaluate\n    @param _count The Total number of items you wish to be returned\n    @param _from_start Whether to read items from start (or end)\n    @return {\"_collection_items\":\"Collection items\"}\n  */\n  function list_indexed_uints_collection(bytes32 _collection_index, uint256 _count, bool _from_start)\n           public\n           constant\n           returns (uint256[] _collection_items)\n  {\n    _collection_items = list_indexed_uints(_collection_index, _count,\n                                    example_controller().get_first_in_indexed_uints_collection,\n                                    example_controller().get_last_in_indexed_uints_collection,\n                                    example_controller().get_next_in_indexed_uints_collection,\n                                    example_controller().get_previous_in_indexed_uints_collection,\n                                    _from_start);\n  }\n\n  /**\n    @notice Lists collection of Uints starting from the specified `_current_item`, going forwards or backwards depending on `_from_start`\n    @param _collection_index The Index of the Collection to evaluate\n    @param _count The Total number of items you wish to be returned\n    @param _from_start Whether to read items forwards (or backwards)\n    @return {\"_collection_items\":\"Collection items\"}\n  */\n  function list_indexed_uints_collection_from(bytes32 _collection_index, uint256 _current_item, uint256 _count, bool _from_start)\n           public\n           constant\n           returns (uint256[] _collection_items)\n  {\n    _collection_items = list_indexed_uints_from(_collection_index, _current_item, _count,\n                                              example_controller().get_first_in_indexed_uints_collection,\n                                              example_controller().get_last_in_indexed_uints_collection,\n                                              example_controller().get_next_in_indexed_uints_collection,\n                                              example_controller().get_previous_in_indexed_uints_collection,\n                                              _from_start);\n  }\n\n}\n",
  "sourcePath": "/home/rohit/Develop/solidity-collections-library/contracts/examples/ExampleIndexedInteractive.sol",
  "compiler": {
    "name": "solc",
    "version": "0.4.19+commit.c4cbbb05.Emscripten.clang"
  },
  "schemaVersion": "1.0.1",
  "updatedAt": "2018-03-07T03:38:46.683Z"
}