{
  "contractName": "ExampleIndexedStorage",
  "abi": [
    {
      "inputs": [],
      "payable": false,
      "stateMutability": "nonpayable",
      "type": "constructor"
    },
    {
      "constant": false,
      "inputs": [],
      "name": "initialize",
      "outputs": [],
      "payable": false,
      "stateMutability": "nonpayable",
      "type": "function"
    },
    {
      "constant": false,
      "inputs": [
        {
          "name": "_collection_index",
          "type": "bytes32"
        }
      ],
      "name": "remove_all_data_in_indexed_bytes_collection",
      "outputs": [
        {
          "name": "_success",
          "type": "bool"
        }
      ],
      "payable": false,
      "stateMutability": "nonpayable",
      "type": "function"
    },
    {
      "constant": false,
      "inputs": [
        {
          "name": "_collection_index",
          "type": "bytes32"
        }
      ],
      "name": "remove_all_data_in_indexed_addresses_collection",
      "outputs": [
        {
          "name": "_success",
          "type": "bool"
        }
      ],
      "payable": false,
      "stateMutability": "nonpayable",
      "type": "function"
    },
    {
      "constant": false,
      "inputs": [
        {
          "name": "_collection_index",
          "type": "bytes32"
        }
      ],
      "name": "remove_all_data_in_indexed_uints_collection",
      "outputs": [
        {
          "name": "_success",
          "type": "bool"
        }
      ],
      "payable": false,
      "stateMutability": "nonpayable",
      "type": "function"
    },
    {
      "constant": true,
      "inputs": [
        {
          "name": "_collection_index",
          "type": "bytes32"
        }
      ],
      "name": "read_first_in_indexed_bytes_collection",
      "outputs": [
        {
          "name": "_item",
          "type": "bytes32"
        }
      ],
      "payable": false,
      "stateMutability": "view",
      "type": "function"
    },
    {
      "constant": true,
      "inputs": [
        {
          "name": "_collection_index",
          "type": "bytes32"
        }
      ],
      "name": "read_last_in_indexed_bytes_collection",
      "outputs": [
        {
          "name": "_item",
          "type": "bytes32"
        }
      ],
      "payable": false,
      "stateMutability": "view",
      "type": "function"
    },
    {
      "constant": true,
      "inputs": [
        {
          "name": "_collection_index",
          "type": "bytes32"
        },
        {
          "name": "_current_item",
          "type": "bytes32"
        }
      ],
      "name": "read_next_in_indexed_bytes_collection",
      "outputs": [
        {
          "name": "_item",
          "type": "bytes32"
        }
      ],
      "payable": false,
      "stateMutability": "view",
      "type": "function"
    },
    {
      "constant": true,
      "inputs": [
        {
          "name": "_collection_index",
          "type": "bytes32"
        },
        {
          "name": "_current_item",
          "type": "bytes32"
        }
      ],
      "name": "read_previous_in_indexed_bytes_collection",
      "outputs": [
        {
          "name": "_item",
          "type": "bytes32"
        }
      ],
      "payable": false,
      "stateMutability": "view",
      "type": "function"
    },
    {
      "constant": true,
      "inputs": [
        {
          "name": "_collection_index",
          "type": "bytes32"
        }
      ],
      "name": "read_total_in_indexed_bytes_collection",
      "outputs": [
        {
          "name": "_total_count",
          "type": "uint256"
        }
      ],
      "payable": false,
      "stateMutability": "view",
      "type": "function"
    },
    {
      "constant": true,
      "inputs": [
        {
          "name": "_collection_index",
          "type": "bytes32"
        }
      ],
      "name": "read_first_in_indexed_addresses_collection",
      "outputs": [
        {
          "name": "_item",
          "type": "address"
        }
      ],
      "payable": false,
      "stateMutability": "view",
      "type": "function"
    },
    {
      "constant": true,
      "inputs": [
        {
          "name": "_collection_index",
          "type": "bytes32"
        }
      ],
      "name": "read_last_in_indexed_addresses_collection",
      "outputs": [
        {
          "name": "_item",
          "type": "address"
        }
      ],
      "payable": false,
      "stateMutability": "view",
      "type": "function"
    },
    {
      "constant": true,
      "inputs": [
        {
          "name": "_collection_index",
          "type": "bytes32"
        },
        {
          "name": "_current_item",
          "type": "address"
        }
      ],
      "name": "read_next_in_indexed_addresses_collection",
      "outputs": [
        {
          "name": "_item",
          "type": "address"
        }
      ],
      "payable": false,
      "stateMutability": "view",
      "type": "function"
    },
    {
      "constant": true,
      "inputs": [
        {
          "name": "_collection_index",
          "type": "bytes32"
        },
        {
          "name": "_current_item",
          "type": "address"
        }
      ],
      "name": "read_previous_in_indexed_addresses_collection",
      "outputs": [
        {
          "name": "_item",
          "type": "address"
        }
      ],
      "payable": false,
      "stateMutability": "view",
      "type": "function"
    },
    {
      "constant": true,
      "inputs": [
        {
          "name": "_collection_index",
          "type": "bytes32"
        }
      ],
      "name": "read_total_in_indexed_addresses_collection",
      "outputs": [
        {
          "name": "_total_count",
          "type": "uint256"
        }
      ],
      "payable": false,
      "stateMutability": "view",
      "type": "function"
    },
    {
      "constant": true,
      "inputs": [
        {
          "name": "_collection_index",
          "type": "bytes32"
        }
      ],
      "name": "read_first_in_indexed_uints_collection",
      "outputs": [
        {
          "name": "_item",
          "type": "uint256"
        }
      ],
      "payable": false,
      "stateMutability": "view",
      "type": "function"
    },
    {
      "constant": true,
      "inputs": [
        {
          "name": "_collection_index",
          "type": "bytes32"
        }
      ],
      "name": "read_last_in_indexed_uints_collection",
      "outputs": [
        {
          "name": "_item",
          "type": "uint256"
        }
      ],
      "payable": false,
      "stateMutability": "view",
      "type": "function"
    },
    {
      "constant": true,
      "inputs": [
        {
          "name": "_collection_index",
          "type": "bytes32"
        },
        {
          "name": "_current_item",
          "type": "uint256"
        }
      ],
      "name": "read_next_in_indexed_uints_collection",
      "outputs": [
        {
          "name": "_item",
          "type": "uint256"
        }
      ],
      "payable": false,
      "stateMutability": "view",
      "type": "function"
    },
    {
      "constant": true,
      "inputs": [
        {
          "name": "_collection_index",
          "type": "bytes32"
        },
        {
          "name": "_current_item",
          "type": "uint256"
        }
      ],
      "name": "read_previous_in_indexed_uints_collection",
      "outputs": [
        {
          "name": "_item",
          "type": "uint256"
        }
      ],
      "payable": false,
      "stateMutability": "view",
      "type": "function"
    },
    {
      "constant": true,
      "inputs": [
        {
          "name": "_collection_index",
          "type": "bytes32"
        }
      ],
      "name": "read_total_in_indexed_uints_collection",
      "outputs": [
        {
          "name": "_total_count",
          "type": "uint256"
        }
      ],
      "payable": false,
      "stateMutability": "view",
      "type": "function"
    }
  ],
  "bytecode": "0x60806040523480156200001157600080fd5b506200002b62000031640100000000026401000000009004565b62001209565b600073__DoublyLinkedList______________________63966277fb90916040518263ffffffff167c010000000000000000000000000000000000000000000000000000000002815260040180828152602001807f6100000000000000000000000000000000000000000000000000000000000000815250602001807f617465737431000000000000000000000000000000000000000000000000000081525060200191505060206040518083038186803b158015620000f057600080fd5b505af415801562000105573d6000803e3d6000fd5b505050506040513d60208110156200011c57600080fd5b810190808051906020019092919050505050600073__DoublyLinkedList______________________63966277fb90916040518263ffffffff167c010000000000000000000000000000000000000000000000000000000002815260040180828152602001807f6100000000000000000000000000000000000000000000000000000000000000815250602001807f617465737432000000000000000000000000000000000000000000000000000081525060200191505060206040518083038186803b158015620001ed57600080fd5b505af415801562000202573d6000803e3d6000fd5b505050506040513d60208110156200021957600080fd5b810190808051906020019092919050505050600073__DoublyLinkedList______________________63966277fb90916040518263ffffffff167c010000000000000000000000000000000000000000000000000000000002815260040180828152602001807f6100000000000000000000000000000000000000000000000000000000000000815250602001807f617465737433000000000000000000000000000000000000000000000000000081525060200191505060206040518083038186803b158015620002ea57600080fd5b505af4158015620002ff573d6000803e3d6000fd5b505050506040513d60208110156200031657600080fd5b810190808051906020019092919050505050600073__DoublyLinkedList______________________63966277fb90916040518263ffffffff167c010000000000000000000000000000000000000000000000000000000002815260040180828152602001807f6100000000000000000000000000000000000000000000000000000000000000815250602001807f617465737434000000000000000000000000000000000000000000000000000081525060200191505060206040518083038186803b158015620003e757600080fd5b505af4158015620003fc573d6000803e3d6000fd5b505050506040513d60208110156200041357600080fd5b810190808051906020019092919050505050600073__DoublyLinkedList______________________63966277fb90916040518263ffffffff167c010000000000000000000000000000000000000000000000000000000002815260040180828152602001807f6100000000000000000000000000000000000000000000000000000000000000815250602001807f617465737435000000000000000000000000000000000000000000000000000081525060200191505060206040518083038186803b158015620004e457600080fd5b505af4158015620004f9573d6000803e3d6000fd5b505050506040513d60208110156200051057600080fd5b810190808051906020019092919050505050600073__DoublyLinkedList______________________63966277fb90916040518263ffffffff167c010000000000000000000000000000000000000000000000000000000002815260040180828152602001807f6100000000000000000000000000000000000000000000000000000000000000815250602001807f617465737436000000000000000000000000000000000000000000000000000081525060200191505060206040518083038186803b158015620005e157600080fd5b505af4158015620005f6573d6000803e3d6000fd5b505050506040513d60208110156200060d57600080fd5b810190808051906020019092919050505050600173__DoublyLinkedList______________________639682eb129091737812421a7579d8182dc6f2b68ab56595db01553f6040518363ffffffff167c010000000000000000000000000000000000000000000000000000000002815260040180838152602001807f61000000000000000000000000000000000000000000000000000000000000008152506020018273ffffffffffffffffffffffffffffffffffffffff1673ffffffffffffffffffffffffffffffffffffffff1681526020019250505060206040518083038186803b158015620006fe57600080fd5b505af415801562000713573d6000803e3d6000fd5b505050506040513d60208110156200072a57600080fd5b810190808051906020019092919050505050600173__DoublyLinkedList______________________639682eb12909173419f0a80d85f3c7dc3553394d91c9a339332a01e6040518363ffffffff167c010000000000000000000000000000000000000000000000000000000002815260040180838152602001807f61000000000000000000000000000000000000000000000000000000000000008152506020018273ffffffffffffffffffffffffffffffffffffffff1673ffffffffffffffffffffffffffffffffffffffff1681526020019250505060206040518083038186803b1580156200081b57600080fd5b505af415801562000830573d6000803e3d6000fd5b505050506040513d60208110156200084757600080fd5b810190808051906020019092919050505050600173__DoublyLinkedList______________________639682eb12909173f5dfe2a3f8cf5ca8723b51be6fc065bea0cfe8936040518363ffffffff167c010000000000000000000000000000000000000000000000000000000002815260040180838152602001807f61000000000000000000000000000000000000000000000000000000000000008152506020018273ffffffffffffffffffffffffffffffffffffffff1673ffffffffffffffffffffffffffffffffffffffff1681526020019250505060206040518083038186803b1580156200093857600080fd5b505af41580156200094d573d6000803e3d6000fd5b505050506040513d60208110156200096457600080fd5b810190808051906020019092919050505050600173__DoublyLinkedList______________________639682eb129091735dc52d499a77af45f43174cfe7982dc68c331c386040518363ffffffff167c010000000000000000000000000000000000000000000000000000000002815260040180838152602001807f61000000000000000000000000000000000000000000000000000000000000008152506020018273ffffffffffffffffffffffffffffffffffffffff1673ffffffffffffffffffffffffffffffffffffffff1681526020019250505060206040518083038186803b15801562000a5557600080fd5b505af415801562000a6a573d6000803e3d6000fd5b505050506040513d602081101562000a8157600080fd5b810190808051906020019092919050505050600173__DoublyLinkedList______________________639682eb12909173727c89006bd885f9a77254797a362d69e8a1f4da6040518363ffffffff167c010000000000000000000000000000000000000000000000000000000002815260040180838152602001807f61000000000000000000000000000000000000000000000000000000000000008152506020018273ffffffffffffffffffffffffffffffffffffffff1673ffffffffffffffffffffffffffffffffffffffff1681526020019250505060206040518083038186803b15801562000b7257600080fd5b505af415801562000b87573d6000803e3d6000fd5b505050506040513d602081101562000b9e57600080fd5b810190808051906020019092919050505050600173__DoublyLinkedList______________________639682eb129091730f66ec3df48ec1e216d24e225b772696e031b6986040518363ffffffff167c010000000000000000000000000000000000000000000000000000000002815260040180838152602001807f61000000000000000000000000000000000000000000000000000000000000008152506020018273ffffffffffffffffffffffffffffffffffffffff1673ffffffffffffffffffffffffffffffffffffffff1681526020019250505060206040518083038186803b15801562000c8f57600080fd5b505af415801562000ca4573d6000803e3d6000fd5b505050506040513d602081101562000cbb57600080fd5b810190808051906020019092919050505050600273__DoublyLinkedList______________________63dfffdce390916103ea6040518363ffffffff167c010000000000000000000000000000000000000000000000000000000002815260040180838152602001807f61000000000000000000000000000000000000000000000000000000000000008152506020018281526020019250505060206040518083038186803b15801562000d6e57600080fd5b505af415801562000d83573d6000803e3d6000fd5b505050506040513d602081101562000d9a57600080fd5b810190808051906020019092919050505050600273__DoublyLinkedList______________________63dfffdce390916103eb6040518363ffffffff167c010000000000000000000000000000000000000000000000000000000002815260040180838152602001807f61000000000000000000000000000000000000000000000000000000000000008152506020018281526020019250505060206040518083038186803b15801562000e4d57600080fd5b505af415801562000e62573d6000803e3d6000fd5b505050506040513d602081101562000e7957600080fd5b810190808051906020019092919050505050600273__DoublyLinkedList______________________63dfffdce390916103ec6040518363ffffffff167c010000000000000000000000000000000000000000000000000000000002815260040180838152602001807f61000000000000000000000000000000000000000000000000000000000000008152506020018281526020019250505060206040518083038186803b15801562000f2c57600080fd5b505af415801562000f41573d6000803e3d6000fd5b505050506040513d602081101562000f5857600080fd5b810190808051906020019092919050505050600273__DoublyLinkedList______________________63dfffdce390916103ed6040518363ffffffff167c010000000000000000000000000000000000000000000000000000000002815260040180838152602001807f61000000000000000000000000000000000000000000000000000000000000008152506020018281526020019250505060206040518083038186803b1580156200100b57600080fd5b505af415801562001020573d6000803e3d6000fd5b505050506040513d60208110156200103757600080fd5b810190808051906020019092919050505050600273__DoublyLinkedList______________________63dfffdce390916103ee6040518363ffffffff167c010000000000000000000000000000000000000000000000000000000002815260040180838152602001807f61000000000000000000000000000000000000000000000000000000000000008152506020018281526020019250505060206040518083038186803b158015620010ea57600080fd5b505af4158015620010ff573d6000803e3d6000fd5b505050506040513d60208110156200111657600080fd5b810190808051906020019092919050505050600273__DoublyLinkedList______________________63dfffdce390916103ef6040518363ffffffff167c010000000000000000000000000000000000000000000000000000000002815260040180838152602001807f61000000000000000000000000000000000000000000000000000000000000008152506020018281526020019250505060206040518083038186803b158015620011c957600080fd5b505af4158015620011de573d6000803e3d6000fd5b505050506040513d6020811015620011f557600080fd5b810190808051906020019092919050505050565b612bdd80620012196000396000f300608060405260043610610107576000357c0100000000000000000000000000000000000000000000000000000000900463ffffffff168063189310161461010c578063385e6ee91461017d57806338b63463146101cc57806347ff9ac01461021557806348bc91fa1461026257806372ea4fa8146102d357806378a6dcc91461031c5780638129fc1c1461036157806381dd8e6e146103785780639f666fe7146103bd578063a7493d8a14610402578063a94fc5051461045d578063b17054db146104ee578063bf78a81d14610549578063c20681f1146105da578063d0d763901461061f578063d6f66e221461066e578063e169c533146106bb578063ff5e46cc14610704575b600080fd5b34801561011857600080fd5b5061013b6004803603810190808035600019169060200190929190505050610749565b604051808273ffffffffffffffffffffffffffffffffffffffff1673ffffffffffffffffffffffffffffffffffffffff16815260200191505060405180910390f35b34801561018957600080fd5b506101b660048036038101908080356000191690602001909291908035906020019092919050505061075d565b6040518082815260200191505060405180910390f35b3480156101d857600080fd5b506101fb6004803603810190808035600019169060200190929190505050610773565b604051808215151515815260200191505060405180910390f35b34801561022157600080fd5b50610244600480360381019080803560001916906020019092919050505061086c565b60405180826000191660001916815260200191505060405180910390f35b34801561026e57600080fd5b506102916004803603810190808035600019169060200190929190505050610880565b604051808273ffffffffffffffffffffffffffffffffffffffff1673ffffffffffffffffffffffffffffffffffffffff16815260200191505060405180910390f35b3480156102df57600080fd5b506103026004803603810190808035600019169060200190929190505050610894565b604051808215151515815260200191505060405180910390f35b34801561032857600080fd5b5061034b600480360381019080803560001916906020019092919050505061098e565b6040518082815260200191505060405180910390f35b34801561036d57600080fd5b506103766109a2565b005b34801561038457600080fd5b506103a76004803603810190808035600019169060200190929190505050611b44565b6040518082815260200191505060405180910390f35b3480156103c957600080fd5b506103ec6004803603810190808035600019169060200190929190505050611b58565b6040518082815260200191505060405180910390f35b34801561040e57600080fd5b5061043f60048036038101908080356000191690602001909291908035600019169060200190929190505050611b6c565b60405180826000191660001916815260200191505060405180910390f35b34801561046957600080fd5b506104ac6004803603810190808035600019169060200190929190803573ffffffffffffffffffffffffffffffffffffffff169060200190929190505050611b82565b604051808273ffffffffffffffffffffffffffffffffffffffff1673ffffffffffffffffffffffffffffffffffffffff16815260200191505060405180910390f35b3480156104fa57600080fd5b5061052b60048036038101908080356000191690602001909291908035600019169060200190929190505050611b98565b60405180826000191660001916815260200191505060405180910390f35b34801561055557600080fd5b506105986004803603810190808035600019169060200190929190803573ffffffffffffffffffffffffffffffffffffffff169060200190929190505050611bae565b604051808273ffffffffffffffffffffffffffffffffffffffff1673ffffffffffffffffffffffffffffffffffffffff16815260200191505060405180910390f35b3480156105e657600080fd5b506106096004803603810190808035600019169060200190929190505050611bc4565b6040518082815260200191505060405180910390f35b34801561062b57600080fd5b50610658600480360381019080803560001916906020019092919080359060200190929190505050611bd8565b6040518082815260200191505060405180910390f35b34801561067a57600080fd5b5061069d6004803603810190808035600019169060200190929190505050611bee565b60405180826000191660001916815260200191505060405180910390f35b3480156106c757600080fd5b506106ea6004803603810190808035600019169060200190929190505050611c02565b604051808215151515815260200191505060405180910390f35b34801561071057600080fd5b506107336004803603810190808035600019169060200190929190505050611cfc565b6040518082815260200191505060405180910390f35b6000610756600183611d10565b9050919050565b600061076b60028484611dd2565b905092915050565b600080600190505b6006811115156107a95761079b83826000611e9d9092919063ffffffff16565b50808060010191505061077b565b60008073__DoublyLinkedList______________________63d3209ca09091866040518363ffffffff167c01000000000000000000000000000000000000000000000000000000000281526004018083815260200182600019166000191681526020019250505060206040518083038186803b15801561082857600080fd5b505af415801561083c573d6000803e3d6000fd5b505050506040513d602081101561085257600080fd5b810190808051906020019092919050505014915050919050565b6000610879600083611ece565b9050919050565b600061088d600183611f90565b9050919050565b600080600190505b6006811115156108ca576108bc838260026120529092919063ffffffff16565b50808060010191505061089c565b6000600273__DoublyLinkedList______________________636e2d58059091866040518363ffffffff167c01000000000000000000000000000000000000000000000000000000000281526004018083815260200182600019166000191681526020019250505060206040518083038186803b15801561094a57600080fd5b505af415801561095e573d6000803e3d6000fd5b505050506040513d602081101561097457600080fd5b810190808051906020019092919050505014915050919050565b600061099b600283612083565b9050919050565b600073__DoublyLinkedList______________________63966277fb90916040518263ffffffff167c010000000000000000000000000000000000000000000000000000000002815260040180828152602001807f6100000000000000000000000000000000000000000000000000000000000000815250602001807f617465737431000000000000000000000000000000000000000000000000000081525060200191505060206040518083038186803b158015610a6057600080fd5b505af4158015610a74573d6000803e3d6000fd5b505050506040513d6020811015610a8a57600080fd5b810190808051906020019092919050505050600073__DoublyLinkedList______________________63966277fb90916040518263ffffffff167c010000000000000000000000000000000000000000000000000000000002815260040180828152602001807f6100000000000000000000000000000000000000000000000000000000000000815250602001807f617465737432000000000000000000000000000000000000000000000000000081525060200191505060206040518083038186803b158015610b5a57600080fd5b505af4158015610b6e573d6000803e3d6000fd5b505050506040513d6020811015610b8457600080fd5b810190808051906020019092919050505050600073__DoublyLinkedList______________________63966277fb90916040518263ffffffff167c010000000000000000000000000000000000000000000000000000000002815260040180828152602001807f6100000000000000000000000000000000000000000000000000000000000000815250602001807f617465737433000000000000000000000000000000000000000000000000000081525060200191505060206040518083038186803b158015610c5457600080fd5b505af4158015610c68573d6000803e3d6000fd5b505050506040513d6020811015610c7e57600080fd5b810190808051906020019092919050505050600073__DoublyLinkedList______________________63966277fb90916040518263ffffffff167c010000000000000000000000000000000000000000000000000000000002815260040180828152602001807f6100000000000000000000000000000000000000000000000000000000000000815250602001807f617465737434000000000000000000000000000000000000000000000000000081525060200191505060206040518083038186803b158015610d4e57600080fd5b505af4158015610d62573d6000803e3d6000fd5b505050506040513d6020811015610d7857600080fd5b810190808051906020019092919050505050600073__DoublyLinkedList______________________63966277fb90916040518263ffffffff167c010000000000000000000000000000000000000000000000000000000002815260040180828152602001807f6100000000000000000000000000000000000000000000000000000000000000815250602001807f617465737435000000000000000000000000000000000000000000000000000081525060200191505060206040518083038186803b158015610e4857600080fd5b505af4158015610e5c573d6000803e3d6000fd5b505050506040513d6020811015610e7257600080fd5b810190808051906020019092919050505050600073__DoublyLinkedList______________________63966277fb90916040518263ffffffff167c010000000000000000000000000000000000000000000000000000000002815260040180828152602001807f6100000000000000000000000000000000000000000000000000000000000000815250602001807f617465737436000000000000000000000000000000000000000000000000000081525060200191505060206040518083038186803b158015610f4257600080fd5b505af4158015610f56573d6000803e3d6000fd5b505050506040513d6020811015610f6c57600080fd5b810190808051906020019092919050505050600173__DoublyLinkedList______________________639682eb129091737812421a7579d8182dc6f2b68ab56595db01553f6040518363ffffffff167c010000000000000000000000000000000000000000000000000000000002815260040180838152602001807f61000000000000000000000000000000000000000000000000000000000000008152506020018273ffffffffffffffffffffffffffffffffffffffff1673ffffffffffffffffffffffffffffffffffffffff1681526020019250505060206040518083038186803b15801561105c57600080fd5b505af4158015611070573d6000803e3d6000fd5b505050506040513d602081101561108657600080fd5b810190808051906020019092919050505050600173__DoublyLinkedList______________________639682eb12909173419f0a80d85f3c7dc3553394d91c9a339332a01e6040518363ffffffff167c010000000000000000000000000000000000000000000000000000000002815260040180838152602001807f61000000000000000000000000000000000000000000000000000000000000008152506020018273ffffffffffffffffffffffffffffffffffffffff1673ffffffffffffffffffffffffffffffffffffffff1681526020019250505060206040518083038186803b15801561117657600080fd5b505af415801561118a573d6000803e3d6000fd5b505050506040513d60208110156111a057600080fd5b810190808051906020019092919050505050600173__DoublyLinkedList______________________639682eb12909173f5dfe2a3f8cf5ca8723b51be6fc065bea0cfe8936040518363ffffffff167c010000000000000000000000000000000000000000000000000000000002815260040180838152602001807f61000000000000000000000000000000000000000000000000000000000000008152506020018273ffffffffffffffffffffffffffffffffffffffff1673ffffffffffffffffffffffffffffffffffffffff1681526020019250505060206040518083038186803b15801561129057600080fd5b505af41580156112a4573d6000803e3d6000fd5b505050506040513d60208110156112ba57600080fd5b810190808051906020019092919050505050600173__DoublyLinkedList______________________639682eb129091735dc52d499a77af45f43174cfe7982dc68c331c386040518363ffffffff167c010000000000000000000000000000000000000000000000000000000002815260040180838152602001807f61000000000000000000000000000000000000000000000000000000000000008152506020018273ffffffffffffffffffffffffffffffffffffffff1673ffffffffffffffffffffffffffffffffffffffff1681526020019250505060206040518083038186803b1580156113aa57600080fd5b505af41580156113be573d6000803e3d6000fd5b505050506040513d60208110156113d457600080fd5b810190808051906020019092919050505050600173__DoublyLinkedList______________________639682eb12909173727c89006bd885f9a77254797a362d69e8a1f4da6040518363ffffffff167c010000000000000000000000000000000000000000000000000000000002815260040180838152602001807f61000000000000000000000000000000000000000000000000000000000000008152506020018273ffffffffffffffffffffffffffffffffffffffff1673ffffffffffffffffffffffffffffffffffffffff1681526020019250505060206040518083038186803b1580156114c457600080fd5b505af41580156114d8573d6000803e3d6000fd5b505050506040513d60208110156114ee57600080fd5b810190808051906020019092919050505050600173__DoublyLinkedList______________________639682eb129091730f66ec3df48ec1e216d24e225b772696e031b6986040518363ffffffff167c010000000000000000000000000000000000000000000000000000000002815260040180838152602001807f61000000000000000000000000000000000000000000000000000000000000008152506020018273ffffffffffffffffffffffffffffffffffffffff1673ffffffffffffffffffffffffffffffffffffffff1681526020019250505060206040518083038186803b1580156115de57600080fd5b505af41580156115f2573d6000803e3d6000fd5b505050506040513d602081101561160857600080fd5b810190808051906020019092919050505050600273__DoublyLinkedList______________________63dfffdce390916103ea6040518363ffffffff167c010000000000000000000000000000000000000000000000000000000002815260040180838152602001807f61000000000000000000000000000000000000000000000000000000000000008152506020018281526020019250505060206040518083038186803b1580156116ba57600080fd5b505af41580156116ce573d6000803e3d6000fd5b505050506040513d60208110156116e457600080fd5b810190808051906020019092919050505050600273__DoublyLinkedList______________________63dfffdce390916103eb6040518363ffffffff167c010000000000000000000000000000000000000000000000000000000002815260040180838152602001807f61000000000000000000000000000000000000000000000000000000000000008152506020018281526020019250505060206040518083038186803b15801561179657600080fd5b505af41580156117aa573d6000803e3d6000fd5b505050506040513d60208110156117c057600080fd5b810190808051906020019092919050505050600273__DoublyLinkedList______________________63dfffdce390916103ec6040518363ffffffff167c010000000000000000000000000000000000000000000000000000000002815260040180838152602001807f61000000000000000000000000000000000000000000000000000000000000008152506020018281526020019250505060206040518083038186803b15801561187257600080fd5b505af4158015611886573d6000803e3d6000fd5b505050506040513d602081101561189c57600080fd5b810190808051906020019092919050505050600273__DoublyLinkedList______________________63dfffdce390916103ed6040518363ffffffff167c010000000000000000000000000000000000000000000000000000000002815260040180838152602001807f61000000000000000000000000000000000000000000000000000000000000008152506020018281526020019250505060206040518083038186803b15801561194e57600080fd5b505af4158015611962573d6000803e3d6000fd5b505050506040513d602081101561197857600080fd5b810190808051906020019092919050505050600273__DoublyLinkedList______________________63dfffdce390916103ee6040518363ffffffff167c010000000000000000000000000000000000000000000000000000000002815260040180838152602001807f61000000000000000000000000000000000000000000000000000000000000008152506020018281526020019250505060206040518083038186803b158015611a2a57600080fd5b505af4158015611a3e573d6000803e3d6000fd5b505050506040513d6020811015611a5457600080fd5b810190808051906020019092919050505050600273__DoublyLinkedList______________________63dfffdce390916103ef6040518363ffffffff167c010000000000000000000000000000000000000000000000000000000002815260040180838152602001807f61000000000000000000000000000000000000000000000000000000000000008152506020018281526020019250505060206040518083038186803b158015611b0657600080fd5b505af4158015611b1a573d6000803e3d6000fd5b505050506040513d6020811015611b3057600080fd5b810190808051906020019092919050505050565b6000611b51600283612145565b9050919050565b6000611b65600283612207565b9050919050565b6000611b7a600084846122c9565b905092915050565b6000611b906001848461239c565b905092915050565b6000611ba660008484612493565b905092915050565b6000611bbc60018484612566565b905092915050565b6000611bd160008361265d565b9050919050565b6000611be66002848461271f565b905092915050565b6000611bfb6000836127ea565b9050919050565b600080600190505b600681111515611c3857611c2a838260016128ac9092919063ffffffff16565b508080600101915050611c0a565b6000600173__DoublyLinkedList______________________6355a0a1bf9091866040518363ffffffff167c01000000000000000000000000000000000000000000000000000000000281526004018083815260200182600019166000191681526020019250505060206040518083038186803b158015611cb857600080fd5b505af4158015611ccc573d6000803e3d6000fd5b505050506040513d6020811015611ce257600080fd5b810190808051906020019092919050505014915050919050565b6000611d096001836128dd565b9050919050565b60008273__DoublyLinkedList______________________63b0c29efb9091846040518363ffffffff167c01000000000000000000000000000000000000000000000000000000000281526004018083815260200182600019166000191681526020019250505060206040518083038186803b158015611d8f57600080fd5b505af4158015611da3573d6000803e3d6000fd5b505050506040513d6020811015611db957600080fd5b8101908080519060200190929190505050905092915050565b60008373__DoublyLinkedList______________________63bfbfe9d9909185856040518463ffffffff167c0100000000000000000000000000000000000000000000000000000000028152600401808481526020018360001916600019168152602001828152602001935050505060206040518083038186803b158015611e5957600080fd5b505af4158015611e6d573d6000803e3d6000fd5b505050506040513d6020811015611e8357600080fd5b810190808051906020019092919050505090509392505050565b6000611ec584600001600085600019166000191681526020019081526020016000208361299f565b90509392505050565b60008273__DoublyLinkedList______________________63dbcdc19d9091846040518363ffffffff167c01000000000000000000000000000000000000000000000000000000000281526004018083815260200182600019166000191681526020019250505060206040518083038186803b158015611f4d57600080fd5b505af4158015611f61573d6000803e3d6000fd5b505050506040513d6020811015611f7757600080fd5b8101908080519060200190929190505050905092915050565b60008273__DoublyLinkedList______________________63c501bf569091846040518363ffffffff167c01000000000000000000000000000000000000000000000000000000000281526004018083815260200182600019166000191681526020019250505060206040518083038186803b15801561200f57600080fd5b505af4158015612023573d6000803e3d6000fd5b505050506040513d602081101561203957600080fd5b8101908080519060200190929190505050905092915050565b600061207a84600001600085600019166000191681526020019081526020016000208361299f565b90509392505050565b60008273__DoublyLinkedList______________________636e2d58059091846040518363ffffffff167c01000000000000000000000000000000000000000000000000000000000281526004018083815260200182600019166000191681526020019250505060206040518083038186803b15801561210257600080fd5b505af4158015612116573d6000803e3d6000fd5b505050506040513d602081101561212c57600080fd5b8101908080519060200190929190505050905092915050565b60008273__DoublyLinkedList______________________639f9b1c989091846040518363ffffffff167c01000000000000000000000000000000000000000000000000000000000281526004018083815260200182600019166000191681526020019250505060206040518083038186803b1580156121c457600080fd5b505af41580156121d8573d6000803e3d6000fd5b505050506040513d60208110156121ee57600080fd5b8101908080519060200190929190505050905092915050565b60008273__DoublyLinkedList______________________6311ef1f689091846040518363ffffffff167c01000000000000000000000000000000000000000000000000000000000281526004018083815260200182600019166000191681526020019250505060206040518083038186803b15801561228657600080fd5b505af415801561229a573d6000803e3d6000fd5b505050506040513d60208110156122b057600080fd5b8101908080519060200190929190505050905092915050565b60008373__DoublyLinkedList______________________63f1f9d1c4909185856040518463ffffffff167c01000000000000000000000000000000000000000000000000000000000281526004018084815260200183600019166000191681526020018260001916600019168152602001935050505060206040518083038186803b15801561235857600080fd5b505af415801561236c573d6000803e3d6000fd5b505050506040513d602081101561238257600080fd5b810190808051906020019092919050505090509392505050565b60008373__DoublyLinkedList______________________6320482030909185856040518463ffffffff167c01000000000000000000000000000000000000000000000000000000000281526004018084815260200183600019166000191681526020018273ffffffffffffffffffffffffffffffffffffffff1673ffffffffffffffffffffffffffffffffffffffff168152602001935050505060206040518083038186803b15801561244f57600080fd5b505af4158015612463573d6000803e3d6000fd5b505050506040513d602081101561247957600080fd5b810190808051906020019092919050505090509392505050565b60008373__DoublyLinkedList______________________63d61488b7909185856040518463ffffffff167c01000000000000000000000000000000000000000000000000000000000281526004018084815260200183600019166000191681526020018260001916600019168152602001935050505060206040518083038186803b15801561252257600080fd5b505af4158015612536573d6000803e3d6000fd5b505050506040513d602081101561254c57600080fd5b810190808051906020019092919050505090509392505050565b60008373__DoublyLinkedList______________________63675a4ef0909185856040518463ffffffff167c01000000000000000000000000000000000000000000000000000000000281526004018084815260200183600019166000191681526020018273ffffffffffffffffffffffffffffffffffffffff1673ffffffffffffffffffffffffffffffffffffffff168152602001935050505060206040518083038186803b15801561261957600080fd5b505af415801561262d573d6000803e3d6000fd5b505050506040513d602081101561264357600080fd5b810190808051906020019092919050505090509392505050565b60008273__DoublyLinkedList______________________63d3209ca09091846040518363ffffffff167c01000000000000000000000000000000000000000000000000000000000281526004018083815260200182600019166000191681526020019250505060206040518083038186803b1580156126dc57600080fd5b505af41580156126f0573d6000803e3d6000fd5b505050506040513d602081101561270657600080fd5b8101908080519060200190929190505050905092915050565b60008373__DoublyLinkedList______________________634caf5c72909185856040518463ffffffff167c0100000000000000000000000000000000000000000000000000000000028152600401808481526020018360001916600019168152602001828152602001935050505060206040518083038186803b1580156127a657600080fd5b505af41580156127ba573d6000803e3d6000fd5b505050506040513d60208110156127d057600080fd5b810190808051906020019092919050505090509392505050565b60008273__DoublyLinkedList______________________63706853de9091846040518363ffffffff167c01000000000000000000000000000000000000000000000000000000000281526004018083815260200182600019166000191681526020019250505060206040518083038186803b15801561286957600080fd5b505af415801561287d573d6000803e3d6000fd5b505050506040513d602081101561289357600080fd5b8101908080519060200190929190505050905092915050565b60006128d484600001600085600019166000191681526020019081526020016000208361299f565b90509392505050565b60008273__DoublyLinkedList______________________6355a0a1bf9091846040518363ffffffff167c01000000000000000000000000000000000000000000000000000000000281526004018083815260200182600019166000191681526020019250505060206040518083038186803b15801561295c57600080fd5b505af4158015612970573d6000803e3d6000fd5b505050506040513d602081101561298657600080fd5b8101908080519060200190929190505050905092915050565b60006129a9612b8c565b6001151584600401600085815260200190815260200160002060009054906101000a900460ff1615151415612b805783600501600184038154811015156129ec57fe5b906000526020600020906003020160606040519081016040529081600082015460001916600019168152602001600182015481526020016002820154815250509050600081602001511415612a4d5780604001518460000181905550612a80565b8060400151846005016001836020015103815481101515612a6a57fe5b9060005260206000209060030201600201819055505b600081604001511415612a9f5780602001518460010181905550612ad2565b8060200151846005016001836040015103815481101515612abc57fe5b9060005260206000209060030201600101819055505b8360050160018403815481101515612ae657fe5b9060005260206000209060030201600080820160009055600182016000905560028201600090555050600084600401600085815260200190815260200160002060006101000a81548160ff0219169083151502179055508360030160008260000151600019166000191681526020019081526020016000206000905583600201600081548092919060019003919050555060019150612b85565b600091505b5092915050565b60606040519081016040528060008019168152602001600081526020016000815250905600a165627a7a7230582070e5267ea7a963d905953a72610b5859165f0b79adc90427a35b09bbe4f0a0040029",
  "deployedBytecode": "0x608060405260043610610107576000357c0100000000000000000000000000000000000000000000000000000000900463ffffffff168063189310161461010c578063385e6ee91461017d57806338b63463146101cc57806347ff9ac01461021557806348bc91fa1461026257806372ea4fa8146102d357806378a6dcc91461031c5780638129fc1c1461036157806381dd8e6e146103785780639f666fe7146103bd578063a7493d8a14610402578063a94fc5051461045d578063b17054db146104ee578063bf78a81d14610549578063c20681f1146105da578063d0d763901461061f578063d6f66e221461066e578063e169c533146106bb578063ff5e46cc14610704575b600080fd5b34801561011857600080fd5b5061013b6004803603810190808035600019169060200190929190505050610749565b604051808273ffffffffffffffffffffffffffffffffffffffff1673ffffffffffffffffffffffffffffffffffffffff16815260200191505060405180910390f35b34801561018957600080fd5b506101b660048036038101908080356000191690602001909291908035906020019092919050505061075d565b6040518082815260200191505060405180910390f35b3480156101d857600080fd5b506101fb6004803603810190808035600019169060200190929190505050610773565b604051808215151515815260200191505060405180910390f35b34801561022157600080fd5b50610244600480360381019080803560001916906020019092919050505061086c565b60405180826000191660001916815260200191505060405180910390f35b34801561026e57600080fd5b506102916004803603810190808035600019169060200190929190505050610880565b604051808273ffffffffffffffffffffffffffffffffffffffff1673ffffffffffffffffffffffffffffffffffffffff16815260200191505060405180910390f35b3480156102df57600080fd5b506103026004803603810190808035600019169060200190929190505050610894565b604051808215151515815260200191505060405180910390f35b34801561032857600080fd5b5061034b600480360381019080803560001916906020019092919050505061098e565b6040518082815260200191505060405180910390f35b34801561036d57600080fd5b506103766109a2565b005b34801561038457600080fd5b506103a76004803603810190808035600019169060200190929190505050611b44565b6040518082815260200191505060405180910390f35b3480156103c957600080fd5b506103ec6004803603810190808035600019169060200190929190505050611b58565b6040518082815260200191505060405180910390f35b34801561040e57600080fd5b5061043f60048036038101908080356000191690602001909291908035600019169060200190929190505050611b6c565b60405180826000191660001916815260200191505060405180910390f35b34801561046957600080fd5b506104ac6004803603810190808035600019169060200190929190803573ffffffffffffffffffffffffffffffffffffffff169060200190929190505050611b82565b604051808273ffffffffffffffffffffffffffffffffffffffff1673ffffffffffffffffffffffffffffffffffffffff16815260200191505060405180910390f35b3480156104fa57600080fd5b5061052b60048036038101908080356000191690602001909291908035600019169060200190929190505050611b98565b60405180826000191660001916815260200191505060405180910390f35b34801561055557600080fd5b506105986004803603810190808035600019169060200190929190803573ffffffffffffffffffffffffffffffffffffffff169060200190929190505050611bae565b604051808273ffffffffffffffffffffffffffffffffffffffff1673ffffffffffffffffffffffffffffffffffffffff16815260200191505060405180910390f35b3480156105e657600080fd5b506106096004803603810190808035600019169060200190929190505050611bc4565b6040518082815260200191505060405180910390f35b34801561062b57600080fd5b50610658600480360381019080803560001916906020019092919080359060200190929190505050611bd8565b6040518082815260200191505060405180910390f35b34801561067a57600080fd5b5061069d6004803603810190808035600019169060200190929190505050611bee565b60405180826000191660001916815260200191505060405180910390f35b3480156106c757600080fd5b506106ea6004803603810190808035600019169060200190929190505050611c02565b604051808215151515815260200191505060405180910390f35b34801561071057600080fd5b506107336004803603810190808035600019169060200190929190505050611cfc565b6040518082815260200191505060405180910390f35b6000610756600183611d10565b9050919050565b600061076b60028484611dd2565b905092915050565b600080600190505b6006811115156107a95761079b83826000611e9d9092919063ffffffff16565b50808060010191505061077b565b60008073__DoublyLinkedList______________________63d3209ca09091866040518363ffffffff167c01000000000000000000000000000000000000000000000000000000000281526004018083815260200182600019166000191681526020019250505060206040518083038186803b15801561082857600080fd5b505af415801561083c573d6000803e3d6000fd5b505050506040513d602081101561085257600080fd5b810190808051906020019092919050505014915050919050565b6000610879600083611ece565b9050919050565b600061088d600183611f90565b9050919050565b600080600190505b6006811115156108ca576108bc838260026120529092919063ffffffff16565b50808060010191505061089c565b6000600273__DoublyLinkedList______________________636e2d58059091866040518363ffffffff167c01000000000000000000000000000000000000000000000000000000000281526004018083815260200182600019166000191681526020019250505060206040518083038186803b15801561094a57600080fd5b505af415801561095e573d6000803e3d6000fd5b505050506040513d602081101561097457600080fd5b810190808051906020019092919050505014915050919050565b600061099b600283612083565b9050919050565b600073__DoublyLinkedList______________________63966277fb90916040518263ffffffff167c010000000000000000000000000000000000000000000000000000000002815260040180828152602001807f6100000000000000000000000000000000000000000000000000000000000000815250602001807f617465737431000000000000000000000000000000000000000000000000000081525060200191505060206040518083038186803b158015610a6057600080fd5b505af4158015610a74573d6000803e3d6000fd5b505050506040513d6020811015610a8a57600080fd5b810190808051906020019092919050505050600073__DoublyLinkedList______________________63966277fb90916040518263ffffffff167c010000000000000000000000000000000000000000000000000000000002815260040180828152602001807f6100000000000000000000000000000000000000000000000000000000000000815250602001807f617465737432000000000000000000000000000000000000000000000000000081525060200191505060206040518083038186803b158015610b5a57600080fd5b505af4158015610b6e573d6000803e3d6000fd5b505050506040513d6020811015610b8457600080fd5b810190808051906020019092919050505050600073__DoublyLinkedList______________________63966277fb90916040518263ffffffff167c010000000000000000000000000000000000000000000000000000000002815260040180828152602001807f6100000000000000000000000000000000000000000000000000000000000000815250602001807f617465737433000000000000000000000000000000000000000000000000000081525060200191505060206040518083038186803b158015610c5457600080fd5b505af4158015610c68573d6000803e3d6000fd5b505050506040513d6020811015610c7e57600080fd5b810190808051906020019092919050505050600073__DoublyLinkedList______________________63966277fb90916040518263ffffffff167c010000000000000000000000000000000000000000000000000000000002815260040180828152602001807f6100000000000000000000000000000000000000000000000000000000000000815250602001807f617465737434000000000000000000000000000000000000000000000000000081525060200191505060206040518083038186803b158015610d4e57600080fd5b505af4158015610d62573d6000803e3d6000fd5b505050506040513d6020811015610d7857600080fd5b810190808051906020019092919050505050600073__DoublyLinkedList______________________63966277fb90916040518263ffffffff167c010000000000000000000000000000000000000000000000000000000002815260040180828152602001807f6100000000000000000000000000000000000000000000000000000000000000815250602001807f617465737435000000000000000000000000000000000000000000000000000081525060200191505060206040518083038186803b158015610e4857600080fd5b505af4158015610e5c573d6000803e3d6000fd5b505050506040513d6020811015610e7257600080fd5b810190808051906020019092919050505050600073__DoublyLinkedList______________________63966277fb90916040518263ffffffff167c010000000000000000000000000000000000000000000000000000000002815260040180828152602001807f6100000000000000000000000000000000000000000000000000000000000000815250602001807f617465737436000000000000000000000000000000000000000000000000000081525060200191505060206040518083038186803b158015610f4257600080fd5b505af4158015610f56573d6000803e3d6000fd5b505050506040513d6020811015610f6c57600080fd5b810190808051906020019092919050505050600173__DoublyLinkedList______________________639682eb129091737812421a7579d8182dc6f2b68ab56595db01553f6040518363ffffffff167c010000000000000000000000000000000000000000000000000000000002815260040180838152602001807f61000000000000000000000000000000000000000000000000000000000000008152506020018273ffffffffffffffffffffffffffffffffffffffff1673ffffffffffffffffffffffffffffffffffffffff1681526020019250505060206040518083038186803b15801561105c57600080fd5b505af4158015611070573d6000803e3d6000fd5b505050506040513d602081101561108657600080fd5b810190808051906020019092919050505050600173__DoublyLinkedList______________________639682eb12909173419f0a80d85f3c7dc3553394d91c9a339332a01e6040518363ffffffff167c010000000000000000000000000000000000000000000000000000000002815260040180838152602001807f61000000000000000000000000000000000000000000000000000000000000008152506020018273ffffffffffffffffffffffffffffffffffffffff1673ffffffffffffffffffffffffffffffffffffffff1681526020019250505060206040518083038186803b15801561117657600080fd5b505af415801561118a573d6000803e3d6000fd5b505050506040513d60208110156111a057600080fd5b810190808051906020019092919050505050600173__DoublyLinkedList______________________639682eb12909173f5dfe2a3f8cf5ca8723b51be6fc065bea0cfe8936040518363ffffffff167c010000000000000000000000000000000000000000000000000000000002815260040180838152602001807f61000000000000000000000000000000000000000000000000000000000000008152506020018273ffffffffffffffffffffffffffffffffffffffff1673ffffffffffffffffffffffffffffffffffffffff1681526020019250505060206040518083038186803b15801561129057600080fd5b505af41580156112a4573d6000803e3d6000fd5b505050506040513d60208110156112ba57600080fd5b810190808051906020019092919050505050600173__DoublyLinkedList______________________639682eb129091735dc52d499a77af45f43174cfe7982dc68c331c386040518363ffffffff167c010000000000000000000000000000000000000000000000000000000002815260040180838152602001807f61000000000000000000000000000000000000000000000000000000000000008152506020018273ffffffffffffffffffffffffffffffffffffffff1673ffffffffffffffffffffffffffffffffffffffff1681526020019250505060206040518083038186803b1580156113aa57600080fd5b505af41580156113be573d6000803e3d6000fd5b505050506040513d60208110156113d457600080fd5b810190808051906020019092919050505050600173__DoublyLinkedList______________________639682eb12909173727c89006bd885f9a77254797a362d69e8a1f4da6040518363ffffffff167c010000000000000000000000000000000000000000000000000000000002815260040180838152602001807f61000000000000000000000000000000000000000000000000000000000000008152506020018273ffffffffffffffffffffffffffffffffffffffff1673ffffffffffffffffffffffffffffffffffffffff1681526020019250505060206040518083038186803b1580156114c457600080fd5b505af41580156114d8573d6000803e3d6000fd5b505050506040513d60208110156114ee57600080fd5b810190808051906020019092919050505050600173__DoublyLinkedList______________________639682eb129091730f66ec3df48ec1e216d24e225b772696e031b6986040518363ffffffff167c010000000000000000000000000000000000000000000000000000000002815260040180838152602001807f61000000000000000000000000000000000000000000000000000000000000008152506020018273ffffffffffffffffffffffffffffffffffffffff1673ffffffffffffffffffffffffffffffffffffffff1681526020019250505060206040518083038186803b1580156115de57600080fd5b505af41580156115f2573d6000803e3d6000fd5b505050506040513d602081101561160857600080fd5b810190808051906020019092919050505050600273__DoublyLinkedList______________________63dfffdce390916103ea6040518363ffffffff167c010000000000000000000000000000000000000000000000000000000002815260040180838152602001807f61000000000000000000000000000000000000000000000000000000000000008152506020018281526020019250505060206040518083038186803b1580156116ba57600080fd5b505af41580156116ce573d6000803e3d6000fd5b505050506040513d60208110156116e457600080fd5b810190808051906020019092919050505050600273__DoublyLinkedList______________________63dfffdce390916103eb6040518363ffffffff167c010000000000000000000000000000000000000000000000000000000002815260040180838152602001807f61000000000000000000000000000000000000000000000000000000000000008152506020018281526020019250505060206040518083038186803b15801561179657600080fd5b505af41580156117aa573d6000803e3d6000fd5b505050506040513d60208110156117c057600080fd5b810190808051906020019092919050505050600273__DoublyLinkedList______________________63dfffdce390916103ec6040518363ffffffff167c010000000000000000000000000000000000000000000000000000000002815260040180838152602001807f61000000000000000000000000000000000000000000000000000000000000008152506020018281526020019250505060206040518083038186803b15801561187257600080fd5b505af4158015611886573d6000803e3d6000fd5b505050506040513d602081101561189c57600080fd5b810190808051906020019092919050505050600273__DoublyLinkedList______________________63dfffdce390916103ed6040518363ffffffff167c010000000000000000000000000000000000000000000000000000000002815260040180838152602001807f61000000000000000000000000000000000000000000000000000000000000008152506020018281526020019250505060206040518083038186803b15801561194e57600080fd5b505af4158015611962573d6000803e3d6000fd5b505050506040513d602081101561197857600080fd5b810190808051906020019092919050505050600273__DoublyLinkedList______________________63dfffdce390916103ee6040518363ffffffff167c010000000000000000000000000000000000000000000000000000000002815260040180838152602001807f61000000000000000000000000000000000000000000000000000000000000008152506020018281526020019250505060206040518083038186803b158015611a2a57600080fd5b505af4158015611a3e573d6000803e3d6000fd5b505050506040513d6020811015611a5457600080fd5b810190808051906020019092919050505050600273__DoublyLinkedList______________________63dfffdce390916103ef6040518363ffffffff167c010000000000000000000000000000000000000000000000000000000002815260040180838152602001807f61000000000000000000000000000000000000000000000000000000000000008152506020018281526020019250505060206040518083038186803b158015611b0657600080fd5b505af4158015611b1a573d6000803e3d6000fd5b505050506040513d6020811015611b3057600080fd5b810190808051906020019092919050505050565b6000611b51600283612145565b9050919050565b6000611b65600283612207565b9050919050565b6000611b7a600084846122c9565b905092915050565b6000611b906001848461239c565b905092915050565b6000611ba660008484612493565b905092915050565b6000611bbc60018484612566565b905092915050565b6000611bd160008361265d565b9050919050565b6000611be66002848461271f565b905092915050565b6000611bfb6000836127ea565b9050919050565b600080600190505b600681111515611c3857611c2a838260016128ac9092919063ffffffff16565b508080600101915050611c0a565b6000600173__DoublyLinkedList______________________6355a0a1bf9091866040518363ffffffff167c01000000000000000000000000000000000000000000000000000000000281526004018083815260200182600019166000191681526020019250505060206040518083038186803b158015611cb857600080fd5b505af4158015611ccc573d6000803e3d6000fd5b505050506040513d6020811015611ce257600080fd5b810190808051906020019092919050505014915050919050565b6000611d096001836128dd565b9050919050565b60008273__DoublyLinkedList______________________63b0c29efb9091846040518363ffffffff167c01000000000000000000000000000000000000000000000000000000000281526004018083815260200182600019166000191681526020019250505060206040518083038186803b158015611d8f57600080fd5b505af4158015611da3573d6000803e3d6000fd5b505050506040513d6020811015611db957600080fd5b8101908080519060200190929190505050905092915050565b60008373__DoublyLinkedList______________________63bfbfe9d9909185856040518463ffffffff167c0100000000000000000000000000000000000000000000000000000000028152600401808481526020018360001916600019168152602001828152602001935050505060206040518083038186803b158015611e5957600080fd5b505af4158015611e6d573d6000803e3d6000fd5b505050506040513d6020811015611e8357600080fd5b810190808051906020019092919050505090509392505050565b6000611ec584600001600085600019166000191681526020019081526020016000208361299f565b90509392505050565b60008273__DoublyLinkedList______________________63dbcdc19d9091846040518363ffffffff167c01000000000000000000000000000000000000000000000000000000000281526004018083815260200182600019166000191681526020019250505060206040518083038186803b158015611f4d57600080fd5b505af4158015611f61573d6000803e3d6000fd5b505050506040513d6020811015611f7757600080fd5b8101908080519060200190929190505050905092915050565b60008273__DoublyLinkedList______________________63c501bf569091846040518363ffffffff167c01000000000000000000000000000000000000000000000000000000000281526004018083815260200182600019166000191681526020019250505060206040518083038186803b15801561200f57600080fd5b505af4158015612023573d6000803e3d6000fd5b505050506040513d602081101561203957600080fd5b8101908080519060200190929190505050905092915050565b600061207a84600001600085600019166000191681526020019081526020016000208361299f565b90509392505050565b60008273__DoublyLinkedList______________________636e2d58059091846040518363ffffffff167c01000000000000000000000000000000000000000000000000000000000281526004018083815260200182600019166000191681526020019250505060206040518083038186803b15801561210257600080fd5b505af4158015612116573d6000803e3d6000fd5b505050506040513d602081101561212c57600080fd5b8101908080519060200190929190505050905092915050565b60008273__DoublyLinkedList______________________639f9b1c989091846040518363ffffffff167c01000000000000000000000000000000000000000000000000000000000281526004018083815260200182600019166000191681526020019250505060206040518083038186803b1580156121c457600080fd5b505af41580156121d8573d6000803e3d6000fd5b505050506040513d60208110156121ee57600080fd5b8101908080519060200190929190505050905092915050565b60008273__DoublyLinkedList______________________6311ef1f689091846040518363ffffffff167c01000000000000000000000000000000000000000000000000000000000281526004018083815260200182600019166000191681526020019250505060206040518083038186803b15801561228657600080fd5b505af415801561229a573d6000803e3d6000fd5b505050506040513d60208110156122b057600080fd5b8101908080519060200190929190505050905092915050565b60008373__DoublyLinkedList______________________63f1f9d1c4909185856040518463ffffffff167c01000000000000000000000000000000000000000000000000000000000281526004018084815260200183600019166000191681526020018260001916600019168152602001935050505060206040518083038186803b15801561235857600080fd5b505af415801561236c573d6000803e3d6000fd5b505050506040513d602081101561238257600080fd5b810190808051906020019092919050505090509392505050565b60008373__DoublyLinkedList______________________6320482030909185856040518463ffffffff167c01000000000000000000000000000000000000000000000000000000000281526004018084815260200183600019166000191681526020018273ffffffffffffffffffffffffffffffffffffffff1673ffffffffffffffffffffffffffffffffffffffff168152602001935050505060206040518083038186803b15801561244f57600080fd5b505af4158015612463573d6000803e3d6000fd5b505050506040513d602081101561247957600080fd5b810190808051906020019092919050505090509392505050565b60008373__DoublyLinkedList______________________63d61488b7909185856040518463ffffffff167c01000000000000000000000000000000000000000000000000000000000281526004018084815260200183600019166000191681526020018260001916600019168152602001935050505060206040518083038186803b15801561252257600080fd5b505af4158015612536573d6000803e3d6000fd5b505050506040513d602081101561254c57600080fd5b810190808051906020019092919050505090509392505050565b60008373__DoublyLinkedList______________________63675a4ef0909185856040518463ffffffff167c01000000000000000000000000000000000000000000000000000000000281526004018084815260200183600019166000191681526020018273ffffffffffffffffffffffffffffffffffffffff1673ffffffffffffffffffffffffffffffffffffffff168152602001935050505060206040518083038186803b15801561261957600080fd5b505af415801561262d573d6000803e3d6000fd5b505050506040513d602081101561264357600080fd5b810190808051906020019092919050505090509392505050565b60008273__DoublyLinkedList______________________63d3209ca09091846040518363ffffffff167c01000000000000000000000000000000000000000000000000000000000281526004018083815260200182600019166000191681526020019250505060206040518083038186803b1580156126dc57600080fd5b505af41580156126f0573d6000803e3d6000fd5b505050506040513d602081101561270657600080fd5b8101908080519060200190929190505050905092915050565b60008373__DoublyLinkedList______________________634caf5c72909185856040518463ffffffff167c0100000000000000000000000000000000000000000000000000000000028152600401808481526020018360001916600019168152602001828152602001935050505060206040518083038186803b1580156127a657600080fd5b505af41580156127ba573d6000803e3d6000fd5b505050506040513d60208110156127d057600080fd5b810190808051906020019092919050505090509392505050565b60008273__DoublyLinkedList______________________63706853de9091846040518363ffffffff167c01000000000000000000000000000000000000000000000000000000000281526004018083815260200182600019166000191681526020019250505060206040518083038186803b15801561286957600080fd5b505af415801561287d573d6000803e3d6000fd5b505050506040513d602081101561289357600080fd5b8101908080519060200190929190505050905092915050565b60006128d484600001600085600019166000191681526020019081526020016000208361299f565b90509392505050565b60008273__DoublyLinkedList______________________6355a0a1bf9091846040518363ffffffff167c01000000000000000000000000000000000000000000000000000000000281526004018083815260200182600019166000191681526020019250505060206040518083038186803b15801561295c57600080fd5b505af4158015612970573d6000803e3d6000fd5b505050506040513d602081101561298657600080fd5b8101908080519060200190929190505050905092915050565b60006129a9612b8c565b6001151584600401600085815260200190815260200160002060009054906101000a900460ff1615151415612b805783600501600184038154811015156129ec57fe5b906000526020600020906003020160606040519081016040529081600082015460001916600019168152602001600182015481526020016002820154815250509050600081602001511415612a4d5780604001518460000181905550612a80565b8060400151846005016001836020015103815481101515612a6a57fe5b9060005260206000209060030201600201819055505b600081604001511415612a9f5780602001518460010181905550612ad2565b8060200151846005016001836040015103815481101515612abc57fe5b9060005260206000209060030201600101819055505b8360050160018403815481101515612ae657fe5b9060005260206000209060030201600080820160009055600182016000905560028201600090555050600084600401600085815260200190815260200160002060006101000a81548160ff0219169083151502179055508360030160008260000151600019166000191681526020019081526020016000206000905583600201600081548092919060019003919050555060019150612b85565b600091505b5092915050565b60606040519081016040528060008019168152602001600081526020016000815250905600a165627a7a7230582070e5267ea7a963d905953a72610b5859165f0b79adc90427a35b09bbe4f0a0040029",
  "source": "pragma solidity ^0.4.19;\n\nimport \"../abstract/IndexedBytesIteratorStorage.sol\";\nimport \"../abstract/IndexedAddressIteratorStorage.sol\";\nimport \"../abstract/IndexedUintIteratorStorage.sol\";\n/**\n    @title Example Indexed Storage\n    @author DigixGlobal Pte Ltd\n */\ncontract ExampleIndexedStorage is IndexedBytesIteratorStorage, IndexedAddressIteratorStorage, IndexedUintIteratorStorage {\n\n  using DoublyLinkedList for DoublyLinkedList.IndexedBytes;\n  using DoublyLinkedList for DoublyLinkedList.IndexedAddress;\n  using DoublyLinkedList for DoublyLinkedList.IndexedUint;\n\n  DoublyLinkedList.IndexedBytes indexed_bytes_collection;\n  DoublyLinkedList.IndexedAddress indexed_address_collection;\n  DoublyLinkedList.IndexedUint indexed_uint_collection;\n\n  /**\n    @notice Constructor\n  */\n  constructor() public {\n    initialize();\n  }\n\n  /**\n    @notice Initializes a list of collections\n  */\n  function initialize() public {\n    indexed_bytes_collection.append(\"a\", \"atest1\");\n    indexed_bytes_collection.append(\"a\", \"atest2\");\n    indexed_bytes_collection.append(\"a\", \"atest3\");\n    indexed_bytes_collection.append(\"a\", \"atest4\");\n    indexed_bytes_collection.append(\"a\", \"atest5\");\n    indexed_bytes_collection.append(\"a\", \"atest6\");\n    /*indexed_bytes_collection.append(\"b\", \"btest1\");\n    indexed_bytes_collection.append(\"b\", \"btest2\");\n    indexed_bytes_collection.append(\"b\", \"btest3\");\n    indexed_bytes_collection.append(\"b\", \"btest4\");\n    indexed_bytes_collection.append(\"b\", \"btest5\");*/\n    indexed_address_collection.append(\"a\", 0x7812421a7579d8182DC6f2B68Ab56595db01553F);\n    indexed_address_collection.append(\"a\", 0x419f0a80D85f3C7dC3553394d91c9A339332a01E);\n    indexed_address_collection.append(\"a\", 0xF5dFE2A3f8Cf5CA8723b51be6fc065beA0cFE893);\n    indexed_address_collection.append(\"a\", 0x5dc52D499a77af45f43174CFE7982dC68c331c38);\n    indexed_address_collection.append(\"a\", 0x727C89006bd885f9A77254797a362d69E8A1f4da);\n    indexed_address_collection.append(\"a\", 0x0F66eC3DF48eC1E216D24e225b772696e031B698);\n\t\t/*indexed_address_collection.append(\"b\", 0x0F66eC3DF48eC1E216D24e225b772696e031B698);\n\t\tindexed_address_collection.append(\"b\", 0x755eAc40A9017B52b6d811A2Ee3f495D08afb5eD);\n\t\tindexed_address_collection.append(\"b\", 0xFd59C5dBB42666CF99a714EE5286C0280B6002Bd);\n\t\tindexed_address_collection.append(\"b\", 0xF8954DA58BA81BFC29B5651029A71B0693b6Cd98);\n\t\tindexed_address_collection.append(\"b\", 0x027a8620cAD4d536F3C2F9Fdeeb4490b1fa6833b);*/\n\n    indexed_uint_collection.append(\"a\", 1002);\n    indexed_uint_collection.append(\"a\", 1003);\n    indexed_uint_collection.append(\"a\", 1004);\n    indexed_uint_collection.append(\"a\", 1005);\n    indexed_uint_collection.append(\"a\", 1006);\n    indexed_uint_collection.append(\"a\", 1007);\n\n    /*indexed_uint_collection.append(\"b\", 2002);\n    indexed_uint_collection.append(\"b\", 2003);\n    indexed_uint_collection.append(\"b\", 2004);\n    indexed_uint_collection.append(\"b\", 2005);\n    indexed_uint_collection.append(\"b\", 2006);*/\n  }\n\n  /**\n    @notice Removes all data in the Indexed Bytes Collection\n    @param _collection_index The source collection to be delete\n    @return {\"_success\":\"True if all items were successfully removed\"}d\n  */\n  function remove_all_data_in_indexed_bytes_collection(bytes32 _collection_index)\n           public\n           returns (bool _success)\n  {\n    for (uint256 i=1;i<=6;i++) {\n      indexed_bytes_collection.remove(_collection_index, i);\n    }\n    _success = indexed_bytes_collection.total(_collection_index) == 0;\n  }\n\n  /**\n    @notice Removes all data in the Indexed Addreses collection\n    @param _collection_index The source collection to be deleted\n    @return {\"_success\":\"True if all items were successfully removed\"}\n  */\n  function remove_all_data_in_indexed_addresses_collection(bytes32 _collection_index)\n           public\n           returns (bool _success)\n  {\n    for (uint256 i=1;i<=6;i++) {\n      indexed_address_collection.remove(_collection_index, i);\n    }\n    _success = indexed_address_collection.total(_collection_index) == 0;\n  }\n\n  /**\n    @notice Removes all data in the Indexed Uints collection\n    @param _collection_index The source collection to be deleted\n    @return {\"_item\":\"Collection item\"}\n  */\n  function remove_all_data_in_indexed_uints_collection(bytes32 _collection_index)\n           public\n           returns (bool _success)\n  {\n    for (uint256 i=1;i<=6;i++) {\n      indexed_uint_collection.remove(_collection_index, i);\n    }\n    _success = indexed_uint_collection.total(_collection_index) == 0;\n  }\n\n  /**\n    @notice Reads the first item in the Indexed Bytes collection\n    @param _collection_index The source collection to be evaluate\n    @return {\"_item\":\"Collection item\"}\n  */\n  function read_first_in_indexed_bytes_collection(bytes32 _collection_index)\n           public\n           constant\n           returns (bytes32 _item)\n  {\n    _item = read_first_from_indexed_bytesarray(indexed_bytes_collection, _collection_index);\n  }\n\n  /**\n    @notice Reads the last item in the Indexed Bytes collection\n    @param _collection_index The source collection to evaluate\n    @return {\"_item\":\"Collection item\"}\n  */\n  function read_last_in_indexed_bytes_collection(bytes32 _collection_index)\n           public\n           constant\n           returns (bytes32 _item)\n  {\n    _item = read_last_from_indexed_bytesarray(indexed_bytes_collection, _collection_index);\n  }\n\n  /**\n    @notice Reads the Next Indexed Bytes collection from the specified `_collection_index` and `_current_item`\n    @param _collection_index The source collection to evaluate\n    @param _current_item The item to be used as base line\n    @return {\"_item\":\"Collection item\"}\n  */\n  function read_next_in_indexed_bytes_collection(bytes32 _collection_index, bytes32 _current_item)\n           public\n           constant\n           returns (bytes32 _item)\n  {\n    _item = read_next_from_indexed_bytesarray(indexed_bytes_collection, _collection_index, _current_item);\n  }\n\n  /**\n    @notice Reads the Previous Indexed Bytes collection from the specified `_collection_index` and `_current_item`\n    @param _collection_index The source collection to evaluate\n    @param _current_item The item to be used as base line\n    @return {\"_item\":\"Collection item\"}\n  */\n  function read_previous_in_indexed_bytes_collection(bytes32 _collection_index, bytes32 _current_item)\n           public\n           constant\n           returns (bytes32 _item)\n  {\n    _item = read_previous_from_indexed_bytesarray(indexed_bytes_collection, _collection_index, _current_item);\n  }\n\n  /**\n    @notice Reads the Total number of items in an Indexed Bytes collection\n    @param _collection_index The source collection to evaluate\n    @return {\"_item\":\"Collection item\"}\n  */\n  function read_total_in_indexed_bytes_collection(bytes32 _collection_index)\n           public\n           constant\n           returns (uint256 _total_count)\n  {\n    _total_count = read_total_indexed_bytesarray(indexed_bytes_collection, _collection_index);\n  }\n\n  /**\n    @notice Reads the First item in an Indexed Address collection\n    @param _collection_index The source collection to evaluate\n    @return {\"_item\":\"Collection item\"}\n  */\n  function read_first_in_indexed_addresses_collection(bytes32 _collection_index)\n           public\n           constant\n           returns (address _item)\n  {\n    _item = read_first_from_indexed_addresses(indexed_address_collection, _collection_index);\n  }\n\n  /**\n    @notice Reads the Last item in an Indexed Addresses collection\n    @param _collection_index The source collection to evaluate\n    @return {\"_item\":\"Collection item\"}\n  */\n  function read_last_in_indexed_addresses_collection(bytes32 _collection_index)\n           public\n           constant\n           returns (address _item)\n  {\n    _item = read_last_from_indexed_addresses(indexed_address_collection, _collection_index);\n  }\n\n  /**\n    @notice Reads the Next item from an Indexed Addresses collection using the specified `_collection_index` and `_current_item`\n    @param _collection_index The source collection to evaluate\n    @return {\"_item\":\"Collection item\"}\n  */\n  function read_next_in_indexed_addresses_collection(bytes32 _collection_index, address _current_item)\n           public\n           constant\n           returns (address _item)\n  {\n    _item = read_next_from_indexed_addresses(indexed_address_collection, _collection_index, _current_item);\n  }\n\n  /**\n    @notice Reads the Previous item from an Indexed Addresses collection using the specified `_collection_index` and `_current_item`\n    @param _collection_index The source collection to evaluate\n    @return {\"_item\":\"Collection item\"}\n  */\n  function read_previous_in_indexed_addresses_collection(bytes32 _collection_index, address _current_item)\n           public\n           constant\n           returns (address _item)\n  {\n    _item = read_previous_from_indexed_addresses(indexed_address_collection, _collection_index, _current_item);\n  }\n\n  /**\n    @notice Reads the Total number of items in an Indexed Addresses collection\n    @param _collection_index The source collection to evaluate\n    @return {\"_total_count\":\"Total number of items\"}\n  */\n  function read_total_in_indexed_addresses_collection(bytes32 _collection_index)\n           public\n           constant\n           returns (uint256 _total_count)\n  {\n    _total_count = read_total_indexed_addresses(indexed_address_collection, _collection_index);\n  }\n\n  /**\n    @notice Reads the First item in an Indexed Uints collection\n    @param _collection_index The source collection to evaluate\n    @return {\"_item\":\"Collection item\"}\n  */\n  function read_first_in_indexed_uints_collection(bytes32 _collection_index)\n           public\n           constant\n           returns (uint256 _item)\n  {\n    _item = read_first_from_indexed_uints(indexed_uint_collection, _collection_index);\n  }\n\n  /**\n    @notice Reads the Last item in an Indexed Uints collection\n    @param _collection_index The source collection to evaluate\n    @return {\"_item\":\"Collection item\"}\n  */\n  function read_last_in_indexed_uints_collection(bytes32 _collection_index)\n           public\n           constant\n           returns (uint256 _item)\n  {\n    _item = read_last_from_indexed_uints(indexed_uint_collection, _collection_index);\n  }\n\n  /**\n    @notice Reads the Next item from an Indexed Uints collection using the specified `_collection_index` and `_current_item`\n    @param _collection_index The source collection to evaluate\n    @return {\"_item\":\"Collection item\"}\n  */\n  function read_next_in_indexed_uints_collection(bytes32 _collection_index, uint256 _current_item)\n           public\n           constant\n           returns (uint256 _item)\n  {\n    _item = read_next_from_indexed_uints(indexed_uint_collection, _collection_index, _current_item);\n  }\n\n  /**\n    @notice Reads the Previous item from an Indexed Uints collection using the specified `_collection_index` and `_current_item`\n    @param _collection_index The source collection to evaluate\n    @return {\"_item\":\"Collection item\"}\n  */\n  function read_previous_in_indexed_uints_collection(bytes32 _collection_index, uint256 _current_item)\n           public\n           constant\n           returns (uint256 _item)\n  {\n    _item = read_previous_from_indexed_uints(indexed_uint_collection, _collection_index, _current_item);\n  }\n\n  /**\n    @notice Reads the Total number of items in an Indexed Uints collection\n    @param _collection_index The source collection to evaluate\n    @return {\"_total_count\":\"Total number of items\"}\n  */\n  function read_total_in_indexed_uints_collection(bytes32 _collection_index)\n           public\n           constant\n           returns (uint256 _total_count)\n  {\n    _total_count = read_total_indexed_uints(indexed_uint_collection, _collection_index);\n  }\n}\n",
  "sourcePath": "/home/rohit/Develop/solidity-collections-library/contracts/examples/ExampleIndexedStorage.sol",
  "compiler": {
    "name": "solc",
    "version": "0.4.24+commit.e67f0147.Emscripten.clang"
  },
  "schemaVersion": "2.0.0",
  "updatedAt": "2018-08-17T06:56:24.622Z"
}