{
  "contractName": "ExampleInteractive",
  "abi": [
    {
      "constant": true,
      "inputs": [],
      "name": "controller_contract",
      "outputs": [
        {
          "name": "",
          "type": "address"
        }
      ],
      "payable": false,
      "stateMutability": "view",
      "type": "function"
    },
    {
      "inputs": [
        {
          "name": "_controller",
          "type": "address"
        }
      ],
      "payable": false,
      "stateMutability": "nonpayable",
      "type": "constructor"
    },
    {
      "constant": true,
      "inputs": [
        {
          "name": "_count",
          "type": "uint256"
        },
        {
          "name": "_from_start",
          "type": "bool"
        }
      ],
      "name": "list_bytes_collection",
      "outputs": [
        {
          "name": "_collection_items",
          "type": "bytes32[]"
        }
      ],
      "payable": false,
      "stateMutability": "view",
      "type": "function"
    },
    {
      "constant": true,
      "inputs": [
        {
          "name": "_current_item",
          "type": "bytes32"
        },
        {
          "name": "_count",
          "type": "uint256"
        },
        {
          "name": "_from_start",
          "type": "bool"
        }
      ],
      "name": "list_bytes_collection_from",
      "outputs": [
        {
          "name": "_collection_items",
          "type": "bytes32[]"
        }
      ],
      "payable": false,
      "stateMutability": "view",
      "type": "function"
    },
    {
      "constant": true,
      "inputs": [
        {
          "name": "_count",
          "type": "uint256"
        },
        {
          "name": "_from_start",
          "type": "bool"
        }
      ],
      "name": "list_addresses_collection",
      "outputs": [
        {
          "name": "_collection_items",
          "type": "address[]"
        }
      ],
      "payable": false,
      "stateMutability": "view",
      "type": "function"
    },
    {
      "constant": true,
      "inputs": [
        {
          "name": "_current_item",
          "type": "address"
        },
        {
          "name": "_count",
          "type": "uint256"
        },
        {
          "name": "_from_start",
          "type": "bool"
        }
      ],
      "name": "list_addresses_collection_from",
      "outputs": [
        {
          "name": "_collection_items",
          "type": "address[]"
        }
      ],
      "payable": false,
      "stateMutability": "view",
      "type": "function"
    },
    {
      "constant": true,
      "inputs": [
        {
          "name": "_count",
          "type": "uint256"
        },
        {
          "name": "_from_start",
          "type": "bool"
        }
      ],
      "name": "list_uints_collection",
      "outputs": [
        {
          "name": "_collection_items",
          "type": "uint256[]"
        }
      ],
      "payable": false,
      "stateMutability": "view",
      "type": "function"
    },
    {
      "constant": true,
      "inputs": [
        {
          "name": "_current_item",
          "type": "uint256"
        },
        {
          "name": "_count",
          "type": "uint256"
        },
        {
          "name": "_from_start",
          "type": "bool"
        }
      ],
      "name": "list_uints_collection_from",
      "outputs": [
        {
          "name": "_collection_items",
          "type": "uint256[]"
        }
      ],
      "payable": false,
      "stateMutability": "view",
      "type": "function"
    }
  ],
  "bytecode": "0x608060405234801561001057600080fd5b5060405160208061178183398101806040528101908080519060200190929190505050806000806101000a81548173ffffffffffffffffffffffffffffffffffffffff021916908373ffffffffffffffffffffffffffffffffffffffff160217905550506116fe806100836000396000f300608060405260043610610083576000357c0100000000000000000000000000000000000000000000000000000000900463ffffffff1680631f85fa65146100885780633190da0d1461011657806335e87a70146101ae5780635114ec6c1461025c578063875b0440146102ea5780638bd9b989146103415780639360fa37146103dd575b600080fd5b34801561009457600080fd5b506100bf6004803603810190808035906020019092919080351515906020019092919050505061046b565b6040518080602001828103825283818151815260200191508051906020019060200280838360005b838110156101025780820151818401526020810190506100e7565b505050509050019250505060405180910390f35b34801561012257600080fd5b50610157600480360381019080803590602001909291908035906020019092919080351515906020019092919050505061050b565b6040518080602001828103825283818151815260200191508051906020019060200280838360005b8381101561019a57808201518184015260208101905061017f565b505050509050019250505060405180910390f35b3480156101ba57600080fd5b50610205600480360381019080803573ffffffffffffffffffffffffffffffffffffffff169060200190929190803590602001909291908035151590602001909291905050506105ad565b6040518080602001828103825283818151815260200191508051906020019060200280838360005b8381101561024857808201518184015260208101905061022d565b505050509050019250505060405180910390f35b34801561026857600080fd5b506102936004803603810190808035906020019092919080351515906020019092919050505061064f565b6040518080602001828103825283818151815260200191508051906020019060200280838360005b838110156102d65780820151818401526020810190506102bb565b505050509050019250505060405180910390f35b3480156102f657600080fd5b506102ff6106ef565b604051808273ffffffffffffffffffffffffffffffffffffffff1673ffffffffffffffffffffffffffffffffffffffff16815260200191505060405180910390f35b34801561034d57600080fd5b50610386600480360381019080803560001916906020019092919080359060200190929190803515159060200190929190505050610714565b6040518080602001828103825283818151815260200191508051906020019060200280838360005b838110156103c95780820151818401526020810190506103ae565b505050509050019250505060405180910390f35b3480156103e957600080fd5b50610414600480360381019080803590602001909291908035151590602001909291905050506107b6565b6040518080602001828103825283818151815260200191508051906020019060200280838360005b8381101561045757808201518184015260208101905061043c565b505050509050019250505060405180910390f35b606061050383610479610856565b73ffffffffffffffffffffffffffffffffffffffff1663db23917e61049c610856565b73ffffffffffffffffffffffffffffffffffffffff1663ed3ce0fb6104bf610856565b73ffffffffffffffffffffffffffffffffffffffff166308a31e436104e2610856565b73ffffffffffffffffffffffffffffffffffffffff1663fdb1e5738b61087f565b905092915050565b60606105a4848461051a610856565b73ffffffffffffffffffffffffffffffffffffffff1663417951de61053d610856565b73ffffffffffffffffffffffffffffffffffffffff1663fc68bac2610560610856565b73ffffffffffffffffffffffffffffffffffffffff1663c92b2cb1610583610856565b73ffffffffffffffffffffffffffffffffffffffff1663bd3d47338c6109c7565b90509392505050565b606061064684846105bc610856565b73ffffffffffffffffffffffffffffffffffffffff1663db23917e6105df610856565b73ffffffffffffffffffffffffffffffffffffffff1663ed3ce0fb610602610856565b73ffffffffffffffffffffffffffffffffffffffff166308a31e43610625610856565b73ffffffffffffffffffffffffffffffffffffffff1663fdb1e5738c610a08565b90509392505050565b60606106e78361065d610856565b73ffffffffffffffffffffffffffffffffffffffff1663417951de610680610856565b73ffffffffffffffffffffffffffffffffffffffff1663fc68bac26106a3610856565b73ffffffffffffffffffffffffffffffffffffffff1663c92b2cb16106c6610856565b73ffffffffffffffffffffffffffffffffffffffff1663bd3d47338b610a49565b905092915050565b6000809054906101000a900473ffffffffffffffffffffffffffffffffffffffff1681565b60606107ad8484610723610856565b73ffffffffffffffffffffffffffffffffffffffff166379ea69fd610746610856565b73ffffffffffffffffffffffffffffffffffffffff166314038e07610769610856565b73ffffffffffffffffffffffffffffffffffffffff1663cd2c184061078c610856565b73ffffffffffffffffffffffffffffffffffffffff16630889665c8c610b91565b90509392505050565b606061084e836107c4610856565b73ffffffffffffffffffffffffffffffffffffffff166379ea69fd6107e7610856565b73ffffffffffffffffffffffffffffffffffffffff166314038e0761080a610856565b73ffffffffffffffffffffffffffffffffffffffff1663cd2c184061082d610856565b73ffffffffffffffffffffffffffffffffffffffff16630889665c8b610bd2565b905092915050565b60008060009054906101000a900473ffffffffffffffffffffffffffffffffffffffff16905090565b606081156109225761091b8a8a6040518163ffffffff167c0100000000000000000000000000000000000000000000000000000000028152600401602060405180830381600087803b1580156108d457600080fd5b505af11580156108e8573d6000803e3d6000fd5b505050506040513d60208110156108fe57600080fd5b81019080805190602001909291905050508c60018b8b8b8b610d1a565b90506109b9565b6109b688886040518163ffffffff167c0100000000000000000000000000000000000000000000000000000000028152600401602060405180830381600087803b15801561096f57600080fd5b505af1158015610983573d6000803e3d6000fd5b505050506040513d602081101561099957600080fd5b81019080805190602001909291905050508c60018d8d8989610d1a565b90505b9a9950505050505050505050565b606081156109e6576109df8c8c60008b8b8b8b611112565b90506109f9565b6109f68c8c60008d8d8989611112565b90505b9b9a5050505050505050505050565b60608115610a2757610a208c8c60008b8b8b8b610d1a565b9050610a3a565b610a378c8c60008d8d8989610d1a565b90505b9b9a5050505050505050505050565b60608115610aec57610ae58a8a6040518163ffffffff167c0100000000000000000000000000000000000000000000000000000000028152600401602060405180830381600087803b158015610a9e57600080fd5b505af1158015610ab2573d6000803e3d6000fd5b505050506040513d6020811015610ac857600080fd5b81019080805190602001909291905050508c60018b8b8b8b611112565b9050610b83565b610b8088886040518163ffffffff167c0100000000000000000000000000000000000000000000000000000000028152600401602060405180830381600087803b158015610b3957600080fd5b505af1158015610b4d573d6000803e3d6000fd5b505050506040513d6020811015610b6357600080fd5b81019080805190602001909291905050508c60018d8d8989611112565b90505b9a9950505050505050505050565b60608115610bb057610ba98c8c60008b8b8b8b6113d0565b9050610bc3565b610bc08c8c60008d8d89896113d0565b90505b9b9a5050505050505050505050565b60608115610c7557610c6e8a8a6040518163ffffffff167c0100000000000000000000000000000000000000000000000000000000028152600401602060405180830381600087803b158015610c2757600080fd5b505af1158015610c3b573d6000803e3d6000fd5b505050506040513d6020811015610c5157600080fd5b81019080805190602001909291905050508c60018b8b8b8b6113d0565b9050610d0c565b610d0988886040518163ffffffff167c0100000000000000000000000000000000000000000000000000000000028152600401602060405180830381600087803b158015610cc257600080fd5b505af1158015610cd6573d6000803e3d6000fd5b505050506040513d6020811015610cec57600080fd5b81019080805190602001909291905050508c60018d8d89896113d0565b90505b9a9950505050505050505050565b606060008060006060600080935089896040518163ffffffff167c0100000000000000000000000000000000000000000000000000000000028152600401602060405180830381600087803b158015610d7257600080fd5b505af1158015610d86573d6000803e3d6000fd5b505050506040513d6020811015610d9c57600080fd5b8101908080519060200190929190505050925060008c1480610dea5750600073ffffffffffffffffffffffffffffffffffffffff168373ffffffffffffffffffffffffffffffffffffffff16145b15610e27576000604051908082528060200260200182016040528015610e1f5781602001602082028038833980820191505090505b509550611102565b8b604051908082528060200260200182016040528015610e565781602001602082028038833980820191505090505b509150600115158b15151415610eb7578c826000815181101515610e7657fe5b9060200190602002019073ffffffffffffffffffffffffffffffffffffffff16908173ffffffffffffffffffffffffffffffffffffffff1681525050600193505b8c90508394505b8b85108015610ef957508273ffffffffffffffffffffffffffffffffffffffff168173ffffffffffffffffffffffffffffffffffffffff1614155b15611053578787826040518263ffffffff167c0100000000000000000000000000000000000000000000000000000000028152600401808273ffffffffffffffffffffffffffffffffffffffff1673ffffffffffffffffffffffffffffffffffffffff168152602001915050602060405180830381600087803b158015610f7f57600080fd5b505af1158015610f93573d6000803e3d6000fd5b505050506040513d6020811015610fa957600080fd5b81019080805190602001909291905050509050600073ffffffffffffffffffffffffffffffffffffffff168173ffffffffffffffffffffffffffffffffffffffff1614151561104657838060010194505080828681518110151561100957fe5b9060200190602002019073ffffffffffffffffffffffffffffffffffffffff16908173ffffffffffffffffffffffffffffffffffffffff16815250505b8480600101955050610ebe565b836040519080825280602002602001820160405280156110825781602001602082028038833980820191505090505b509550600094505b838510156111015781858151811015156110a057fe5b9060200190602002015186868151811015156110b857fe5b9060200190602002019073ffffffffffffffffffffffffffffffffffffffff16908173ffffffffffffffffffffffffffffffffffffffff1681525050848060010195505061108a565b5b5050505050979650505050505050565b606060008060006060600080935089896040518163ffffffff167c0100000000000000000000000000000000000000000000000000000000028152600401602060405180830381600087803b15801561116a57600080fd5b505af115801561117e573d6000803e3d6000fd5b505050506040513d602081101561119457600080fd5b8101908080519060200190929190505050925060008c14806111b65750600083145b156111f35760006040519080825280602002602001820160405280156111eb5781602001602082028038833980820191505090505b5095506113c0565b8b6040519080825280602002602001820160405280156112225781602001602082028038833980820191505090505b509150600115158b15151415611255578c82600081518110151561124257fe5b9060200190602002018181525050600193505b8c90508394505b8b8510801561126b5750828114155b1561133f578787826040518263ffffffff167c010000000000000000000000000000000000000000000000000000000002815260040180828152602001915050602060405180830381600087803b1580156112c557600080fd5b505af11580156112d9573d6000803e3d6000fd5b505050506040513d60208110156112ef57600080fd5b8101908080519060200190929190505050905060008114151561133257838060010194505080828681518110151561132357fe5b90602001906020020181815250505b848060010195505061125c565b8360405190808252806020026020018201604052801561136e5781602001602082028038833980820191505090505b509550600094505b838510156113bf57818581518110151561138c57fe5b9060200190602002015186868151811015156113a457fe5b90602001906020020181815250508480600101955050611376565b5b5050505050979650505050505050565b606060008060006060600080935089896040518163ffffffff167c0100000000000000000000000000000000000000000000000000000000028152600401602060405180830381600087803b15801561142857600080fd5b505af115801561143c573d6000803e3d6000fd5b505050506040513d602081101561145257600080fd5b8101908080519060200190929190505050925060008c148061147f57506000600102600019168360001916145b156114bc5760006040519080825280602002602001820160405280156114b45781602001602082028038833980820191505090505b5095506116c2565b8b6040519080825280602002602001820160405280156114eb5781602001602082028038833980820191505090505b509150600115158b15151415611528578c82600081518110151561150b57fe5b906020019060200201906000191690816000191681525050600193505b8c90508394505b8b8510801561154657508260001916816000191614155b15611637578787826040518263ffffffff167c0100000000000000000000000000000000000000000000000000000000028152600401808260001916600019168152602001915050602060405180830381600087803b1580156115a857600080fd5b505af11580156115bc573d6000803e3d6000fd5b505050506040513d60208110156115d257600080fd5b81019080805190602001909291905050509050600060010260001916816000191614151561162a57838060010194505080828681518110151561161157fe5b9060200190602002019060001916908160001916815250505b848060010195505061152f565b836040519080825280602002602001820160405280156116665781602001602082028038833980820191505090505b509550600094505b838510156116c157818581518110151561168457fe5b90602001906020020151868681518110151561169c57fe5b906020019060200201906000191690816000191681525050848060010195505061166e565b5b50505050509796505050505050505600a165627a7a723058201a0d2f6f8abcea74ca7d0066261786d16f41198bc06591d1ea97204ee2e4acb60029",
  "source": "pragma solidity ^0.4.19;\n\nimport \"../abstract/BytesIteratorInteractive.sol\";\nimport \"../abstract/AddressIteratorInteractive.sol\";\nimport \"../abstract/UintIteratorInteractive.sol\";\nimport \"./ExampleController.sol\";\n/**\n    @title Example Interactive\n    @author DigixGlobal Pte Ltd\n */\ncontract ExampleInteractive is BytesIteratorInteractive, AddressIteratorInteractive, UintIteratorInteractive {\n\n  /**\n    @notice Publice state for Controller contract\n  */\n  address public controller_contract;\n\n  /**\n    @notice Constructor\n  */\n  constructor(address _controller) public {\n    controller_contract = _controller;\n  }\n\n  /**\n    @notice initializes an instance of an Example Controller\n  */\n  function example_controller()\n           internal\n           constant\n           returns (ExampleController _contract)\n  {\n    _contract = ExampleController(controller_contract);\n  }\n\n  /**\n    @notice Lists collection of Bytes from the start or end\n    @param _count The Total number of items you wish to be returned\n    @param _from_start Whether to read items from start (or end)\n    @return {\"_collection_items\":\"Collection items\"}\n  */\n  function list_bytes_collection(uint256 _count, bool _from_start)\n           public\n           constant\n           returns (bytes32[] _collection_items)\n  {\n    _collection_items = list_bytesarray(_count,\n                                    example_controller().get_first_in_bytes_collection,\n                                    example_controller().get_last_in_bytes_collection,\n                                    example_controller().get_next_in_bytes_collection,\n                                    example_controller().get_previous_in_bytes_collection,\n                                    _from_start);\n  }\n\n  /**\n    @notice Lists collection of Bytes starting from the specified `_current_item`, going forwards or backwards depending on `_from_start`\n    @param _count The Total number of items you wish to be returned\n    @param _from_start Whether to read items forwards (or backwards)\n    @return {\"_collection_items\":\"Collection items\"}\n  */\n  function list_bytes_collection_from(bytes32 _current_item, uint256 _count, bool _from_start)\n           public\n           constant\n           returns (bytes32[] _collection_items)\n  {\n    _collection_items = list_bytesarray_from(_current_item,\n                                              _count,\n                                              example_controller().get_first_in_bytes_collection,\n                                              example_controller().get_last_in_bytes_collection,\n                                              example_controller().get_next_in_bytes_collection,\n                                              example_controller().get_previous_in_bytes_collection,\n                                              _from_start);\n  }\n\n  /**\n    @notice Lists collection of Addresses from the start or end\n    @param _count The Total number of items you wish to be returned\n    @param _from_start Whether to read items from start (or end)\n    @return {\"_collection_items\":\"Collection items\"}\n  */\n  function list_addresses_collection(uint256 _count, bool _from_start)\n           public\n           constant\n           returns (address[] _collection_items)\n  {\n    _collection_items = list_addresses(_count,\n                                    example_controller().get_first_in_addresses_collection,\n                                    example_controller().get_last_in_addresses_collection,\n                                    example_controller().get_next_in_addresses_collection,\n                                    example_controller().get_previous_in_addresses_collection,\n                                    _from_start);\n  }\n\n  /**\n    @notice Lists collection of Addresses starting from the specified `_current_item`, going forwards or backwards depending on `_from_start`\n    @param _count The Total number of items you wish to be returned\n    @param _from_start Whether to read items forwards (or backwards)\n    @return {\"_collection_items\":\"Collection items\"}\n  */\n  function list_addresses_collection_from(address _current_item, uint256 _count, bool _from_start)\n           public\n           constant\n           returns (address[] _collection_items)\n  {\n    _collection_items = list_addresses_from(_current_item,\n                                              _count,\n                                              example_controller().get_first_in_addresses_collection,\n                                              example_controller().get_last_in_addresses_collection,\n                                              example_controller().get_next_in_addresses_collection,\n                                              example_controller().get_previous_in_addresses_collection,\n                                              _from_start);\n  }\n\n  /**\n    @notice Lists collection of Uints from the start or end\n    @param _count The Total number of items you wish to be returned\n    @param _from_start Whether to read items from start (or end)\n    @return {\"_collection_items\":\"Collection items\"}\n  */\n  function list_uints_collection(uint256 _count, bool _from_start)\n           public\n           constant\n           returns (uint256[] _collection_items)\n  {\n    _collection_items = list_uints(_count,\n                                    example_controller().get_first_in_uints_collection,\n                                    example_controller().get_last_in_uints_collection,\n                                    example_controller().get_next_in_uints_collection,\n                                    example_controller().get_previous_in_uints_collection,\n                                    _from_start);\n  }\n\n  /**\n    @notice Lists collection of Uints starting from the specified `_current_item`, going forwards or backwards depending on `_from_start`\n    @param _count The Total number of items you wish to be returned\n    @param _from_start Whether to read items forwards (or backwards)\n    @return {\"_collection_items\":\"Collection items\"}\n  */\n  function list_uints_collection_from(uint256 _current_item, uint256 _count, bool _from_start)\n           public\n           constant\n           returns (uint256[] _collection_items)\n  {\n    _collection_items = list_uints_from(_current_item,\n                                              _count,\n                                              example_controller().get_first_in_uints_collection,\n                                              example_controller().get_last_in_uints_collection,\n                                              example_controller().get_next_in_uints_collection,\n                                              example_controller().get_previous_in_uints_collection,\n                                              _from_start);\n  }\n\n}\n",
  "sourcePath": "/home/rohit/Develop/solidity-collections-library/contracts/examples/ExampleInteractive.sol",
  "compiler": {
    "name": "solc",
    "version": "0.4.24+commit.e67f0147.Emscripten.clang"
  },
  "schemaVersion": "2.0.0",
  "updatedAt": "2018-08-17T06:56:24.624Z"
}