{
  "contractName": "ExampleController",
  "abi": [
    {
      "constant": true,
      "inputs": [],
      "name": "storage_contract",
      "outputs": [
        {
          "name": "",
          "type": "address"
        }
      ],
      "payable": false,
      "stateMutability": "view",
      "type": "function"
    },
    {
      "inputs": [
        {
          "name": "_storage",
          "type": "address"
        }
      ],
      "payable": false,
      "stateMutability": "nonpayable",
      "type": "constructor"
    },
    {
      "constant": true,
      "inputs": [],
      "name": "get_first_in_bytes_collection",
      "outputs": [
        {
          "name": "_item",
          "type": "bytes32"
        }
      ],
      "payable": false,
      "stateMutability": "view",
      "type": "function"
    },
    {
      "constant": true,
      "inputs": [],
      "name": "get_last_in_bytes_collection",
      "outputs": [
        {
          "name": "_item",
          "type": "bytes32"
        }
      ],
      "payable": false,
      "stateMutability": "view",
      "type": "function"
    },
    {
      "constant": true,
      "inputs": [
        {
          "name": "_current_item",
          "type": "bytes32"
        }
      ],
      "name": "get_next_in_bytes_collection",
      "outputs": [
        {
          "name": "_item",
          "type": "bytes32"
        }
      ],
      "payable": false,
      "stateMutability": "view",
      "type": "function"
    },
    {
      "constant": true,
      "inputs": [
        {
          "name": "_current_item",
          "type": "bytes32"
        }
      ],
      "name": "get_previous_in_bytes_collection",
      "outputs": [
        {
          "name": "_item",
          "type": "bytes32"
        }
      ],
      "payable": false,
      "stateMutability": "view",
      "type": "function"
    },
    {
      "constant": true,
      "inputs": [],
      "name": "get_total_in_bytes_collection",
      "outputs": [
        {
          "name": "_total_count",
          "type": "uint256"
        }
      ],
      "payable": false,
      "stateMutability": "view",
      "type": "function"
    },
    {
      "constant": true,
      "inputs": [],
      "name": "get_first_in_addresses_collection",
      "outputs": [
        {
          "name": "_item",
          "type": "address"
        }
      ],
      "payable": false,
      "stateMutability": "view",
      "type": "function"
    },
    {
      "constant": true,
      "inputs": [],
      "name": "get_last_in_addresses_collection",
      "outputs": [
        {
          "name": "_item",
          "type": "address"
        }
      ],
      "payable": false,
      "stateMutability": "view",
      "type": "function"
    },
    {
      "constant": true,
      "inputs": [
        {
          "name": "_current_item",
          "type": "address"
        }
      ],
      "name": "get_next_in_addresses_collection",
      "outputs": [
        {
          "name": "_item",
          "type": "address"
        }
      ],
      "payable": false,
      "stateMutability": "view",
      "type": "function"
    },
    {
      "constant": true,
      "inputs": [
        {
          "name": "_current_item",
          "type": "address"
        }
      ],
      "name": "get_previous_in_addresses_collection",
      "outputs": [
        {
          "name": "_item",
          "type": "address"
        }
      ],
      "payable": false,
      "stateMutability": "view",
      "type": "function"
    },
    {
      "constant": true,
      "inputs": [],
      "name": "get_total_in_addresses_collection",
      "outputs": [
        {
          "name": "_total_count",
          "type": "uint256"
        }
      ],
      "payable": false,
      "stateMutability": "view",
      "type": "function"
    },
    {
      "constant": true,
      "inputs": [],
      "name": "get_first_in_uints_collection",
      "outputs": [
        {
          "name": "_item",
          "type": "uint256"
        }
      ],
      "payable": false,
      "stateMutability": "view",
      "type": "function"
    },
    {
      "constant": true,
      "inputs": [],
      "name": "get_last_in_uints_collection",
      "outputs": [
        {
          "name": "_item",
          "type": "uint256"
        }
      ],
      "payable": false,
      "stateMutability": "view",
      "type": "function"
    },
    {
      "constant": true,
      "inputs": [
        {
          "name": "_current_item",
          "type": "uint256"
        }
      ],
      "name": "get_next_in_uints_collection",
      "outputs": [
        {
          "name": "_item",
          "type": "uint256"
        }
      ],
      "payable": false,
      "stateMutability": "view",
      "type": "function"
    },
    {
      "constant": true,
      "inputs": [
        {
          "name": "_current_item",
          "type": "uint256"
        }
      ],
      "name": "get_previous_in_uints_collection",
      "outputs": [
        {
          "name": "_item",
          "type": "uint256"
        }
      ],
      "payable": false,
      "stateMutability": "view",
      "type": "function"
    },
    {
      "constant": true,
      "inputs": [],
      "name": "get_total_in_uints_collection",
      "outputs": [
        {
          "name": "_total_count",
          "type": "uint256"
        }
      ],
      "payable": false,
      "stateMutability": "view",
      "type": "function"
    }
  ],
  "bytecode": "0x608060405234801561001057600080fd5b5060405160208061125d83398101806040528101908080519060200190929190505050806000806101000a81548173ffffffffffffffffffffffffffffffffffffffff021916908373ffffffffffffffffffffffffffffffffffffffff160217905550506111da806100836000396000f3006080604052600436106100e6576000357c0100000000000000000000000000000000000000000000000000000000900463ffffffff1680630889665c146100eb57806308a31e431461013857806314038e07146101bb578063417951de146101ee57806379ea69fd146102195780639e338bf81461024c578063a0b6f6a714610277578063a9ae2efb146102ce578063acb23333146102f9578063bd3d473314610324578063c92b2cb114610365578063cd2c1840146103a6578063db23917e146103f3578063ed3ce0fb1461044a578063fc68bac2146104a1578063fdb1e573146104cc575b600080fd5b3480156100f757600080fd5b5061011a600480360381019080803560001916906020019092919050505061054f565b60405180826000191660001916815260200191505060405180910390f35b34801561014457600080fd5b50610179600480360381019080803573ffffffffffffffffffffffffffffffffffffffff169060200190929190505050610584565b604051808273ffffffffffffffffffffffffffffffffffffffff1673ffffffffffffffffffffffffffffffffffffffff16815260200191505060405180910390f35b3480156101c757600080fd5b506101d06105b9565b60405180826000191660001916815260200191505060405180910390f35b3480156101fa57600080fd5b506102036105eb565b6040518082815260200191505060405180910390f35b34801561022557600080fd5b5061022e61061d565b60405180826000191660001916815260200191505060405180910390f35b34801561025857600080fd5b5061026161064f565b6040518082815260200191505060405180910390f35b34801561028357600080fd5b5061028c610681565b604051808273ffffffffffffffffffffffffffffffffffffffff1673ffffffffffffffffffffffffffffffffffffffff16815260200191505060405180910390f35b3480156102da57600080fd5b506102e36106a6565b6040518082815260200191505060405180910390f35b34801561030557600080fd5b5061030e6106d8565b6040518082815260200191505060405180910390f35b34801561033057600080fd5b5061034f6004803603810190808035906020019092919050505061070a565b6040518082815260200191505060405180910390f35b34801561037157600080fd5b506103906004803603810190808035906020019092919050505061073f565b6040518082815260200191505060405180910390f35b3480156103b257600080fd5b506103d56004803603810190808035600019169060200190929190505050610774565b60405180826000191660001916815260200191505060405180910390f35b3480156103ff57600080fd5b506104086107a9565b604051808273ffffffffffffffffffffffffffffffffffffffff1673ffffffffffffffffffffffffffffffffffffffff16815260200191505060405180910390f35b34801561045657600080fd5b5061045f6107db565b604051808273ffffffffffffffffffffffffffffffffffffffff1673ffffffffffffffffffffffffffffffffffffffff16815260200191505060405180910390f35b3480156104ad57600080fd5b506104b661080d565b6040518082815260200191505060405180910390f35b3480156104d857600080fd5b5061050d600480360381019080803573ffffffffffffffffffffffffffffffffffffffff16906020019092919050505061083f565b604051808273ffffffffffffffffffffffffffffffffffffffff1673ffffffffffffffffffffffffffffffffffffffff16815260200191505060405180910390f35b600061057d61055c610874565b73ffffffffffffffffffffffffffffffffffffffff1663938af62a8461089d565b9050919050565b60006105b2610591610874565b73ffffffffffffffffffffffffffffffffffffffff1663bc3d8d8584610940565b9050919050565b60006105e66105c6610874565b73ffffffffffffffffffffffffffffffffffffffff1663778636be610a07565b905090565b60006106186105f8610874565b73ffffffffffffffffffffffffffffffffffffffff1663bad60611610a96565b905090565b600061064a61062a610874565b73ffffffffffffffffffffffffffffffffffffffff16636cc8f9f1610b25565b905090565b600061067c61065c610874565b73ffffffffffffffffffffffffffffffffffffffff166392eb1a8b610bb4565b905090565b6000809054906101000a900473ffffffffffffffffffffffffffffffffffffffff1681565b60006106d36106b3610874565b73ffffffffffffffffffffffffffffffffffffffff1663aace0f56610c43565b905090565b60006107056106e5610874565b73ffffffffffffffffffffffffffffffffffffffff166345bf0b35610cd2565b905090565b6000610738610717610874565b73ffffffffffffffffffffffffffffffffffffffff16637780b11984610d61565b9050919050565b600061076d61074c610874565b73ffffffffffffffffffffffffffffffffffffffff1663f883f79384610dfc565b9050919050565b60006107a2610781610874565b73ffffffffffffffffffffffffffffffffffffffff1663656a39c584610e97565b9050919050565b60006107d66107b6610874565b73ffffffffffffffffffffffffffffffffffffffff1663890cf1d6610f3a565b905090565b60006108086107e8610874565b73ffffffffffffffffffffffffffffffffffffffff1663668bcc25610fc9565b905090565b600061083a61081a610874565b73ffffffffffffffffffffffffffffffffffffffff16637e5ce6d7611058565b905090565b600061086d61084c610874565b73ffffffffffffffffffffffffffffffffffffffff16636eba73be846110e7565b9050919050565b60008060009054906101000a900473ffffffffffffffffffffffffffffffffffffffff16905090565b60008383836040518263ffffffff167c0100000000000000000000000000000000000000000000000000000000028152600401808260001916600019168152602001915050602060405180830381600087803b1580156108fc57600080fd5b505af1158015610910573d6000803e3d6000fd5b505050506040513d602081101561092657600080fd5b810190808051906020019092919050505090509392505050565b60008383836040518263ffffffff167c0100000000000000000000000000000000000000000000000000000000028152600401808273ffffffffffffffffffffffffffffffffffffffff1673ffffffffffffffffffffffffffffffffffffffff168152602001915050602060405180830381600087803b1580156109c357600080fd5b505af11580156109d7573d6000803e3d6000fd5b505050506040513d60208110156109ed57600080fd5b810190808051906020019092919050505090509392505050565b600082826040518163ffffffff167c0100000000000000000000000000000000000000000000000000000000028152600401602060405180830381600087803b158015610a5357600080fd5b505af1158015610a67573d6000803e3d6000fd5b505050506040513d6020811015610a7d57600080fd5b8101908080519060200190929190505050905092915050565b600082826040518163ffffffff167c0100000000000000000000000000000000000000000000000000000000028152600401602060405180830381600087803b158015610ae257600080fd5b505af1158015610af6573d6000803e3d6000fd5b505050506040513d6020811015610b0c57600080fd5b8101908080519060200190929190505050905092915050565b600082826040518163ffffffff167c0100000000000000000000000000000000000000000000000000000000028152600401602060405180830381600087803b158015610b7157600080fd5b505af1158015610b85573d6000803e3d6000fd5b505050506040513d6020811015610b9b57600080fd5b8101908080519060200190929190505050905092915050565b600082826040518163ffffffff167c0100000000000000000000000000000000000000000000000000000000028152600401602060405180830381600087803b158015610c0057600080fd5b505af1158015610c14573d6000803e3d6000fd5b505050506040513d6020811015610c2a57600080fd5b8101908080519060200190929190505050905092915050565b600082826040518163ffffffff167c0100000000000000000000000000000000000000000000000000000000028152600401602060405180830381600087803b158015610c8f57600080fd5b505af1158015610ca3573d6000803e3d6000fd5b505050506040513d6020811015610cb957600080fd5b8101908080519060200190929190505050905092915050565b600082826040518163ffffffff167c0100000000000000000000000000000000000000000000000000000000028152600401602060405180830381600087803b158015610d1e57600080fd5b505af1158015610d32573d6000803e3d6000fd5b505050506040513d6020811015610d4857600080fd5b8101908080519060200190929190505050905092915050565b60008383836040518263ffffffff167c010000000000000000000000000000000000000000000000000000000002815260040180828152602001915050602060405180830381600087803b158015610db857600080fd5b505af1158015610dcc573d6000803e3d6000fd5b505050506040513d6020811015610de257600080fd5b810190808051906020019092919050505090509392505050565b60008383836040518263ffffffff167c010000000000000000000000000000000000000000000000000000000002815260040180828152602001915050602060405180830381600087803b158015610e5357600080fd5b505af1158015610e67573d6000803e3d6000fd5b505050506040513d6020811015610e7d57600080fd5b810190808051906020019092919050505090509392505050565b60008383836040518263ffffffff167c0100000000000000000000000000000000000000000000000000000000028152600401808260001916600019168152602001915050602060405180830381600087803b158015610ef657600080fd5b505af1158015610f0a573d6000803e3d6000fd5b505050506040513d6020811015610f2057600080fd5b810190808051906020019092919050505090509392505050565b600082826040518163ffffffff167c0100000000000000000000000000000000000000000000000000000000028152600401602060405180830381600087803b158015610f8657600080fd5b505af1158015610f9a573d6000803e3d6000fd5b505050506040513d6020811015610fb057600080fd5b8101908080519060200190929190505050905092915050565b600082826040518163ffffffff167c0100000000000000000000000000000000000000000000000000000000028152600401602060405180830381600087803b15801561101557600080fd5b505af1158015611029573d6000803e3d6000fd5b505050506040513d602081101561103f57600080fd5b8101908080519060200190929190505050905092915050565b600082826040518163ffffffff167c0100000000000000000000000000000000000000000000000000000000028152600401602060405180830381600087803b1580156110a457600080fd5b505af11580156110b8573d6000803e3d6000fd5b505050506040513d60208110156110ce57600080fd5b8101908080519060200190929190505050905092915050565b60008383836040518263ffffffff167c0100000000000000000000000000000000000000000000000000000000028152600401808273ffffffffffffffffffffffffffffffffffffffff1673ffffffffffffffffffffffffffffffffffffffff168152602001915050602060405180830381600087803b15801561116a57600080fd5b505af115801561117e573d6000803e3d6000fd5b505050506040513d602081101561119457600080fd5b8101908080519060200190929190505050905093925050505600a165627a7a72305820c186c49ef143e96acdfd572d744b97b7c308c9a8bc55eeac10847b729dabe2700029",
  "source": "pragma solidity ^0.4.19;\n\nimport \"../abstract/BytesIteratorController.sol\";\nimport \"../abstract/AddressIteratorController.sol\";\nimport \"../abstract/UintIteratorController.sol\";\nimport \"./ExampleStorage.sol\";\n\n/**\n  @title Example Controller\n  @author DigixGlobal Pte Ltd\n  @notice this contract utilizes: [Bytes Iterator Controller](/BytesIteratorController),\n                                  [Address Iterator Controller](/AddressIteratorController),\n                                  [Uint Iterator Controller](/UintIteratorController),\n                                  [Example Storage](/ExampleStorage)\n*/\ncontract ExampleController is BytesIteratorController, AddressIteratorController, UintIteratorController {\n\n  address public storage_contract;\n\n  /**\n    @notice Constructor for ExampleController\n    @param _storage Adress of storage to use\n  */\n  constructor(address _storage) public {\n    storage_contract = _storage;\n  }\n\n  /**\n    @notice Initializes an instance of Example storage\n  */\n  function example_storage()\n           internal\n           constant\n           returns (ExampleStorage _contract)\n  {\n    _contract = ExampleStorage(storage_contract);\n  }\n\n  /**\n    @notice Gets the first item in the Bytes collection\n    @return {\"_item\":\"Collection item\"}\n  */\n  function get_first_in_bytes_collection()\n           public\n           constant\n           returns (bytes32 _item)\n  {\n    _item = get_first_from_bytesarray(example_storage().read_first_in_bytes_collection);\n  }\n\n  /**\n    @notice Gets the last item in the Bytes collection\n    @return {\"_item\":\"Collection item\"}\n  */\n  function get_last_in_bytes_collection()\n           public\n           constant\n           returns (bytes32 _item)\n  {\n    _item = get_last_from_bytesarray(example_storage().read_last_in_bytes_collection);\n\n  }\n\n  /**\n    @notice Gets the next item in the Bytes collection based on the specified `_current_item`\n    @param _current_item The current item to be used as base line\n    @return {\"_item\":\"Collection item\"}\n  */\n  function get_next_in_bytes_collection(bytes32 _current_item)\n           public\n           constant\n           returns (bytes32 _item)\n  {\n    _item = get_next_from_bytesarray(example_storage().read_next_in_bytes_collection, _current_item);\n  }\n\n  /**\n    @notice Gets the previous imte in the Bytes collection based on the specified `_current_item`\n    @param _current_item The current item to be used as base line\n    @return {\"_item\":\"Collection item\"}\n  */\n  function get_previous_in_bytes_collection(bytes32 _current_item)\n           public\n           constant\n           returns (bytes32 _item)\n  {\n    _item = get_previous_from_bytesarray(example_storage().read_previous_in_bytes_collection, _current_item);\n  }\n\n  /**\n    @notice Gets the Total number of items in the Bytes collection\n    @return {\"_total_count\":\"The Toal number of items in the collection\"}\n  */\n  function get_total_in_bytes_collection()\n           public\n           constant\n           returns (uint256 _total_count)\n  {\n    _total_count = get_total_bytesarray(example_storage().read_total_in_bytes_collection);\n  }\n\n  /**\n    @notice Gets the first item in the Addresses collection\n    @return {\"_item\":\"Collection item\"}\n  */\n  function get_first_in_addresses_collection()\n           public\n           constant\n           returns (address _item)\n  {\n    _item = get_first_from_addresses(example_storage().read_first_in_addresses_collection);\n  }\n\n  /**\n    @notice Gets the last item in the Addresses collection\n    @return {\"_item\":\"Collection item\"}\n  */\n  function get_last_in_addresses_collection()\n           public\n           constant\n           returns (address _item)\n  {\n    _item = get_last_from_addresses(example_storage().read_last_in_addresses_collection);\n  }\n\n  /**\n    @notice Gets the next item in the Addresses collection based on the specified `_current_item`\n    @return {\"_item\":\"Collection item\"}\n  */\n  function get_next_in_addresses_collection(address _current_item)\n           public\n           constant\n           returns (address _item)\n  {\n    _item = get_next_from_addresses(example_storage().read_next_in_addresses_collection, _current_item);\n  }\n\n  /**\n    @notice Gets the previous item in the Addresses collection based on the specified `_current_item`\n    @return {\"_item\":\"Collection item\"}\n  */\n  function get_previous_in_addresses_collection(address _current_item)\n           public\n           constant\n           returns (address _item)\n  {\n    _item = get_previous_from_addresses(example_storage().read_previous_in_addresses_collection, _current_item);\n  }\n\n  /**\n    @notice Gets the total number of addresses in the Addresses collection\n    @return {\"_item\":\"Collection item\"}\n  */\n  function get_total_in_addresses_collection()\n           public\n           constant\n           returns (uint256 _total_count)\n  {\n    _total_count = get_total_addresses(example_storage().read_total_in_addresses_collection);\n  }\n\n\n  /**\n    @notice Gets the first item in the uints collection\n    @return {\"_item\":\"Collection item\"}\n  */\n  function get_first_in_uints_collection()\n           public\n           constant\n           returns (uint256 _item)\n  {\n    _item = get_first_from_uints(example_storage().read_first_in_uints_collection);\n  }\n\n  /**\n    @notice Gets the last item in the uints collection\n    @return {\"_item\":\"Collection item\"}\n  */\n  function get_last_in_uints_collection()\n           public\n           constant\n           returns (uint256 _item)\n  {\n    _item = get_last_from_uints(example_storage().read_last_in_uints_collection);\n  }\n\n  /**\n    @notice Gets the next item in the uints collection based on the specified `_current_item`\n    @param _current_item The item to be used as base line\n    @return {\"_item\":\"Collection item\"}\n  */\n  function get_next_in_uints_collection(uint256 _current_item)\n           public\n           constant\n           returns (uint256 _item)\n  {\n    _item = get_next_from_uints(example_storage().read_next_in_uints_collection, _current_item);\n  }\n\n  /**\n    @notice Gets the previous item in the uints collection based on the specified `_current_item`\n    @param _current_item The item to be used as base line\n    @return {\"_item\":\"Collection item\"}\n  */\n  function get_previous_in_uints_collection(uint256 _current_item)\n           public\n           constant\n           returns (uint256 _item)\n  {\n    _item = get_previous_from_uints(example_storage().read_previous_in_uints_collection, _current_item);\n  }\n\n  /**\n    @notice Gets the total number of uints in the uints collection\n    @return {\"_item\":\"Collection item\"}\n  */\n  function get_total_in_uints_collection()\n           public\n           constant\n           returns (uint256 _total_count)\n  {\n    _total_count = get_total_uints(example_storage().read_total_in_uints_collection);\n  }\n}\n",
  "sourcePath": "/home/rohit/Develop/solidity-collections-library/contracts/examples/ExampleController.sol",
  "compiler": {
    "name": "solc",
    "version": "0.4.24+commit.e67f0147.Emscripten.clang"
  },
  "schemaVersion": "2.0.0",
  "updatedAt": "2018-08-17T06:56:24.618Z"
}