{
  "contractName": "ExampleIndexedController",
  "abi": [
    {
      "constant": true,
      "inputs": [],
      "name": "storage_contract",
      "outputs": [
        {
          "name": "",
          "type": "address"
        }
      ],
      "payable": false,
      "stateMutability": "view",
      "type": "function"
    },
    {
      "inputs": [
        {
          "name": "_storage",
          "type": "address"
        }
      ],
      "payable": false,
      "stateMutability": "nonpayable",
      "type": "constructor"
    },
    {
      "constant": true,
      "inputs": [
        {
          "name": "_collection_index",
          "type": "bytes32"
        }
      ],
      "name": "get_first_in_indexed_bytes_collection",
      "outputs": [
        {
          "name": "_item",
          "type": "bytes32"
        }
      ],
      "payable": false,
      "stateMutability": "view",
      "type": "function"
    },
    {
      "constant": true,
      "inputs": [
        {
          "name": "_collection_index",
          "type": "bytes32"
        }
      ],
      "name": "get_last_in_indexed_bytes_collection",
      "outputs": [
        {
          "name": "_item",
          "type": "bytes32"
        }
      ],
      "payable": false,
      "stateMutability": "view",
      "type": "function"
    },
    {
      "constant": true,
      "inputs": [
        {
          "name": "_collection_index",
          "type": "bytes32"
        },
        {
          "name": "_current_item",
          "type": "bytes32"
        }
      ],
      "name": "get_next_in_indexed_bytes_collection",
      "outputs": [
        {
          "name": "_item",
          "type": "bytes32"
        }
      ],
      "payable": false,
      "stateMutability": "view",
      "type": "function"
    },
    {
      "constant": true,
      "inputs": [
        {
          "name": "_collection_index",
          "type": "bytes32"
        },
        {
          "name": "_current_item",
          "type": "bytes32"
        }
      ],
      "name": "get_previous_in_indexed_bytes_collection",
      "outputs": [
        {
          "name": "_item",
          "type": "bytes32"
        }
      ],
      "payable": false,
      "stateMutability": "view",
      "type": "function"
    },
    {
      "constant": true,
      "inputs": [
        {
          "name": "_collection_index",
          "type": "bytes32"
        }
      ],
      "name": "get_total_in_indexed_bytes_collection",
      "outputs": [
        {
          "name": "_total_count",
          "type": "uint256"
        }
      ],
      "payable": false,
      "stateMutability": "view",
      "type": "function"
    },
    {
      "constant": true,
      "inputs": [
        {
          "name": "_collection_index",
          "type": "bytes32"
        }
      ],
      "name": "get_first_in_indexed_addresses_collection",
      "outputs": [
        {
          "name": "_item",
          "type": "address"
        }
      ],
      "payable": false,
      "stateMutability": "view",
      "type": "function"
    },
    {
      "constant": true,
      "inputs": [
        {
          "name": "_collection_index",
          "type": "bytes32"
        }
      ],
      "name": "get_last_in_indexed_addresses_collection",
      "outputs": [
        {
          "name": "_item",
          "type": "address"
        }
      ],
      "payable": false,
      "stateMutability": "view",
      "type": "function"
    },
    {
      "constant": true,
      "inputs": [
        {
          "name": "_collection_index",
          "type": "bytes32"
        },
        {
          "name": "_current_item",
          "type": "address"
        }
      ],
      "name": "get_next_in_indexed_addresses_collection",
      "outputs": [
        {
          "name": "_item",
          "type": "address"
        }
      ],
      "payable": false,
      "stateMutability": "view",
      "type": "function"
    },
    {
      "constant": true,
      "inputs": [
        {
          "name": "_collection_index",
          "type": "bytes32"
        },
        {
          "name": "_current_item",
          "type": "address"
        }
      ],
      "name": "get_previous_in_indexed_addresses_collection",
      "outputs": [
        {
          "name": "_item",
          "type": "address"
        }
      ],
      "payable": false,
      "stateMutability": "view",
      "type": "function"
    },
    {
      "constant": true,
      "inputs": [
        {
          "name": "_collection_index",
          "type": "bytes32"
        }
      ],
      "name": "get_total_in_indexed_addresses_collection",
      "outputs": [
        {
          "name": "_total_count",
          "type": "uint256"
        }
      ],
      "payable": false,
      "stateMutability": "view",
      "type": "function"
    },
    {
      "constant": true,
      "inputs": [
        {
          "name": "_collection_index",
          "type": "bytes32"
        }
      ],
      "name": "get_first_in_indexed_uints_collection",
      "outputs": [
        {
          "name": "_item",
          "type": "uint256"
        }
      ],
      "payable": false,
      "stateMutability": "view",
      "type": "function"
    },
    {
      "constant": true,
      "inputs": [
        {
          "name": "_collection_index",
          "type": "bytes32"
        }
      ],
      "name": "get_last_in_indexed_uints_collection",
      "outputs": [
        {
          "name": "_item",
          "type": "uint256"
        }
      ],
      "payable": false,
      "stateMutability": "view",
      "type": "function"
    },
    {
      "constant": true,
      "inputs": [
        {
          "name": "_collection_index",
          "type": "bytes32"
        },
        {
          "name": "_current_item",
          "type": "uint256"
        }
      ],
      "name": "get_next_in_indexed_uints_collection",
      "outputs": [
        {
          "name": "_item",
          "type": "uint256"
        }
      ],
      "payable": false,
      "stateMutability": "view",
      "type": "function"
    },
    {
      "constant": true,
      "inputs": [
        {
          "name": "_collection_index",
          "type": "bytes32"
        },
        {
          "name": "_current_item",
          "type": "uint256"
        }
      ],
      "name": "get_previous_in_indexed_uints_collection",
      "outputs": [
        {
          "name": "_item",
          "type": "uint256"
        }
      ],
      "payable": false,
      "stateMutability": "view",
      "type": "function"
    },
    {
      "constant": true,
      "inputs": [
        {
          "name": "_collection_index",
          "type": "bytes32"
        }
      ],
      "name": "get_total_in_indexed_uints_collection",
      "outputs": [
        {
          "name": "_total_count",
          "type": "uint256"
        }
      ],
      "payable": false,
      "stateMutability": "view",
      "type": "function"
    }
  ],
  "bytecode": "0x6060604052341561000f57600080fd5b6040516020806112ce83398101604052808051906020019091905050806000806101000a81548173ffffffffffffffffffffffffffffffffffffffff021916908373ffffffffffffffffffffffffffffffffffffffff160217905550506112538061007b6000396000f3006060604052600436106100e6576000357c0100000000000000000000000000000000000000000000000000000000900463ffffffff168063060176fb146100eb5780632a2645b71461012e5780633ca367691461016957806346c81d52146101ad5780634791da15146102145780635608daa71461024f57806367ce5e15146102d55780636f451a62146103185780638eef1cd4146103535780639934289e146103ba578063a0b6f6a71461040a578063a0d5ae761461045f578063afa1c8771461049a578063b3e77477146104d5578063cd6f54f514610525578063f98bea8e14610569575b600080fd5b34156100f657600080fd5b6101106004808035600019169060200190919050506105ef565b60405180826000191660001916815260200191505060405180910390f35b341561013957600080fd5b610153600480803560001916906020019091905050610624565b6040518082815260200191505060405180910390f35b341561017457600080fd5b610197600480803560001916906020019091908035906020019091905050610659565b6040518082815260200191505060405180910390f35b34156101b857600080fd5b6101d2600480803560001916906020019091905050610690565b604051808273ffffffffffffffffffffffffffffffffffffffff1673ffffffffffffffffffffffffffffffffffffffff16815260200191505060405180910390f35b341561021f57600080fd5b6102396004808035600019169060200190919050506106c5565b6040518082815260200191505060405180910390f35b341561025a57600080fd5b61029360048080356000191690602001909190803573ffffffffffffffffffffffffffffffffffffffff169060200190919050506106fa565b604051808273ffffffffffffffffffffffffffffffffffffffff1673ffffffffffffffffffffffffffffffffffffffff16815260200191505060405180910390f35b34156102e057600080fd5b6102fa600480803560001916906020019091905050610731565b60405180826000191660001916815260200191505060405180910390f35b341561032357600080fd5b61033d600480803560001916906020019091905050610766565b6040518082815260200191505060405180910390f35b341561035e57600080fd5b61037860048080356000191690602001909190505061079b565b604051808273ffffffffffffffffffffffffffffffffffffffff1673ffffffffffffffffffffffffffffffffffffffff16815260200191505060405180910390f35b34156103c557600080fd5b6103ec600480803560001916906020019091908035600019169060200190919050506107d0565b60405180826000191660001916815260200191505060405180910390f35b341561041557600080fd5b61041d610807565b604051808273ffffffffffffffffffffffffffffffffffffffff1673ffffffffffffffffffffffffffffffffffffffff16815260200191505060405180910390f35b341561046a57600080fd5b61048460048080356000191690602001909190505061082c565b6040518082815260200191505060405180910390f35b34156104a557600080fd5b6104bf600480803560001916906020019091905050610861565b6040518082815260200191505060405180910390f35b34156104e057600080fd5b61050760048080356000191690602001909190803560001916906020019091905050610896565b60405180826000191660001916815260200191505060405180910390f35b341561053057600080fd5b6105536004808035600019169060200190919080359060200190919050506108cd565b6040518082815260200191505060405180910390f35b341561057457600080fd5b6105ad60048080356000191690602001909190803573ffffffffffffffffffffffffffffffffffffffff16906020019091905050610904565b604051808273ffffffffffffffffffffffffffffffffffffffff1673ffffffffffffffffffffffffffffffffffffffff16815260200191505060405180910390f35b600061061d6105fc61093b565b73ffffffffffffffffffffffffffffffffffffffff166347ff9ac084610964565b9050919050565b600061065261063161093b565b73ffffffffffffffffffffffffffffffffffffffff166378a6dcc9846109ef565b9050919050565b600061068861066661093b565b73ffffffffffffffffffffffffffffffffffffffff1663385e6ee98585610a7a565b905092915050565b60006106be61069d61093b565b73ffffffffffffffffffffffffffffffffffffffff166348bc91fa84610b0e565b9050919050565b60006106f36106d261093b565b73ffffffffffffffffffffffffffffffffffffffff1663ff5e46cc84610b99565b9050919050565b600061072961070761093b565b73ffffffffffffffffffffffffffffffffffffffff1663a94fc5058585610c24565b905092915050565b600061075f61073e61093b565b73ffffffffffffffffffffffffffffffffffffffff1663d6f66e2284610ce4565b9050919050565b600061079461077361093b565b73ffffffffffffffffffffffffffffffffffffffff166381dd8e6e84610d6f565b9050919050565b60006107c96107a861093b565b73ffffffffffffffffffffffffffffffffffffffff16631893101684610dfa565b9050919050565b60006107ff6107dd61093b565b73ffffffffffffffffffffffffffffffffffffffff1663b17054db8585610e85565b905092915050565b6000809054906101000a900473ffffffffffffffffffffffffffffffffffffffff1681565b600061085a61083961093b565b73ffffffffffffffffffffffffffffffffffffffff1663c20681f184610f21565b9050919050565b600061088f61086e61093b565b73ffffffffffffffffffffffffffffffffffffffff16639f666fe784610fac565b9050919050565b60006108c56108a361093b565b73ffffffffffffffffffffffffffffffffffffffff1663a7493d8a8585611037565b905092915050565b60006108fc6108da61093b565b73ffffffffffffffffffffffffffffffffffffffff1663d0d7639085856110d3565b905092915050565b600061093361091161093b565b73ffffffffffffffffffffffffffffffffffffffff1663bf78a81d8585611167565b905092915050565b60008060009054906101000a900473ffffffffffffffffffffffffffffffffffffffff16905090565b60008383836000604051602001526040518263ffffffff167c0100000000000000000000000000000000000000000000000000000000028152600401808260001916600019168152602001915050602060405180830381600087803b15156109cb57600080fd5b6102c65a03f115156109dc57600080fd5b5050506040518051905090509392505050565b60008383836000604051602001526040518263ffffffff167c0100000000000000000000000000000000000000000000000000000000028152600401808260001916600019168152602001915050602060405180830381600087803b1515610a5657600080fd5b6102c65a03f11515610a6757600080fd5b5050506040518051905090509392505050565b6000848484846000604051602001526040518363ffffffff167c010000000000000000000000000000000000000000000000000000000002815260040180836000191660001916815260200182815260200192505050602060405180830381600087803b1515610ae957600080fd5b6102c65a03f11515610afa57600080fd5b505050604051805190509050949350505050565b60008383836000604051602001526040518263ffffffff167c0100000000000000000000000000000000000000000000000000000000028152600401808260001916600019168152602001915050602060405180830381600087803b1515610b7557600080fd5b6102c65a03f11515610b8657600080fd5b5050506040518051905090509392505050565b60008383836000604051602001526040518263ffffffff167c0100000000000000000000000000000000000000000000000000000000028152600401808260001916600019168152602001915050602060405180830381600087803b1515610c0057600080fd5b6102c65a03f11515610c1157600080fd5b5050506040518051905090509392505050565b6000848484846000604051602001526040518363ffffffff167c01000000000000000000000000000000000000000000000000000000000281526004018083600019166000191681526020018273ffffffffffffffffffffffffffffffffffffffff1673ffffffffffffffffffffffffffffffffffffffff16815260200192505050602060405180830381600087803b1515610cbf57600080fd5b6102c65a03f11515610cd057600080fd5b505050604051805190509050949350505050565b60008383836000604051602001526040518263ffffffff167c0100000000000000000000000000000000000000000000000000000000028152600401808260001916600019168152602001915050602060405180830381600087803b1515610d4b57600080fd5b6102c65a03f11515610d5c57600080fd5b5050506040518051905090509392505050565b60008383836000604051602001526040518263ffffffff167c0100000000000000000000000000000000000000000000000000000000028152600401808260001916600019168152602001915050602060405180830381600087803b1515610dd657600080fd5b6102c65a03f11515610de757600080fd5b5050506040518051905090509392505050565b60008383836000604051602001526040518263ffffffff167c0100000000000000000000000000000000000000000000000000000000028152600401808260001916600019168152602001915050602060405180830381600087803b1515610e6157600080fd5b6102c65a03f11515610e7257600080fd5b5050506040518051905090509392505050565b6000848484846000604051602001526040518363ffffffff167c0100000000000000000000000000000000000000000000000000000000028152600401808360001916600019168152602001826000191660001916815260200192505050602060405180830381600087803b1515610efc57600080fd5b6102c65a03f11515610f0d57600080fd5b505050604051805190509050949350505050565b60008383836000604051602001526040518263ffffffff167c0100000000000000000000000000000000000000000000000000000000028152600401808260001916600019168152602001915050602060405180830381600087803b1515610f8857600080fd5b6102c65a03f11515610f9957600080fd5b5050506040518051905090509392505050565b60008383836000604051602001526040518263ffffffff167c0100000000000000000000000000000000000000000000000000000000028152600401808260001916600019168152602001915050602060405180830381600087803b151561101357600080fd5b6102c65a03f1151561102457600080fd5b5050506040518051905090509392505050565b6000848484846000604051602001526040518363ffffffff167c0100000000000000000000000000000000000000000000000000000000028152600401808360001916600019168152602001826000191660001916815260200192505050602060405180830381600087803b15156110ae57600080fd5b6102c65a03f115156110bf57600080fd5b505050604051805190509050949350505050565b6000848484846000604051602001526040518363ffffffff167c010000000000000000000000000000000000000000000000000000000002815260040180836000191660001916815260200182815260200192505050602060405180830381600087803b151561114257600080fd5b6102c65a03f1151561115357600080fd5b505050604051805190509050949350505050565b6000848484846000604051602001526040518363ffffffff167c01000000000000000000000000000000000000000000000000000000000281526004018083600019166000191681526020018273ffffffffffffffffffffffffffffffffffffffff1673ffffffffffffffffffffffffffffffffffffffff16815260200192505050602060405180830381600087803b151561120257600080fd5b6102c65a03f1151561121357600080fd5b5050506040518051905090509493505050505600a165627a7a7230582009bcade39847650ca5ae0738bb085ee5d0ba8cc8821717494073ce9c52d6db130029",
  "source": "pragma solidity ^0.4.19;\n\nimport \"../abstract/IndexedBytesIteratorController.sol\";\nimport \"../abstract/IndexedAddressIteratorController.sol\";\nimport \"../abstract/IndexedUintIteratorController.sol\";\nimport \"./ExampleIndexedStorage.sol\";\n\n/**\n  @title Example Indexed Controller\n  @author DigixGlobal Pte Ltd\n  @notice This contract utilizes: [Indexed Bytes Iterator Controller](/IndexedBytesIteratorController),\n                                  [Indexed Address Iterator Controller](/IndexedAddressIteratorController),\n                                  [Indexed UintIterator Controller](/IndexedUintIteratorController),\n                                  [Example Indexed Storage](/ExampleIndexedStorage)\n*/\ncontract ExampleIndexedController is IndexedBytesIteratorController, IndexedAddressIteratorController, IndexedUintIteratorController {\n\n\n  /// @notice State to be used as holder for the specified storage\n  /// @dev This example controller inherits from [IndexedBytesIteratorController](/IndexedBytesIteratorController),\n  ///    [IndexedAddressIteratorController](/IndexedAddressIteratorController), [IndexedUintIteratorController](IndexedUintIteratorController)\n  address public storage_contract;\n\n  /**\n    @notice Constructor for ExampleIndexedController\n    @param _storage Address of storage to use\n  */\n  function ExampleIndexedController(address _storage) public {\n    storage_contract = _storage;\n  }\n\n  /**\n    @notice Initializes an instance of Example Storage\n  */\n  function example_storage()\n           internal\n           constant\n           returns (ExampleIndexedStorage _contract)\n  {\n    _contract = ExampleIndexedStorage(storage_contract);\n  }\n\n  /**\n    @notice Gets the first item of an Indexed Bytes collection\n    @param _collection_index Index of the Collection to evaluate\n    @return {\"_item\":\"Collection item\"}\n  */\n  function get_first_in_indexed_bytes_collection(bytes32 _collection_index)\n           public\n           constant\n           returns (bytes32 _item)\n  {\n    _item = get_first_from_indexed_bytesarray(example_storage().read_first_in_indexed_bytes_collection, _collection_index);\n  }\n\n  /**\n    @notice Gets the last item of an Indexed Bytes collection\n    @param _collection_index Index of the Collection to evaluate\n    @return {\"_item\":\"Collection item\"}\n  */\n  function get_last_in_indexed_bytes_collection(bytes32 _collection_index)\n           public\n           constant\n           returns (bytes32 _item)\n  {\n    _item = get_last_from_indexed_bytesarray(example_storage().read_last_in_indexed_bytes_collection, _collection_index);\n  }\n\n  /**\n    @notice Gets the next item of an Indexed Bytes collection based on the specified `_current_item`\n    @param _collection_index Index of the Collection to evaluate\n    @param _current_item The item to be used as base line\n    @return {\"_item\":\"Collection item\"}\n  */\n  function get_next_in_indexed_bytes_collection(bytes32 _collection_index, bytes32 _current_item)\n           public\n           constant\n           returns (bytes32 _item)\n  {\n    _item = get_next_from_indexed_bytesarray(example_storage().read_next_in_indexed_bytes_collection, _collection_index, _current_item);\n  }\n\n  /**\n    @notice Gets the previous item of an Indexed Bytes collection based on the specified `_current_item`\n    @param _collection_index Index of the Collection to evaluate\n    @param _current_item The item to be used as base line\n    @return {\"_item\":\"Collection item\"}\n  */\n  function get_previous_in_indexed_bytes_collection(bytes32 _collection_index, bytes32 _current_item)\n           public\n           constant\n           returns (bytes32 _item)\n  {\n    _item = get_previous_from_indexed_bytesarray(example_storage().read_previous_in_indexed_bytes_collection, _collection_index, _current_item);\n  }\n\n  /**\n    @notice Gets the total number of items in the Indexed Bytes collection\n    @param _collection_index Index of the Collection to evaluate\n    @return {\"_item\":\"Collection item\"}\n  */\n  function get_total_in_indexed_bytes_collection(bytes32 _collection_index)\n           public\n           constant\n           returns (uint256 _total_count)\n  {\n    _total_count = get_total_indexed_bytesarray(example_storage().read_total_in_indexed_bytes_collection, _collection_index);\n  }\n\n  /**\n    @notice Gets the first item in an Indexed Addresses collection\n    @param _collection_index Index of the Collection to evaluate\n    @return {\"_item\":\"Collection item\"}\n  */\n  function get_first_in_indexed_addresses_collection(bytes32 _collection_index)\n           public\n           constant\n           returns (address _item)\n  {\n    _item = get_first_from_indexed_addresses(example_storage().read_first_in_indexed_addresses_collection, _collection_index);\n  }\n\n  /**\n    @notice Gets the last item in an Indexed Addresses collection\n    @param _collection_index Index of the Collection to evaluate\n    @return {\"_item\":\"Collection item\"}\n  */\n  function get_last_in_indexed_addresses_collection(bytes32 _collection_index)\n           public\n           constant\n           returns (address _item)\n  {\n    _item = get_last_from_indexed_addresses(example_storage().read_last_in_indexed_addresses_collection, _collection_index);\n  }\n\n  /**\n    @notice Gets the next item in an Indexed Addresses collection based on the specified `_current_item`\n    @param _collection_index Index of the Collection to evaluate\n    @param _current_item The item the be used as base line\n    @return {\"_item\":\"Collection item\"}\n  */\n  function get_next_in_indexed_addresses_collection(bytes32 _collection_index, address _current_item)\n           public\n           constant\n           returns (address _item)\n  {\n    _item = get_next_from_indexed_addresses(example_storage().read_next_in_indexed_addresses_collection, _collection_index, _current_item);\n  }\n\n\n  /**\n    @notice Gets the previous item in an Indexed Addresses collection based on the specified `_current_item`\n    @param _collection_index Index of the Collection to evaluate\n    @param _current_item The item to be used as base line\n    @return {\"_item\":\"Collection item\"}\n  */\n  function get_previous_in_indexed_addresses_collection(bytes32 _collection_index, address _current_item)\n           public\n           constant\n           returns (address _item)\n  {\n    _item = get_previous_from_indexed_addresses(example_storage().read_previous_in_indexed_addresses_collection, _collection_index, _current_item);\n  }\n\n  /**\n    @notice Gets the total number of items in an Indexed Addresses collection\n    @param _collection_index Index of the Collection to evaluate\n    @return {\"_item\":\"Collection item\"}\n  */\n  function get_total_in_indexed_addresses_collection(bytes32 _collection_index)\n           public\n           constant\n           returns (uint256 _total_count)\n  {\n    _total_count = get_total_indexed_addresses(example_storage().read_total_in_indexed_addresses_collection, _collection_index);\n  }\n\n  /**\n    @notice Gets the first item in an Indexed Uints collection\n    @param _collection_index Index of the Collection to evaluate\n    @return {\"_item\":\"Collection item\"}\n  */\n  function get_first_in_indexed_uints_collection(bytes32 _collection_index)\n           public\n           constant\n           returns (uint256 _item)\n  {\n    _item = get_first_from_indexed_uints(example_storage().read_first_in_indexed_uints_collection, _collection_index);\n  }\n\n  /**\n    @notice Gets the last item in an Indexed Uints collection\n    @param _collection_index Index of the Collection to evaluate\n    @return {\"_item\":\"Collection item\"}\n  */\n  function get_last_in_indexed_uints_collection(bytes32 _collection_index)\n           public\n           constant\n           returns (uint256 _item)\n  {\n    _item = get_last_from_indexed_uints(example_storage().read_last_in_indexed_uints_collection, _collection_index);\n  }\n\n  /**\n    @notice Gets the next item in an Indexed Uints collection based on the specified `_current_item`\n    @param _collection_index Index of the Collection to evaluate\n    @param _current_item The item the be used as base line\n    @return {\"_item\":\"Collection item\"}\n  */\n  function get_next_in_indexed_uints_collection(bytes32 _collection_index, uint256 _current_item)\n           public\n           constant\n           returns (uint256 _item)\n  {\n    _item = get_next_from_indexed_uints(example_storage().read_next_in_indexed_uints_collection, _collection_index, _current_item);\n  }\n\n\n  /**\n    @notice Gets the previous item in an Indexed Uints collection based on the specified `_current_item`\n    @param _collection_index Index of the Collection to evaluate\n    @param _current_item The item to be used as base line\n    @return {\"_item\":\"Collection item\"}\n  */\n  function get_previous_in_indexed_uints_collection(bytes32 _collection_index, uint256 _current_item)\n           public\n           constant\n           returns (uint256 _item)\n  {\n    _item = get_previous_from_indexed_uints(example_storage().read_previous_in_indexed_uints_collection, _collection_index, _current_item);\n  }\n\n  /**\n    @notice Gets the total number of items in an Indexed Uints collection\n    @param _collection_index Index of the Collection to evaluate\n    @return {\"_item\":\"Collection item\"}\n  */\n  function get_total_in_indexed_uints_collection(bytes32 _collection_index)\n           public\n           constant\n           returns (uint256 _total_count)\n  {\n    _total_count = get_total_indexed_uints(example_storage().read_total_in_indexed_uints_collection, _collection_index);\n  }\n}\n",
  "sourcePath": "/home/rohit/Develop/solidity-collections-library/contracts/examples/ExampleIndexedController.sol",
  "compiler": {
    "name": "solc",
    "version": "0.4.19+commit.c4cbbb05.Emscripten.clang"
  },
  "schemaVersion": "1.0.1",
  "updatedAt": "2018-03-07T03:38:46.682Z"
}