{
  "contractName": "ExampleStorage",
  "abi": [
    {
      "inputs": [],
      "payable": false,
      "stateMutability": "nonpayable",
      "type": "constructor"
    },
    {
      "constant": false,
      "inputs": [],
      "name": "initialize",
      "outputs": [],
      "payable": false,
      "stateMutability": "nonpayable",
      "type": "function"
    },
    {
      "constant": false,
      "inputs": [],
      "name": "remove_all_data_in_bytes_collection",
      "outputs": [
        {
          "name": "_success",
          "type": "bool"
        }
      ],
      "payable": false,
      "stateMutability": "nonpayable",
      "type": "function"
    },
    {
      "constant": false,
      "inputs": [],
      "name": "remove_all_data_in_addresses_collection",
      "outputs": [
        {
          "name": "_success",
          "type": "bool"
        }
      ],
      "payable": false,
      "stateMutability": "nonpayable",
      "type": "function"
    },
    {
      "constant": false,
      "inputs": [],
      "name": "remove_all_data_in_uints_collection",
      "outputs": [
        {
          "name": "_success",
          "type": "bool"
        }
      ],
      "payable": false,
      "stateMutability": "nonpayable",
      "type": "function"
    },
    {
      "constant": true,
      "inputs": [],
      "name": "read_first_in_bytes_collection",
      "outputs": [
        {
          "name": "_item",
          "type": "bytes32"
        }
      ],
      "payable": false,
      "stateMutability": "view",
      "type": "function"
    },
    {
      "constant": true,
      "inputs": [],
      "name": "read_last_in_bytes_collection",
      "outputs": [
        {
          "name": "_item",
          "type": "bytes32"
        }
      ],
      "payable": false,
      "stateMutability": "view",
      "type": "function"
    },
    {
      "constant": true,
      "inputs": [
        {
          "name": "_current_item",
          "type": "bytes32"
        }
      ],
      "name": "read_next_in_bytes_collection",
      "outputs": [
        {
          "name": "_item",
          "type": "bytes32"
        }
      ],
      "payable": false,
      "stateMutability": "view",
      "type": "function"
    },
    {
      "constant": true,
      "inputs": [
        {
          "name": "_current_item",
          "type": "bytes32"
        }
      ],
      "name": "read_previous_in_bytes_collection",
      "outputs": [
        {
          "name": "_item",
          "type": "bytes32"
        }
      ],
      "payable": false,
      "stateMutability": "view",
      "type": "function"
    },
    {
      "constant": true,
      "inputs": [],
      "name": "read_total_in_bytes_collection",
      "outputs": [
        {
          "name": "_total_count",
          "type": "uint256"
        }
      ],
      "payable": false,
      "stateMutability": "view",
      "type": "function"
    },
    {
      "constant": true,
      "inputs": [],
      "name": "read_first_in_addresses_collection",
      "outputs": [
        {
          "name": "_item",
          "type": "address"
        }
      ],
      "payable": false,
      "stateMutability": "view",
      "type": "function"
    },
    {
      "constant": true,
      "inputs": [],
      "name": "read_last_in_addresses_collection",
      "outputs": [
        {
          "name": "_item",
          "type": "address"
        }
      ],
      "payable": false,
      "stateMutability": "view",
      "type": "function"
    },
    {
      "constant": true,
      "inputs": [
        {
          "name": "_current_item",
          "type": "address"
        }
      ],
      "name": "read_next_in_addresses_collection",
      "outputs": [
        {
          "name": "_item",
          "type": "address"
        }
      ],
      "payable": false,
      "stateMutability": "view",
      "type": "function"
    },
    {
      "constant": true,
      "inputs": [
        {
          "name": "_current_item",
          "type": "address"
        }
      ],
      "name": "read_previous_in_addresses_collection",
      "outputs": [
        {
          "name": "_item",
          "type": "address"
        }
      ],
      "payable": false,
      "stateMutability": "view",
      "type": "function"
    },
    {
      "constant": true,
      "inputs": [],
      "name": "read_total_in_addresses_collection",
      "outputs": [
        {
          "name": "_total_count",
          "type": "uint256"
        }
      ],
      "payable": false,
      "stateMutability": "view",
      "type": "function"
    },
    {
      "constant": true,
      "inputs": [],
      "name": "read_first_in_uints_collection",
      "outputs": [
        {
          "name": "_item",
          "type": "uint256"
        }
      ],
      "payable": false,
      "stateMutability": "view",
      "type": "function"
    },
    {
      "constant": true,
      "inputs": [],
      "name": "read_last_in_uints_collection",
      "outputs": [
        {
          "name": "_item",
          "type": "uint256"
        }
      ],
      "payable": false,
      "stateMutability": "view",
      "type": "function"
    },
    {
      "constant": true,
      "inputs": [
        {
          "name": "_current_item",
          "type": "uint256"
        }
      ],
      "name": "read_next_in_uints_collection",
      "outputs": [
        {
          "name": "_item",
          "type": "uint256"
        }
      ],
      "payable": false,
      "stateMutability": "view",
      "type": "function"
    },
    {
      "constant": true,
      "inputs": [
        {
          "name": "_current_item",
          "type": "uint256"
        }
      ],
      "name": "read_previous_in_uints_collection",
      "outputs": [
        {
          "name": "_item",
          "type": "uint256"
        }
      ],
      "payable": false,
      "stateMutability": "view",
      "type": "function"
    },
    {
      "constant": true,
      "inputs": [],
      "name": "read_total_in_uints_collection",
      "outputs": [
        {
          "name": "_total_count",
          "type": "uint256"
        }
      ],
      "payable": false,
      "stateMutability": "view",
      "type": "function"
    }
  ],
  "bytecode": "0x60806040523480156200001157600080fd5b506200002b62000031640100000000026401000000009004565b62000f39565b600073__DoublyLinkedList______________________63582f30b490916040518263ffffffff167c010000000000000000000000000000000000000000000000000000000002815260040180828152602001807f746573743100000000000000000000000000000000000000000000000000000081525060200191505060206040518083038186803b158015620000c857600080fd5b505af4158015620000dd573d6000803e3d6000fd5b505050506040513d6020811015620000f457600080fd5b810190808051906020019092919050505050600073__DoublyLinkedList______________________63582f30b490916040518263ffffffff167c010000000000000000000000000000000000000000000000000000000002815260040180828152602001807f746573743200000000000000000000000000000000000000000000000000000081525060200191505060206040518083038186803b1580156200019d57600080fd5b505af4158015620001b2573d6000803e3d6000fd5b505050506040513d6020811015620001c957600080fd5b810190808051906020019092919050505050600073__DoublyLinkedList______________________63582f30b490916040518263ffffffff167c010000000000000000000000000000000000000000000000000000000002815260040180828152602001807f746573743300000000000000000000000000000000000000000000000000000081525060200191505060206040518083038186803b1580156200027257600080fd5b505af415801562000287573d6000803e3d6000fd5b505050506040513d60208110156200029e57600080fd5b810190808051906020019092919050505050600073__DoublyLinkedList______________________63582f30b490916040518263ffffffff167c010000000000000000000000000000000000000000000000000000000002815260040180828152602001807f746573743400000000000000000000000000000000000000000000000000000081525060200191505060206040518083038186803b1580156200034757600080fd5b505af41580156200035c573d6000803e3d6000fd5b505050506040513d60208110156200037357600080fd5b810190808051906020019092919050505050600073__DoublyLinkedList______________________63582f30b490916040518263ffffffff167c010000000000000000000000000000000000000000000000000000000002815260040180828152602001807f746573743500000000000000000000000000000000000000000000000000000081525060200191505060206040518083038186803b1580156200041c57600080fd5b505af415801562000431573d6000803e3d6000fd5b505050506040513d60208110156200044857600080fd5b810190808051906020019092919050505050600073__DoublyLinkedList______________________63582f30b490916040518263ffffffff167c010000000000000000000000000000000000000000000000000000000002815260040180828152602001807f746573743600000000000000000000000000000000000000000000000000000081525060200191505060206040518083038186803b158015620004f157600080fd5b505af415801562000506573d6000803e3d6000fd5b505050506040513d60208110156200051d57600080fd5b810190808051906020019092919050505050600673__DoublyLinkedList______________________63bf8a2ac69091737812421a7579d8182dc6f2b68ab56595db01553f6040518363ffffffff167c0100000000000000000000000000000000000000000000000000000000028152600401808381526020018273ffffffffffffffffffffffffffffffffffffffff1673ffffffffffffffffffffffffffffffffffffffff1681526020019250505060206040518083038186803b158015620005e657600080fd5b505af4158015620005fb573d6000803e3d6000fd5b505050506040513d60208110156200061257600080fd5b810190808051906020019092919050505050600673__DoublyLinkedList______________________63bf8a2ac6909173419f0a80d85f3c7dc3553394d91c9a339332a01e6040518363ffffffff167c0100000000000000000000000000000000000000000000000000000000028152600401808381526020018273ffffffffffffffffffffffffffffffffffffffff1673ffffffffffffffffffffffffffffffffffffffff1681526020019250505060206040518083038186803b158015620006db57600080fd5b505af4158015620006f0573d6000803e3d6000fd5b505050506040513d60208110156200070757600080fd5b810190808051906020019092919050505050600673__DoublyLinkedList______________________63bf8a2ac6909173f5dfe2a3f8cf5ca8723b51be6fc065bea0cfe8936040518363ffffffff167c0100000000000000000000000000000000000000000000000000000000028152600401808381526020018273ffffffffffffffffffffffffffffffffffffffff1673ffffffffffffffffffffffffffffffffffffffff1681526020019250505060206040518083038186803b158015620007d057600080fd5b505af4158015620007e5573d6000803e3d6000fd5b505050506040513d6020811015620007fc57600080fd5b810190808051906020019092919050505050600673__DoublyLinkedList______________________63bf8a2ac69091735dc52d499a77af45f43174cfe7982dc68c331c386040518363ffffffff167c0100000000000000000000000000000000000000000000000000000000028152600401808381526020018273ffffffffffffffffffffffffffffffffffffffff1673ffffffffffffffffffffffffffffffffffffffff1681526020019250505060206040518083038186803b158015620008c557600080fd5b505af4158015620008da573d6000803e3d6000fd5b505050506040513d6020811015620008f157600080fd5b810190808051906020019092919050505050600673__DoublyLinkedList______________________63bf8a2ac6909173727c89006bd885f9a77254797a362d69e8a1f4da6040518363ffffffff167c0100000000000000000000000000000000000000000000000000000000028152600401808381526020018273ffffffffffffffffffffffffffffffffffffffff1673ffffffffffffffffffffffffffffffffffffffff1681526020019250505060206040518083038186803b158015620009ba57600080fd5b505af4158015620009cf573d6000803e3d6000fd5b505050506040513d6020811015620009e657600080fd5b810190808051906020019092919050505050600673__DoublyLinkedList______________________63bf8a2ac69091730f66ec3df48ec1e216d24e225b772696e031b6986040518363ffffffff167c0100000000000000000000000000000000000000000000000000000000028152600401808381526020018273ffffffffffffffffffffffffffffffffffffffff1673ffffffffffffffffffffffffffffffffffffffff1681526020019250505060206040518083038186803b15801562000aaf57600080fd5b505af415801562000ac4573d6000803e3d6000fd5b505050506040513d602081101562000adb57600080fd5b810190808051906020019092919050505050600c73__DoublyLinkedList______________________63d372d5f690916103ea6040518363ffffffff167c0100000000000000000000000000000000000000000000000000000000028152600401808381526020018281526020019250505060206040518083038186803b15801562000b6657600080fd5b505af415801562000b7b573d6000803e3d6000fd5b505050506040513d602081101562000b9257600080fd5b810190808051906020019092919050505050600c73__DoublyLinkedList______________________63d372d5f690916103eb6040518363ffffffff167c0100000000000000000000000000000000000000000000000000000000028152600401808381526020018281526020019250505060206040518083038186803b15801562000c1d57600080fd5b505af415801562000c32573d6000803e3d6000fd5b505050506040513d602081101562000c4957600080fd5b810190808051906020019092919050505050600c73__DoublyLinkedList______________________63d372d5f690916103ec6040518363ffffffff167c0100000000000000000000000000000000000000000000000000000000028152600401808381526020018281526020019250505060206040518083038186803b15801562000cd457600080fd5b505af415801562000ce9573d6000803e3d6000fd5b505050506040513d602081101562000d0057600080fd5b810190808051906020019092919050505050600c73__DoublyLinkedList______________________63d372d5f690916103ed6040518363ffffffff167c0100000000000000000000000000000000000000000000000000000000028152600401808381526020018281526020019250505060206040518083038186803b15801562000d8b57600080fd5b505af415801562000da0573d6000803e3d6000fd5b505050506040513d602081101562000db757600080fd5b810190808051906020019092919050505050600c73__DoublyLinkedList______________________63d372d5f690916103ee6040518363ffffffff167c0100000000000000000000000000000000000000000000000000000000028152600401808381526020018281526020019250505060206040518083038186803b15801562000e4257600080fd5b505af415801562000e57573d6000803e3d6000fd5b505050506040513d602081101562000e6e57600080fd5b810190808051906020019092919050505050600c73__DoublyLinkedList______________________63d372d5f690916103ef6040518363ffffffff167c0100000000000000000000000000000000000000000000000000000000028152600401808381526020018281526020019250505060206040518083038186803b15801562000ef957600080fd5b505af415801562000f0e573d6000803e3d6000fd5b505050506040513d602081101562000f2557600080fd5b810190808051906020019092919050505050565b6125d18062000f496000396000f300608060405260043610610107576000357c0100000000000000000000000000000000000000000000000000000000900463ffffffff16806345bf0b351461010c57806358eccb9914610137578063656a39c514610166578063668bcc25146101b357806369ed120c1461020a5780636cc8f9f1146102395780636eba73be1461026c5780637780b119146102ef578063778636be146103305780637e5ce6d7146103635780638129fc1c1461038e5780638448703f146103a5578063890cf1d6146103d457806392eb1a8b1461042b578063938af62a14610456578063aace0f56146104a3578063bad60611146104ce578063bc3d8d85146104f9578063f883f7931461057c575b600080fd5b34801561011857600080fd5b506101216105bd565b6040518082815260200191505060405180910390f35b34801561014357600080fd5b5061014c6105ce565b604051808215151515815260200191505060405180910390f35b34801561017257600080fd5b5061019560048036038101908080356000191690602001909291905050506106b3565b60405180826000191660001916815260200191505060405180910390f35b3480156101bf57600080fd5b506101c86106c7565b604051808273ffffffffffffffffffffffffffffffffffffffff1673ffffffffffffffffffffffffffffffffffffffff16815260200191505060405180910390f35b34801561021657600080fd5b5061021f6106d8565b604051808215151515815260200191505060405180910390f35b34801561024557600080fd5b5061024e6107be565b60405180826000191660001916815260200191505060405180910390f35b34801561027857600080fd5b506102ad600480360381019080803573ffffffffffffffffffffffffffffffffffffffff1690602001909291905050506107cf565b604051808273ffffffffffffffffffffffffffffffffffffffff1673ffffffffffffffffffffffffffffffffffffffff16815260200191505060405180910390f35b3480156102fb57600080fd5b5061031a600480360381019080803590602001909291905050506107e3565b6040518082815260200191505060405180910390f35b34801561033c57600080fd5b506103456107f7565b60405180826000191660001916815260200191505060405180910390f35b34801561036f57600080fd5b50610378610808565b6040518082815260200191505060405180910390f35b34801561039a57600080fd5b506103a3610819565b005b3480156103b157600080fd5b506103ba6116eb565b604051808215151515815260200191505060405180910390f35b3480156103e057600080fd5b506103e96117d1565b604051808273ffffffffffffffffffffffffffffffffffffffff1673ffffffffffffffffffffffffffffffffffffffff16815260200191505060405180910390f35b34801561043757600080fd5b506104406117e2565b6040518082815260200191505060405180910390f35b34801561046257600080fd5b5061048560048036038101908080356000191690602001909291905050506117f3565b60405180826000191660001916815260200191505060405180910390f35b3480156104af57600080fd5b506104b8611807565b6040518082815260200191505060405180910390f35b3480156104da57600080fd5b506104e3611818565b6040518082815260200191505060405180910390f35b34801561050557600080fd5b5061053a600480360381019080803573ffffffffffffffffffffffffffffffffffffffff169060200190929190505050611829565b604051808273ffffffffffffffffffffffffffffffffffffffff1673ffffffffffffffffffffffffffffffffffffffff16815260200191505060405180910390f35b34801561058857600080fd5b506105a76004803603810190808035906020019092919050505061183d565b6040518082815260200191505060405180910390f35b60006105c96000611851565b905090565b600080600190505b600681111515610602576105f481600061190290919063ffffffff16565b5080806001019150506105d6565b60008073__DoublyLinkedList______________________630f77955290916040518263ffffffff167c01000000000000000000000000000000000000000000000000000000000281526004018082815260200191505060206040518083038186803b15801561067157600080fd5b505af4158015610685573d6000803e3d6000fd5b505050506040513d602081101561069b57600080fd5b81019080805190602001909291905050501491505090565b60006106c0600083611919565b9050919050565b60006106d360066119db565b905090565b600080600190505b60068111151561070c576106fe81600c611a8c90919063ffffffff16565b5080806001019150506106e0565b6000600c73__DoublyLinkedList______________________633ae6974290916040518263ffffffff167c01000000000000000000000000000000000000000000000000000000000281526004018082815260200191505060206040518083038186803b15801561077c57600080fd5b505af4158015610790573d6000803e3d6000fd5b505050506040513d60208110156107a657600080fd5b81019080805190602001909291905050501491505090565b60006107ca6000611aa3565b905090565b60006107dc600683611b54565b9050919050565b60006107f0600c83611c3a565b9050919050565b60006108036000611cf4565b905090565b6000610814600c611da5565b905090565b600073__DoublyLinkedList______________________63582f30b490916040518263ffffffff167c010000000000000000000000000000000000000000000000000000000002815260040180828152602001807f746573743100000000000000000000000000000000000000000000000000000081525060200191505060206040518083038186803b1580156108af57600080fd5b505af41580156108c3573d6000803e3d6000fd5b505050506040513d60208110156108d957600080fd5b810190808051906020019092919050505050600073__DoublyLinkedList______________________63582f30b490916040518263ffffffff167c010000000000000000000000000000000000000000000000000000000002815260040180828152602001807f746573743200000000000000000000000000000000000000000000000000000081525060200191505060206040518083038186803b15801561098157600080fd5b505af4158015610995573d6000803e3d6000fd5b505050506040513d60208110156109ab57600080fd5b810190808051906020019092919050505050600073__DoublyLinkedList______________________63582f30b490916040518263ffffffff167c010000000000000000000000000000000000000000000000000000000002815260040180828152602001807f746573743300000000000000000000000000000000000000000000000000000081525060200191505060206040518083038186803b158015610a5357600080fd5b505af4158015610a67573d6000803e3d6000fd5b505050506040513d6020811015610a7d57600080fd5b810190808051906020019092919050505050600073__DoublyLinkedList______________________63582f30b490916040518263ffffffff167c010000000000000000000000000000000000000000000000000000000002815260040180828152602001807f746573743400000000000000000000000000000000000000000000000000000081525060200191505060206040518083038186803b158015610b2557600080fd5b505af4158015610b39573d6000803e3d6000fd5b505050506040513d6020811015610b4f57600080fd5b810190808051906020019092919050505050600073__DoublyLinkedList______________________63582f30b490916040518263ffffffff167c010000000000000000000000000000000000000000000000000000000002815260040180828152602001807f746573743500000000000000000000000000000000000000000000000000000081525060200191505060206040518083038186803b158015610bf757600080fd5b505af4158015610c0b573d6000803e3d6000fd5b505050506040513d6020811015610c2157600080fd5b810190808051906020019092919050505050600073__DoublyLinkedList______________________63582f30b490916040518263ffffffff167c010000000000000000000000000000000000000000000000000000000002815260040180828152602001807f746573743600000000000000000000000000000000000000000000000000000081525060200191505060206040518083038186803b158015610cc957600080fd5b505af4158015610cdd573d6000803e3d6000fd5b505050506040513d6020811015610cf357600080fd5b810190808051906020019092919050505050600673__DoublyLinkedList______________________63bf8a2ac69091737812421a7579d8182dc6f2b68ab56595db01553f6040518363ffffffff167c0100000000000000000000000000000000000000000000000000000000028152600401808381526020018273ffffffffffffffffffffffffffffffffffffffff1673ffffffffffffffffffffffffffffffffffffffff1681526020019250505060206040518083038186803b158015610dbb57600080fd5b505af4158015610dcf573d6000803e3d6000fd5b505050506040513d6020811015610de557600080fd5b810190808051906020019092919050505050600673__DoublyLinkedList______________________63bf8a2ac6909173419f0a80d85f3c7dc3553394d91c9a339332a01e6040518363ffffffff167c0100000000000000000000000000000000000000000000000000000000028152600401808381526020018273ffffffffffffffffffffffffffffffffffffffff1673ffffffffffffffffffffffffffffffffffffffff1681526020019250505060206040518083038186803b158015610ead57600080fd5b505af4158015610ec1573d6000803e3d6000fd5b505050506040513d6020811015610ed757600080fd5b810190808051906020019092919050505050600673__DoublyLinkedList______________________63bf8a2ac6909173f5dfe2a3f8cf5ca8723b51be6fc065bea0cfe8936040518363ffffffff167c0100000000000000000000000000000000000000000000000000000000028152600401808381526020018273ffffffffffffffffffffffffffffffffffffffff1673ffffffffffffffffffffffffffffffffffffffff1681526020019250505060206040518083038186803b158015610f9f57600080fd5b505af4158015610fb3573d6000803e3d6000fd5b505050506040513d6020811015610fc957600080fd5b810190808051906020019092919050505050600673__DoublyLinkedList______________________63bf8a2ac69091735dc52d499a77af45f43174cfe7982dc68c331c386040518363ffffffff167c0100000000000000000000000000000000000000000000000000000000028152600401808381526020018273ffffffffffffffffffffffffffffffffffffffff1673ffffffffffffffffffffffffffffffffffffffff1681526020019250505060206040518083038186803b15801561109157600080fd5b505af41580156110a5573d6000803e3d6000fd5b505050506040513d60208110156110bb57600080fd5b810190808051906020019092919050505050600673__DoublyLinkedList______________________63bf8a2ac6909173727c89006bd885f9a77254797a362d69e8a1f4da6040518363ffffffff167c0100000000000000000000000000000000000000000000000000000000028152600401808381526020018273ffffffffffffffffffffffffffffffffffffffff1673ffffffffffffffffffffffffffffffffffffffff1681526020019250505060206040518083038186803b15801561118357600080fd5b505af4158015611197573d6000803e3d6000fd5b505050506040513d60208110156111ad57600080fd5b810190808051906020019092919050505050600673__DoublyLinkedList______________________63bf8a2ac69091730f66ec3df48ec1e216d24e225b772696e031b6986040518363ffffffff167c0100000000000000000000000000000000000000000000000000000000028152600401808381526020018273ffffffffffffffffffffffffffffffffffffffff1673ffffffffffffffffffffffffffffffffffffffff1681526020019250505060206040518083038186803b15801561127557600080fd5b505af4158015611289573d6000803e3d6000fd5b505050506040513d602081101561129f57600080fd5b810190808051906020019092919050505050600c73__DoublyLinkedList______________________63d372d5f690916103ea6040518363ffffffff167c0100000000000000000000000000000000000000000000000000000000028152600401808381526020018281526020019250505060206040518083038186803b15801561132957600080fd5b505af415801561133d573d6000803e3d6000fd5b505050506040513d602081101561135357600080fd5b810190808051906020019092919050505050600c73__DoublyLinkedList______________________63d372d5f690916103eb6040518363ffffffff167c0100000000000000000000000000000000000000000000000000000000028152600401808381526020018281526020019250505060206040518083038186803b1580156113dd57600080fd5b505af41580156113f1573d6000803e3d6000fd5b505050506040513d602081101561140757600080fd5b810190808051906020019092919050505050600c73__DoublyLinkedList______________________63d372d5f690916103ec6040518363ffffffff167c0100000000000000000000000000000000000000000000000000000000028152600401808381526020018281526020019250505060206040518083038186803b15801561149157600080fd5b505af41580156114a5573d6000803e3d6000fd5b505050506040513d60208110156114bb57600080fd5b810190808051906020019092919050505050600c73__DoublyLinkedList______________________63d372d5f690916103ed6040518363ffffffff167c0100000000000000000000000000000000000000000000000000000000028152600401808381526020018281526020019250505060206040518083038186803b15801561154557600080fd5b505af4158015611559573d6000803e3d6000fd5b505050506040513d602081101561156f57600080fd5b810190808051906020019092919050505050600c73__DoublyLinkedList______________________63d372d5f690916103ee6040518363ffffffff167c0100000000000000000000000000000000000000000000000000000000028152600401808381526020018281526020019250505060206040518083038186803b1580156115f957600080fd5b505af415801561160d573d6000803e3d6000fd5b505050506040513d602081101561162357600080fd5b810190808051906020019092919050505050600c73__DoublyLinkedList______________________63d372d5f690916103ef6040518363ffffffff167c0100000000000000000000000000000000000000000000000000000000028152600401808381526020018281526020019250505060206040518083038186803b1580156116ad57600080fd5b505af41580156116c1573d6000803e3d6000fd5b505050506040513d60208110156116d757600080fd5b810190808051906020019092919050505050565b600080600190505b60068111151561171f57611711816006611e5690919063ffffffff16565b5080806001019150506116f3565b6000600673__DoublyLinkedList______________________6312e3853d90916040518263ffffffff167c01000000000000000000000000000000000000000000000000000000000281526004018082815260200191505060206040518083038186803b15801561178f57600080fd5b505af41580156117a3573d6000803e3d6000fd5b505050506040513d60208110156117b957600080fd5b81019080805190602001909291905050501491505090565b60006117dd6006611e6d565b905090565b60006117ee600c611f1e565b905090565b6000611800600083611fcf565b9050919050565b60006118136006612091565b905090565b6000611824600c612142565b905090565b60006118366006836121f3565b9050919050565b600061184a600c836122d9565b9050919050565b60008173__DoublyLinkedList______________________630f77955290916040518263ffffffff167c01000000000000000000000000000000000000000000000000000000000281526004018082815260200191505060206040518083038186803b1580156118c057600080fd5b505af41580156118d4573d6000803e3d6000fd5b505050506040513d60208110156118ea57600080fd5b81019080805190602001909291905050509050919050565b60006119118360000183612393565b905092915050565b60008273__DoublyLinkedList______________________63cf06689d9091846040518363ffffffff167c01000000000000000000000000000000000000000000000000000000000281526004018083815260200182600019166000191681526020019250505060206040518083038186803b15801561199857600080fd5b505af41580156119ac573d6000803e3d6000fd5b505050506040513d60208110156119c257600080fd5b8101908080519060200190929190505050905092915050565b60008173__DoublyLinkedList______________________63f46574aa90916040518263ffffffff167c01000000000000000000000000000000000000000000000000000000000281526004018082815260200191505060206040518083038186803b158015611a4a57600080fd5b505af4158015611a5e573d6000803e3d6000fd5b505050506040513d6020811015611a7457600080fd5b81019080805190602001909291905050509050919050565b6000611a9b8360000183612393565b905092915050565b60008173__DoublyLinkedList______________________6356717c7990916040518263ffffffff167c01000000000000000000000000000000000000000000000000000000000281526004018082815260200191505060206040518083038186803b158015611b1257600080fd5b505af4158015611b26573d6000803e3d6000fd5b505050506040513d6020811015611b3c57600080fd5b81019080805190602001909291905050509050919050565b60008273__DoublyLinkedList______________________6387fca8a69091846040518363ffffffff167c0100000000000000000000000000000000000000000000000000000000028152600401808381526020018273ffffffffffffffffffffffffffffffffffffffff1673ffffffffffffffffffffffffffffffffffffffff1681526020019250505060206040518083038186803b158015611bf757600080fd5b505af4158015611c0b573d6000803e3d6000fd5b505050506040513d6020811015611c2157600080fd5b8101908080519060200190929190505050905092915050565b60008273__DoublyLinkedList______________________6340c6bb189091846040518363ffffffff167c0100000000000000000000000000000000000000000000000000000000028152600401808381526020018281526020019250505060206040518083038186803b158015611cb157600080fd5b505af4158015611cc5573d6000803e3d6000fd5b505050506040513d6020811015611cdb57600080fd5b8101908080519060200190929190505050905092915050565b60008173__DoublyLinkedList______________________632553148290916040518263ffffffff167c01000000000000000000000000000000000000000000000000000000000281526004018082815260200191505060206040518083038186803b158015611d6357600080fd5b505af4158015611d77573d6000803e3d6000fd5b505050506040513d6020811015611d8d57600080fd5b81019080805190602001909291905050509050919050565b60008173__DoublyLinkedList______________________635e0d4aa990916040518263ffffffff167c01000000000000000000000000000000000000000000000000000000000281526004018082815260200191505060206040518083038186803b158015611e1457600080fd5b505af4158015611e28573d6000803e3d6000fd5b505050506040513d6020811015611e3e57600080fd5b81019080805190602001909291905050509050919050565b6000611e658360000183612393565b905092915050565b60008173__DoublyLinkedList______________________63c333848890916040518263ffffffff167c01000000000000000000000000000000000000000000000000000000000281526004018082815260200191505060206040518083038186803b158015611edc57600080fd5b505af4158015611ef0573d6000803e3d6000fd5b505050506040513d6020811015611f0657600080fd5b81019080805190602001909291905050509050919050565b60008173__DoublyLinkedList______________________633ae6974290916040518263ffffffff167c01000000000000000000000000000000000000000000000000000000000281526004018082815260200191505060206040518083038186803b158015611f8d57600080fd5b505af4158015611fa1573d6000803e3d6000fd5b505050506040513d6020811015611fb757600080fd5b81019080805190602001909291905050509050919050565b60008273__DoublyLinkedList______________________632a1441789091846040518363ffffffff167c01000000000000000000000000000000000000000000000000000000000281526004018083815260200182600019166000191681526020019250505060206040518083038186803b15801561204e57600080fd5b505af4158015612062573d6000803e3d6000fd5b505050506040513d602081101561207857600080fd5b8101908080519060200190929190505050905092915050565b60008173__DoublyLinkedList______________________6312e3853d90916040518263ffffffff167c01000000000000000000000000000000000000000000000000000000000281526004018082815260200191505060206040518083038186803b15801561210057600080fd5b505af4158015612114573d6000803e3d6000fd5b505050506040513d602081101561212a57600080fd5b81019080805190602001909291905050509050919050565b60008173__DoublyLinkedList______________________631240ff5a90916040518263ffffffff167c01000000000000000000000000000000000000000000000000000000000281526004018082815260200191505060206040518083038186803b1580156121b157600080fd5b505af41580156121c5573d6000803e3d6000fd5b505050506040513d60208110156121db57600080fd5b81019080805190602001909291905050509050919050565b60008273__DoublyLinkedList______________________63a7b9777c9091846040518363ffffffff167c0100000000000000000000000000000000000000000000000000000000028152600401808381526020018273ffffffffffffffffffffffffffffffffffffffff1673ffffffffffffffffffffffffffffffffffffffff1681526020019250505060206040518083038186803b15801561229657600080fd5b505af41580156122aa573d6000803e3d6000fd5b505050506040513d60208110156122c057600080fd5b8101908080519060200190929190505050905092915050565b60008273__DoublyLinkedList______________________63ec40b8979091846040518363ffffffff167c0100000000000000000000000000000000000000000000000000000000028152600401808381526020018281526020019250505060206040518083038186803b15801561235057600080fd5b505af4158015612364573d6000803e3d6000fd5b505050506040513d602081101561237a57600080fd5b8101908080519060200190929190505050905092915050565b600061239d612580565b6001151584600401600085815260200190815260200160002060009054906101000a900460ff16151514156125745783600501600184038154811015156123e057fe5b9060005260206000209060030201606060405190810160405290816000820154600019166000191681526020016001820154815260200160028201548152505090506000816020015114156124415780604001518460000181905550612474565b806040015184600501600183602001510381548110151561245e57fe5b9060005260206000209060030201600201819055505b60008160400151141561249357806020015184600101819055506124c6565b80602001518460050160018360400151038154811015156124b057fe5b9060005260206000209060030201600101819055505b83600501600184038154811015156124da57fe5b9060005260206000209060030201600080820160009055600182016000905560028201600090555050600084600401600085815260200190815260200160002060006101000a81548160ff0219169083151502179055508360030160008260000151600019166000191681526020019081526020016000206000905583600201600081548092919060019003919050555060019150612579565b600091505b5092915050565b60606040519081016040528060008019168152602001600081526020016000815250905600a165627a7a723058209e9364bfa0450354d721cceff1bf134e45f20bfc8f1c46a32adf15a15a01b1650029",
  "deployedBytecode": "0x608060405260043610610107576000357c0100000000000000000000000000000000000000000000000000000000900463ffffffff16806345bf0b351461010c57806358eccb9914610137578063656a39c514610166578063668bcc25146101b357806369ed120c1461020a5780636cc8f9f1146102395780636eba73be1461026c5780637780b119146102ef578063778636be146103305780637e5ce6d7146103635780638129fc1c1461038e5780638448703f146103a5578063890cf1d6146103d457806392eb1a8b1461042b578063938af62a14610456578063aace0f56146104a3578063bad60611146104ce578063bc3d8d85146104f9578063f883f7931461057c575b600080fd5b34801561011857600080fd5b506101216105bd565b6040518082815260200191505060405180910390f35b34801561014357600080fd5b5061014c6105ce565b604051808215151515815260200191505060405180910390f35b34801561017257600080fd5b5061019560048036038101908080356000191690602001909291905050506106b3565b60405180826000191660001916815260200191505060405180910390f35b3480156101bf57600080fd5b506101c86106c7565b604051808273ffffffffffffffffffffffffffffffffffffffff1673ffffffffffffffffffffffffffffffffffffffff16815260200191505060405180910390f35b34801561021657600080fd5b5061021f6106d8565b604051808215151515815260200191505060405180910390f35b34801561024557600080fd5b5061024e6107be565b60405180826000191660001916815260200191505060405180910390f35b34801561027857600080fd5b506102ad600480360381019080803573ffffffffffffffffffffffffffffffffffffffff1690602001909291905050506107cf565b604051808273ffffffffffffffffffffffffffffffffffffffff1673ffffffffffffffffffffffffffffffffffffffff16815260200191505060405180910390f35b3480156102fb57600080fd5b5061031a600480360381019080803590602001909291905050506107e3565b6040518082815260200191505060405180910390f35b34801561033c57600080fd5b506103456107f7565b60405180826000191660001916815260200191505060405180910390f35b34801561036f57600080fd5b50610378610808565b6040518082815260200191505060405180910390f35b34801561039a57600080fd5b506103a3610819565b005b3480156103b157600080fd5b506103ba6116eb565b604051808215151515815260200191505060405180910390f35b3480156103e057600080fd5b506103e96117d1565b604051808273ffffffffffffffffffffffffffffffffffffffff1673ffffffffffffffffffffffffffffffffffffffff16815260200191505060405180910390f35b34801561043757600080fd5b506104406117e2565b6040518082815260200191505060405180910390f35b34801561046257600080fd5b5061048560048036038101908080356000191690602001909291905050506117f3565b60405180826000191660001916815260200191505060405180910390f35b3480156104af57600080fd5b506104b8611807565b6040518082815260200191505060405180910390f35b3480156104da57600080fd5b506104e3611818565b6040518082815260200191505060405180910390f35b34801561050557600080fd5b5061053a600480360381019080803573ffffffffffffffffffffffffffffffffffffffff169060200190929190505050611829565b604051808273ffffffffffffffffffffffffffffffffffffffff1673ffffffffffffffffffffffffffffffffffffffff16815260200191505060405180910390f35b34801561058857600080fd5b506105a76004803603810190808035906020019092919050505061183d565b6040518082815260200191505060405180910390f35b60006105c96000611851565b905090565b600080600190505b600681111515610602576105f481600061190290919063ffffffff16565b5080806001019150506105d6565b60008073__DoublyLinkedList______________________630f77955290916040518263ffffffff167c01000000000000000000000000000000000000000000000000000000000281526004018082815260200191505060206040518083038186803b15801561067157600080fd5b505af4158015610685573d6000803e3d6000fd5b505050506040513d602081101561069b57600080fd5b81019080805190602001909291905050501491505090565b60006106c0600083611919565b9050919050565b60006106d360066119db565b905090565b600080600190505b60068111151561070c576106fe81600c611a8c90919063ffffffff16565b5080806001019150506106e0565b6000600c73__DoublyLinkedList______________________633ae6974290916040518263ffffffff167c01000000000000000000000000000000000000000000000000000000000281526004018082815260200191505060206040518083038186803b15801561077c57600080fd5b505af4158015610790573d6000803e3d6000fd5b505050506040513d60208110156107a657600080fd5b81019080805190602001909291905050501491505090565b60006107ca6000611aa3565b905090565b60006107dc600683611b54565b9050919050565b60006107f0600c83611c3a565b9050919050565b60006108036000611cf4565b905090565b6000610814600c611da5565b905090565b600073__DoublyLinkedList______________________63582f30b490916040518263ffffffff167c010000000000000000000000000000000000000000000000000000000002815260040180828152602001807f746573743100000000000000000000000000000000000000000000000000000081525060200191505060206040518083038186803b1580156108af57600080fd5b505af41580156108c3573d6000803e3d6000fd5b505050506040513d60208110156108d957600080fd5b810190808051906020019092919050505050600073__DoublyLinkedList______________________63582f30b490916040518263ffffffff167c010000000000000000000000000000000000000000000000000000000002815260040180828152602001807f746573743200000000000000000000000000000000000000000000000000000081525060200191505060206040518083038186803b15801561098157600080fd5b505af4158015610995573d6000803e3d6000fd5b505050506040513d60208110156109ab57600080fd5b810190808051906020019092919050505050600073__DoublyLinkedList______________________63582f30b490916040518263ffffffff167c010000000000000000000000000000000000000000000000000000000002815260040180828152602001807f746573743300000000000000000000000000000000000000000000000000000081525060200191505060206040518083038186803b158015610a5357600080fd5b505af4158015610a67573d6000803e3d6000fd5b505050506040513d6020811015610a7d57600080fd5b810190808051906020019092919050505050600073__DoublyLinkedList______________________63582f30b490916040518263ffffffff167c010000000000000000000000000000000000000000000000000000000002815260040180828152602001807f746573743400000000000000000000000000000000000000000000000000000081525060200191505060206040518083038186803b158015610b2557600080fd5b505af4158015610b39573d6000803e3d6000fd5b505050506040513d6020811015610b4f57600080fd5b810190808051906020019092919050505050600073__DoublyLinkedList______________________63582f30b490916040518263ffffffff167c010000000000000000000000000000000000000000000000000000000002815260040180828152602001807f746573743500000000000000000000000000000000000000000000000000000081525060200191505060206040518083038186803b158015610bf757600080fd5b505af4158015610c0b573d6000803e3d6000fd5b505050506040513d6020811015610c2157600080fd5b810190808051906020019092919050505050600073__DoublyLinkedList______________________63582f30b490916040518263ffffffff167c010000000000000000000000000000000000000000000000000000000002815260040180828152602001807f746573743600000000000000000000000000000000000000000000000000000081525060200191505060206040518083038186803b158015610cc957600080fd5b505af4158015610cdd573d6000803e3d6000fd5b505050506040513d6020811015610cf357600080fd5b810190808051906020019092919050505050600673__DoublyLinkedList______________________63bf8a2ac69091737812421a7579d8182dc6f2b68ab56595db01553f6040518363ffffffff167c0100000000000000000000000000000000000000000000000000000000028152600401808381526020018273ffffffffffffffffffffffffffffffffffffffff1673ffffffffffffffffffffffffffffffffffffffff1681526020019250505060206040518083038186803b158015610dbb57600080fd5b505af4158015610dcf573d6000803e3d6000fd5b505050506040513d6020811015610de557600080fd5b810190808051906020019092919050505050600673__DoublyLinkedList______________________63bf8a2ac6909173419f0a80d85f3c7dc3553394d91c9a339332a01e6040518363ffffffff167c0100000000000000000000000000000000000000000000000000000000028152600401808381526020018273ffffffffffffffffffffffffffffffffffffffff1673ffffffffffffffffffffffffffffffffffffffff1681526020019250505060206040518083038186803b158015610ead57600080fd5b505af4158015610ec1573d6000803e3d6000fd5b505050506040513d6020811015610ed757600080fd5b810190808051906020019092919050505050600673__DoublyLinkedList______________________63bf8a2ac6909173f5dfe2a3f8cf5ca8723b51be6fc065bea0cfe8936040518363ffffffff167c0100000000000000000000000000000000000000000000000000000000028152600401808381526020018273ffffffffffffffffffffffffffffffffffffffff1673ffffffffffffffffffffffffffffffffffffffff1681526020019250505060206040518083038186803b158015610f9f57600080fd5b505af4158015610fb3573d6000803e3d6000fd5b505050506040513d6020811015610fc957600080fd5b810190808051906020019092919050505050600673__DoublyLinkedList______________________63bf8a2ac69091735dc52d499a77af45f43174cfe7982dc68c331c386040518363ffffffff167c0100000000000000000000000000000000000000000000000000000000028152600401808381526020018273ffffffffffffffffffffffffffffffffffffffff1673ffffffffffffffffffffffffffffffffffffffff1681526020019250505060206040518083038186803b15801561109157600080fd5b505af41580156110a5573d6000803e3d6000fd5b505050506040513d60208110156110bb57600080fd5b810190808051906020019092919050505050600673__DoublyLinkedList______________________63bf8a2ac6909173727c89006bd885f9a77254797a362d69e8a1f4da6040518363ffffffff167c0100000000000000000000000000000000000000000000000000000000028152600401808381526020018273ffffffffffffffffffffffffffffffffffffffff1673ffffffffffffffffffffffffffffffffffffffff1681526020019250505060206040518083038186803b15801561118357600080fd5b505af4158015611197573d6000803e3d6000fd5b505050506040513d60208110156111ad57600080fd5b810190808051906020019092919050505050600673__DoublyLinkedList______________________63bf8a2ac69091730f66ec3df48ec1e216d24e225b772696e031b6986040518363ffffffff167c0100000000000000000000000000000000000000000000000000000000028152600401808381526020018273ffffffffffffffffffffffffffffffffffffffff1673ffffffffffffffffffffffffffffffffffffffff1681526020019250505060206040518083038186803b15801561127557600080fd5b505af4158015611289573d6000803e3d6000fd5b505050506040513d602081101561129f57600080fd5b810190808051906020019092919050505050600c73__DoublyLinkedList______________________63d372d5f690916103ea6040518363ffffffff167c0100000000000000000000000000000000000000000000000000000000028152600401808381526020018281526020019250505060206040518083038186803b15801561132957600080fd5b505af415801561133d573d6000803e3d6000fd5b505050506040513d602081101561135357600080fd5b810190808051906020019092919050505050600c73__DoublyLinkedList______________________63d372d5f690916103eb6040518363ffffffff167c0100000000000000000000000000000000000000000000000000000000028152600401808381526020018281526020019250505060206040518083038186803b1580156113dd57600080fd5b505af41580156113f1573d6000803e3d6000fd5b505050506040513d602081101561140757600080fd5b810190808051906020019092919050505050600c73__DoublyLinkedList______________________63d372d5f690916103ec6040518363ffffffff167c0100000000000000000000000000000000000000000000000000000000028152600401808381526020018281526020019250505060206040518083038186803b15801561149157600080fd5b505af41580156114a5573d6000803e3d6000fd5b505050506040513d60208110156114bb57600080fd5b810190808051906020019092919050505050600c73__DoublyLinkedList______________________63d372d5f690916103ed6040518363ffffffff167c0100000000000000000000000000000000000000000000000000000000028152600401808381526020018281526020019250505060206040518083038186803b15801561154557600080fd5b505af4158015611559573d6000803e3d6000fd5b505050506040513d602081101561156f57600080fd5b810190808051906020019092919050505050600c73__DoublyLinkedList______________________63d372d5f690916103ee6040518363ffffffff167c0100000000000000000000000000000000000000000000000000000000028152600401808381526020018281526020019250505060206040518083038186803b1580156115f957600080fd5b505af415801561160d573d6000803e3d6000fd5b505050506040513d602081101561162357600080fd5b810190808051906020019092919050505050600c73__DoublyLinkedList______________________63d372d5f690916103ef6040518363ffffffff167c0100000000000000000000000000000000000000000000000000000000028152600401808381526020018281526020019250505060206040518083038186803b1580156116ad57600080fd5b505af41580156116c1573d6000803e3d6000fd5b505050506040513d60208110156116d757600080fd5b810190808051906020019092919050505050565b600080600190505b60068111151561171f57611711816006611e5690919063ffffffff16565b5080806001019150506116f3565b6000600673__DoublyLinkedList______________________6312e3853d90916040518263ffffffff167c01000000000000000000000000000000000000000000000000000000000281526004018082815260200191505060206040518083038186803b15801561178f57600080fd5b505af41580156117a3573d6000803e3d6000fd5b505050506040513d60208110156117b957600080fd5b81019080805190602001909291905050501491505090565b60006117dd6006611e6d565b905090565b60006117ee600c611f1e565b905090565b6000611800600083611fcf565b9050919050565b60006118136006612091565b905090565b6000611824600c612142565b905090565b60006118366006836121f3565b9050919050565b600061184a600c836122d9565b9050919050565b60008173__DoublyLinkedList______________________630f77955290916040518263ffffffff167c01000000000000000000000000000000000000000000000000000000000281526004018082815260200191505060206040518083038186803b1580156118c057600080fd5b505af41580156118d4573d6000803e3d6000fd5b505050506040513d60208110156118ea57600080fd5b81019080805190602001909291905050509050919050565b60006119118360000183612393565b905092915050565b60008273__DoublyLinkedList______________________63cf06689d9091846040518363ffffffff167c01000000000000000000000000000000000000000000000000000000000281526004018083815260200182600019166000191681526020019250505060206040518083038186803b15801561199857600080fd5b505af41580156119ac573d6000803e3d6000fd5b505050506040513d60208110156119c257600080fd5b8101908080519060200190929190505050905092915050565b60008173__DoublyLinkedList______________________63f46574aa90916040518263ffffffff167c01000000000000000000000000000000000000000000000000000000000281526004018082815260200191505060206040518083038186803b158015611a4a57600080fd5b505af4158015611a5e573d6000803e3d6000fd5b505050506040513d6020811015611a7457600080fd5b81019080805190602001909291905050509050919050565b6000611a9b8360000183612393565b905092915050565b60008173__DoublyLinkedList______________________6356717c7990916040518263ffffffff167c01000000000000000000000000000000000000000000000000000000000281526004018082815260200191505060206040518083038186803b158015611b1257600080fd5b505af4158015611b26573d6000803e3d6000fd5b505050506040513d6020811015611b3c57600080fd5b81019080805190602001909291905050509050919050565b60008273__DoublyLinkedList______________________6387fca8a69091846040518363ffffffff167c0100000000000000000000000000000000000000000000000000000000028152600401808381526020018273ffffffffffffffffffffffffffffffffffffffff1673ffffffffffffffffffffffffffffffffffffffff1681526020019250505060206040518083038186803b158015611bf757600080fd5b505af4158015611c0b573d6000803e3d6000fd5b505050506040513d6020811015611c2157600080fd5b8101908080519060200190929190505050905092915050565b60008273__DoublyLinkedList______________________6340c6bb189091846040518363ffffffff167c0100000000000000000000000000000000000000000000000000000000028152600401808381526020018281526020019250505060206040518083038186803b158015611cb157600080fd5b505af4158015611cc5573d6000803e3d6000fd5b505050506040513d6020811015611cdb57600080fd5b8101908080519060200190929190505050905092915050565b60008173__DoublyLinkedList______________________632553148290916040518263ffffffff167c01000000000000000000000000000000000000000000000000000000000281526004018082815260200191505060206040518083038186803b158015611d6357600080fd5b505af4158015611d77573d6000803e3d6000fd5b505050506040513d6020811015611d8d57600080fd5b81019080805190602001909291905050509050919050565b60008173__DoublyLinkedList______________________635e0d4aa990916040518263ffffffff167c01000000000000000000000000000000000000000000000000000000000281526004018082815260200191505060206040518083038186803b158015611e1457600080fd5b505af4158015611e28573d6000803e3d6000fd5b505050506040513d6020811015611e3e57600080fd5b81019080805190602001909291905050509050919050565b6000611e658360000183612393565b905092915050565b60008173__DoublyLinkedList______________________63c333848890916040518263ffffffff167c01000000000000000000000000000000000000000000000000000000000281526004018082815260200191505060206040518083038186803b158015611edc57600080fd5b505af4158015611ef0573d6000803e3d6000fd5b505050506040513d6020811015611f0657600080fd5b81019080805190602001909291905050509050919050565b60008173__DoublyLinkedList______________________633ae6974290916040518263ffffffff167c01000000000000000000000000000000000000000000000000000000000281526004018082815260200191505060206040518083038186803b158015611f8d57600080fd5b505af4158015611fa1573d6000803e3d6000fd5b505050506040513d6020811015611fb757600080fd5b81019080805190602001909291905050509050919050565b60008273__DoublyLinkedList______________________632a1441789091846040518363ffffffff167c01000000000000000000000000000000000000000000000000000000000281526004018083815260200182600019166000191681526020019250505060206040518083038186803b15801561204e57600080fd5b505af4158015612062573d6000803e3d6000fd5b505050506040513d602081101561207857600080fd5b8101908080519060200190929190505050905092915050565b60008173__DoublyLinkedList______________________6312e3853d90916040518263ffffffff167c01000000000000000000000000000000000000000000000000000000000281526004018082815260200191505060206040518083038186803b15801561210057600080fd5b505af4158015612114573d6000803e3d6000fd5b505050506040513d602081101561212a57600080fd5b81019080805190602001909291905050509050919050565b60008173__DoublyLinkedList______________________631240ff5a90916040518263ffffffff167c01000000000000000000000000000000000000000000000000000000000281526004018082815260200191505060206040518083038186803b1580156121b157600080fd5b505af41580156121c5573d6000803e3d6000fd5b505050506040513d60208110156121db57600080fd5b81019080805190602001909291905050509050919050565b60008273__DoublyLinkedList______________________63a7b9777c9091846040518363ffffffff167c0100000000000000000000000000000000000000000000000000000000028152600401808381526020018273ffffffffffffffffffffffffffffffffffffffff1673ffffffffffffffffffffffffffffffffffffffff1681526020019250505060206040518083038186803b15801561229657600080fd5b505af41580156122aa573d6000803e3d6000fd5b505050506040513d60208110156122c057600080fd5b8101908080519060200190929190505050905092915050565b60008273__DoublyLinkedList______________________63ec40b8979091846040518363ffffffff167c0100000000000000000000000000000000000000000000000000000000028152600401808381526020018281526020019250505060206040518083038186803b15801561235057600080fd5b505af4158015612364573d6000803e3d6000fd5b505050506040513d602081101561237a57600080fd5b8101908080519060200190929190505050905092915050565b600061239d612580565b6001151584600401600085815260200190815260200160002060009054906101000a900460ff16151514156125745783600501600184038154811015156123e057fe5b9060005260206000209060030201606060405190810160405290816000820154600019166000191681526020016001820154815260200160028201548152505090506000816020015114156124415780604001518460000181905550612474565b806040015184600501600183602001510381548110151561245e57fe5b9060005260206000209060030201600201819055505b60008160400151141561249357806020015184600101819055506124c6565b80602001518460050160018360400151038154811015156124b057fe5b9060005260206000209060030201600101819055505b83600501600184038154811015156124da57fe5b9060005260206000209060030201600080820160009055600182016000905560028201600090555050600084600401600085815260200190815260200160002060006101000a81548160ff0219169083151502179055508360030160008260000151600019166000191681526020019081526020016000206000905583600201600081548092919060019003919050555060019150612579565b600091505b5092915050565b60606040519081016040528060008019168152602001600081526020016000815250905600a165627a7a723058209e9364bfa0450354d721cceff1bf134e45f20bfc8f1c46a32adf15a15a01b1650029",
  "source": "pragma solidity ^0.4.19;\n\nimport \"../abstract/BytesIteratorStorage.sol\";\nimport \"../abstract/AddressIteratorStorage.sol\";\nimport \"../abstract/UintIteratorStorage.sol\";\n\n/**\n    @title Example Storage\n    @author DigixGlobal Pte Ltd\n */\ncontract ExampleStorage is BytesIteratorStorage, AddressIteratorStorage, UintIteratorStorage {\n\n  using DoublyLinkedList for DoublyLinkedList.Bytes;\n  using DoublyLinkedList for DoublyLinkedList.Address;\n  using DoublyLinkedList for DoublyLinkedList.Uint;\n\n  DoublyLinkedList.Bytes bytes_collection;\n  DoublyLinkedList.Address address_collection;\n  DoublyLinkedList.Uint uint_collection;\n\n  /**\n    @notice Constructor\n  */\n  constructor() public {\n    initialize();\n  }\n\n  /**\n    @notice Initializes instace of collections\n  */\n  function initialize() public {\n    bytes_collection.append(\"test1\");\n    bytes_collection.append(\"test2\");\n    bytes_collection.append(\"test3\");\n    bytes_collection.append(\"test4\");\n    bytes_collection.append(\"test5\");\n    bytes_collection.append(\"test6\");\n\n\t\taddress_collection.append(0x7812421a7579d8182DC6f2B68Ab56595db01553F);\n\t\taddress_collection.append(0x419f0a80D85f3C7dC3553394d91c9A339332a01E);\n\t\taddress_collection.append(0xF5dFE2A3f8Cf5CA8723b51be6fc065beA0cFE893);\n\t\taddress_collection.append(0x5dc52D499a77af45f43174CFE7982dC68c331c38);\n\t\taddress_collection.append(0x727C89006bd885f9A77254797a362d69E8A1f4da);\n\t\taddress_collection.append(0x0F66eC3DF48eC1E216D24e225b772696e031B698);\n\n    uint_collection.append(1002);\n    uint_collection.append(1003);\n    uint_collection.append(1004);\n    uint_collection.append(1005);\n    uint_collection.append(1006);\n    uint_collection.append(1007);\n  }\n\n  /**\n    @notice Removes all the items in a Bytes collection\n    @return {\"_success\":\"True when all items are successfully deleted\"}\n  */\n  function remove_all_data_in_bytes_collection()\n           public\n           returns (bool _success)\n  {\n    for (uint256 i=1;i<=6;i++) {\n      bytes_collection.remove(i);\n    }\n    _success = bytes_collection.total() == 0;\n  }\n\n  /**\n    @notice Removes all items in an Addresses collection\n    @return {\"_success\":\"True when all items are successfully deleted\"}\n  */\n  function remove_all_data_in_addresses_collection()\n           public\n           returns (bool _success)\n  {\n    for (uint256 i=1;i<=6;i++) {\n      address_collection.remove(i);\n    }\n    _success = address_collection.total() == 0;\n  }\n\n  /**\n    @notice Removes all items in uints collection\n    @return {\"_success\":\"True when all items are successfully deleted\"}\n  */\n  function remove_all_data_in_uints_collection()\n           public\n           returns (bool _success)\n  {\n    for (uint256 i=1;i<=6;i++) {\n      uint_collection.remove(i);\n    }\n    _success = uint_collection.total() == 0;\n  }\n\n  /**\n    @notice Reads the first item in the Bytes collection\n    @return {\"_item\": \"Collection item\"}\n  */\n  function read_first_in_bytes_collection()\n           public\n           constant\n           returns (bytes32 _item)\n  {\n    _item = read_first_from_bytesarray(bytes_collection);\n  }\n\n  /**\n    @notice Reads the last item in the Bytes collection\n    @return {\"_item\": \"Collection item\"}\n  */\n  function read_last_in_bytes_collection()\n           public\n           constant\n           returns (bytes32 _item)\n  {\n    _item = read_last_from_bytesarray(bytes_collection);\n  }\n\n  /**\n    @notice Reads the next item in the Bytes collection starting from the specified `_current_item`\n    @return {\"_item\": \"Collection item\"}\n  */\n  function read_next_in_bytes_collection(bytes32 _current_item)\n           public\n           constant\n           returns (bytes32 _item)\n  {\n    _item = read_next_from_bytesarray(bytes_collection, _current_item);\n  }\n\n  /**\n    @notice Reads the previous item in the Bytes collection starting from the specified `_current_item`\n    @return {\"_item\": \"Collection item\"}\n  */\n  function read_previous_in_bytes_collection(bytes32 _current_item)\n           public\n           constant\n           returns (bytes32 _item)\n  {\n    _item = read_previous_from_bytesarray(bytes_collection, _current_item);\n  }\n\n  /**\n    @notice Reads the total number of items in the Bytes collection\n    @return {\"_total_count\": \"Total number of items in the Bytes collection\"}\n  */\n  function read_total_in_bytes_collection()\n           public\n           constant\n           returns (uint256 _total_count)\n  {\n    _total_count = read_total_bytesarray(bytes_collection);\n  }\n\n  /**\n    @notice Reads the first item in the Addresses collection\n    @return {\"_item\": \"Collection item\"}\n  */\n  function read_first_in_addresses_collection()\n           public\n           constant\n           returns (address _item)\n  {\n    _item = read_first_from_addresses(address_collection);\n  }\n\n  /**\n    @notice Reads the last item in the Address collection\n    @return {\"_item\": \"Collection item\"}\n  */\n  function read_last_in_addresses_collection()\n           public\n           constant\n           returns (address _item)\n  {\n    _item = read_last_from_addresses(address_collection);\n  }\n\n  /**\n    @notice Reads the next item in the Addresses collection\n    @return {\"_item\": \"Collection item\"}\n  */\n  function read_next_in_addresses_collection(address _current_item)\n           public\n           constant\n           returns (address _item)\n  {\n    _item = read_next_from_addresses(address_collection, _current_item);\n  }\n\n  /**\n    @notice Reads the previous item in the Addresses collection\n    @return {\"_item\": \"Collection item\"}\n  */\n  function read_previous_in_addresses_collection(address _current_item)\n           public\n           constant\n           returns (address _item)\n  {\n    _item = read_previous_from_addresses(address_collection, _current_item);\n  }\n\n  /**\n    @notice Reads the total number of items in the Addresses collection\n    @return {\"_total_count\": \"Total number of items in the Address collection\"}\n  */\n  function read_total_in_addresses_collection()\n           public\n           constant\n           returns (uint256 _total_count)\n  {\n    _total_count = read_total_addresses(address_collection);\n  }\n\n\n  /*\n    @notice Reads the first item in the uints collection\n    @return {\"_item\": \"Collection item\"}\n  */\n  function read_first_in_uints_collection()\n           public\n           constant\n           returns (uint256 _item)\n  {\n    _item = read_first_from_uints(uint_collection);\n  }\n\n  /**\n    @notice Reads the last item in the uints collection\n    @return {\"_item\": \"Collection item\"}\n   */\n  function read_last_in_uints_collection()\n           public\n           constant\n           returns (uint256 _item)\n  {\n    _item = read_last_from_uints(uint_collection);\n  }\n\n  /**\n    @notice Reads the next item from the uints collection starting from the specified `_current_item`\n    @return {\"_item\": \"Collection item\"}\n  */\n  function read_next_in_uints_collection(uint256 _current_item)\n           public\n           constant\n           returns (uint256 _item)\n  {\n    _item = read_next_from_uints(uint_collection, _current_item);\n  }\n\n  /**\n    @notice Reads the previous item from the uints collection starting from the specified `_current_item`\n    @return {\"_item\": \"Collection item\"}\n  */\n  function read_previous_in_uints_collection(uint256 _current_item)\n           public\n           constant\n           returns (uint256 _item)\n  {\n    _item = read_previous_from_uints(uint_collection, _current_item);\n  }\n\n  /**\n    @notice Reads the total number of items in the uints collection\n    @return {\"_total_count\": \"Total number of items in the uints collection\"}\n  */\n  function read_total_in_uints_collection()\n           public\n           constant\n           returns (uint256 _total_count)\n  {\n    _total_count = read_total_uints(uint_collection);\n  }\n\n}\n",
  "sourcePath": "/home/rohit/Develop/solidity-collections-library/contracts/examples/ExampleStorage.sol",
  "compiler": {
    "name": "solc",
    "version": "0.4.24+commit.e67f0147.Emscripten.clang"
  },
  "schemaVersion": "2.0.0",
  "updatedAt": "2018-08-17T06:56:24.625Z"
}