{
  "contractName": "ExampleIndexedStorage",
  "abi": [
    {
      "inputs": [],
      "payable": false,
      "stateMutability": "nonpayable",
      "type": "constructor"
    },
    {
      "constant": false,
      "inputs": [],
      "name": "initialize",
      "outputs": [],
      "payable": false,
      "stateMutability": "nonpayable",
      "type": "function"
    },
    {
      "constant": false,
      "inputs": [
        {
          "name": "_collection_index",
          "type": "bytes32"
        }
      ],
      "name": "remove_all_data_in_indexed_bytes_collection",
      "outputs": [
        {
          "name": "_success",
          "type": "bool"
        }
      ],
      "payable": false,
      "stateMutability": "nonpayable",
      "type": "function"
    },
    {
      "constant": false,
      "inputs": [
        {
          "name": "_collection_index",
          "type": "bytes32"
        }
      ],
      "name": "remove_all_data_in_indexed_addresses_collection",
      "outputs": [
        {
          "name": "_success",
          "type": "bool"
        }
      ],
      "payable": false,
      "stateMutability": "nonpayable",
      "type": "function"
    },
    {
      "constant": false,
      "inputs": [
        {
          "name": "_collection_index",
          "type": "bytes32"
        }
      ],
      "name": "remove_all_data_in_indexed_uints_collection",
      "outputs": [
        {
          "name": "_success",
          "type": "bool"
        }
      ],
      "payable": false,
      "stateMutability": "nonpayable",
      "type": "function"
    },
    {
      "constant": true,
      "inputs": [
        {
          "name": "_collection_index",
          "type": "bytes32"
        }
      ],
      "name": "read_first_in_indexed_bytes_collection",
      "outputs": [
        {
          "name": "_item",
          "type": "bytes32"
        }
      ],
      "payable": false,
      "stateMutability": "view",
      "type": "function"
    },
    {
      "constant": true,
      "inputs": [
        {
          "name": "_collection_index",
          "type": "bytes32"
        }
      ],
      "name": "read_last_in_indexed_bytes_collection",
      "outputs": [
        {
          "name": "_item",
          "type": "bytes32"
        }
      ],
      "payable": false,
      "stateMutability": "view",
      "type": "function"
    },
    {
      "constant": true,
      "inputs": [
        {
          "name": "_collection_index",
          "type": "bytes32"
        },
        {
          "name": "_current_item",
          "type": "bytes32"
        }
      ],
      "name": "read_next_in_indexed_bytes_collection",
      "outputs": [
        {
          "name": "_item",
          "type": "bytes32"
        }
      ],
      "payable": false,
      "stateMutability": "view",
      "type": "function"
    },
    {
      "constant": true,
      "inputs": [
        {
          "name": "_collection_index",
          "type": "bytes32"
        },
        {
          "name": "_current_item",
          "type": "bytes32"
        }
      ],
      "name": "read_previous_in_indexed_bytes_collection",
      "outputs": [
        {
          "name": "_item",
          "type": "bytes32"
        }
      ],
      "payable": false,
      "stateMutability": "view",
      "type": "function"
    },
    {
      "constant": true,
      "inputs": [
        {
          "name": "_collection_index",
          "type": "bytes32"
        }
      ],
      "name": "read_total_in_indexed_bytes_collection",
      "outputs": [
        {
          "name": "_total_count",
          "type": "uint256"
        }
      ],
      "payable": false,
      "stateMutability": "view",
      "type": "function"
    },
    {
      "constant": true,
      "inputs": [
        {
          "name": "_collection_index",
          "type": "bytes32"
        }
      ],
      "name": "read_first_in_indexed_addresses_collection",
      "outputs": [
        {
          "name": "_item",
          "type": "address"
        }
      ],
      "payable": false,
      "stateMutability": "view",
      "type": "function"
    },
    {
      "constant": true,
      "inputs": [
        {
          "name": "_collection_index",
          "type": "bytes32"
        }
      ],
      "name": "read_last_in_indexed_addresses_collection",
      "outputs": [
        {
          "name": "_item",
          "type": "address"
        }
      ],
      "payable": false,
      "stateMutability": "view",
      "type": "function"
    },
    {
      "constant": true,
      "inputs": [
        {
          "name": "_collection_index",
          "type": "bytes32"
        },
        {
          "name": "_current_item",
          "type": "address"
        }
      ],
      "name": "read_next_in_indexed_addresses_collection",
      "outputs": [
        {
          "name": "_item",
          "type": "address"
        }
      ],
      "payable": false,
      "stateMutability": "view",
      "type": "function"
    },
    {
      "constant": true,
      "inputs": [
        {
          "name": "_collection_index",
          "type": "bytes32"
        },
        {
          "name": "_current_item",
          "type": "address"
        }
      ],
      "name": "read_previous_in_indexed_addresses_collection",
      "outputs": [
        {
          "name": "_item",
          "type": "address"
        }
      ],
      "payable": false,
      "stateMutability": "view",
      "type": "function"
    },
    {
      "constant": true,
      "inputs": [
        {
          "name": "_collection_index",
          "type": "bytes32"
        }
      ],
      "name": "read_total_in_indexed_addresses_collection",
      "outputs": [
        {
          "name": "_total_count",
          "type": "uint256"
        }
      ],
      "payable": false,
      "stateMutability": "view",
      "type": "function"
    },
    {
      "constant": true,
      "inputs": [
        {
          "name": "_collection_index",
          "type": "bytes32"
        }
      ],
      "name": "read_first_in_indexed_uints_collection",
      "outputs": [
        {
          "name": "_item",
          "type": "uint256"
        }
      ],
      "payable": false,
      "stateMutability": "view",
      "type": "function"
    },
    {
      "constant": true,
      "inputs": [
        {
          "name": "_collection_index",
          "type": "bytes32"
        }
      ],
      "name": "read_last_in_indexed_uints_collection",
      "outputs": [
        {
          "name": "_item",
          "type": "uint256"
        }
      ],
      "payable": false,
      "stateMutability": "view",
      "type": "function"
    },
    {
      "constant": true,
      "inputs": [
        {
          "name": "_collection_index",
          "type": "bytes32"
        },
        {
          "name": "_current_item",
          "type": "uint256"
        }
      ],
      "name": "read_next_in_indexed_uints_collection",
      "outputs": [
        {
          "name": "_item",
          "type": "uint256"
        }
      ],
      "payable": false,
      "stateMutability": "view",
      "type": "function"
    },
    {
      "constant": true,
      "inputs": [
        {
          "name": "_collection_index",
          "type": "bytes32"
        },
        {
          "name": "_current_item",
          "type": "uint256"
        }
      ],
      "name": "read_previous_in_indexed_uints_collection",
      "outputs": [
        {
          "name": "_item",
          "type": "uint256"
        }
      ],
      "payable": false,
      "stateMutability": "view",
      "type": "function"
    },
    {
      "constant": true,
      "inputs": [
        {
          "name": "_collection_index",
          "type": "bytes32"
        }
      ],
      "name": "read_total_in_indexed_uints_collection",
      "outputs": [
        {
          "name": "_total_count",
          "type": "uint256"
        }
      ],
      "payable": false,
      "stateMutability": "view",
      "type": "function"
    }
  ],
  "bytecode": "0x606060405234156200001057600080fd5b6200002e6200003464010000000002620008b6176401000000009004565b6200104a565b600073__DoublyLinkedList______________________63966277fb90916000604051602001526040518263ffffffff167c010000000000000000000000000000000000000000000000000000000002815260040180828152602001807f6100000000000000000000000000000000000000000000000000000000000000815250602001807f617465737431000000000000000000000000000000000000000000000000000081525060200191505060206040518083038186803b1515620000fb57600080fd5b6102c65a03f415156200010d57600080fd5b5050506040518051905050600073__DoublyLinkedList______________________63966277fb90916000604051602001526040518263ffffffff167c010000000000000000000000000000000000000000000000000000000002815260040180828152602001807f6100000000000000000000000000000000000000000000000000000000000000815250602001807f617465737432000000000000000000000000000000000000000000000000000081525060200191505060206040518083038186803b1515620001df57600080fd5b6102c65a03f41515620001f157600080fd5b5050506040518051905050600073__DoublyLinkedList______________________63966277fb90916000604051602001526040518263ffffffff167c010000000000000000000000000000000000000000000000000000000002815260040180828152602001807f6100000000000000000000000000000000000000000000000000000000000000815250602001807f617465737433000000000000000000000000000000000000000000000000000081525060200191505060206040518083038186803b1515620002c357600080fd5b6102c65a03f41515620002d557600080fd5b5050506040518051905050600073__DoublyLinkedList______________________63966277fb90916000604051602001526040518263ffffffff167c010000000000000000000000000000000000000000000000000000000002815260040180828152602001807f6100000000000000000000000000000000000000000000000000000000000000815250602001807f617465737434000000000000000000000000000000000000000000000000000081525060200191505060206040518083038186803b1515620003a757600080fd5b6102c65a03f41515620003b957600080fd5b5050506040518051905050600073__DoublyLinkedList______________________63966277fb90916000604051602001526040518263ffffffff167c010000000000000000000000000000000000000000000000000000000002815260040180828152602001807f6100000000000000000000000000000000000000000000000000000000000000815250602001807f617465737435000000000000000000000000000000000000000000000000000081525060200191505060206040518083038186803b15156200048b57600080fd5b6102c65a03f415156200049d57600080fd5b5050506040518051905050600073__DoublyLinkedList______________________63966277fb90916000604051602001526040518263ffffffff167c010000000000000000000000000000000000000000000000000000000002815260040180828152602001807f6100000000000000000000000000000000000000000000000000000000000000815250602001807f617465737436000000000000000000000000000000000000000000000000000081525060200191505060206040518083038186803b15156200056f57600080fd5b6102c65a03f415156200058157600080fd5b5050506040518051905050600173__DoublyLinkedList______________________639682eb129091737812421a7579d8182dc6f2b68ab56595db01553f6000604051602001526040518363ffffffff167c010000000000000000000000000000000000000000000000000000000002815260040180838152602001807f61000000000000000000000000000000000000000000000000000000000000008152506020018273ffffffffffffffffffffffffffffffffffffffff1673ffffffffffffffffffffffffffffffffffffffff1681526020019250505060206040518083038186803b15156200067357600080fd5b6102c65a03f415156200068557600080fd5b5050506040518051905050600173__DoublyLinkedList______________________639682eb12909173419f0a80d85f3c7dc3553394d91c9a339332a01e6000604051602001526040518363ffffffff167c010000000000000000000000000000000000000000000000000000000002815260040180838152602001807f61000000000000000000000000000000000000000000000000000000000000008152506020018273ffffffffffffffffffffffffffffffffffffffff1673ffffffffffffffffffffffffffffffffffffffff1681526020019250505060206040518083038186803b15156200077757600080fd5b6102c65a03f415156200078957600080fd5b5050506040518051905050600173__DoublyLinkedList______________________639682eb12909173f5dfe2a3f8cf5ca8723b51be6fc065bea0cfe8936000604051602001526040518363ffffffff167c010000000000000000000000000000000000000000000000000000000002815260040180838152602001807f61000000000000000000000000000000000000000000000000000000000000008152506020018273ffffffffffffffffffffffffffffffffffffffff1673ffffffffffffffffffffffffffffffffffffffff1681526020019250505060206040518083038186803b15156200087b57600080fd5b6102c65a03f415156200088d57600080fd5b5050506040518051905050600173__DoublyLinkedList______________________639682eb129091735dc52d499a77af45f43174cfe7982dc68c331c386000604051602001526040518363ffffffff167c010000000000000000000000000000000000000000000000000000000002815260040180838152602001807f61000000000000000000000000000000000000000000000000000000000000008152506020018273ffffffffffffffffffffffffffffffffffffffff1673ffffffffffffffffffffffffffffffffffffffff1681526020019250505060206040518083038186803b15156200097f57600080fd5b6102c65a03f415156200099157600080fd5b5050506040518051905050600173__DoublyLinkedList______________________639682eb12909173727c89006bd885f9a77254797a362d69e8a1f4da6000604051602001526040518363ffffffff167c010000000000000000000000000000000000000000000000000000000002815260040180838152602001807f61000000000000000000000000000000000000000000000000000000000000008152506020018273ffffffffffffffffffffffffffffffffffffffff1673ffffffffffffffffffffffffffffffffffffffff1681526020019250505060206040518083038186803b151562000a8357600080fd5b6102c65a03f4151562000a9557600080fd5b5050506040518051905050600173__DoublyLinkedList______________________639682eb129091730f66ec3df48ec1e216d24e225b772696e031b6986000604051602001526040518363ffffffff167c010000000000000000000000000000000000000000000000000000000002815260040180838152602001807f61000000000000000000000000000000000000000000000000000000000000008152506020018273ffffffffffffffffffffffffffffffffffffffff1673ffffffffffffffffffffffffffffffffffffffff1681526020019250505060206040518083038186803b151562000b8757600080fd5b6102c65a03f4151562000b9957600080fd5b5050506040518051905050600273__DoublyLinkedList______________________63dfffdce390916103ea6000604051602001526040518363ffffffff167c010000000000000000000000000000000000000000000000000000000002815260040180838152602001807f61000000000000000000000000000000000000000000000000000000000000008152506020018281526020019250505060206040518083038186803b151562000c4d57600080fd5b6102c65a03f4151562000c5f57600080fd5b5050506040518051905050600273__DoublyLinkedList______________________63dfffdce390916103eb6000604051602001526040518363ffffffff167c010000000000000000000000000000000000000000000000000000000002815260040180838152602001807f61000000000000000000000000000000000000000000000000000000000000008152506020018281526020019250505060206040518083038186803b151562000d1357600080fd5b6102c65a03f4151562000d2557600080fd5b5050506040518051905050600273__DoublyLinkedList______________________63dfffdce390916103ec6000604051602001526040518363ffffffff167c010000000000000000000000000000000000000000000000000000000002815260040180838152602001807f61000000000000000000000000000000000000000000000000000000000000008152506020018281526020019250505060206040518083038186803b151562000dd957600080fd5b6102c65a03f4151562000deb57600080fd5b5050506040518051905050600273__DoublyLinkedList______________________63dfffdce390916103ed6000604051602001526040518363ffffffff167c010000000000000000000000000000000000000000000000000000000002815260040180838152602001807f61000000000000000000000000000000000000000000000000000000000000008152506020018281526020019250505060206040518083038186803b151562000e9f57600080fd5b6102c65a03f4151562000eb157600080fd5b5050506040518051905050600273__DoublyLinkedList______________________63dfffdce390916103ee6000604051602001526040518363ffffffff167c010000000000000000000000000000000000000000000000000000000002815260040180838152602001807f61000000000000000000000000000000000000000000000000000000000000008152506020018281526020019250505060206040518083038186803b151562000f6557600080fd5b6102c65a03f4151562000f7757600080fd5b5050506040518051905050600273__DoublyLinkedList______________________63dfffdce390916103ef6000604051602001526040518363ffffffff167c010000000000000000000000000000000000000000000000000000000002815260040180838152602001807f61000000000000000000000000000000000000000000000000000000000000008152506020018281526020019250505060206040518083038186803b15156200102b57600080fd5b6102c65a03f415156200103d57600080fd5b5050506040518051905050565b6127c1806200105a6000396000f300606060405260043610610107576000357c0100000000000000000000000000000000000000000000000000000000900463ffffffff168063189310161461010c578063385e6ee91461017357806338b63463146101b757806347ff9ac0146101f657806348bc91fa1461023957806372ea4fa8146102a057806378a6dcc9146102df5780638129fc1c1461031a57806381dd8e6e1461032f5780639f666fe71461036a578063a7493d8a146103a5578063a94fc505146103f5578063b17054db1461047b578063bf78a81d146104cb578063c20681f114610551578063d0d763901461058c578063d6f66e22146105d0578063e169c53314610613578063ff5e46cc14610652575b600080fd5b341561011757600080fd5b61013160048080356000191690602001909190505061068d565b604051808273ffffffffffffffffffffffffffffffffffffffff1673ffffffffffffffffffffffffffffffffffffffff16815260200191505060405180910390f35b341561017e57600080fd5b6101a16004808035600019169060200190919080359060200190919050506106a1565b6040518082815260200191505060405180910390f35b34156101c257600080fd5b6101dc6004808035600019169060200190919050506106b7565b604051808215151515815260200191505060405180910390f35b341561020157600080fd5b61021b600480803560001916906020019091905050610798565b60405180826000191660001916815260200191505060405180910390f35b341561024457600080fd5b61025e6004808035600019169060200190919050506107ac565b604051808273ffffffffffffffffffffffffffffffffffffffff1673ffffffffffffffffffffffffffffffffffffffff16815260200191505060405180910390f35b34156102ab57600080fd5b6102c56004808035600019169060200190919050506107c0565b604051808215151515815260200191505060405180910390f35b34156102ea57600080fd5b6103046004808035600019169060200190919050506108a2565b6040518082815260200191505060405180910390f35b341561032557600080fd5b61032d6108b6565b005b341561033a57600080fd5b6103546004808035600019169060200190919050506118a8565b6040518082815260200191505060405180910390f35b341561037557600080fd5b61038f6004808035600019169060200190919050506118bc565b6040518082815260200191505060405180910390f35b34156103b057600080fd5b6103d7600480803560001916906020019091908035600019169060200190919050506118d0565b60405180826000191660001916815260200191505060405180910390f35b341561040057600080fd5b61043960048080356000191690602001909190803573ffffffffffffffffffffffffffffffffffffffff169060200190919050506118e6565b604051808273ffffffffffffffffffffffffffffffffffffffff1673ffffffffffffffffffffffffffffffffffffffff16815260200191505060405180910390f35b341561048657600080fd5b6104ad600480803560001916906020019091908035600019169060200190919050506118fc565b60405180826000191660001916815260200191505060405180910390f35b34156104d657600080fd5b61050f60048080356000191690602001909190803573ffffffffffffffffffffffffffffffffffffffff16906020019091905050611912565b604051808273ffffffffffffffffffffffffffffffffffffffff1673ffffffffffffffffffffffffffffffffffffffff16815260200191505060405180910390f35b341561055c57600080fd5b610576600480803560001916906020019091905050611928565b6040518082815260200191505060405180910390f35b341561059757600080fd5b6105ba60048080356000191690602001909190803590602001909190505061193c565b6040518082815260200191505060405180910390f35b34156105db57600080fd5b6105f5600480803560001916906020019091905050611952565b60405180826000191660001916815260200191505060405180910390f35b341561061e57600080fd5b610638600480803560001916906020019091905050611966565b604051808215151515815260200191505060405180910390f35b341561065d57600080fd5b610677600480803560001916906020019091905050611a48565b6040518082815260200191505060405180910390f35b600061069a600183611a5c565b9050919050565b60006106af60028484611b06565b905092915050565b600080600190505b6006811115156106ed576106df83826000611bb99092919063ffffffff16565b5080806001019150506106bf565b60008073__DoublyLinkedList______________________63d3209ca09091866000604051602001526040518363ffffffff167c01000000000000000000000000000000000000000000000000000000000281526004018083815260200182600019166000191681526020019250505060206040518083038186803b151561077457600080fd5b6102c65a03f4151561078557600080fd5b5050506040518051905014915050919050565b60006107a5600083611bea565b9050919050565b60006107b9600183611c94565b9050919050565b600080600190505b6006811115156107f6576107e883826002611d3e9092919063ffffffff16565b5080806001019150506107c8565b6000600273__DoublyLinkedList______________________636e2d58059091866000604051602001526040518363ffffffff167c01000000000000000000000000000000000000000000000000000000000281526004018083815260200182600019166000191681526020019250505060206040518083038186803b151561087e57600080fd5b6102c65a03f4151561088f57600080fd5b5050506040518051905014915050919050565b60006108af600283611d6f565b9050919050565b600073__DoublyLinkedList______________________63966277fb90916000604051602001526040518263ffffffff167c010000000000000000000000000000000000000000000000000000000002815260040180828152602001807f6100000000000000000000000000000000000000000000000000000000000000815250602001807f617465737431000000000000000000000000000000000000000000000000000081525060200191505060206040518083038186803b151561097c57600080fd5b6102c65a03f4151561098d57600080fd5b5050506040518051905050600073__DoublyLinkedList______________________63966277fb90916000604051602001526040518263ffffffff167c010000000000000000000000000000000000000000000000000000000002815260040180828152602001807f6100000000000000000000000000000000000000000000000000000000000000815250602001807f617465737432000000000000000000000000000000000000000000000000000081525060200191505060206040518083038186803b1515610a5e57600080fd5b6102c65a03f41515610a6f57600080fd5b5050506040518051905050600073__DoublyLinkedList______________________63966277fb90916000604051602001526040518263ffffffff167c010000000000000000000000000000000000000000000000000000000002815260040180828152602001807f6100000000000000000000000000000000000000000000000000000000000000815250602001807f617465737433000000000000000000000000000000000000000000000000000081525060200191505060206040518083038186803b1515610b4057600080fd5b6102c65a03f41515610b5157600080fd5b5050506040518051905050600073__DoublyLinkedList______________________63966277fb90916000604051602001526040518263ffffffff167c010000000000000000000000000000000000000000000000000000000002815260040180828152602001807f6100000000000000000000000000000000000000000000000000000000000000815250602001807f617465737434000000000000000000000000000000000000000000000000000081525060200191505060206040518083038186803b1515610c2257600080fd5b6102c65a03f41515610c3357600080fd5b5050506040518051905050600073__DoublyLinkedList______________________63966277fb90916000604051602001526040518263ffffffff167c010000000000000000000000000000000000000000000000000000000002815260040180828152602001807f6100000000000000000000000000000000000000000000000000000000000000815250602001807f617465737435000000000000000000000000000000000000000000000000000081525060200191505060206040518083038186803b1515610d0457600080fd5b6102c65a03f41515610d1557600080fd5b5050506040518051905050600073__DoublyLinkedList______________________63966277fb90916000604051602001526040518263ffffffff167c010000000000000000000000000000000000000000000000000000000002815260040180828152602001807f6100000000000000000000000000000000000000000000000000000000000000815250602001807f617465737436000000000000000000000000000000000000000000000000000081525060200191505060206040518083038186803b1515610de657600080fd5b6102c65a03f41515610df757600080fd5b5050506040518051905050600173__DoublyLinkedList______________________639682eb129091737812421a7579d8182dc6f2b68ab56595db01553f6000604051602001526040518363ffffffff167c010000000000000000000000000000000000000000000000000000000002815260040180838152602001807f61000000000000000000000000000000000000000000000000000000000000008152506020018273ffffffffffffffffffffffffffffffffffffffff1673ffffffffffffffffffffffffffffffffffffffff1681526020019250505060206040518083038186803b1515610ee857600080fd5b6102c65a03f41515610ef957600080fd5b5050506040518051905050600173__DoublyLinkedList______________________639682eb12909173419f0a80d85f3c7dc3553394d91c9a339332a01e6000604051602001526040518363ffffffff167c010000000000000000000000000000000000000000000000000000000002815260040180838152602001807f61000000000000000000000000000000000000000000000000000000000000008152506020018273ffffffffffffffffffffffffffffffffffffffff1673ffffffffffffffffffffffffffffffffffffffff1681526020019250505060206040518083038186803b1515610fea57600080fd5b6102c65a03f41515610ffb57600080fd5b5050506040518051905050600173__DoublyLinkedList______________________639682eb12909173f5dfe2a3f8cf5ca8723b51be6fc065bea0cfe8936000604051602001526040518363ffffffff167c010000000000000000000000000000000000000000000000000000000002815260040180838152602001807f61000000000000000000000000000000000000000000000000000000000000008152506020018273ffffffffffffffffffffffffffffffffffffffff1673ffffffffffffffffffffffffffffffffffffffff1681526020019250505060206040518083038186803b15156110ec57600080fd5b6102c65a03f415156110fd57600080fd5b5050506040518051905050600173__DoublyLinkedList______________________639682eb129091735dc52d499a77af45f43174cfe7982dc68c331c386000604051602001526040518363ffffffff167c010000000000000000000000000000000000000000000000000000000002815260040180838152602001807f61000000000000000000000000000000000000000000000000000000000000008152506020018273ffffffffffffffffffffffffffffffffffffffff1673ffffffffffffffffffffffffffffffffffffffff1681526020019250505060206040518083038186803b15156111ee57600080fd5b6102c65a03f415156111ff57600080fd5b5050506040518051905050600173__DoublyLinkedList______________________639682eb12909173727c89006bd885f9a77254797a362d69e8a1f4da6000604051602001526040518363ffffffff167c010000000000000000000000000000000000000000000000000000000002815260040180838152602001807f61000000000000000000000000000000000000000000000000000000000000008152506020018273ffffffffffffffffffffffffffffffffffffffff1673ffffffffffffffffffffffffffffffffffffffff1681526020019250505060206040518083038186803b15156112f057600080fd5b6102c65a03f4151561130157600080fd5b5050506040518051905050600173__DoublyLinkedList______________________639682eb129091730f66ec3df48ec1e216d24e225b772696e031b6986000604051602001526040518363ffffffff167c010000000000000000000000000000000000000000000000000000000002815260040180838152602001807f61000000000000000000000000000000000000000000000000000000000000008152506020018273ffffffffffffffffffffffffffffffffffffffff1673ffffffffffffffffffffffffffffffffffffffff1681526020019250505060206040518083038186803b15156113f257600080fd5b6102c65a03f4151561140357600080fd5b5050506040518051905050600273__DoublyLinkedList______________________63dfffdce390916103ea6000604051602001526040518363ffffffff167c010000000000000000000000000000000000000000000000000000000002815260040180838152602001807f61000000000000000000000000000000000000000000000000000000000000008152506020018281526020019250505060206040518083038186803b15156114b657600080fd5b6102c65a03f415156114c757600080fd5b5050506040518051905050600273__DoublyLinkedList______________________63dfffdce390916103eb6000604051602001526040518363ffffffff167c010000000000000000000000000000000000000000000000000000000002815260040180838152602001807f61000000000000000000000000000000000000000000000000000000000000008152506020018281526020019250505060206040518083038186803b151561157a57600080fd5b6102c65a03f4151561158b57600080fd5b5050506040518051905050600273__DoublyLinkedList______________________63dfffdce390916103ec6000604051602001526040518363ffffffff167c010000000000000000000000000000000000000000000000000000000002815260040180838152602001807f61000000000000000000000000000000000000000000000000000000000000008152506020018281526020019250505060206040518083038186803b151561163e57600080fd5b6102c65a03f4151561164f57600080fd5b5050506040518051905050600273__DoublyLinkedList______________________63dfffdce390916103ed6000604051602001526040518363ffffffff167c010000000000000000000000000000000000000000000000000000000002815260040180838152602001807f61000000000000000000000000000000000000000000000000000000000000008152506020018281526020019250505060206040518083038186803b151561170257600080fd5b6102c65a03f4151561171357600080fd5b5050506040518051905050600273__DoublyLinkedList______________________63dfffdce390916103ee6000604051602001526040518363ffffffff167c010000000000000000000000000000000000000000000000000000000002815260040180838152602001807f61000000000000000000000000000000000000000000000000000000000000008152506020018281526020019250505060206040518083038186803b15156117c657600080fd5b6102c65a03f415156117d757600080fd5b5050506040518051905050600273__DoublyLinkedList______________________63dfffdce390916103ef6000604051602001526040518363ffffffff167c010000000000000000000000000000000000000000000000000000000002815260040180838152602001807f61000000000000000000000000000000000000000000000000000000000000008152506020018281526020019250505060206040518083038186803b151561188a57600080fd5b6102c65a03f4151561189b57600080fd5b5050506040518051905050565b60006118b5600283611e19565b9050919050565b60006118c9600283611ec3565b9050919050565b60006118de60008484611f6d565b905092915050565b60006118f460018484612028565b905092915050565b600061190a60008484612107565b905092915050565b6000611920600184846121c2565b905092915050565b60006119356000836122a1565b9050919050565b600061194a6002848461234b565b905092915050565b600061195f6000836123fe565b9050919050565b600080600190505b60068111151561199c5761198e838260016124a89092919063ffffffff16565b50808060010191505061196e565b6000600173__DoublyLinkedList______________________6355a0a1bf9091866000604051602001526040518363ffffffff167c01000000000000000000000000000000000000000000000000000000000281526004018083815260200182600019166000191681526020019250505060206040518083038186803b1515611a2457600080fd5b6102c65a03f41515611a3557600080fd5b5050506040518051905014915050919050565b6000611a556001836124d9565b9050919050565b60008273__DoublyLinkedList______________________63b0c29efb9091846000604051602001526040518363ffffffff167c01000000000000000000000000000000000000000000000000000000000281526004018083815260200182600019166000191681526020019250505060206040518083038186803b1515611ae357600080fd5b6102c65a03f41515611af457600080fd5b50505060405180519050905092915050565b60008373__DoublyLinkedList______________________63bfbfe9d9909185856000604051602001526040518463ffffffff167c0100000000000000000000000000000000000000000000000000000000028152600401808481526020018360001916600019168152602001828152602001935050505060206040518083038186803b1515611b9557600080fd5b6102c65a03f41515611ba657600080fd5b5050506040518051905090509392505050565b6000611be1846000016000856000191660001916815260200190815260200160002083612583565b90509392505050565b60008273__DoublyLinkedList______________________63dbcdc19d9091846000604051602001526040518363ffffffff167c01000000000000000000000000000000000000000000000000000000000281526004018083815260200182600019166000191681526020019250505060206040518083038186803b1515611c7157600080fd5b6102c65a03f41515611c8257600080fd5b50505060405180519050905092915050565b60008273__DoublyLinkedList______________________63c501bf569091846000604051602001526040518363ffffffff167c01000000000000000000000000000000000000000000000000000000000281526004018083815260200182600019166000191681526020019250505060206040518083038186803b1515611d1b57600080fd5b6102c65a03f41515611d2c57600080fd5b50505060405180519050905092915050565b6000611d66846000016000856000191660001916815260200190815260200160002083612583565b90509392505050565b60008273__DoublyLinkedList______________________636e2d58059091846000604051602001526040518363ffffffff167c01000000000000000000000000000000000000000000000000000000000281526004018083815260200182600019166000191681526020019250505060206040518083038186803b1515611df657600080fd5b6102c65a03f41515611e0757600080fd5b50505060405180519050905092915050565b60008273__DoublyLinkedList______________________639f9b1c989091846000604051602001526040518363ffffffff167c01000000000000000000000000000000000000000000000000000000000281526004018083815260200182600019166000191681526020019250505060206040518083038186803b1515611ea057600080fd5b6102c65a03f41515611eb157600080fd5b50505060405180519050905092915050565b60008273__DoublyLinkedList______________________6311ef1f689091846000604051602001526040518363ffffffff167c01000000000000000000000000000000000000000000000000000000000281526004018083815260200182600019166000191681526020019250505060206040518083038186803b1515611f4a57600080fd5b6102c65a03f41515611f5b57600080fd5b50505060405180519050905092915050565b60008373__DoublyLinkedList______________________63f1f9d1c4909185856000604051602001526040518463ffffffff167c01000000000000000000000000000000000000000000000000000000000281526004018084815260200183600019166000191681526020018260001916600019168152602001935050505060206040518083038186803b151561200457600080fd5b6102c65a03f4151561201557600080fd5b5050506040518051905090509392505050565b60008373__DoublyLinkedList______________________6320482030909185856000604051602001526040518463ffffffff167c01000000000000000000000000000000000000000000000000000000000281526004018084815260200183600019166000191681526020018273ffffffffffffffffffffffffffffffffffffffff1673ffffffffffffffffffffffffffffffffffffffff168152602001935050505060206040518083038186803b15156120e357600080fd5b6102c65a03f415156120f457600080fd5b5050506040518051905090509392505050565b60008373__DoublyLinkedList______________________63d61488b7909185856000604051602001526040518463ffffffff167c01000000000000000000000000000000000000000000000000000000000281526004018084815260200183600019166000191681526020018260001916600019168152602001935050505060206040518083038186803b151561219e57600080fd5b6102c65a03f415156121af57600080fd5b5050506040518051905090509392505050565b60008373__DoublyLinkedList______________________63675a4ef0909185856000604051602001526040518463ffffffff167c01000000000000000000000000000000000000000000000000000000000281526004018084815260200183600019166000191681526020018273ffffffffffffffffffffffffffffffffffffffff1673ffffffffffffffffffffffffffffffffffffffff168152602001935050505060206040518083038186803b151561227d57600080fd5b6102c65a03f4151561228e57600080fd5b5050506040518051905090509392505050565b60008273__DoublyLinkedList______________________63d3209ca09091846000604051602001526040518363ffffffff167c01000000000000000000000000000000000000000000000000000000000281526004018083815260200182600019166000191681526020019250505060206040518083038186803b151561232857600080fd5b6102c65a03f4151561233957600080fd5b50505060405180519050905092915050565b60008373__DoublyLinkedList______________________634caf5c72909185856000604051602001526040518463ffffffff167c0100000000000000000000000000000000000000000000000000000000028152600401808481526020018360001916600019168152602001828152602001935050505060206040518083038186803b15156123da57600080fd5b6102c65a03f415156123eb57600080fd5b5050506040518051905090509392505050565b60008273__DoublyLinkedList______________________63706853de9091846000604051602001526040518363ffffffff167c01000000000000000000000000000000000000000000000000000000000281526004018083815260200182600019166000191681526020019250505060206040518083038186803b151561248557600080fd5b6102c65a03f4151561249657600080fd5b50505060405180519050905092915050565b60006124d0846000016000856000191660001916815260200190815260200160002083612583565b90509392505050565b60008273__DoublyLinkedList______________________6355a0a1bf9091846000604051602001526040518363ffffffff167c01000000000000000000000000000000000000000000000000000000000281526004018083815260200182600019166000191681526020019250505060206040518083038186803b151561256057600080fd5b6102c65a03f4151561257157600080fd5b50505060405180519050905092915050565b600061258d612770565b6001151584600401600085815260200190815260200160002060009054906101000a900460ff16151514156127645783600501600184038154811015156125d057fe5b9060005260206000209060030201606060405190810160405290816000820154600019166000191681526020016001820154815260200160028201548152505090506000816020015114156126315780604001518460000181905550612664565b806040015184600501600183602001510381548110151561264e57fe5b9060005260206000209060030201600201819055505b60008160400151141561268357806020015184600101819055506126b6565b80602001518460050160018360400151038154811015156126a057fe5b9060005260206000209060030201600101819055505b83600501600184038154811015156126ca57fe5b9060005260206000209060030201600080820160009055600182016000905560028201600090555050600084600401600085815260200190815260200160002060006101000a81548160ff0219169083151502179055508360030160008260000151600019166000191681526020019081526020016000206000905583600201600081548092919060019003919050555060019150612769565b600091505b5092915050565b60606040519081016040528060008019168152602001600081526020016000815250905600a165627a7a723058201b4d2fc87c85181a534858cd3fdbf5f7b4d32a294ae8245d146aa82dc64725d80029",
  "deployedBytecode": "0x606060405260043610610107576000357c0100000000000000000000000000000000000000000000000000000000900463ffffffff168063189310161461010c578063385e6ee91461017357806338b63463146101b757806347ff9ac0146101f657806348bc91fa1461023957806372ea4fa8146102a057806378a6dcc9146102df5780638129fc1c1461031a57806381dd8e6e1461032f5780639f666fe71461036a578063a7493d8a146103a5578063a94fc505146103f5578063b17054db1461047b578063bf78a81d146104cb578063c20681f114610551578063d0d763901461058c578063d6f66e22146105d0578063e169c53314610613578063ff5e46cc14610652575b600080fd5b341561011757600080fd5b61013160048080356000191690602001909190505061068d565b604051808273ffffffffffffffffffffffffffffffffffffffff1673ffffffffffffffffffffffffffffffffffffffff16815260200191505060405180910390f35b341561017e57600080fd5b6101a16004808035600019169060200190919080359060200190919050506106a1565b6040518082815260200191505060405180910390f35b34156101c257600080fd5b6101dc6004808035600019169060200190919050506106b7565b604051808215151515815260200191505060405180910390f35b341561020157600080fd5b61021b600480803560001916906020019091905050610798565b60405180826000191660001916815260200191505060405180910390f35b341561024457600080fd5b61025e6004808035600019169060200190919050506107ac565b604051808273ffffffffffffffffffffffffffffffffffffffff1673ffffffffffffffffffffffffffffffffffffffff16815260200191505060405180910390f35b34156102ab57600080fd5b6102c56004808035600019169060200190919050506107c0565b604051808215151515815260200191505060405180910390f35b34156102ea57600080fd5b6103046004808035600019169060200190919050506108a2565b6040518082815260200191505060405180910390f35b341561032557600080fd5b61032d6108b6565b005b341561033a57600080fd5b6103546004808035600019169060200190919050506118a8565b6040518082815260200191505060405180910390f35b341561037557600080fd5b61038f6004808035600019169060200190919050506118bc565b6040518082815260200191505060405180910390f35b34156103b057600080fd5b6103d7600480803560001916906020019091908035600019169060200190919050506118d0565b60405180826000191660001916815260200191505060405180910390f35b341561040057600080fd5b61043960048080356000191690602001909190803573ffffffffffffffffffffffffffffffffffffffff169060200190919050506118e6565b604051808273ffffffffffffffffffffffffffffffffffffffff1673ffffffffffffffffffffffffffffffffffffffff16815260200191505060405180910390f35b341561048657600080fd5b6104ad600480803560001916906020019091908035600019169060200190919050506118fc565b60405180826000191660001916815260200191505060405180910390f35b34156104d657600080fd5b61050f60048080356000191690602001909190803573ffffffffffffffffffffffffffffffffffffffff16906020019091905050611912565b604051808273ffffffffffffffffffffffffffffffffffffffff1673ffffffffffffffffffffffffffffffffffffffff16815260200191505060405180910390f35b341561055c57600080fd5b610576600480803560001916906020019091905050611928565b6040518082815260200191505060405180910390f35b341561059757600080fd5b6105ba60048080356000191690602001909190803590602001909190505061193c565b6040518082815260200191505060405180910390f35b34156105db57600080fd5b6105f5600480803560001916906020019091905050611952565b60405180826000191660001916815260200191505060405180910390f35b341561061e57600080fd5b610638600480803560001916906020019091905050611966565b604051808215151515815260200191505060405180910390f35b341561065d57600080fd5b610677600480803560001916906020019091905050611a48565b6040518082815260200191505060405180910390f35b600061069a600183611a5c565b9050919050565b60006106af60028484611b06565b905092915050565b600080600190505b6006811115156106ed576106df83826000611bb99092919063ffffffff16565b5080806001019150506106bf565b60008073__DoublyLinkedList______________________63d3209ca09091866000604051602001526040518363ffffffff167c01000000000000000000000000000000000000000000000000000000000281526004018083815260200182600019166000191681526020019250505060206040518083038186803b151561077457600080fd5b6102c65a03f4151561078557600080fd5b5050506040518051905014915050919050565b60006107a5600083611bea565b9050919050565b60006107b9600183611c94565b9050919050565b600080600190505b6006811115156107f6576107e883826002611d3e9092919063ffffffff16565b5080806001019150506107c8565b6000600273__DoublyLinkedList______________________636e2d58059091866000604051602001526040518363ffffffff167c01000000000000000000000000000000000000000000000000000000000281526004018083815260200182600019166000191681526020019250505060206040518083038186803b151561087e57600080fd5b6102c65a03f4151561088f57600080fd5b5050506040518051905014915050919050565b60006108af600283611d6f565b9050919050565b600073__DoublyLinkedList______________________63966277fb90916000604051602001526040518263ffffffff167c010000000000000000000000000000000000000000000000000000000002815260040180828152602001807f6100000000000000000000000000000000000000000000000000000000000000815250602001807f617465737431000000000000000000000000000000000000000000000000000081525060200191505060206040518083038186803b151561097c57600080fd5b6102c65a03f4151561098d57600080fd5b5050506040518051905050600073__DoublyLinkedList______________________63966277fb90916000604051602001526040518263ffffffff167c010000000000000000000000000000000000000000000000000000000002815260040180828152602001807f6100000000000000000000000000000000000000000000000000000000000000815250602001807f617465737432000000000000000000000000000000000000000000000000000081525060200191505060206040518083038186803b1515610a5e57600080fd5b6102c65a03f41515610a6f57600080fd5b5050506040518051905050600073__DoublyLinkedList______________________63966277fb90916000604051602001526040518263ffffffff167c010000000000000000000000000000000000000000000000000000000002815260040180828152602001807f6100000000000000000000000000000000000000000000000000000000000000815250602001807f617465737433000000000000000000000000000000000000000000000000000081525060200191505060206040518083038186803b1515610b4057600080fd5b6102c65a03f41515610b5157600080fd5b5050506040518051905050600073__DoublyLinkedList______________________63966277fb90916000604051602001526040518263ffffffff167c010000000000000000000000000000000000000000000000000000000002815260040180828152602001807f6100000000000000000000000000000000000000000000000000000000000000815250602001807f617465737434000000000000000000000000000000000000000000000000000081525060200191505060206040518083038186803b1515610c2257600080fd5b6102c65a03f41515610c3357600080fd5b5050506040518051905050600073__DoublyLinkedList______________________63966277fb90916000604051602001526040518263ffffffff167c010000000000000000000000000000000000000000000000000000000002815260040180828152602001807f6100000000000000000000000000000000000000000000000000000000000000815250602001807f617465737435000000000000000000000000000000000000000000000000000081525060200191505060206040518083038186803b1515610d0457600080fd5b6102c65a03f41515610d1557600080fd5b5050506040518051905050600073__DoublyLinkedList______________________63966277fb90916000604051602001526040518263ffffffff167c010000000000000000000000000000000000000000000000000000000002815260040180828152602001807f6100000000000000000000000000000000000000000000000000000000000000815250602001807f617465737436000000000000000000000000000000000000000000000000000081525060200191505060206040518083038186803b1515610de657600080fd5b6102c65a03f41515610df757600080fd5b5050506040518051905050600173__DoublyLinkedList______________________639682eb129091737812421a7579d8182dc6f2b68ab56595db01553f6000604051602001526040518363ffffffff167c010000000000000000000000000000000000000000000000000000000002815260040180838152602001807f61000000000000000000000000000000000000000000000000000000000000008152506020018273ffffffffffffffffffffffffffffffffffffffff1673ffffffffffffffffffffffffffffffffffffffff1681526020019250505060206040518083038186803b1515610ee857600080fd5b6102c65a03f41515610ef957600080fd5b5050506040518051905050600173__DoublyLinkedList______________________639682eb12909173419f0a80d85f3c7dc3553394d91c9a339332a01e6000604051602001526040518363ffffffff167c010000000000000000000000000000000000000000000000000000000002815260040180838152602001807f61000000000000000000000000000000000000000000000000000000000000008152506020018273ffffffffffffffffffffffffffffffffffffffff1673ffffffffffffffffffffffffffffffffffffffff1681526020019250505060206040518083038186803b1515610fea57600080fd5b6102c65a03f41515610ffb57600080fd5b5050506040518051905050600173__DoublyLinkedList______________________639682eb12909173f5dfe2a3f8cf5ca8723b51be6fc065bea0cfe8936000604051602001526040518363ffffffff167c010000000000000000000000000000000000000000000000000000000002815260040180838152602001807f61000000000000000000000000000000000000000000000000000000000000008152506020018273ffffffffffffffffffffffffffffffffffffffff1673ffffffffffffffffffffffffffffffffffffffff1681526020019250505060206040518083038186803b15156110ec57600080fd5b6102c65a03f415156110fd57600080fd5b5050506040518051905050600173__DoublyLinkedList______________________639682eb129091735dc52d499a77af45f43174cfe7982dc68c331c386000604051602001526040518363ffffffff167c010000000000000000000000000000000000000000000000000000000002815260040180838152602001807f61000000000000000000000000000000000000000000000000000000000000008152506020018273ffffffffffffffffffffffffffffffffffffffff1673ffffffffffffffffffffffffffffffffffffffff1681526020019250505060206040518083038186803b15156111ee57600080fd5b6102c65a03f415156111ff57600080fd5b5050506040518051905050600173__DoublyLinkedList______________________639682eb12909173727c89006bd885f9a77254797a362d69e8a1f4da6000604051602001526040518363ffffffff167c010000000000000000000000000000000000000000000000000000000002815260040180838152602001807f61000000000000000000000000000000000000000000000000000000000000008152506020018273ffffffffffffffffffffffffffffffffffffffff1673ffffffffffffffffffffffffffffffffffffffff1681526020019250505060206040518083038186803b15156112f057600080fd5b6102c65a03f4151561130157600080fd5b5050506040518051905050600173__DoublyLinkedList______________________639682eb129091730f66ec3df48ec1e216d24e225b772696e031b6986000604051602001526040518363ffffffff167c010000000000000000000000000000000000000000000000000000000002815260040180838152602001807f61000000000000000000000000000000000000000000000000000000000000008152506020018273ffffffffffffffffffffffffffffffffffffffff1673ffffffffffffffffffffffffffffffffffffffff1681526020019250505060206040518083038186803b15156113f257600080fd5b6102c65a03f4151561140357600080fd5b5050506040518051905050600273__DoublyLinkedList______________________63dfffdce390916103ea6000604051602001526040518363ffffffff167c010000000000000000000000000000000000000000000000000000000002815260040180838152602001807f61000000000000000000000000000000000000000000000000000000000000008152506020018281526020019250505060206040518083038186803b15156114b657600080fd5b6102c65a03f415156114c757600080fd5b5050506040518051905050600273__DoublyLinkedList______________________63dfffdce390916103eb6000604051602001526040518363ffffffff167c010000000000000000000000000000000000000000000000000000000002815260040180838152602001807f61000000000000000000000000000000000000000000000000000000000000008152506020018281526020019250505060206040518083038186803b151561157a57600080fd5b6102c65a03f4151561158b57600080fd5b5050506040518051905050600273__DoublyLinkedList______________________63dfffdce390916103ec6000604051602001526040518363ffffffff167c010000000000000000000000000000000000000000000000000000000002815260040180838152602001807f61000000000000000000000000000000000000000000000000000000000000008152506020018281526020019250505060206040518083038186803b151561163e57600080fd5b6102c65a03f4151561164f57600080fd5b5050506040518051905050600273__DoublyLinkedList______________________63dfffdce390916103ed6000604051602001526040518363ffffffff167c010000000000000000000000000000000000000000000000000000000002815260040180838152602001807f61000000000000000000000000000000000000000000000000000000000000008152506020018281526020019250505060206040518083038186803b151561170257600080fd5b6102c65a03f4151561171357600080fd5b5050506040518051905050600273__DoublyLinkedList______________________63dfffdce390916103ee6000604051602001526040518363ffffffff167c010000000000000000000000000000000000000000000000000000000002815260040180838152602001807f61000000000000000000000000000000000000000000000000000000000000008152506020018281526020019250505060206040518083038186803b15156117c657600080fd5b6102c65a03f415156117d757600080fd5b5050506040518051905050600273__DoublyLinkedList______________________63dfffdce390916103ef6000604051602001526040518363ffffffff167c010000000000000000000000000000000000000000000000000000000002815260040180838152602001807f61000000000000000000000000000000000000000000000000000000000000008152506020018281526020019250505060206040518083038186803b151561188a57600080fd5b6102c65a03f4151561189b57600080fd5b5050506040518051905050565b60006118b5600283611e19565b9050919050565b60006118c9600283611ec3565b9050919050565b60006118de60008484611f6d565b905092915050565b60006118f460018484612028565b905092915050565b600061190a60008484612107565b905092915050565b6000611920600184846121c2565b905092915050565b60006119356000836122a1565b9050919050565b600061194a6002848461234b565b905092915050565b600061195f6000836123fe565b9050919050565b600080600190505b60068111151561199c5761198e838260016124a89092919063ffffffff16565b50808060010191505061196e565b6000600173__DoublyLinkedList______________________6355a0a1bf9091866000604051602001526040518363ffffffff167c01000000000000000000000000000000000000000000000000000000000281526004018083815260200182600019166000191681526020019250505060206040518083038186803b1515611a2457600080fd5b6102c65a03f41515611a3557600080fd5b5050506040518051905014915050919050565b6000611a556001836124d9565b9050919050565b60008273__DoublyLinkedList______________________63b0c29efb9091846000604051602001526040518363ffffffff167c01000000000000000000000000000000000000000000000000000000000281526004018083815260200182600019166000191681526020019250505060206040518083038186803b1515611ae357600080fd5b6102c65a03f41515611af457600080fd5b50505060405180519050905092915050565b60008373__DoublyLinkedList______________________63bfbfe9d9909185856000604051602001526040518463ffffffff167c0100000000000000000000000000000000000000000000000000000000028152600401808481526020018360001916600019168152602001828152602001935050505060206040518083038186803b1515611b9557600080fd5b6102c65a03f41515611ba657600080fd5b5050506040518051905090509392505050565b6000611be1846000016000856000191660001916815260200190815260200160002083612583565b90509392505050565b60008273__DoublyLinkedList______________________63dbcdc19d9091846000604051602001526040518363ffffffff167c01000000000000000000000000000000000000000000000000000000000281526004018083815260200182600019166000191681526020019250505060206040518083038186803b1515611c7157600080fd5b6102c65a03f41515611c8257600080fd5b50505060405180519050905092915050565b60008273__DoublyLinkedList______________________63c501bf569091846000604051602001526040518363ffffffff167c01000000000000000000000000000000000000000000000000000000000281526004018083815260200182600019166000191681526020019250505060206040518083038186803b1515611d1b57600080fd5b6102c65a03f41515611d2c57600080fd5b50505060405180519050905092915050565b6000611d66846000016000856000191660001916815260200190815260200160002083612583565b90509392505050565b60008273__DoublyLinkedList______________________636e2d58059091846000604051602001526040518363ffffffff167c01000000000000000000000000000000000000000000000000000000000281526004018083815260200182600019166000191681526020019250505060206040518083038186803b1515611df657600080fd5b6102c65a03f41515611e0757600080fd5b50505060405180519050905092915050565b60008273__DoublyLinkedList______________________639f9b1c989091846000604051602001526040518363ffffffff167c01000000000000000000000000000000000000000000000000000000000281526004018083815260200182600019166000191681526020019250505060206040518083038186803b1515611ea057600080fd5b6102c65a03f41515611eb157600080fd5b50505060405180519050905092915050565b60008273__DoublyLinkedList______________________6311ef1f689091846000604051602001526040518363ffffffff167c01000000000000000000000000000000000000000000000000000000000281526004018083815260200182600019166000191681526020019250505060206040518083038186803b1515611f4a57600080fd5b6102c65a03f41515611f5b57600080fd5b50505060405180519050905092915050565b60008373__DoublyLinkedList______________________63f1f9d1c4909185856000604051602001526040518463ffffffff167c01000000000000000000000000000000000000000000000000000000000281526004018084815260200183600019166000191681526020018260001916600019168152602001935050505060206040518083038186803b151561200457600080fd5b6102c65a03f4151561201557600080fd5b5050506040518051905090509392505050565b60008373__DoublyLinkedList______________________6320482030909185856000604051602001526040518463ffffffff167c01000000000000000000000000000000000000000000000000000000000281526004018084815260200183600019166000191681526020018273ffffffffffffffffffffffffffffffffffffffff1673ffffffffffffffffffffffffffffffffffffffff168152602001935050505060206040518083038186803b15156120e357600080fd5b6102c65a03f415156120f457600080fd5b5050506040518051905090509392505050565b60008373__DoublyLinkedList______________________63d61488b7909185856000604051602001526040518463ffffffff167c01000000000000000000000000000000000000000000000000000000000281526004018084815260200183600019166000191681526020018260001916600019168152602001935050505060206040518083038186803b151561219e57600080fd5b6102c65a03f415156121af57600080fd5b5050506040518051905090509392505050565b60008373__DoublyLinkedList______________________63675a4ef0909185856000604051602001526040518463ffffffff167c01000000000000000000000000000000000000000000000000000000000281526004018084815260200183600019166000191681526020018273ffffffffffffffffffffffffffffffffffffffff1673ffffffffffffffffffffffffffffffffffffffff168152602001935050505060206040518083038186803b151561227d57600080fd5b6102c65a03f4151561228e57600080fd5b5050506040518051905090509392505050565b60008273__DoublyLinkedList______________________63d3209ca09091846000604051602001526040518363ffffffff167c01000000000000000000000000000000000000000000000000000000000281526004018083815260200182600019166000191681526020019250505060206040518083038186803b151561232857600080fd5b6102c65a03f4151561233957600080fd5b50505060405180519050905092915050565b60008373__DoublyLinkedList______________________634caf5c72909185856000604051602001526040518463ffffffff167c0100000000000000000000000000000000000000000000000000000000028152600401808481526020018360001916600019168152602001828152602001935050505060206040518083038186803b15156123da57600080fd5b6102c65a03f415156123eb57600080fd5b5050506040518051905090509392505050565b60008273__DoublyLinkedList______________________63706853de9091846000604051602001526040518363ffffffff167c01000000000000000000000000000000000000000000000000000000000281526004018083815260200182600019166000191681526020019250505060206040518083038186803b151561248557600080fd5b6102c65a03f4151561249657600080fd5b50505060405180519050905092915050565b60006124d0846000016000856000191660001916815260200190815260200160002083612583565b90509392505050565b60008273__DoublyLinkedList______________________6355a0a1bf9091846000604051602001526040518363ffffffff167c01000000000000000000000000000000000000000000000000000000000281526004018083815260200182600019166000191681526020019250505060206040518083038186803b151561256057600080fd5b6102c65a03f4151561257157600080fd5b50505060405180519050905092915050565b600061258d612770565b6001151584600401600085815260200190815260200160002060009054906101000a900460ff16151514156127645783600501600184038154811015156125d057fe5b9060005260206000209060030201606060405190810160405290816000820154600019166000191681526020016001820154815260200160028201548152505090506000816020015114156126315780604001518460000181905550612664565b806040015184600501600183602001510381548110151561264e57fe5b9060005260206000209060030201600201819055505b60008160400151141561268357806020015184600101819055506126b6565b80602001518460050160018360400151038154811015156126a057fe5b9060005260206000209060030201600101819055505b83600501600184038154811015156126ca57fe5b9060005260206000209060030201600080820160009055600182016000905560028201600090555050600084600401600085815260200190815260200160002060006101000a81548160ff0219169083151502179055508360030160008260000151600019166000191681526020019081526020016000206000905583600201600081548092919060019003919050555060019150612769565b600091505b5092915050565b60606040519081016040528060008019168152602001600081526020016000815250905600a165627a7a723058201b4d2fc87c85181a534858cd3fdbf5f7b4d32a294ae8245d146aa82dc64725d80029",
  "source": "pragma solidity ^0.4.19;\n\nimport \"../abstract/IndexedBytesIteratorStorage.sol\";\nimport \"../abstract/IndexedAddressIteratorStorage.sol\";\nimport \"../abstract/IndexedUintIteratorStorage.sol\";\n/**\n    @title Example Indexed Storage\n    @author DigixGlobal Pte Ltd\n */\ncontract ExampleIndexedStorage is IndexedBytesIteratorStorage, IndexedAddressIteratorStorage, IndexedUintIteratorStorage {\n\n  using DoublyLinkedList for DoublyLinkedList.IndexedBytes;\n  using DoublyLinkedList for DoublyLinkedList.IndexedAddress;\n  using DoublyLinkedList for DoublyLinkedList.IndexedUint;\n\n  DoublyLinkedList.IndexedBytes indexed_bytes_collection;\n  DoublyLinkedList.IndexedAddress indexed_address_collection;\n  DoublyLinkedList.IndexedUint indexed_uint_collection;\n\n  /**\n    @notice Constructor\n  */\n  function ExampleIndexedStorage() public {\n    initialize();\n  }\n\n  /**\n    @notice Initializes a list of collections\n  */\n  function initialize() public {\n    indexed_bytes_collection.append(\"a\", \"atest1\");\n    indexed_bytes_collection.append(\"a\", \"atest2\");\n    indexed_bytes_collection.append(\"a\", \"atest3\");\n    indexed_bytes_collection.append(\"a\", \"atest4\");\n    indexed_bytes_collection.append(\"a\", \"atest5\");\n    indexed_bytes_collection.append(\"a\", \"atest6\");\n    /*indexed_bytes_collection.append(\"b\", \"btest1\");\n    indexed_bytes_collection.append(\"b\", \"btest2\");\n    indexed_bytes_collection.append(\"b\", \"btest3\");\n    indexed_bytes_collection.append(\"b\", \"btest4\");\n    indexed_bytes_collection.append(\"b\", \"btest5\");*/\n    indexed_address_collection.append(\"a\", 0x7812421a7579d8182DC6f2B68Ab56595db01553F);\n    indexed_address_collection.append(\"a\", 0x419f0a80D85f3C7dC3553394d91c9A339332a01E);\n    indexed_address_collection.append(\"a\", 0xF5dFE2A3f8Cf5CA8723b51be6fc065beA0cFE893);\n    indexed_address_collection.append(\"a\", 0x5dc52D499a77af45f43174CFE7982dC68c331c38);\n    indexed_address_collection.append(\"a\", 0x727C89006bd885f9A77254797a362d69E8A1f4da);\n    indexed_address_collection.append(\"a\", 0x0F66eC3DF48eC1E216D24e225b772696e031B698);\n\t\t/*indexed_address_collection.append(\"b\", 0x0F66eC3DF48eC1E216D24e225b772696e031B698);\n\t\tindexed_address_collection.append(\"b\", 0x755eAc40A9017B52b6d811A2Ee3f495D08afb5eD);\n\t\tindexed_address_collection.append(\"b\", 0xFd59C5dBB42666CF99a714EE5286C0280B6002Bd);\n\t\tindexed_address_collection.append(\"b\", 0xF8954DA58BA81BFC29B5651029A71B0693b6Cd98);\n\t\tindexed_address_collection.append(\"b\", 0x027a8620cAD4d536F3C2F9Fdeeb4490b1fa6833b);*/\n\n    indexed_uint_collection.append(\"a\", 1002);\n    indexed_uint_collection.append(\"a\", 1003);\n    indexed_uint_collection.append(\"a\", 1004);\n    indexed_uint_collection.append(\"a\", 1005);\n    indexed_uint_collection.append(\"a\", 1006);\n    indexed_uint_collection.append(\"a\", 1007);\n\n    /*indexed_uint_collection.append(\"b\", 2002);\n    indexed_uint_collection.append(\"b\", 2003);\n    indexed_uint_collection.append(\"b\", 2004);\n    indexed_uint_collection.append(\"b\", 2005);\n    indexed_uint_collection.append(\"b\", 2006);*/\n  }\n\n  /**\n    @notice Removes all data in the Indexed Bytes Collection\n    @param _collection_index The source collection to be delete\n    @return {\"_success\":\"True if all items were successfully removed\"}d\n  */\n  function remove_all_data_in_indexed_bytes_collection(bytes32 _collection_index)\n           public\n           returns (bool _success)\n  {\n    for (uint256 i=1;i<=6;i++) {\n      indexed_bytes_collection.remove(_collection_index, i);\n    }\n    _success = indexed_bytes_collection.total(_collection_index) == 0;\n  }\n\n  /**\n    @notice Removes all data in the Indexed Addreses collection\n    @param _collection_index The source collection to be deleted\n    @return {\"_success\":\"True if all items were successfully removed\"}\n  */\n  function remove_all_data_in_indexed_addresses_collection(bytes32 _collection_index)\n           public\n           returns (bool _success)\n  {\n    for (uint256 i=1;i<=6;i++) {\n      indexed_address_collection.remove(_collection_index, i);\n    }\n    _success = indexed_address_collection.total(_collection_index) == 0;\n  }\n\n  /**\n    @notice Removes all data in the Indexed Uints collection\n    @param _collection_index The source collection to be deleted\n    @return {\"_item\":\"Collection item\"}\n  */\n  function remove_all_data_in_indexed_uints_collection(bytes32 _collection_index)\n           public\n           returns (bool _success)\n  {\n    for (uint256 i=1;i<=6;i++) {\n      indexed_uint_collection.remove(_collection_index, i);\n    }\n    _success = indexed_uint_collection.total(_collection_index) == 0;\n  }\n\n  /**\n    @notice Reads the first item in the Indexed Bytes collection\n    @param _collection_index The source collection to be evaluate\n    @return {\"_item\":\"Collection item\"}\n  */\n  function read_first_in_indexed_bytes_collection(bytes32 _collection_index)\n           public\n           constant\n           returns (bytes32 _item)\n  {\n    _item = read_first_from_indexed_bytesarray(indexed_bytes_collection, _collection_index);\n  }\n\n  /**\n    @notice Reads the last item in the Indexed Bytes collection\n    @param _collection_index The source collection to evaluate\n    @return {\"_item\":\"Collection item\"}\n  */\n  function read_last_in_indexed_bytes_collection(bytes32 _collection_index)\n           public\n           constant\n           returns (bytes32 _item)\n  {\n    _item = read_last_from_indexed_bytesarray(indexed_bytes_collection, _collection_index);\n  }\n\n  /**\n    @notice Reads the Next Indexed Bytes collection from the specified `_collection_index` and `_current_item`\n    @param _collection_index The source collection to evaluate\n    @param _current_item The item to be used as base line\n    @return {\"_item\":\"Collection item\"}\n  */\n  function read_next_in_indexed_bytes_collection(bytes32 _collection_index, bytes32 _current_item)\n           public\n           constant\n           returns (bytes32 _item)\n  {\n    _item = read_next_from_indexed_bytesarray(indexed_bytes_collection, _collection_index, _current_item);\n  }\n\n  /**\n    @notice Reads the Previous Indexed Bytes collection from the specified `_collection_index` and `_current_item`\n    @param _collection_index The source collection to evaluate\n    @param _current_item The item to be used as base line\n    @return {\"_item\":\"Collection item\"}\n  */\n  function read_previous_in_indexed_bytes_collection(bytes32 _collection_index, bytes32 _current_item)\n           public\n           constant\n           returns (bytes32 _item)\n  {\n    _item = read_previous_from_indexed_bytesarray(indexed_bytes_collection, _collection_index, _current_item);\n  }\n\n  /**\n    @notice Reads the Total number of items in an Indexed Bytes collection\n    @param _collection_index The source collection to evaluate\n    @return {\"_item\":\"Collection item\"}\n  */\n  function read_total_in_indexed_bytes_collection(bytes32 _collection_index)\n           public\n           constant\n           returns (uint256 _total_count)\n  {\n    _total_count = read_total_indexed_bytesarray(indexed_bytes_collection, _collection_index);\n  }\n\n  /**\n    @notice Reads the First item in an Indexed Address collection\n    @param _collection_index The source collection to evaluate\n    @return {\"_item\":\"Collection item\"}\n  */\n  function read_first_in_indexed_addresses_collection(bytes32 _collection_index)\n           public\n           constant\n           returns (address _item)\n  {\n    _item = read_first_from_indexed_addresses(indexed_address_collection, _collection_index);\n  }\n\n  /**\n    @notice Reads the Last item in an Indexed Addresses collection\n    @param _collection_index The source collection to evaluate\n    @return {\"_item\":\"Collection item\"}\n  */\n  function read_last_in_indexed_addresses_collection(bytes32 _collection_index)\n           public\n           constant\n           returns (address _item)\n  {\n    _item = read_last_from_indexed_addresses(indexed_address_collection, _collection_index);\n  }\n\n  /**\n    @notice Reads the Next item from an Indexed Addresses collection using the specified `_collection_index` and `_current_item`\n    @param _collection_index The source collection to evaluate\n    @return {\"_item\":\"Collection item\"}\n  */\n  function read_next_in_indexed_addresses_collection(bytes32 _collection_index, address _current_item)\n           public\n           constant\n           returns (address _item)\n  {\n    _item = read_next_from_indexed_addresses(indexed_address_collection, _collection_index, _current_item);\n  }\n\n  /**\n    @notice Reads the Previous item from an Indexed Addresses collection using the specified `_collection_index` and `_current_item`\n    @param _collection_index The source collection to evaluate\n    @return {\"_item\":\"Collection item\"}\n  */\n  function read_previous_in_indexed_addresses_collection(bytes32 _collection_index, address _current_item)\n           public\n           constant\n           returns (address _item)\n  {\n    _item = read_previous_from_indexed_addresses(indexed_address_collection, _collection_index, _current_item);\n  }\n\n  /**\n    @notice Reads the Total number of items in an Indexed Addresses collection\n    @param _collection_index The source collection to evaluate\n    @return {\"_total_count\":\"Total number of items\"}\n  */\n  function read_total_in_indexed_addresses_collection(bytes32 _collection_index)\n           public\n           constant\n           returns (uint256 _total_count)\n  {\n    _total_count = read_total_indexed_addresses(indexed_address_collection, _collection_index);\n  }\n\n  /**\n    @notice Reads the First item in an Indexed Uints collection\n    @param _collection_index The source collection to evaluate\n    @return {\"_item\":\"Collection item\"}\n  */\n  function read_first_in_indexed_uints_collection(bytes32 _collection_index)\n           public\n           constant\n           returns (uint256 _item)\n  {\n    _item = read_first_from_indexed_uints(indexed_uint_collection, _collection_index);\n  }\n\n  /**\n    @notice Reads the Last item in an Indexed Uints collection\n    @param _collection_index The source collection to evaluate\n    @return {\"_item\":\"Collection item\"}\n  */\n  function read_last_in_indexed_uints_collection(bytes32 _collection_index)\n           public\n           constant\n           returns (uint256 _item)\n  {\n    _item = read_last_from_indexed_uints(indexed_uint_collection, _collection_index);\n  }\n\n  /**\n    @notice Reads the Next item from an Indexed Uints collection using the specified `_collection_index` and `_current_item`\n    @param _collection_index The source collection to evaluate\n    @return {\"_item\":\"Collection item\"}\n  */\n  function read_next_in_indexed_uints_collection(bytes32 _collection_index, uint256 _current_item)\n           public\n           constant\n           returns (uint256 _item)\n  {\n    _item = read_next_from_indexed_uints(indexed_uint_collection, _collection_index, _current_item);\n  }\n\n  /**\n    @notice Reads the Previous item from an Indexed Uints collection using the specified `_collection_index` and `_current_item`\n    @param _collection_index The source collection to evaluate\n    @return {\"_item\":\"Collection item\"}\n  */\n  function read_previous_in_indexed_uints_collection(bytes32 _collection_index, uint256 _current_item)\n           public\n           constant\n           returns (uint256 _item)\n  {\n    _item = read_previous_from_indexed_uints(indexed_uint_collection, _collection_index, _current_item);\n  }\n\n  /**\n    @notice Reads the Total number of items in an Indexed Uints collection\n    @param _collection_index The source collection to evaluate\n    @return {\"_total_count\":\"Total number of items\"}\n  */\n  function read_total_in_indexed_uints_collection(bytes32 _collection_index)\n           public\n           constant\n           returns (uint256 _total_count)\n  {\n    _total_count = read_total_indexed_uints(indexed_uint_collection, _collection_index);\n  }\n}\n",
  "sourcePath": "/home/rohit/Develop/solidity-collections-library/contracts/examples/ExampleIndexedStorage.sol",
  "compiler": {
    "name": "solc",
    "version": "0.4.19+commit.c4cbbb05.Emscripten.clang"
  },
  "schemaVersion": "1.0.1",
  "updatedAt": "2018-03-07T03:38:46.683Z"
}