{
  "contractName": "ExampleStorage",
  "abi": [
    {
      "inputs": [],
      "payable": false,
      "stateMutability": "nonpayable",
      "type": "constructor"
    },
    {
      "constant": false,
      "inputs": [],
      "name": "initialize",
      "outputs": [],
      "payable": false,
      "stateMutability": "nonpayable",
      "type": "function"
    },
    {
      "constant": false,
      "inputs": [],
      "name": "remove_all_data_in_bytes_collection",
      "outputs": [
        {
          "name": "_success",
          "type": "bool"
        }
      ],
      "payable": false,
      "stateMutability": "nonpayable",
      "type": "function"
    },
    {
      "constant": false,
      "inputs": [],
      "name": "remove_all_data_in_addresses_collection",
      "outputs": [
        {
          "name": "_success",
          "type": "bool"
        }
      ],
      "payable": false,
      "stateMutability": "nonpayable",
      "type": "function"
    },
    {
      "constant": false,
      "inputs": [],
      "name": "remove_all_data_in_uints_collection",
      "outputs": [
        {
          "name": "_success",
          "type": "bool"
        }
      ],
      "payable": false,
      "stateMutability": "nonpayable",
      "type": "function"
    },
    {
      "constant": true,
      "inputs": [],
      "name": "read_first_in_bytes_collection",
      "outputs": [
        {
          "name": "_item",
          "type": "bytes32"
        }
      ],
      "payable": false,
      "stateMutability": "view",
      "type": "function"
    },
    {
      "constant": true,
      "inputs": [],
      "name": "read_last_in_bytes_collection",
      "outputs": [
        {
          "name": "_item",
          "type": "bytes32"
        }
      ],
      "payable": false,
      "stateMutability": "view",
      "type": "function"
    },
    {
      "constant": true,
      "inputs": [
        {
          "name": "_current_item",
          "type": "bytes32"
        }
      ],
      "name": "read_next_in_bytes_collection",
      "outputs": [
        {
          "name": "_item",
          "type": "bytes32"
        }
      ],
      "payable": false,
      "stateMutability": "view",
      "type": "function"
    },
    {
      "constant": true,
      "inputs": [
        {
          "name": "_current_item",
          "type": "bytes32"
        }
      ],
      "name": "read_previous_in_bytes_collection",
      "outputs": [
        {
          "name": "_item",
          "type": "bytes32"
        }
      ],
      "payable": false,
      "stateMutability": "view",
      "type": "function"
    },
    {
      "constant": true,
      "inputs": [],
      "name": "read_total_in_bytes_collection",
      "outputs": [
        {
          "name": "_total_count",
          "type": "uint256"
        }
      ],
      "payable": false,
      "stateMutability": "view",
      "type": "function"
    },
    {
      "constant": true,
      "inputs": [],
      "name": "read_first_in_addresses_collection",
      "outputs": [
        {
          "name": "_item",
          "type": "address"
        }
      ],
      "payable": false,
      "stateMutability": "view",
      "type": "function"
    },
    {
      "constant": true,
      "inputs": [],
      "name": "read_last_in_addresses_collection",
      "outputs": [
        {
          "name": "_item",
          "type": "address"
        }
      ],
      "payable": false,
      "stateMutability": "view",
      "type": "function"
    },
    {
      "constant": true,
      "inputs": [
        {
          "name": "_current_item",
          "type": "address"
        }
      ],
      "name": "read_next_in_addresses_collection",
      "outputs": [
        {
          "name": "_item",
          "type": "address"
        }
      ],
      "payable": false,
      "stateMutability": "view",
      "type": "function"
    },
    {
      "constant": true,
      "inputs": [
        {
          "name": "_current_item",
          "type": "address"
        }
      ],
      "name": "read_previous_in_addresses_collection",
      "outputs": [
        {
          "name": "_item",
          "type": "address"
        }
      ],
      "payable": false,
      "stateMutability": "view",
      "type": "function"
    },
    {
      "constant": true,
      "inputs": [],
      "name": "read_total_in_addresses_collection",
      "outputs": [
        {
          "name": "_total_count",
          "type": "uint256"
        }
      ],
      "payable": false,
      "stateMutability": "view",
      "type": "function"
    },
    {
      "constant": true,
      "inputs": [],
      "name": "read_first_in_uints_collection",
      "outputs": [
        {
          "name": "_item",
          "type": "uint256"
        }
      ],
      "payable": false,
      "stateMutability": "view",
      "type": "function"
    },
    {
      "constant": true,
      "inputs": [],
      "name": "read_last_in_uints_collection",
      "outputs": [
        {
          "name": "_item",
          "type": "uint256"
        }
      ],
      "payable": false,
      "stateMutability": "view",
      "type": "function"
    },
    {
      "constant": true,
      "inputs": [
        {
          "name": "_current_item",
          "type": "uint256"
        }
      ],
      "name": "read_next_in_uints_collection",
      "outputs": [
        {
          "name": "_item",
          "type": "uint256"
        }
      ],
      "payable": false,
      "stateMutability": "view",
      "type": "function"
    },
    {
      "constant": true,
      "inputs": [
        {
          "name": "_current_item",
          "type": "uint256"
        }
      ],
      "name": "read_previous_in_uints_collection",
      "outputs": [
        {
          "name": "_item",
          "type": "uint256"
        }
      ],
      "payable": false,
      "stateMutability": "view",
      "type": "function"
    },
    {
      "constant": true,
      "inputs": [],
      "name": "read_total_in_uints_collection",
      "outputs": [
        {
          "name": "_total_count",
          "type": "uint256"
        }
      ],
      "payable": false,
      "stateMutability": "view",
      "type": "function"
    }
  ],
  "bytecode": "0x606060405234156200001057600080fd5b6200002e620000346401000000000262000793176401000000009004565b62000d7a565b600073__DoublyLinkedList______________________63582f30b490916000604051602001526040518263ffffffff167c010000000000000000000000000000000000000000000000000000000002815260040180828152602001807f746573743100000000000000000000000000000000000000000000000000000081525060200191505060206040518083038186803b1515620000d357600080fd5b6102c65a03f41515620000e557600080fd5b5050506040518051905050600073__DoublyLinkedList______________________63582f30b490916000604051602001526040518263ffffffff167c010000000000000000000000000000000000000000000000000000000002815260040180828152602001807f746573743200000000000000000000000000000000000000000000000000000081525060200191505060206040518083038186803b15156200018f57600080fd5b6102c65a03f41515620001a157600080fd5b5050506040518051905050600073__DoublyLinkedList______________________63582f30b490916000604051602001526040518263ffffffff167c010000000000000000000000000000000000000000000000000000000002815260040180828152602001807f746573743300000000000000000000000000000000000000000000000000000081525060200191505060206040518083038186803b15156200024b57600080fd5b6102c65a03f415156200025d57600080fd5b5050506040518051905050600073__DoublyLinkedList______________________63582f30b490916000604051602001526040518263ffffffff167c010000000000000000000000000000000000000000000000000000000002815260040180828152602001807f746573743400000000000000000000000000000000000000000000000000000081525060200191505060206040518083038186803b15156200030757600080fd5b6102c65a03f415156200031957600080fd5b5050506040518051905050600073__DoublyLinkedList______________________63582f30b490916000604051602001526040518263ffffffff167c010000000000000000000000000000000000000000000000000000000002815260040180828152602001807f746573743500000000000000000000000000000000000000000000000000000081525060200191505060206040518083038186803b1515620003c357600080fd5b6102c65a03f41515620003d557600080fd5b5050506040518051905050600073__DoublyLinkedList______________________63582f30b490916000604051602001526040518263ffffffff167c010000000000000000000000000000000000000000000000000000000002815260040180828152602001807f746573743600000000000000000000000000000000000000000000000000000081525060200191505060206040518083038186803b15156200047f57600080fd5b6102c65a03f415156200049157600080fd5b5050506040518051905050600673__DoublyLinkedList______________________63bf8a2ac69091737812421a7579d8182dc6f2b68ab56595db01553f6000604051602001526040518363ffffffff167c0100000000000000000000000000000000000000000000000000000000028152600401808381526020018273ffffffffffffffffffffffffffffffffffffffff1673ffffffffffffffffffffffffffffffffffffffff1681526020019250505060206040518083038186803b15156200055b57600080fd5b6102c65a03f415156200056d57600080fd5b5050506040518051905050600673__DoublyLinkedList______________________63bf8a2ac6909173419f0a80d85f3c7dc3553394d91c9a339332a01e6000604051602001526040518363ffffffff167c0100000000000000000000000000000000000000000000000000000000028152600401808381526020018273ffffffffffffffffffffffffffffffffffffffff1673ffffffffffffffffffffffffffffffffffffffff1681526020019250505060206040518083038186803b15156200063757600080fd5b6102c65a03f415156200064957600080fd5b5050506040518051905050600673__DoublyLinkedList______________________63bf8a2ac6909173f5dfe2a3f8cf5ca8723b51be6fc065bea0cfe8936000604051602001526040518363ffffffff167c0100000000000000000000000000000000000000000000000000000000028152600401808381526020018273ffffffffffffffffffffffffffffffffffffffff1673ffffffffffffffffffffffffffffffffffffffff1681526020019250505060206040518083038186803b15156200071357600080fd5b6102c65a03f415156200072557600080fd5b5050506040518051905050600673__DoublyLinkedList______________________63bf8a2ac69091735dc52d499a77af45f43174cfe7982dc68c331c386000604051602001526040518363ffffffff167c0100000000000000000000000000000000000000000000000000000000028152600401808381526020018273ffffffffffffffffffffffffffffffffffffffff1673ffffffffffffffffffffffffffffffffffffffff1681526020019250505060206040518083038186803b1515620007ef57600080fd5b6102c65a03f415156200080157600080fd5b5050506040518051905050600673__DoublyLinkedList______________________63bf8a2ac6909173727c89006bd885f9a77254797a362d69e8a1f4da6000604051602001526040518363ffffffff167c0100000000000000000000000000000000000000000000000000000000028152600401808381526020018273ffffffffffffffffffffffffffffffffffffffff1673ffffffffffffffffffffffffffffffffffffffff1681526020019250505060206040518083038186803b1515620008cb57600080fd5b6102c65a03f41515620008dd57600080fd5b5050506040518051905050600673__DoublyLinkedList______________________63bf8a2ac69091730f66ec3df48ec1e216d24e225b772696e031b6986000604051602001526040518363ffffffff167c0100000000000000000000000000000000000000000000000000000000028152600401808381526020018273ffffffffffffffffffffffffffffffffffffffff1673ffffffffffffffffffffffffffffffffffffffff1681526020019250505060206040518083038186803b1515620009a757600080fd5b6102c65a03f41515620009b957600080fd5b5050506040518051905050600c73__DoublyLinkedList______________________63d372d5f690916103ea6000604051602001526040518363ffffffff167c0100000000000000000000000000000000000000000000000000000000028152600401808381526020018281526020019250505060206040518083038186803b151562000a4557600080fd5b6102c65a03f4151562000a5757600080fd5b5050506040518051905050600c73__DoublyLinkedList______________________63d372d5f690916103eb6000604051602001526040518363ffffffff167c0100000000000000000000000000000000000000000000000000000000028152600401808381526020018281526020019250505060206040518083038186803b151562000ae357600080fd5b6102c65a03f4151562000af557600080fd5b5050506040518051905050600c73__DoublyLinkedList______________________63d372d5f690916103ec6000604051602001526040518363ffffffff167c0100000000000000000000000000000000000000000000000000000000028152600401808381526020018281526020019250505060206040518083038186803b151562000b8157600080fd5b6102c65a03f4151562000b9357600080fd5b5050506040518051905050600c73__DoublyLinkedList______________________63d372d5f690916103ed6000604051602001526040518363ffffffff167c0100000000000000000000000000000000000000000000000000000000028152600401808381526020018281526020019250505060206040518083038186803b151562000c1f57600080fd5b6102c65a03f4151562000c3157600080fd5b5050506040518051905050600c73__DoublyLinkedList______________________63d372d5f690916103ee6000604051602001526040518363ffffffff167c0100000000000000000000000000000000000000000000000000000000028152600401808381526020018281526020019250505060206040518083038186803b151562000cbd57600080fd5b6102c65a03f4151562000ccf57600080fd5b5050506040518051905050600c73__DoublyLinkedList______________________63d372d5f690916103ef6000604051602001526040518363ffffffff167c0100000000000000000000000000000000000000000000000000000000028152600401808381526020018281526020019250505060206040518083038186803b151562000d5b57600080fd5b6102c65a03f4151562000d6d57600080fd5b5050506040518051905050565b61221b8062000d8a6000396000f300606060405260043610610107576000357c0100000000000000000000000000000000000000000000000000000000900463ffffffff16806345bf0b351461010c57806358eccb9914610135578063656a39c514610162578063668bcc25146101a557806369ed120c146101fa5780636cc8f9f1146102275780636eba73be146102585780637780b119146102d1578063778636be146103085780637e5ce6d7146103395780638129fc1c146103625780638448703f14610377578063890cf1d6146103a457806392eb1a8b146103f9578063938af62a14610422578063aace0f5614610465578063bad606111461048e578063bc3d8d85146104b7578063f883f79314610530575b600080fd5b341561011757600080fd5b61011f610567565b6040518082815260200191505060405180910390f35b341561014057600080fd5b610148610578565b604051808215151515815260200191505060405180910390f35b341561016d57600080fd5b610187600480803560001916906020019091905050610645565b60405180826000191660001916815260200191505060405180910390f35b34156101b057600080fd5b6101b8610659565b604051808273ffffffffffffffffffffffffffffffffffffffff1673ffffffffffffffffffffffffffffffffffffffff16815260200191505060405180910390f35b341561020557600080fd5b61020d61066a565b604051808215151515815260200191505060405180910390f35b341561023257600080fd5b61023a610738565b60405180826000191660001916815260200191505060405180910390f35b341561026357600080fd5b61028f600480803573ffffffffffffffffffffffffffffffffffffffff16906020019091905050610749565b604051808273ffffffffffffffffffffffffffffffffffffffff1673ffffffffffffffffffffffffffffffffffffffff16815260200191505060405180910390f35b34156102dc57600080fd5b6102f2600480803590602001909190505061075d565b6040518082815260200191505060405180910390f35b341561031357600080fd5b61031b610771565b60405180826000191660001916815260200191505060405180910390f35b341561034457600080fd5b61034c610782565b6040518082815260200191505060405180910390f35b341561036d57600080fd5b610375610793565b005b341561038257600080fd5b61038a6114b5565b604051808215151515815260200191505060405180910390f35b34156103af57600080fd5b6103b7611583565b604051808273ffffffffffffffffffffffffffffffffffffffff1673ffffffffffffffffffffffffffffffffffffffff16815260200191505060405180910390f35b341561040457600080fd5b61040c611594565b6040518082815260200191505060405180910390f35b341561042d57600080fd5b6104476004808035600019169060200190919050506115a5565b60405180826000191660001916815260200191505060405180910390f35b341561047057600080fd5b6104786115b9565b6040518082815260200191505060405180910390f35b341561049957600080fd5b6104a16115ca565b6040518082815260200191505060405180910390f35b34156104c257600080fd5b6104ee600480803573ffffffffffffffffffffffffffffffffffffffff169060200190919050506115db565b604051808273ffffffffffffffffffffffffffffffffffffffff1673ffffffffffffffffffffffffffffffffffffffff16815260200191505060405180910390f35b341561053b57600080fd5b61055160048080359060200190919050506115ef565b6040518082815260200191505060405180910390f35b60006105736000611603565b905090565b600080600190505b6006811115156105ac5761059e81600061169c90919063ffffffff16565b508080600101915050610580565b60008073__DoublyLinkedList______________________630f77955290916000604051602001526040518263ffffffff167c01000000000000000000000000000000000000000000000000000000000281526004018082815260200191505060206040518083038186803b151561062357600080fd5b6102c65a03f4151561063457600080fd5b505050604051805190501491505090565b60006106526000836116b3565b9050919050565b6000610665600661175d565b905090565b600080600190505b60068111151561069e5761069081600c6117f690919063ffffffff16565b508080600101915050610672565b6000600c73__DoublyLinkedList______________________633ae6974290916000604051602001526040518263ffffffff167c01000000000000000000000000000000000000000000000000000000000281526004018082815260200191505060206040518083038186803b151561071657600080fd5b6102c65a03f4151561072757600080fd5b505050604051805190501491505090565b6000610744600061180d565b905090565b60006107566006836118a6565b9050919050565b600061076a600c83611974565b9050919050565b600061077d6000611a16565b905090565b600061078e600c611aaf565b905090565b600073__DoublyLinkedList______________________63582f30b490916000604051602001526040518263ffffffff167c010000000000000000000000000000000000000000000000000000000002815260040180828152602001807f746573743100000000000000000000000000000000000000000000000000000081525060200191505060206040518083038186803b151561083157600080fd5b6102c65a03f4151561084257600080fd5b5050506040518051905050600073__DoublyLinkedList______________________63582f30b490916000604051602001526040518263ffffffff167c010000000000000000000000000000000000000000000000000000000002815260040180828152602001807f746573743200000000000000000000000000000000000000000000000000000081525060200191505060206040518083038186803b15156108eb57600080fd5b6102c65a03f415156108fc57600080fd5b5050506040518051905050600073__DoublyLinkedList______________________63582f30b490916000604051602001526040518263ffffffff167c010000000000000000000000000000000000000000000000000000000002815260040180828152602001807f746573743300000000000000000000000000000000000000000000000000000081525060200191505060206040518083038186803b15156109a557600080fd5b6102c65a03f415156109b657600080fd5b5050506040518051905050600073__DoublyLinkedList______________________63582f30b490916000604051602001526040518263ffffffff167c010000000000000000000000000000000000000000000000000000000002815260040180828152602001807f746573743400000000000000000000000000000000000000000000000000000081525060200191505060206040518083038186803b1515610a5f57600080fd5b6102c65a03f41515610a7057600080fd5b5050506040518051905050600073__DoublyLinkedList______________________63582f30b490916000604051602001526040518263ffffffff167c010000000000000000000000000000000000000000000000000000000002815260040180828152602001807f746573743500000000000000000000000000000000000000000000000000000081525060200191505060206040518083038186803b1515610b1957600080fd5b6102c65a03f41515610b2a57600080fd5b5050506040518051905050600073__DoublyLinkedList______________________63582f30b490916000604051602001526040518263ffffffff167c010000000000000000000000000000000000000000000000000000000002815260040180828152602001807f746573743600000000000000000000000000000000000000000000000000000081525060200191505060206040518083038186803b1515610bd357600080fd5b6102c65a03f41515610be457600080fd5b5050506040518051905050600673__DoublyLinkedList______________________63bf8a2ac69091737812421a7579d8182dc6f2b68ab56595db01553f6000604051602001526040518363ffffffff167c0100000000000000000000000000000000000000000000000000000000028152600401808381526020018273ffffffffffffffffffffffffffffffffffffffff1673ffffffffffffffffffffffffffffffffffffffff1681526020019250505060206040518083038186803b1515610cad57600080fd5b6102c65a03f41515610cbe57600080fd5b5050506040518051905050600673__DoublyLinkedList______________________63bf8a2ac6909173419f0a80d85f3c7dc3553394d91c9a339332a01e6000604051602001526040518363ffffffff167c0100000000000000000000000000000000000000000000000000000000028152600401808381526020018273ffffffffffffffffffffffffffffffffffffffff1673ffffffffffffffffffffffffffffffffffffffff1681526020019250505060206040518083038186803b1515610d8757600080fd5b6102c65a03f41515610d9857600080fd5b5050506040518051905050600673__DoublyLinkedList______________________63bf8a2ac6909173f5dfe2a3f8cf5ca8723b51be6fc065bea0cfe8936000604051602001526040518363ffffffff167c0100000000000000000000000000000000000000000000000000000000028152600401808381526020018273ffffffffffffffffffffffffffffffffffffffff1673ffffffffffffffffffffffffffffffffffffffff1681526020019250505060206040518083038186803b1515610e6157600080fd5b6102c65a03f41515610e7257600080fd5b5050506040518051905050600673__DoublyLinkedList______________________63bf8a2ac69091735dc52d499a77af45f43174cfe7982dc68c331c386000604051602001526040518363ffffffff167c0100000000000000000000000000000000000000000000000000000000028152600401808381526020018273ffffffffffffffffffffffffffffffffffffffff1673ffffffffffffffffffffffffffffffffffffffff1681526020019250505060206040518083038186803b1515610f3b57600080fd5b6102c65a03f41515610f4c57600080fd5b5050506040518051905050600673__DoublyLinkedList______________________63bf8a2ac6909173727c89006bd885f9a77254797a362d69e8a1f4da6000604051602001526040518363ffffffff167c0100000000000000000000000000000000000000000000000000000000028152600401808381526020018273ffffffffffffffffffffffffffffffffffffffff1673ffffffffffffffffffffffffffffffffffffffff1681526020019250505060206040518083038186803b151561101557600080fd5b6102c65a03f4151561102657600080fd5b5050506040518051905050600673__DoublyLinkedList______________________63bf8a2ac69091730f66ec3df48ec1e216d24e225b772696e031b6986000604051602001526040518363ffffffff167c0100000000000000000000000000000000000000000000000000000000028152600401808381526020018273ffffffffffffffffffffffffffffffffffffffff1673ffffffffffffffffffffffffffffffffffffffff1681526020019250505060206040518083038186803b15156110ef57600080fd5b6102c65a03f4151561110057600080fd5b5050506040518051905050600c73__DoublyLinkedList______________________63d372d5f690916103ea6000604051602001526040518363ffffffff167c0100000000000000000000000000000000000000000000000000000000028152600401808381526020018281526020019250505060206040518083038186803b151561118b57600080fd5b6102c65a03f4151561119c57600080fd5b5050506040518051905050600c73__DoublyLinkedList______________________63d372d5f690916103eb6000604051602001526040518363ffffffff167c0100000000000000000000000000000000000000000000000000000000028152600401808381526020018281526020019250505060206040518083038186803b151561122757600080fd5b6102c65a03f4151561123857600080fd5b5050506040518051905050600c73__DoublyLinkedList______________________63d372d5f690916103ec6000604051602001526040518363ffffffff167c0100000000000000000000000000000000000000000000000000000000028152600401808381526020018281526020019250505060206040518083038186803b15156112c357600080fd5b6102c65a03f415156112d457600080fd5b5050506040518051905050600c73__DoublyLinkedList______________________63d372d5f690916103ed6000604051602001526040518363ffffffff167c0100000000000000000000000000000000000000000000000000000000028152600401808381526020018281526020019250505060206040518083038186803b151561135f57600080fd5b6102c65a03f4151561137057600080fd5b5050506040518051905050600c73__DoublyLinkedList______________________63d372d5f690916103ee6000604051602001526040518363ffffffff167c0100000000000000000000000000000000000000000000000000000000028152600401808381526020018281526020019250505060206040518083038186803b15156113fb57600080fd5b6102c65a03f4151561140c57600080fd5b5050506040518051905050600c73__DoublyLinkedList______________________63d372d5f690916103ef6000604051602001526040518363ffffffff167c0100000000000000000000000000000000000000000000000000000000028152600401808381526020018281526020019250505060206040518083038186803b151561149757600080fd5b6102c65a03f415156114a857600080fd5b5050506040518051905050565b600080600190505b6006811115156114e9576114db816006611b4890919063ffffffff16565b5080806001019150506114bd565b6000600673__DoublyLinkedList______________________6312e3853d90916000604051602001526040518263ffffffff167c01000000000000000000000000000000000000000000000000000000000281526004018082815260200191505060206040518083038186803b151561156157600080fd5b6102c65a03f4151561157257600080fd5b505050604051805190501491505090565b600061158f6006611b5f565b905090565b60006115a0600c611bf8565b905090565b60006115b2600083611c91565b9050919050565b60006115c56006611d3b565b905090565b60006115d6600c611dd4565b905090565b60006115e8600683611e6d565b9050919050565b60006115fc600c83611f3b565b9050919050565b60008173__DoublyLinkedList______________________630f77955290916000604051602001526040518263ffffffff167c01000000000000000000000000000000000000000000000000000000000281526004018082815260200191505060206040518083038186803b151561167a57600080fd5b6102c65a03f4151561168b57600080fd5b505050604051805190509050919050565b60006116ab8360000183611fdd565b905092915050565b60008273__DoublyLinkedList______________________63cf06689d9091846000604051602001526040518363ffffffff167c01000000000000000000000000000000000000000000000000000000000281526004018083815260200182600019166000191681526020019250505060206040518083038186803b151561173a57600080fd5b6102c65a03f4151561174b57600080fd5b50505060405180519050905092915050565b60008173__DoublyLinkedList______________________63f46574aa90916000604051602001526040518263ffffffff167c01000000000000000000000000000000000000000000000000000000000281526004018082815260200191505060206040518083038186803b15156117d457600080fd5b6102c65a03f415156117e557600080fd5b505050604051805190509050919050565b60006118058360000183611fdd565b905092915050565b60008173__DoublyLinkedList______________________6356717c7990916000604051602001526040518263ffffffff167c01000000000000000000000000000000000000000000000000000000000281526004018082815260200191505060206040518083038186803b151561188457600080fd5b6102c65a03f4151561189557600080fd5b505050604051805190509050919050565b60008273__DoublyLinkedList______________________6387fca8a69091846000604051602001526040518363ffffffff167c0100000000000000000000000000000000000000000000000000000000028152600401808381526020018273ffffffffffffffffffffffffffffffffffffffff1673ffffffffffffffffffffffffffffffffffffffff1681526020019250505060206040518083038186803b151561195157600080fd5b6102c65a03f4151561196257600080fd5b50505060405180519050905092915050565b60008273__DoublyLinkedList______________________6340c6bb189091846000604051602001526040518363ffffffff167c0100000000000000000000000000000000000000000000000000000000028152600401808381526020018281526020019250505060206040518083038186803b15156119f357600080fd5b6102c65a03f41515611a0457600080fd5b50505060405180519050905092915050565b60008173__DoublyLinkedList______________________632553148290916000604051602001526040518263ffffffff167c01000000000000000000000000000000000000000000000000000000000281526004018082815260200191505060206040518083038186803b1515611a8d57600080fd5b6102c65a03f41515611a9e57600080fd5b505050604051805190509050919050565b60008173__DoublyLinkedList______________________635e0d4aa990916000604051602001526040518263ffffffff167c01000000000000000000000000000000000000000000000000000000000281526004018082815260200191505060206040518083038186803b1515611b2657600080fd5b6102c65a03f41515611b3757600080fd5b505050604051805190509050919050565b6000611b578360000183611fdd565b905092915050565b60008173__DoublyLinkedList______________________63c333848890916000604051602001526040518263ffffffff167c01000000000000000000000000000000000000000000000000000000000281526004018082815260200191505060206040518083038186803b1515611bd657600080fd5b6102c65a03f41515611be757600080fd5b505050604051805190509050919050565b60008173__DoublyLinkedList______________________633ae6974290916000604051602001526040518263ffffffff167c01000000000000000000000000000000000000000000000000000000000281526004018082815260200191505060206040518083038186803b1515611c6f57600080fd5b6102c65a03f41515611c8057600080fd5b505050604051805190509050919050565b60008273__DoublyLinkedList______________________632a1441789091846000604051602001526040518363ffffffff167c01000000000000000000000000000000000000000000000000000000000281526004018083815260200182600019166000191681526020019250505060206040518083038186803b1515611d1857600080fd5b6102c65a03f41515611d2957600080fd5b50505060405180519050905092915050565b60008173__DoublyLinkedList______________________6312e3853d90916000604051602001526040518263ffffffff167c01000000000000000000000000000000000000000000000000000000000281526004018082815260200191505060206040518083038186803b1515611db257600080fd5b6102c65a03f41515611dc357600080fd5b505050604051805190509050919050565b60008173__DoublyLinkedList______________________631240ff5a90916000604051602001526040518263ffffffff167c01000000000000000000000000000000000000000000000000000000000281526004018082815260200191505060206040518083038186803b1515611e4b57600080fd5b6102c65a03f41515611e5c57600080fd5b505050604051805190509050919050565b60008273__DoublyLinkedList______________________63a7b9777c9091846000604051602001526040518363ffffffff167c0100000000000000000000000000000000000000000000000000000000028152600401808381526020018273ffffffffffffffffffffffffffffffffffffffff1673ffffffffffffffffffffffffffffffffffffffff1681526020019250505060206040518083038186803b1515611f1857600080fd5b6102c65a03f41515611f2957600080fd5b50505060405180519050905092915050565b60008273__DoublyLinkedList______________________63ec40b8979091846000604051602001526040518363ffffffff167c0100000000000000000000000000000000000000000000000000000000028152600401808381526020018281526020019250505060206040518083038186803b1515611fba57600080fd5b6102c65a03f41515611fcb57600080fd5b50505060405180519050905092915050565b6000611fe76121ca565b6001151584600401600085815260200190815260200160002060009054906101000a900460ff16151514156121be57836005016001840381548110151561202a57fe5b90600052602060002090600302016060604051908101604052908160008201546000191660001916815260200160018201548152602001600282015481525050905060008160200151141561208b57806040015184600001819055506120be565b80604001518460050160018360200151038154811015156120a857fe5b9060005260206000209060030201600201819055505b6000816040015114156120dd5780602001518460010181905550612110565b80602001518460050160018360400151038154811015156120fa57fe5b9060005260206000209060030201600101819055505b836005016001840381548110151561212457fe5b9060005260206000209060030201600080820160009055600182016000905560028201600090555050600084600401600085815260200190815260200160002060006101000a81548160ff02191690831515021790555083600301600082600001516000191660001916815260200190815260200160002060009055836002016000815480929190600190039190505550600191506121c3565b600091505b5092915050565b60606040519081016040528060008019168152602001600081526020016000815250905600a165627a7a7230582051abe97aa06b2e5d30795ae5ec1856bf5bb68cb8c52623131904920a33d3cac60029",
  "deployedBytecode": "0x606060405260043610610107576000357c0100000000000000000000000000000000000000000000000000000000900463ffffffff16806345bf0b351461010c57806358eccb9914610135578063656a39c514610162578063668bcc25146101a557806369ed120c146101fa5780636cc8f9f1146102275780636eba73be146102585780637780b119146102d1578063778636be146103085780637e5ce6d7146103395780638129fc1c146103625780638448703f14610377578063890cf1d6146103a457806392eb1a8b146103f9578063938af62a14610422578063aace0f5614610465578063bad606111461048e578063bc3d8d85146104b7578063f883f79314610530575b600080fd5b341561011757600080fd5b61011f610567565b6040518082815260200191505060405180910390f35b341561014057600080fd5b610148610578565b604051808215151515815260200191505060405180910390f35b341561016d57600080fd5b610187600480803560001916906020019091905050610645565b60405180826000191660001916815260200191505060405180910390f35b34156101b057600080fd5b6101b8610659565b604051808273ffffffffffffffffffffffffffffffffffffffff1673ffffffffffffffffffffffffffffffffffffffff16815260200191505060405180910390f35b341561020557600080fd5b61020d61066a565b604051808215151515815260200191505060405180910390f35b341561023257600080fd5b61023a610738565b60405180826000191660001916815260200191505060405180910390f35b341561026357600080fd5b61028f600480803573ffffffffffffffffffffffffffffffffffffffff16906020019091905050610749565b604051808273ffffffffffffffffffffffffffffffffffffffff1673ffffffffffffffffffffffffffffffffffffffff16815260200191505060405180910390f35b34156102dc57600080fd5b6102f2600480803590602001909190505061075d565b6040518082815260200191505060405180910390f35b341561031357600080fd5b61031b610771565b60405180826000191660001916815260200191505060405180910390f35b341561034457600080fd5b61034c610782565b6040518082815260200191505060405180910390f35b341561036d57600080fd5b610375610793565b005b341561038257600080fd5b61038a6114b5565b604051808215151515815260200191505060405180910390f35b34156103af57600080fd5b6103b7611583565b604051808273ffffffffffffffffffffffffffffffffffffffff1673ffffffffffffffffffffffffffffffffffffffff16815260200191505060405180910390f35b341561040457600080fd5b61040c611594565b6040518082815260200191505060405180910390f35b341561042d57600080fd5b6104476004808035600019169060200190919050506115a5565b60405180826000191660001916815260200191505060405180910390f35b341561047057600080fd5b6104786115b9565b6040518082815260200191505060405180910390f35b341561049957600080fd5b6104a16115ca565b6040518082815260200191505060405180910390f35b34156104c257600080fd5b6104ee600480803573ffffffffffffffffffffffffffffffffffffffff169060200190919050506115db565b604051808273ffffffffffffffffffffffffffffffffffffffff1673ffffffffffffffffffffffffffffffffffffffff16815260200191505060405180910390f35b341561053b57600080fd5b61055160048080359060200190919050506115ef565b6040518082815260200191505060405180910390f35b60006105736000611603565b905090565b600080600190505b6006811115156105ac5761059e81600061169c90919063ffffffff16565b508080600101915050610580565b60008073__DoublyLinkedList______________________630f77955290916000604051602001526040518263ffffffff167c01000000000000000000000000000000000000000000000000000000000281526004018082815260200191505060206040518083038186803b151561062357600080fd5b6102c65a03f4151561063457600080fd5b505050604051805190501491505090565b60006106526000836116b3565b9050919050565b6000610665600661175d565b905090565b600080600190505b60068111151561069e5761069081600c6117f690919063ffffffff16565b508080600101915050610672565b6000600c73__DoublyLinkedList______________________633ae6974290916000604051602001526040518263ffffffff167c01000000000000000000000000000000000000000000000000000000000281526004018082815260200191505060206040518083038186803b151561071657600080fd5b6102c65a03f4151561072757600080fd5b505050604051805190501491505090565b6000610744600061180d565b905090565b60006107566006836118a6565b9050919050565b600061076a600c83611974565b9050919050565b600061077d6000611a16565b905090565b600061078e600c611aaf565b905090565b600073__DoublyLinkedList______________________63582f30b490916000604051602001526040518263ffffffff167c010000000000000000000000000000000000000000000000000000000002815260040180828152602001807f746573743100000000000000000000000000000000000000000000000000000081525060200191505060206040518083038186803b151561083157600080fd5b6102c65a03f4151561084257600080fd5b5050506040518051905050600073__DoublyLinkedList______________________63582f30b490916000604051602001526040518263ffffffff167c010000000000000000000000000000000000000000000000000000000002815260040180828152602001807f746573743200000000000000000000000000000000000000000000000000000081525060200191505060206040518083038186803b15156108eb57600080fd5b6102c65a03f415156108fc57600080fd5b5050506040518051905050600073__DoublyLinkedList______________________63582f30b490916000604051602001526040518263ffffffff167c010000000000000000000000000000000000000000000000000000000002815260040180828152602001807f746573743300000000000000000000000000000000000000000000000000000081525060200191505060206040518083038186803b15156109a557600080fd5b6102c65a03f415156109b657600080fd5b5050506040518051905050600073__DoublyLinkedList______________________63582f30b490916000604051602001526040518263ffffffff167c010000000000000000000000000000000000000000000000000000000002815260040180828152602001807f746573743400000000000000000000000000000000000000000000000000000081525060200191505060206040518083038186803b1515610a5f57600080fd5b6102c65a03f41515610a7057600080fd5b5050506040518051905050600073__DoublyLinkedList______________________63582f30b490916000604051602001526040518263ffffffff167c010000000000000000000000000000000000000000000000000000000002815260040180828152602001807f746573743500000000000000000000000000000000000000000000000000000081525060200191505060206040518083038186803b1515610b1957600080fd5b6102c65a03f41515610b2a57600080fd5b5050506040518051905050600073__DoublyLinkedList______________________63582f30b490916000604051602001526040518263ffffffff167c010000000000000000000000000000000000000000000000000000000002815260040180828152602001807f746573743600000000000000000000000000000000000000000000000000000081525060200191505060206040518083038186803b1515610bd357600080fd5b6102c65a03f41515610be457600080fd5b5050506040518051905050600673__DoublyLinkedList______________________63bf8a2ac69091737812421a7579d8182dc6f2b68ab56595db01553f6000604051602001526040518363ffffffff167c0100000000000000000000000000000000000000000000000000000000028152600401808381526020018273ffffffffffffffffffffffffffffffffffffffff1673ffffffffffffffffffffffffffffffffffffffff1681526020019250505060206040518083038186803b1515610cad57600080fd5b6102c65a03f41515610cbe57600080fd5b5050506040518051905050600673__DoublyLinkedList______________________63bf8a2ac6909173419f0a80d85f3c7dc3553394d91c9a339332a01e6000604051602001526040518363ffffffff167c0100000000000000000000000000000000000000000000000000000000028152600401808381526020018273ffffffffffffffffffffffffffffffffffffffff1673ffffffffffffffffffffffffffffffffffffffff1681526020019250505060206040518083038186803b1515610d8757600080fd5b6102c65a03f41515610d9857600080fd5b5050506040518051905050600673__DoublyLinkedList______________________63bf8a2ac6909173f5dfe2a3f8cf5ca8723b51be6fc065bea0cfe8936000604051602001526040518363ffffffff167c0100000000000000000000000000000000000000000000000000000000028152600401808381526020018273ffffffffffffffffffffffffffffffffffffffff1673ffffffffffffffffffffffffffffffffffffffff1681526020019250505060206040518083038186803b1515610e6157600080fd5b6102c65a03f41515610e7257600080fd5b5050506040518051905050600673__DoublyLinkedList______________________63bf8a2ac69091735dc52d499a77af45f43174cfe7982dc68c331c386000604051602001526040518363ffffffff167c0100000000000000000000000000000000000000000000000000000000028152600401808381526020018273ffffffffffffffffffffffffffffffffffffffff1673ffffffffffffffffffffffffffffffffffffffff1681526020019250505060206040518083038186803b1515610f3b57600080fd5b6102c65a03f41515610f4c57600080fd5b5050506040518051905050600673__DoublyLinkedList______________________63bf8a2ac6909173727c89006bd885f9a77254797a362d69e8a1f4da6000604051602001526040518363ffffffff167c0100000000000000000000000000000000000000000000000000000000028152600401808381526020018273ffffffffffffffffffffffffffffffffffffffff1673ffffffffffffffffffffffffffffffffffffffff1681526020019250505060206040518083038186803b151561101557600080fd5b6102c65a03f4151561102657600080fd5b5050506040518051905050600673__DoublyLinkedList______________________63bf8a2ac69091730f66ec3df48ec1e216d24e225b772696e031b6986000604051602001526040518363ffffffff167c0100000000000000000000000000000000000000000000000000000000028152600401808381526020018273ffffffffffffffffffffffffffffffffffffffff1673ffffffffffffffffffffffffffffffffffffffff1681526020019250505060206040518083038186803b15156110ef57600080fd5b6102c65a03f4151561110057600080fd5b5050506040518051905050600c73__DoublyLinkedList______________________63d372d5f690916103ea6000604051602001526040518363ffffffff167c0100000000000000000000000000000000000000000000000000000000028152600401808381526020018281526020019250505060206040518083038186803b151561118b57600080fd5b6102c65a03f4151561119c57600080fd5b5050506040518051905050600c73__DoublyLinkedList______________________63d372d5f690916103eb6000604051602001526040518363ffffffff167c0100000000000000000000000000000000000000000000000000000000028152600401808381526020018281526020019250505060206040518083038186803b151561122757600080fd5b6102c65a03f4151561123857600080fd5b5050506040518051905050600c73__DoublyLinkedList______________________63d372d5f690916103ec6000604051602001526040518363ffffffff167c0100000000000000000000000000000000000000000000000000000000028152600401808381526020018281526020019250505060206040518083038186803b15156112c357600080fd5b6102c65a03f415156112d457600080fd5b5050506040518051905050600c73__DoublyLinkedList______________________63d372d5f690916103ed6000604051602001526040518363ffffffff167c0100000000000000000000000000000000000000000000000000000000028152600401808381526020018281526020019250505060206040518083038186803b151561135f57600080fd5b6102c65a03f4151561137057600080fd5b5050506040518051905050600c73__DoublyLinkedList______________________63d372d5f690916103ee6000604051602001526040518363ffffffff167c0100000000000000000000000000000000000000000000000000000000028152600401808381526020018281526020019250505060206040518083038186803b15156113fb57600080fd5b6102c65a03f4151561140c57600080fd5b5050506040518051905050600c73__DoublyLinkedList______________________63d372d5f690916103ef6000604051602001526040518363ffffffff167c0100000000000000000000000000000000000000000000000000000000028152600401808381526020018281526020019250505060206040518083038186803b151561149757600080fd5b6102c65a03f415156114a857600080fd5b5050506040518051905050565b600080600190505b6006811115156114e9576114db816006611b4890919063ffffffff16565b5080806001019150506114bd565b6000600673__DoublyLinkedList______________________6312e3853d90916000604051602001526040518263ffffffff167c01000000000000000000000000000000000000000000000000000000000281526004018082815260200191505060206040518083038186803b151561156157600080fd5b6102c65a03f4151561157257600080fd5b505050604051805190501491505090565b600061158f6006611b5f565b905090565b60006115a0600c611bf8565b905090565b60006115b2600083611c91565b9050919050565b60006115c56006611d3b565b905090565b60006115d6600c611dd4565b905090565b60006115e8600683611e6d565b9050919050565b60006115fc600c83611f3b565b9050919050565b60008173__DoublyLinkedList______________________630f77955290916000604051602001526040518263ffffffff167c01000000000000000000000000000000000000000000000000000000000281526004018082815260200191505060206040518083038186803b151561167a57600080fd5b6102c65a03f4151561168b57600080fd5b505050604051805190509050919050565b60006116ab8360000183611fdd565b905092915050565b60008273__DoublyLinkedList______________________63cf06689d9091846000604051602001526040518363ffffffff167c01000000000000000000000000000000000000000000000000000000000281526004018083815260200182600019166000191681526020019250505060206040518083038186803b151561173a57600080fd5b6102c65a03f4151561174b57600080fd5b50505060405180519050905092915050565b60008173__DoublyLinkedList______________________63f46574aa90916000604051602001526040518263ffffffff167c01000000000000000000000000000000000000000000000000000000000281526004018082815260200191505060206040518083038186803b15156117d457600080fd5b6102c65a03f415156117e557600080fd5b505050604051805190509050919050565b60006118058360000183611fdd565b905092915050565b60008173__DoublyLinkedList______________________6356717c7990916000604051602001526040518263ffffffff167c01000000000000000000000000000000000000000000000000000000000281526004018082815260200191505060206040518083038186803b151561188457600080fd5b6102c65a03f4151561189557600080fd5b505050604051805190509050919050565b60008273__DoublyLinkedList______________________6387fca8a69091846000604051602001526040518363ffffffff167c0100000000000000000000000000000000000000000000000000000000028152600401808381526020018273ffffffffffffffffffffffffffffffffffffffff1673ffffffffffffffffffffffffffffffffffffffff1681526020019250505060206040518083038186803b151561195157600080fd5b6102c65a03f4151561196257600080fd5b50505060405180519050905092915050565b60008273__DoublyLinkedList______________________6340c6bb189091846000604051602001526040518363ffffffff167c0100000000000000000000000000000000000000000000000000000000028152600401808381526020018281526020019250505060206040518083038186803b15156119f357600080fd5b6102c65a03f41515611a0457600080fd5b50505060405180519050905092915050565b60008173__DoublyLinkedList______________________632553148290916000604051602001526040518263ffffffff167c01000000000000000000000000000000000000000000000000000000000281526004018082815260200191505060206040518083038186803b1515611a8d57600080fd5b6102c65a03f41515611a9e57600080fd5b505050604051805190509050919050565b60008173__DoublyLinkedList______________________635e0d4aa990916000604051602001526040518263ffffffff167c01000000000000000000000000000000000000000000000000000000000281526004018082815260200191505060206040518083038186803b1515611b2657600080fd5b6102c65a03f41515611b3757600080fd5b505050604051805190509050919050565b6000611b578360000183611fdd565b905092915050565b60008173__DoublyLinkedList______________________63c333848890916000604051602001526040518263ffffffff167c01000000000000000000000000000000000000000000000000000000000281526004018082815260200191505060206040518083038186803b1515611bd657600080fd5b6102c65a03f41515611be757600080fd5b505050604051805190509050919050565b60008173__DoublyLinkedList______________________633ae6974290916000604051602001526040518263ffffffff167c01000000000000000000000000000000000000000000000000000000000281526004018082815260200191505060206040518083038186803b1515611c6f57600080fd5b6102c65a03f41515611c8057600080fd5b505050604051805190509050919050565b60008273__DoublyLinkedList______________________632a1441789091846000604051602001526040518363ffffffff167c01000000000000000000000000000000000000000000000000000000000281526004018083815260200182600019166000191681526020019250505060206040518083038186803b1515611d1857600080fd5b6102c65a03f41515611d2957600080fd5b50505060405180519050905092915050565b60008173__DoublyLinkedList______________________6312e3853d90916000604051602001526040518263ffffffff167c01000000000000000000000000000000000000000000000000000000000281526004018082815260200191505060206040518083038186803b1515611db257600080fd5b6102c65a03f41515611dc357600080fd5b505050604051805190509050919050565b60008173__DoublyLinkedList______________________631240ff5a90916000604051602001526040518263ffffffff167c01000000000000000000000000000000000000000000000000000000000281526004018082815260200191505060206040518083038186803b1515611e4b57600080fd5b6102c65a03f41515611e5c57600080fd5b505050604051805190509050919050565b60008273__DoublyLinkedList______________________63a7b9777c9091846000604051602001526040518363ffffffff167c0100000000000000000000000000000000000000000000000000000000028152600401808381526020018273ffffffffffffffffffffffffffffffffffffffff1673ffffffffffffffffffffffffffffffffffffffff1681526020019250505060206040518083038186803b1515611f1857600080fd5b6102c65a03f41515611f2957600080fd5b50505060405180519050905092915050565b60008273__DoublyLinkedList______________________63ec40b8979091846000604051602001526040518363ffffffff167c0100000000000000000000000000000000000000000000000000000000028152600401808381526020018281526020019250505060206040518083038186803b1515611fba57600080fd5b6102c65a03f41515611fcb57600080fd5b50505060405180519050905092915050565b6000611fe76121ca565b6001151584600401600085815260200190815260200160002060009054906101000a900460ff16151514156121be57836005016001840381548110151561202a57fe5b90600052602060002090600302016060604051908101604052908160008201546000191660001916815260200160018201548152602001600282015481525050905060008160200151141561208b57806040015184600001819055506120be565b80604001518460050160018360200151038154811015156120a857fe5b9060005260206000209060030201600201819055505b6000816040015114156120dd5780602001518460010181905550612110565b80602001518460050160018360400151038154811015156120fa57fe5b9060005260206000209060030201600101819055505b836005016001840381548110151561212457fe5b9060005260206000209060030201600080820160009055600182016000905560028201600090555050600084600401600085815260200190815260200160002060006101000a81548160ff02191690831515021790555083600301600082600001516000191660001916815260200190815260200160002060009055836002016000815480929190600190039190505550600191506121c3565b600091505b5092915050565b60606040519081016040528060008019168152602001600081526020016000815250905600a165627a7a7230582051abe97aa06b2e5d30795ae5ec1856bf5bb68cb8c52623131904920a33d3cac60029",
  "source": "pragma solidity ^0.4.19;\n\nimport \"../abstract/BytesIteratorStorage.sol\";\nimport \"../abstract/AddressIteratorStorage.sol\";\nimport \"../abstract/UintIteratorStorage.sol\";\n\n/**\n    @title Example Storage\n    @author DigixGlobal Pte Ltd\n */\ncontract ExampleStorage is BytesIteratorStorage, AddressIteratorStorage, UintIteratorStorage {\n\n  using DoublyLinkedList for DoublyLinkedList.Bytes;\n  using DoublyLinkedList for DoublyLinkedList.Address;\n  using DoublyLinkedList for DoublyLinkedList.Uint;\n\n  DoublyLinkedList.Bytes bytes_collection;\n  DoublyLinkedList.Address address_collection;\n  DoublyLinkedList.Uint uint_collection;\n\n  /**\n    @notice Constructor\n  */\n  function ExampleStorage() public {\n    initialize();\n  }\n\n  /**\n    @notice Initializes instace of collections\n  */\n  function initialize() public {\n    bytes_collection.append(\"test1\");\n    bytes_collection.append(\"test2\");\n    bytes_collection.append(\"test3\");\n    bytes_collection.append(\"test4\");\n    bytes_collection.append(\"test5\");\n    bytes_collection.append(\"test6\");\n\n\t\taddress_collection.append(0x7812421a7579d8182DC6f2B68Ab56595db01553F);\n\t\taddress_collection.append(0x419f0a80D85f3C7dC3553394d91c9A339332a01E);\n\t\taddress_collection.append(0xF5dFE2A3f8Cf5CA8723b51be6fc065beA0cFE893);\n\t\taddress_collection.append(0x5dc52D499a77af45f43174CFE7982dC68c331c38);\n\t\taddress_collection.append(0x727C89006bd885f9A77254797a362d69E8A1f4da);\n\t\taddress_collection.append(0x0F66eC3DF48eC1E216D24e225b772696e031B698);\n\n    uint_collection.append(1002);\n    uint_collection.append(1003);\n    uint_collection.append(1004);\n    uint_collection.append(1005);\n    uint_collection.append(1006);\n    uint_collection.append(1007);\n  }\n\n  /**\n    @notice Removes all the items in a Bytes collection\n    @return {\"_success\":\"True when all items are successfully deleted\"}\n  */\n  function remove_all_data_in_bytes_collection()\n           public\n           returns (bool _success)\n  {\n    for (uint256 i=1;i<=6;i++) {\n      bytes_collection.remove(i);\n    }\n    _success = bytes_collection.total() == 0;\n  }\n\n  /**\n    @notice Removes all items in an Addresses collection\n    @return {\"_success\":\"True when all items are successfully deleted\"}\n  */\n  function remove_all_data_in_addresses_collection()\n           public\n           returns (bool _success)\n  {\n    for (uint256 i=1;i<=6;i++) {\n      address_collection.remove(i);\n    }\n    _success = address_collection.total() == 0;\n  }\n\n  /**\n    @notice Removes all items in uints collection\n    @return {\"_success\":\"True when all items are successfully deleted\"}\n  */\n  function remove_all_data_in_uints_collection()\n           public\n           returns (bool _success)\n  {\n    for (uint256 i=1;i<=6;i++) {\n      uint_collection.remove(i);\n    }\n    _success = uint_collection.total() == 0;\n  }\n\n  /**\n    @notice Reads the first item in the Bytes collection\n    @return {\"_item\": \"Collection item\"}\n  */\n  function read_first_in_bytes_collection()\n           public\n           constant\n           returns (bytes32 _item)\n  {\n    _item = read_first_from_bytesarray(bytes_collection);\n  }\n\n  /**\n    @notice Reads the last item in the Bytes collection\n    @return {\"_item\": \"Collection item\"}\n  */\n  function read_last_in_bytes_collection()\n           public\n           constant\n           returns (bytes32 _item)\n  {\n    _item = read_last_from_bytesarray(bytes_collection);\n  }\n\n  /**\n    @notice Reads the next item in the Bytes collection starting from the specified `_current_item`\n    @return {\"_item\": \"Collection item\"}\n  */\n  function read_next_in_bytes_collection(bytes32 _current_item)\n           public\n           constant\n           returns (bytes32 _item)\n  {\n    _item = read_next_from_bytesarray(bytes_collection, _current_item);\n  }\n\n  /**\n    @notice Reads the previous item in the Bytes collection starting from the specified `_current_item`\n    @return {\"_item\": \"Collection item\"}\n  */\n  function read_previous_in_bytes_collection(bytes32 _current_item)\n           public\n           constant\n           returns (bytes32 _item)\n  {\n    _item = read_previous_from_bytesarray(bytes_collection, _current_item);\n  }\n\n  /**\n    @notice Reads the total number of items in the Bytes collection\n    @return {\"_total_count\": \"Total number of items in the Bytes collection\"}\n  */\n  function read_total_in_bytes_collection()\n           public\n           constant\n           returns (uint256 _total_count)\n  {\n    _total_count = read_total_bytesarray(bytes_collection);\n  }\n\n  /**\n    @notice Reads the first item in the Addresses collection\n    @return {\"_item\": \"Collection item\"}\n  */\n  function read_first_in_addresses_collection()\n           public\n           constant\n           returns (address _item)\n  {\n    _item = read_first_from_addresses(address_collection);\n  }\n\n  /**\n    @notice Reads the last item in the Address collection\n    @return {\"_item\": \"Collection item\"}\n  */\n  function read_last_in_addresses_collection()\n           public\n           constant\n           returns (address _item)\n  {\n    _item = read_last_from_addresses(address_collection);\n  }\n\n  /**\n    @notice Reads the next item in the Addresses collection\n    @return {\"_item\": \"Collection item\"}\n  */\n  function read_next_in_addresses_collection(address _current_item)\n           public\n           constant\n           returns (address _item)\n  {\n    _item = read_next_from_addresses(address_collection, _current_item);\n  }\n\n  /**\n    @notice Reads the previous item in the Addresses collection\n    @return {\"_item\": \"Collection item\"}\n  */\n  function read_previous_in_addresses_collection(address _current_item)\n           public\n           constant\n           returns (address _item)\n  {\n    _item = read_previous_from_addresses(address_collection, _current_item);\n  }\n\n  /**\n    @notice Reads the total number of items in the Addresses collection\n    @return {\"_total_count\": \"Total number of items in the Address collection\"}\n  */\n  function read_total_in_addresses_collection()\n           public\n           constant\n           returns (uint256 _total_count)\n  {\n    _total_count = read_total_addresses(address_collection);\n  }\n\n\n  /*\n    @notice Reads the first item in the uints collection\n    @return {\"_item\": \"Collection item\"}\n  */\n  function read_first_in_uints_collection()\n           public\n           constant\n           returns (uint256 _item)\n  {\n    _item = read_first_from_uints(uint_collection);\n  }\n\n  /**\n    @notice Reads the last item in the uints collection\n    @return {\"_item\": \"Collection item\"}\n   */\n  function read_last_in_uints_collection()\n           public\n           constant\n           returns (uint256 _item)\n  {\n    _item = read_last_from_uints(uint_collection);\n  }\n\n  /**\n    @notice Reads the next item from the uints collection starting from the specified `_current_item`\n    @return {\"_item\": \"Collection item\"}\n  */\n  function read_next_in_uints_collection(uint256 _current_item)\n           public\n           constant\n           returns (uint256 _item)\n  {\n    _item = read_next_from_uints(uint_collection, _current_item);\n  }\n\n  /**\n    @notice Reads the previous item from the uints collection starting from the specified `_current_item`\n    @return {\"_item\": \"Collection item\"}\n  */\n  function read_previous_in_uints_collection(uint256 _current_item)\n           public\n           constant\n           returns (uint256 _item)\n  {\n    _item = read_previous_from_uints(uint_collection, _current_item);\n  }\n\n  /**\n    @notice Reads the total number of items in the uints collection\n    @return {\"_total_count\": \"Total number of items in the uints collection\"}\n  */\n  function read_total_in_uints_collection()\n           public\n           constant\n           returns (uint256 _total_count)\n  {\n    _total_count = read_total_uints(uint_collection);\n  }\n\n}\n",
  "sourcePath": "/home/rohit/Develop/solidity-collections-library/contracts/examples/ExampleStorage.sol",
  "compiler": {
    "name": "solc",
    "version": "0.4.19+commit.c4cbbb05.Emscripten.clang"
  },
  "schemaVersion": "1.0.1",
  "updatedAt": "2018-03-07T03:38:46.685Z"
}