{
  "contractName": "ExampleController",
  "abi": [
    {
      "constant": true,
      "inputs": [],
      "name": "storage_contract",
      "outputs": [
        {
          "name": "",
          "type": "address"
        }
      ],
      "payable": false,
      "stateMutability": "view",
      "type": "function"
    },
    {
      "inputs": [
        {
          "name": "_storage",
          "type": "address"
        }
      ],
      "payable": false,
      "stateMutability": "nonpayable",
      "type": "constructor"
    },
    {
      "constant": true,
      "inputs": [],
      "name": "get_first_in_bytes_collection",
      "outputs": [
        {
          "name": "_item",
          "type": "bytes32"
        }
      ],
      "payable": false,
      "stateMutability": "view",
      "type": "function"
    },
    {
      "constant": true,
      "inputs": [],
      "name": "get_last_in_bytes_collection",
      "outputs": [
        {
          "name": "_item",
          "type": "bytes32"
        }
      ],
      "payable": false,
      "stateMutability": "view",
      "type": "function"
    },
    {
      "constant": true,
      "inputs": [
        {
          "name": "_current_item",
          "type": "bytes32"
        }
      ],
      "name": "get_next_in_bytes_collection",
      "outputs": [
        {
          "name": "_item",
          "type": "bytes32"
        }
      ],
      "payable": false,
      "stateMutability": "view",
      "type": "function"
    },
    {
      "constant": true,
      "inputs": [
        {
          "name": "_current_item",
          "type": "bytes32"
        }
      ],
      "name": "get_previous_in_bytes_collection",
      "outputs": [
        {
          "name": "_item",
          "type": "bytes32"
        }
      ],
      "payable": false,
      "stateMutability": "view",
      "type": "function"
    },
    {
      "constant": true,
      "inputs": [],
      "name": "get_total_in_bytes_collection",
      "outputs": [
        {
          "name": "_total_count",
          "type": "uint256"
        }
      ],
      "payable": false,
      "stateMutability": "view",
      "type": "function"
    },
    {
      "constant": true,
      "inputs": [],
      "name": "get_first_in_addresses_collection",
      "outputs": [
        {
          "name": "_item",
          "type": "address"
        }
      ],
      "payable": false,
      "stateMutability": "view",
      "type": "function"
    },
    {
      "constant": true,
      "inputs": [],
      "name": "get_last_in_addresses_collection",
      "outputs": [
        {
          "name": "_item",
          "type": "address"
        }
      ],
      "payable": false,
      "stateMutability": "view",
      "type": "function"
    },
    {
      "constant": true,
      "inputs": [
        {
          "name": "_current_item",
          "type": "address"
        }
      ],
      "name": "get_next_in_addresses_collection",
      "outputs": [
        {
          "name": "_item",
          "type": "address"
        }
      ],
      "payable": false,
      "stateMutability": "view",
      "type": "function"
    },
    {
      "constant": true,
      "inputs": [
        {
          "name": "_current_item",
          "type": "address"
        }
      ],
      "name": "get_previous_in_addresses_collection",
      "outputs": [
        {
          "name": "_item",
          "type": "address"
        }
      ],
      "payable": false,
      "stateMutability": "view",
      "type": "function"
    },
    {
      "constant": true,
      "inputs": [],
      "name": "get_total_in_addresses_collection",
      "outputs": [
        {
          "name": "_total_count",
          "type": "uint256"
        }
      ],
      "payable": false,
      "stateMutability": "view",
      "type": "function"
    },
    {
      "constant": true,
      "inputs": [],
      "name": "get_first_in_uints_collection",
      "outputs": [
        {
          "name": "_item",
          "type": "uint256"
        }
      ],
      "payable": false,
      "stateMutability": "view",
      "type": "function"
    },
    {
      "constant": true,
      "inputs": [],
      "name": "get_last_in_uints_collection",
      "outputs": [
        {
          "name": "_item",
          "type": "uint256"
        }
      ],
      "payable": false,
      "stateMutability": "view",
      "type": "function"
    },
    {
      "constant": true,
      "inputs": [
        {
          "name": "_current_item",
          "type": "uint256"
        }
      ],
      "name": "get_next_in_uints_collection",
      "outputs": [
        {
          "name": "_item",
          "type": "uint256"
        }
      ],
      "payable": false,
      "stateMutability": "view",
      "type": "function"
    },
    {
      "constant": true,
      "inputs": [
        {
          "name": "_current_item",
          "type": "uint256"
        }
      ],
      "name": "get_previous_in_uints_collection",
      "outputs": [
        {
          "name": "_item",
          "type": "uint256"
        }
      ],
      "payable": false,
      "stateMutability": "view",
      "type": "function"
    },
    {
      "constant": true,
      "inputs": [],
      "name": "get_total_in_uints_collection",
      "outputs": [
        {
          "name": "_total_count",
          "type": "uint256"
        }
      ],
      "payable": false,
      "stateMutability": "view",
      "type": "function"
    }
  ],
  "bytecode": "0x6060604052341561000f57600080fd5b60405160208061109d83398101604052808051906020019091905050806000806101000a81548173ffffffffffffffffffffffffffffffffffffffff021916908373ffffffffffffffffffffffffffffffffffffffff160217905550506110228061007b6000396000f3006060604052600436106100e6576000357c0100000000000000000000000000000000000000000000000000000000900463ffffffff1680630889665c146100eb57806308a31e431461012e57806314038e07146101a7578063417951de146101d857806379ea69fd146102015780639e338bf814610232578063a0b6f6a71461025b578063a9ae2efb146102b0578063acb23333146102d9578063bd3d473314610302578063c92b2cb114610339578063cd2c184014610370578063db23917e146103b3578063ed3ce0fb14610408578063fc68bac21461045d578063fdb1e57314610486575b600080fd5b34156100f657600080fd5b6101106004808035600019169060200190919050506104ff565b60405180826000191660001916815260200191505060405180910390f35b341561013957600080fd5b610165600480803573ffffffffffffffffffffffffffffffffffffffff16906020019091905050610534565b604051808273ffffffffffffffffffffffffffffffffffffffff1673ffffffffffffffffffffffffffffffffffffffff16815260200191505060405180910390f35b34156101b257600080fd5b6101ba610569565b60405180826000191660001916815260200191505060405180910390f35b34156101e357600080fd5b6101eb61059b565b6040518082815260200191505060405180910390f35b341561020c57600080fd5b6102146105cd565b60405180826000191660001916815260200191505060405180910390f35b341561023d57600080fd5b6102456105ff565b6040518082815260200191505060405180910390f35b341561026657600080fd5b61026e610631565b604051808273ffffffffffffffffffffffffffffffffffffffff1673ffffffffffffffffffffffffffffffffffffffff16815260200191505060405180910390f35b34156102bb57600080fd5b6102c3610656565b6040518082815260200191505060405180910390f35b34156102e457600080fd5b6102ec610688565b6040518082815260200191505060405180910390f35b341561030d57600080fd5b61032360048080359060200190919050506106ba565b6040518082815260200191505060405180910390f35b341561034457600080fd5b61035a60048080359060200190919050506106ef565b6040518082815260200191505060405180910390f35b341561037b57600080fd5b610395600480803560001916906020019091905050610724565b60405180826000191660001916815260200191505060405180910390f35b34156103be57600080fd5b6103c6610759565b604051808273ffffffffffffffffffffffffffffffffffffffff1673ffffffffffffffffffffffffffffffffffffffff16815260200191505060405180910390f35b341561041357600080fd5b61041b61078b565b604051808273ffffffffffffffffffffffffffffffffffffffff1673ffffffffffffffffffffffffffffffffffffffff16815260200191505060405180910390f35b341561046857600080fd5b6104706107bd565b6040518082815260200191505060405180910390f35b341561049157600080fd5b6104bd600480803573ffffffffffffffffffffffffffffffffffffffff169060200190919050506107ef565b604051808273ffffffffffffffffffffffffffffffffffffffff1673ffffffffffffffffffffffffffffffffffffffff16815260200191505060405180910390f35b600061052d61050c610824565b73ffffffffffffffffffffffffffffffffffffffff1663938af62a8461084d565b9050919050565b6000610562610541610824565b73ffffffffffffffffffffffffffffffffffffffff1663bc3d8d85846108d8565b9050919050565b6000610596610576610824565b73ffffffffffffffffffffffffffffffffffffffff1663778636be610987565b905090565b60006105c86105a8610824565b73ffffffffffffffffffffffffffffffffffffffff1663bad606116109fe565b905090565b60006105fa6105da610824565b73ffffffffffffffffffffffffffffffffffffffff16636cc8f9f1610a75565b905090565b600061062c61060c610824565b73ffffffffffffffffffffffffffffffffffffffff166392eb1a8b610aec565b905090565b6000809054906101000a900473ffffffffffffffffffffffffffffffffffffffff1681565b6000610683610663610824565b73ffffffffffffffffffffffffffffffffffffffff1663aace0f56610b63565b905090565b60006106b5610695610824565b73ffffffffffffffffffffffffffffffffffffffff166345bf0b35610bda565b905090565b60006106e86106c7610824565b73ffffffffffffffffffffffffffffffffffffffff16637780b11984610c51565b9050919050565b600061071d6106fc610824565b73ffffffffffffffffffffffffffffffffffffffff1663f883f79384610cd4565b9050919050565b6000610752610731610824565b73ffffffffffffffffffffffffffffffffffffffff1663656a39c584610d57565b9050919050565b6000610786610766610824565b73ffffffffffffffffffffffffffffffffffffffff1663890cf1d6610de2565b905090565b60006107b8610798610824565b73ffffffffffffffffffffffffffffffffffffffff1663668bcc25610e59565b905090565b60006107ea6107ca610824565b73ffffffffffffffffffffffffffffffffffffffff16637e5ce6d7610ed0565b905090565b600061081d6107fc610824565b73ffffffffffffffffffffffffffffffffffffffff16636eba73be84610f47565b9050919050565b60008060009054906101000a900473ffffffffffffffffffffffffffffffffffffffff16905090565b60008383836000604051602001526040518263ffffffff167c0100000000000000000000000000000000000000000000000000000000028152600401808260001916600019168152602001915050602060405180830381600087803b15156108b457600080fd5b6102c65a03f115156108c557600080fd5b5050506040518051905090509392505050565b60008383836000604051602001526040518263ffffffff167c0100000000000000000000000000000000000000000000000000000000028152600401808273ffffffffffffffffffffffffffffffffffffffff1673ffffffffffffffffffffffffffffffffffffffff168152602001915050602060405180830381600087803b151561096357600080fd5b6102c65a03f1151561097457600080fd5b5050506040518051905090509392505050565b600082826000604051602001526040518163ffffffff167c0100000000000000000000000000000000000000000000000000000000028152600401602060405180830381600087803b15156109db57600080fd5b6102c65a03f115156109ec57600080fd5b50505060405180519050905092915050565b600082826000604051602001526040518163ffffffff167c0100000000000000000000000000000000000000000000000000000000028152600401602060405180830381600087803b1515610a5257600080fd5b6102c65a03f11515610a6357600080fd5b50505060405180519050905092915050565b600082826000604051602001526040518163ffffffff167c0100000000000000000000000000000000000000000000000000000000028152600401602060405180830381600087803b1515610ac957600080fd5b6102c65a03f11515610ada57600080fd5b50505060405180519050905092915050565b600082826000604051602001526040518163ffffffff167c0100000000000000000000000000000000000000000000000000000000028152600401602060405180830381600087803b1515610b4057600080fd5b6102c65a03f11515610b5157600080fd5b50505060405180519050905092915050565b600082826000604051602001526040518163ffffffff167c0100000000000000000000000000000000000000000000000000000000028152600401602060405180830381600087803b1515610bb757600080fd5b6102c65a03f11515610bc857600080fd5b50505060405180519050905092915050565b600082826000604051602001526040518163ffffffff167c0100000000000000000000000000000000000000000000000000000000028152600401602060405180830381600087803b1515610c2e57600080fd5b6102c65a03f11515610c3f57600080fd5b50505060405180519050905092915050565b60008383836000604051602001526040518263ffffffff167c010000000000000000000000000000000000000000000000000000000002815260040180828152602001915050602060405180830381600087803b1515610cb057600080fd5b6102c65a03f11515610cc157600080fd5b5050506040518051905090509392505050565b60008383836000604051602001526040518263ffffffff167c010000000000000000000000000000000000000000000000000000000002815260040180828152602001915050602060405180830381600087803b1515610d3357600080fd5b6102c65a03f11515610d4457600080fd5b5050506040518051905090509392505050565b60008383836000604051602001526040518263ffffffff167c0100000000000000000000000000000000000000000000000000000000028152600401808260001916600019168152602001915050602060405180830381600087803b1515610dbe57600080fd5b6102c65a03f11515610dcf57600080fd5b5050506040518051905090509392505050565b600082826000604051602001526040518163ffffffff167c0100000000000000000000000000000000000000000000000000000000028152600401602060405180830381600087803b1515610e3657600080fd5b6102c65a03f11515610e4757600080fd5b50505060405180519050905092915050565b600082826000604051602001526040518163ffffffff167c0100000000000000000000000000000000000000000000000000000000028152600401602060405180830381600087803b1515610ead57600080fd5b6102c65a03f11515610ebe57600080fd5b50505060405180519050905092915050565b600082826000604051602001526040518163ffffffff167c0100000000000000000000000000000000000000000000000000000000028152600401602060405180830381600087803b1515610f2457600080fd5b6102c65a03f11515610f3557600080fd5b50505060405180519050905092915050565b60008383836000604051602001526040518263ffffffff167c0100000000000000000000000000000000000000000000000000000000028152600401808273ffffffffffffffffffffffffffffffffffffffff1673ffffffffffffffffffffffffffffffffffffffff168152602001915050602060405180830381600087803b1515610fd257600080fd5b6102c65a03f11515610fe357600080fd5b50505060405180519050905093925050505600a165627a7a72305820cc56ad94ce90c0da742aadaf800a9a9ce0c0ef68844a471a2f3f1db0c8b426ad0029",
  "source": "pragma solidity ^0.4.19;\n\nimport \"../abstract/BytesIteratorController.sol\";\nimport \"../abstract/AddressIteratorController.sol\";\nimport \"../abstract/UintIteratorController.sol\";\nimport \"./ExampleStorage.sol\";\n\n/**\n  @title Example Controller\n  @author DigixGlobal Pte Ltd\n  @notice this contract utilizes: [Bytes Iterator Controller](/BytesIteratorController),\n                                  [Address Iterator Controller](/AddressIteratorController),\n                                  [Uint Iterator Controller](/UintIteratorController),\n                                  [Example Storage](/ExampleStorage)\n*/\ncontract ExampleController is BytesIteratorController, AddressIteratorController, UintIteratorController {\n\n  address public storage_contract;\n\n  /**\n    @notice Constructor for ExampleController\n    @param _storage Adress of storage to use\n  */\n  function ExampleController(address _storage) public {\n    storage_contract = _storage;\n  }\n\n  /**\n    @notice Initializes an instance of Example storage\n  */\n  function example_storage()\n           internal\n           constant\n           returns (ExampleStorage _contract)\n  {\n    _contract = ExampleStorage(storage_contract);\n  }\n\n  /**\n    @notice Gets the first item in the Bytes collection\n    @return {\"_item\":\"Collection item\"}\n  */\n  function get_first_in_bytes_collection()\n           public\n           constant\n           returns (bytes32 _item)\n  {\n    _item = get_first_from_bytesarray(example_storage().read_first_in_bytes_collection);\n  }\n\n  /**\n    @notice Gets the last item in the Bytes collection\n    @return {\"_item\":\"Collection item\"}\n  */\n  function get_last_in_bytes_collection()\n           public\n           constant\n           returns (bytes32 _item)\n  {\n    _item = get_last_from_bytesarray(example_storage().read_last_in_bytes_collection);\n\n  }\n\n  /**\n    @notice Gets the next item in the Bytes collection based on the specified `_current_item`\n    @param _current_item The current item to be used as base line\n    @return {\"_item\":\"Collection item\"}\n  */\n  function get_next_in_bytes_collection(bytes32 _current_item)\n           public\n           constant\n           returns (bytes32 _item)\n  {\n    _item = get_next_from_bytesarray(example_storage().read_next_in_bytes_collection, _current_item);\n  }\n\n  /**\n    @notice Gets the previous imte in the Bytes collection based on the specified `_current_item`\n    @param _current_item The current item to be used as base line\n    @return {\"_item\":\"Collection item\"}\n  */\n  function get_previous_in_bytes_collection(bytes32 _current_item)\n           public\n           constant\n           returns (bytes32 _item)\n  {\n    _item = get_previous_from_bytesarray(example_storage().read_previous_in_bytes_collection, _current_item);\n  }\n\n  /**\n    @notice Gets the Total number of items in the Bytes collection\n    @return {\"_total_count\":\"The Toal number of items in the collection\"}\n  */\n  function get_total_in_bytes_collection()\n           public\n           constant\n           returns (uint256 _total_count)\n  {\n    _total_count = get_total_bytesarray(example_storage().read_total_in_bytes_collection);\n  }\n\n  /**\n    @notice Gets the first item in the Addresses collection\n    @return {\"_item\":\"Collection item\"}\n  */\n  function get_first_in_addresses_collection()\n           public\n           constant\n           returns (address _item)\n  {\n    _item = get_first_from_addresses(example_storage().read_first_in_addresses_collection);\n  }\n\n  /**\n    @notice Gets the last item in the Addresses collection\n    @return {\"_item\":\"Collection item\"}\n  */\n  function get_last_in_addresses_collection()\n           public\n           constant\n           returns (address _item)\n  {\n    _item = get_last_from_addresses(example_storage().read_last_in_addresses_collection);\n  }\n\n  /**\n    @notice Gets the next item in the Addresses collection based on the specified `_current_item`\n    @return {\"_item\":\"Collection item\"}\n  */\n  function get_next_in_addresses_collection(address _current_item)\n           public\n           constant\n           returns (address _item)\n  {\n    _item = get_next_from_addresses(example_storage().read_next_in_addresses_collection, _current_item);\n  }\n\n  /**\n    @notice Gets the previous item in the Addresses collection based on the specified `_current_item`\n    @return {\"_item\":\"Collection item\"}\n  */\n  function get_previous_in_addresses_collection(address _current_item)\n           public\n           constant\n           returns (address _item)\n  {\n    _item = get_previous_from_addresses(example_storage().read_previous_in_addresses_collection, _current_item);\n  }\n\n  /**\n    @notice Gets the total number of addresses in the Addresses collection\n    @return {\"_item\":\"Collection item\"}\n  */\n  function get_total_in_addresses_collection()\n           public\n           constant\n           returns (uint256 _total_count)\n  {\n    _total_count = get_total_addresses(example_storage().read_total_in_addresses_collection);\n  }\n\n\n  /**\n    @notice Gets the first item in the uints collection\n    @return {\"_item\":\"Collection item\"}\n  */\n  function get_first_in_uints_collection()\n           public\n           constant\n           returns (uint256 _item)\n  {\n    _item = get_first_from_uints(example_storage().read_first_in_uints_collection);\n  }\n\n  /**\n    @notice Gets the last item in the uints collection\n    @return {\"_item\":\"Collection item\"}\n  */\n  function get_last_in_uints_collection()\n           public\n           constant\n           returns (uint256 _item)\n  {\n    _item = get_last_from_uints(example_storage().read_last_in_uints_collection);\n  }\n\n  /**\n    @notice Gets the next item in the uints collection based on the specified `_current_item`\n    @param _current_item The item to be used as base line\n    @return {\"_item\":\"Collection item\"}\n  */\n  function get_next_in_uints_collection(uint256 _current_item)\n           public\n           constant\n           returns (uint256 _item)\n  {\n    _item = get_next_from_uints(example_storage().read_next_in_uints_collection, _current_item);\n  }\n\n  /**\n    @notice Gets the previous item in the uints collection based on the specified `_current_item`\n    @param _current_item The item to be used as base line\n    @return {\"_item\":\"Collection item\"}\n  */\n  function get_previous_in_uints_collection(uint256 _current_item)\n           public\n           constant\n           returns (uint256 _item)\n  {\n    _item = get_previous_from_uints(example_storage().read_previous_in_uints_collection, _current_item);\n  }\n\n  /**\n    @notice Gets the total number of uints in the uints collection\n    @return {\"_item\":\"Collection item\"}\n  */\n  function get_total_in_uints_collection()\n           public\n           constant\n           returns (uint256 _total_count)\n  {\n    _total_count = get_total_uints(example_storage().read_total_in_uints_collection);\n  }\n}\n",
  "sourcePath": "/home/rohit/Develop/solidity-collections-library/contracts/examples/ExampleController.sol",
  "compiler": {
    "name": "solc",
    "version": "0.4.19+commit.c4cbbb05.Emscripten.clang"
  },
  "schemaVersion": "1.0.1",
  "updatedAt": "2018-03-07T03:38:46.682Z"
}