{
  "contractName": "ExampleInteractive",
  "abi": [
    {
      "constant": true,
      "inputs": [],
      "name": "controller_contract",
      "outputs": [
        {
          "name": "",
          "type": "address"
        }
      ],
      "payable": false,
      "stateMutability": "view",
      "type": "function"
    },
    {
      "inputs": [
        {
          "name": "_controller",
          "type": "address"
        }
      ],
      "payable": false,
      "stateMutability": "nonpayable",
      "type": "constructor"
    },
    {
      "constant": true,
      "inputs": [
        {
          "name": "_count",
          "type": "uint256"
        },
        {
          "name": "_from_start",
          "type": "bool"
        }
      ],
      "name": "list_bytes_collection",
      "outputs": [
        {
          "name": "_collection_items",
          "type": "bytes32[]"
        }
      ],
      "payable": false,
      "stateMutability": "view",
      "type": "function"
    },
    {
      "constant": true,
      "inputs": [
        {
          "name": "_current_item",
          "type": "bytes32"
        },
        {
          "name": "_count",
          "type": "uint256"
        },
        {
          "name": "_from_start",
          "type": "bool"
        }
      ],
      "name": "list_bytes_collection_from",
      "outputs": [
        {
          "name": "_collection_items",
          "type": "bytes32[]"
        }
      ],
      "payable": false,
      "stateMutability": "view",
      "type": "function"
    },
    {
      "constant": true,
      "inputs": [
        {
          "name": "_count",
          "type": "uint256"
        },
        {
          "name": "_from_start",
          "type": "bool"
        }
      ],
      "name": "list_addresses_collection",
      "outputs": [
        {
          "name": "_collection_items",
          "type": "address[]"
        }
      ],
      "payable": false,
      "stateMutability": "view",
      "type": "function"
    },
    {
      "constant": true,
      "inputs": [
        {
          "name": "_current_item",
          "type": "address"
        },
        {
          "name": "_count",
          "type": "uint256"
        },
        {
          "name": "_from_start",
          "type": "bool"
        }
      ],
      "name": "list_addresses_collection_from",
      "outputs": [
        {
          "name": "_collection_items",
          "type": "address[]"
        }
      ],
      "payable": false,
      "stateMutability": "view",
      "type": "function"
    },
    {
      "constant": true,
      "inputs": [
        {
          "name": "_count",
          "type": "uint256"
        },
        {
          "name": "_from_start",
          "type": "bool"
        }
      ],
      "name": "list_uints_collection",
      "outputs": [
        {
          "name": "_collection_items",
          "type": "uint256[]"
        }
      ],
      "payable": false,
      "stateMutability": "view",
      "type": "function"
    },
    {
      "constant": true,
      "inputs": [
        {
          "name": "_current_item",
          "type": "uint256"
        },
        {
          "name": "_count",
          "type": "uint256"
        },
        {
          "name": "_from_start",
          "type": "bool"
        }
      ],
      "name": "list_uints_collection_from",
      "outputs": [
        {
          "name": "_collection_items",
          "type": "uint256[]"
        }
      ],
      "payable": false,
      "stateMutability": "view",
      "type": "function"
    }
  ],
  "bytecode": "0x6060604052341561000f57600080fd5b60405160208061162183398101604052808051906020019091905050806000806101000a81548173ffffffffffffffffffffffffffffffffffffffff021916908373ffffffffffffffffffffffffffffffffffffffff160217905550506115a68061007b6000396000f300606060405260043610610083576000357c0100000000000000000000000000000000000000000000000000000000900463ffffffff1680631f85fa65146100885780633190da0d1461010b57806335e87a70146101975780635114ec6c14610239578063875b0440146102bc5780638bd9b989146103115780639360fa37146103a1575b600080fd5b341561009357600080fd5b6100b460048080359060200190919080351515906020019091905050610424565b6040518080602001828103825283818151815260200191508051906020019060200280838360005b838110156100f75780820151818401526020810190506100dc565b505050509050019250505060405180910390f35b341561011657600080fd5b610140600480803590602001909190803590602001909190803515159060200190919050506104ca565b6040518080602001828103825283818151815260200191508051906020019060200280838360005b83811015610183578082015181840152602081019050610168565b505050509050019250505060405180910390f35b34156101a257600080fd5b6101e2600480803573ffffffffffffffffffffffffffffffffffffffff169060200190919080359060200190919080351515906020019091905050610572565b6040518080602001828103825283818151815260200191508051906020019060200280838360005b8381101561022557808201518184015260208101905061020a565b505050509050019250505060405180910390f35b341561024457600080fd5b6102656004808035906020019091908035151590602001909190505061061a565b6040518080602001828103825283818151815260200191508051906020019060200280838360005b838110156102a857808201518184015260208101905061028d565b505050509050019250505060405180910390f35b34156102c757600080fd5b6102cf6106c0565b604051808273ffffffffffffffffffffffffffffffffffffffff1673ffffffffffffffffffffffffffffffffffffffff16815260200191505060405180910390f35b341561031c57600080fd5b61034a60048080356000191690602001909190803590602001909190803515159060200190919050506106e5565b6040518080602001828103825283818151815260200191508051906020019060200280838360005b8381101561038d578082015181840152602081019050610372565b505050509050019250505060405180910390f35b34156103ac57600080fd5b6103cd6004808035906020019091908035151590602001909190505061078d565b6040518080602001828103825283818151815260200191508051906020019060200280838360005b838110156104105780820151818401526020810190506103f5565b505050509050019250505060405180910390f35b61042c61153e565b6104c283610438610833565b73ffffffffffffffffffffffffffffffffffffffff1663db23917e61045b610833565b73ffffffffffffffffffffffffffffffffffffffff1663ed3ce0fb61047e610833565b73ffffffffffffffffffffffffffffffffffffffff166308a31e436104a1610833565b73ffffffffffffffffffffffffffffffffffffffff1663fdb1e5738b61085c565b905092915050565b6104d2611552565b61056984846104df610833565b73ffffffffffffffffffffffffffffffffffffffff1663417951de610502610833565b73ffffffffffffffffffffffffffffffffffffffff1663fc68bac2610525610833565b73ffffffffffffffffffffffffffffffffffffffff1663c92b2cb1610548610833565b73ffffffffffffffffffffffffffffffffffffffff1663bd3d47338c61097a565b90509392505050565b61057a61153e565b6106118484610587610833565b73ffffffffffffffffffffffffffffffffffffffff1663db23917e6105aa610833565b73ffffffffffffffffffffffffffffffffffffffff1663ed3ce0fb6105cd610833565b73ffffffffffffffffffffffffffffffffffffffff166308a31e436105f0610833565b73ffffffffffffffffffffffffffffffffffffffff1663fdb1e5738c6109c1565b90509392505050565b610622611552565b6106b88361062e610833565b73ffffffffffffffffffffffffffffffffffffffff1663417951de610651610833565b73ffffffffffffffffffffffffffffffffffffffff1663fc68bac2610674610833565b73ffffffffffffffffffffffffffffffffffffffff1663c92b2cb1610697610833565b73ffffffffffffffffffffffffffffffffffffffff1663bd3d47338b610a08565b905092915050565b6000809054906101000a900473ffffffffffffffffffffffffffffffffffffffff1681565b6106ed611566565b61078484846106fa610833565b73ffffffffffffffffffffffffffffffffffffffff166379ea69fd61071d610833565b73ffffffffffffffffffffffffffffffffffffffff166314038e07610740610833565b73ffffffffffffffffffffffffffffffffffffffff1663cd2c1840610763610833565b73ffffffffffffffffffffffffffffffffffffffff16630889665c8c610b26565b90509392505050565b610795611566565b61082b836107a1610833565b73ffffffffffffffffffffffffffffffffffffffff166379ea69fd6107c4610833565b73ffffffffffffffffffffffffffffffffffffffff166314038e076107e7610833565b73ffffffffffffffffffffffffffffffffffffffff1663cd2c184061080a610833565b73ffffffffffffffffffffffffffffffffffffffff16630889665c8b610b6d565b905092915050565b60008060009054906101000a900473ffffffffffffffffffffffffffffffffffffffff16905090565b61086461153e565b81156108ed576108e68a8a6000604051602001526040518163ffffffff167c0100000000000000000000000000000000000000000000000000000000028152600401602060405180830381600087803b15156108bf57600080fd5b6102c65a03f115156108d057600080fd5b505050604051805190508c60018b8b8b8b610c8b565b905061096c565b61096988886000604051602001526040518163ffffffff167c0100000000000000000000000000000000000000000000000000000000028152600401602060405180830381600087803b151561094257600080fd5b6102c65a03f1151561095357600080fd5b505050604051805190508c60018d8d8989610c8b565b90505b9a9950505050505050505050565b610982611552565b811561099f576109988c8c60008b8b8b8b61102c565b90506109b2565b6109af8c8c60008d8d898961102c565b90505b9b9a5050505050505050505050565b6109c961153e565b81156109e6576109df8c8c60008b8b8b8b610c8b565b90506109f9565b6109f68c8c60008d8d8989610c8b565b90505b9b9a5050505050505050505050565b610a10611552565b8115610a9957610a928a8a6000604051602001526040518163ffffffff167c0100000000000000000000000000000000000000000000000000000000028152600401602060405180830381600087803b1515610a6b57600080fd5b6102c65a03f11515610a7c57600080fd5b505050604051805190508c60018b8b8b8b61102c565b9050610b18565b610b1588886000604051602001526040518163ffffffff167c0100000000000000000000000000000000000000000000000000000000028152600401602060405180830381600087803b1515610aee57600080fd5b6102c65a03f11515610aff57600080fd5b505050604051805190508c60018d8d898961102c565b90505b9a9950505050505050505050565b610b2e611566565b8115610b4b57610b448c8c60008b8b8b8b611293565b9050610b5e565b610b5b8c8c60008d8d8989611293565b90505b9b9a5050505050505050505050565b610b75611566565b8115610bfe57610bf78a8a6000604051602001526040518163ffffffff167c0100000000000000000000000000000000000000000000000000000000028152600401602060405180830381600087803b1515610bd057600080fd5b6102c65a03f11515610be157600080fd5b505050604051805190508c60018b8b8b8b611293565b9050610c7d565b610c7a88886000604051602001526040518163ffffffff167c0100000000000000000000000000000000000000000000000000000000028152600401602060405180830381600087803b1515610c5357600080fd5b6102c65a03f11515610c6457600080fd5b505050604051805190508c60018d8d8989611293565b90505b9a9950505050505050505050565b610c9361153e565b6000806000610ca061153e565b600080935089896000604051602001526040518163ffffffff167c0100000000000000000000000000000000000000000000000000000000028152600401602060405180830381600087803b1515610cf757600080fd5b6102c65a03f11515610d0857600080fd5b50505060405180519050925060008c1480610d4f5750600073ffffffffffffffffffffffffffffffffffffffff168373ffffffffffffffffffffffffffffffffffffffff16145b15610d7b576000604051805910610d635750595b9080825280602002602001820160405250955061101c565b8b604051805910610d895750595b90808252806020026020018201604052509150600115158b15151415610dfa578c826000815181101515610db957fe5b9060200190602002019073ffffffffffffffffffffffffffffffffffffffff16908173ffffffffffffffffffffffffffffffffffffffff1681525050600193505b8c90508394505b8b85108015610e3c57508273ffffffffffffffffffffffffffffffffffffffff168173ffffffffffffffffffffffffffffffffffffffff1614155b15610f7e578787826000604051602001526040518263ffffffff167c0100000000000000000000000000000000000000000000000000000000028152600401808273ffffffffffffffffffffffffffffffffffffffff1673ffffffffffffffffffffffffffffffffffffffff168152602001915050602060405180830381600087803b1515610eca57600080fd5b6102c65a03f11515610edb57600080fd5b505050604051805190509050600073ffffffffffffffffffffffffffffffffffffffff168173ffffffffffffffffffffffffffffffffffffffff16141515610f71578380600101945050808286815181101515610f3457fe5b9060200190602002019073ffffffffffffffffffffffffffffffffffffffff16908173ffffffffffffffffffffffffffffffffffffffff16815250505b8480600101955050610e01565b83604051805910610f8c5750595b90808252806020026020018201604052509550600094505b8385101561101b578185815181101515610fba57fe5b906020019060200201518686815181101515610fd257fe5b9060200190602002019073ffffffffffffffffffffffffffffffffffffffff16908173ffffffffffffffffffffffffffffffffffffffff16815250508480600101955050610fa4565b5b5050505050979650505050505050565b611034611552565b6000806000611041611552565b600080935089896000604051602001526040518163ffffffff167c0100000000000000000000000000000000000000000000000000000000028152600401602060405180830381600087803b151561109857600080fd5b6102c65a03f115156110a957600080fd5b50505060405180519050925060008c14806110c45750600083145b156110f05760006040518059106110d85750595b90808252806020026020018201604052509550611283565b8b6040518059106110fe5750595b90808252806020026020018201604052509150600115158b15151415611141578c82600081518110151561112e57fe5b9060200190602002018181525050600193505b8c90508394505b8b851080156111575750828114155b15611213578787826000604051602001526040518263ffffffff167c010000000000000000000000000000000000000000000000000000000002815260040180828152602001915050602060405180830381600087803b15156111b957600080fd5b6102c65a03f115156111ca57600080fd5b5050506040518051905090506000811415156112065783806001019450508082868151811015156111f757fe5b90602001906020020181815250505b8480600101955050611148565b836040518059106112215750595b90808252806020026020018201604052509550600094505b8385101561128257818581518110151561124f57fe5b90602001906020020151868681518110151561126757fe5b90602001906020020181815250508480600101955050611239565b5b5050505050979650505050505050565b61129b611566565b60008060006112a8611566565b600080935089896000604051602001526040518163ffffffff167c0100000000000000000000000000000000000000000000000000000000028152600401602060405180830381600087803b15156112ff57600080fd5b6102c65a03f1151561131057600080fd5b50505060405180519050925060008c148061133657506000600102600019168360001916145b1561136257600060405180591061134a5750595b9080825280602002602001820160405250955061152e565b8b6040518059106113705750595b90808252806020026020018201604052509150600115158b151514156113bd578c8260008151811015156113a057fe5b906020019060200201906000191690816000191681525050600193505b8c90508394505b8b851080156113db57508260001916816000191614155b156114b4578787826000604051602001526040518263ffffffff167c0100000000000000000000000000000000000000000000000000000000028152600401808260001916600019168152602001915050602060405180830381600087803b151561144557600080fd5b6102c65a03f1151561145657600080fd5b50505060405180519050905060006001026000191681600019161415156114a757838060010194505080828681518110151561148e57fe5b9060200190602002019060001916908160001916815250505b84806001019550506113c4565b836040518059106114c25750595b90808252806020026020018201604052509550600094505b8385101561152d5781858151811015156114f057fe5b90602001906020020151868681518110151561150857fe5b90602001906020020190600019169081600019168152505084806001019550506114da565b5b5050505050979650505050505050565b602060405190810160405280600081525090565b602060405190810160405280600081525090565b6020604051908101604052806000815250905600a165627a7a72305820b128ae5b7f13ac824d711aac40b4e41ad608b4d785b22ed0e9512781299aed0b0029",
  "source": "pragma solidity ^0.4.19;\n\nimport \"../abstract/BytesIteratorInteractive.sol\";\nimport \"../abstract/AddressIteratorInteractive.sol\";\nimport \"../abstract/UintIteratorInteractive.sol\";\nimport \"./ExampleController.sol\";\n/**\n    @title Example Interactive\n    @author DigixGlobal Pte Ltd\n */\ncontract ExampleInteractive is BytesIteratorInteractive, AddressIteratorInteractive, UintIteratorInteractive {\n\n  /**\n    @notice Publice state for Controller contract\n  */\n  address public controller_contract;\n\n  /**\n    @notice Constructor\n  */\n  function ExampleInteractive(address _controller) public {\n    controller_contract = _controller;\n  }\n\n  /**\n    @notice initializes an instance of an Example Controller\n  */\n  function example_controller()\n           internal\n           constant\n           returns (ExampleController _contract)\n  {\n    _contract = ExampleController(controller_contract);\n  }\n\n  /**\n    @notice Lists collection of Bytes from the start or end\n    @param _count The Total number of items you wish to be returned\n    @param _from_start Whether to read items from start (or end)\n    @return {\"_collection_items\":\"Collection items\"}\n  */\n  function list_bytes_collection(uint256 _count, bool _from_start)\n           public\n           constant\n           returns (bytes32[] _collection_items)\n  {\n    _collection_items = list_bytesarray(_count,\n                                    example_controller().get_first_in_bytes_collection,\n                                    example_controller().get_last_in_bytes_collection,\n                                    example_controller().get_next_in_bytes_collection,\n                                    example_controller().get_previous_in_bytes_collection,\n                                    _from_start);\n  }\n\n  /**\n    @notice Lists collection of Bytes starting from the specified `_current_item`, going forwards or backwards depending on `_from_start`\n    @param _count The Total number of items you wish to be returned\n    @param _from_start Whether to read items forwards (or backwards)\n    @return {\"_collection_items\":\"Collection items\"}\n  */\n  function list_bytes_collection_from(bytes32 _current_item, uint256 _count, bool _from_start)\n           public\n           constant\n           returns (bytes32[] _collection_items)\n  {\n    _collection_items = list_bytesarray_from(_current_item,\n                                              _count,\n                                              example_controller().get_first_in_bytes_collection,\n                                              example_controller().get_last_in_bytes_collection,\n                                              example_controller().get_next_in_bytes_collection,\n                                              example_controller().get_previous_in_bytes_collection,\n                                              _from_start);\n  }\n\n  /**\n    @notice Lists collection of Addresses from the start or end\n    @param _count The Total number of items you wish to be returned\n    @param _from_start Whether to read items from start (or end)\n    @return {\"_collection_items\":\"Collection items\"}\n  */\n  function list_addresses_collection(uint256 _count, bool _from_start)\n           public\n           constant\n           returns (address[] _collection_items)\n  {\n    _collection_items = list_addresses(_count,\n                                    example_controller().get_first_in_addresses_collection,\n                                    example_controller().get_last_in_addresses_collection,\n                                    example_controller().get_next_in_addresses_collection,\n                                    example_controller().get_previous_in_addresses_collection,\n                                    _from_start);\n  }\n\n  /**\n    @notice Lists collection of Addresses starting from the specified `_current_item`, going forwards or backwards depending on `_from_start`\n    @param _count The Total number of items you wish to be returned\n    @param _from_start Whether to read items forwards (or backwards)\n    @return {\"_collection_items\":\"Collection items\"}\n  */\n  function list_addresses_collection_from(address _current_item, uint256 _count, bool _from_start)\n           public\n           constant\n           returns (address[] _collection_items)\n  {\n    _collection_items = list_addresses_from(_current_item,\n                                              _count,\n                                              example_controller().get_first_in_addresses_collection,\n                                              example_controller().get_last_in_addresses_collection,\n                                              example_controller().get_next_in_addresses_collection,\n                                              example_controller().get_previous_in_addresses_collection,\n                                              _from_start);\n  }\n\n  /**\n    @notice Lists collection of Uints from the start or end\n    @param _count The Total number of items you wish to be returned\n    @param _from_start Whether to read items from start (or end)\n    @return {\"_collection_items\":\"Collection items\"}\n  */\n  function list_uints_collection(uint256 _count, bool _from_start)\n           public\n           constant\n           returns (uint256[] _collection_items)\n  {\n    _collection_items = list_uints(_count,\n                                    example_controller().get_first_in_uints_collection,\n                                    example_controller().get_last_in_uints_collection,\n                                    example_controller().get_next_in_uints_collection,\n                                    example_controller().get_previous_in_uints_collection,\n                                    _from_start);\n  }\n\n  /**\n    @notice Lists collection of Uints starting from the specified `_current_item`, going forwards or backwards depending on `_from_start`\n    @param _count The Total number of items you wish to be returned\n    @param _from_start Whether to read items forwards (or backwards)\n    @return {\"_collection_items\":\"Collection items\"}\n  */\n  function list_uints_collection_from(uint256 _current_item, uint256 _count, bool _from_start)\n           public\n           constant\n           returns (uint256[] _collection_items)\n  {\n    _collection_items = list_uints_from(_current_item,\n                                              _count,\n                                              example_controller().get_first_in_uints_collection,\n                                              example_controller().get_last_in_uints_collection,\n                                              example_controller().get_next_in_uints_collection,\n                                              example_controller().get_previous_in_uints_collection,\n                                              _from_start);\n  }\n\n}\n",
  "sourcePath": "/home/rohit/Develop/solidity-collections-library/contracts/examples/ExampleInteractive.sol",
  "compiler": {
    "name": "solc",
    "version": "0.4.19+commit.c4cbbb05.Emscripten.clang"
  },
  "schemaVersion": "1.0.1",
  "updatedAt": "2018-03-07T03:38:46.685Z"
}