{
  "contractName": "TestDoublyLinkedList",
  "abi": [
    {
      "constant": false,
      "inputs": [],
      "name": "setup_reset_data",
      "outputs": [],
      "payable": false,
      "stateMutability": "nonpayable",
      "type": "function"
    },
    {
      "constant": false,
      "inputs": [],
      "name": "setup_data_for_testing",
      "outputs": [],
      "payable": false,
      "stateMutability": "nonpayable",
      "type": "function"
    },
    {
      "constant": true,
      "inputs": [],
      "name": "test_check_collection_count",
      "outputs": [
        {
          "name": "_count",
          "type": "uint256"
        }
      ],
      "payable": false,
      "stateMutability": "view",
      "type": "function"
    },
    {
      "constant": true,
      "inputs": [],
      "name": "test_check_first_index",
      "outputs": [
        {
          "name": "_first_index",
          "type": "uint256"
        }
      ],
      "payable": false,
      "stateMutability": "view",
      "type": "function"
    },
    {
      "constant": true,
      "inputs": [],
      "name": "test_check_last_index",
      "outputs": [
        {
          "name": "_last_index",
          "type": "uint256"
        }
      ],
      "payable": false,
      "stateMutability": "view",
      "type": "function"
    },
    {
      "constant": true,
      "inputs": [],
      "name": "test_check_count",
      "outputs": [
        {
          "name": "_count",
          "type": "uint256"
        }
      ],
      "payable": false,
      "stateMutability": "view",
      "type": "function"
    },
    {
      "constant": true,
      "inputs": [
        {
          "name": "_item_index",
          "type": "uint256"
        }
      ],
      "name": "test_item_previous_index",
      "outputs": [
        {
          "name": "_previous_index",
          "type": "uint256"
        }
      ],
      "payable": false,
      "stateMutability": "view",
      "type": "function"
    },
    {
      "constant": true,
      "inputs": [
        {
          "name": "_item_index",
          "type": "uint256"
        }
      ],
      "name": "test_item_next_index",
      "outputs": [
        {
          "name": "_next_index",
          "type": "uint256"
        }
      ],
      "payable": false,
      "stateMutability": "view",
      "type": "function"
    },
    {
      "constant": true,
      "inputs": [
        {
          "name": "_item",
          "type": "bytes32"
        }
      ],
      "name": "test_find",
      "outputs": [
        {
          "name": "_item_index",
          "type": "uint256"
        }
      ],
      "payable": false,
      "stateMutability": "view",
      "type": "function"
    },
    {
      "constant": true,
      "inputs": [
        {
          "name": "_item_index",
          "type": "uint256"
        }
      ],
      "name": "test_get",
      "outputs": [
        {
          "name": "_item",
          "type": "bytes32"
        }
      ],
      "payable": false,
      "stateMutability": "view",
      "type": "function"
    },
    {
      "constant": false,
      "inputs": [
        {
          "name": "_data",
          "type": "bytes32"
        }
      ],
      "name": "test_append",
      "outputs": [
        {
          "name": "_success",
          "type": "bool"
        }
      ],
      "payable": false,
      "stateMutability": "nonpayable",
      "type": "function"
    },
    {
      "constant": false,
      "inputs": [
        {
          "name": "_index",
          "type": "uint256"
        }
      ],
      "name": "test_remove",
      "outputs": [
        {
          "name": "_success",
          "type": "bool"
        }
      ],
      "payable": false,
      "stateMutability": "nonpayable",
      "type": "function"
    },
    {
      "constant": false,
      "inputs": [
        {
          "name": "_item",
          "type": "bytes32"
        }
      ],
      "name": "test_remove_item",
      "outputs": [
        {
          "name": "_success",
          "type": "bool"
        }
      ],
      "payable": false,
      "stateMutability": "nonpayable",
      "type": "function"
    },
    {
      "constant": true,
      "inputs": [],
      "name": "test_total",
      "outputs": [
        {
          "name": "_total_count",
          "type": "uint256"
        }
      ],
      "payable": false,
      "stateMutability": "view",
      "type": "function"
    },
    {
      "constant": true,
      "inputs": [],
      "name": "test_start",
      "outputs": [
        {
          "name": "_start_index",
          "type": "uint256"
        }
      ],
      "payable": false,
      "stateMutability": "view",
      "type": "function"
    },
    {
      "constant": true,
      "inputs": [],
      "name": "test_start_item",
      "outputs": [
        {
          "name": "_item",
          "type": "bytes32"
        }
      ],
      "payable": false,
      "stateMutability": "view",
      "type": "function"
    },
    {
      "constant": true,
      "inputs": [],
      "name": "test_end",
      "outputs": [
        {
          "name": "_end_index",
          "type": "uint256"
        }
      ],
      "payable": false,
      "stateMutability": "view",
      "type": "function"
    },
    {
      "constant": true,
      "inputs": [],
      "name": "test_end_item",
      "outputs": [
        {
          "name": "_item",
          "type": "bytes32"
        }
      ],
      "payable": false,
      "stateMutability": "view",
      "type": "function"
    },
    {
      "constant": true,
      "inputs": [
        {
          "name": "_item_index",
          "type": "uint256"
        }
      ],
      "name": "test_valid",
      "outputs": [
        {
          "name": "_yes",
          "type": "bool"
        }
      ],
      "payable": false,
      "stateMutability": "view",
      "type": "function"
    },
    {
      "constant": true,
      "inputs": [
        {
          "name": "_item",
          "type": "bytes32"
        }
      ],
      "name": "test_valid_item",
      "outputs": [
        {
          "name": "_yes",
          "type": "bool"
        }
      ],
      "payable": false,
      "stateMutability": "view",
      "type": "function"
    },
    {
      "constant": true,
      "inputs": [
        {
          "name": "_current_index",
          "type": "uint256"
        }
      ],
      "name": "test_previous",
      "outputs": [
        {
          "name": "_previous_index",
          "type": "uint256"
        }
      ],
      "payable": false,
      "stateMutability": "view",
      "type": "function"
    },
    {
      "constant": true,
      "inputs": [
        {
          "name": "_current_item",
          "type": "bytes32"
        }
      ],
      "name": "test_previous_item",
      "outputs": [
        {
          "name": "_previous_item",
          "type": "bytes32"
        }
      ],
      "payable": false,
      "stateMutability": "view",
      "type": "function"
    },
    {
      "constant": true,
      "inputs": [
        {
          "name": "_current_index",
          "type": "uint256"
        }
      ],
      "name": "test_next",
      "outputs": [
        {
          "name": "_next_index",
          "type": "uint256"
        }
      ],
      "payable": false,
      "stateMutability": "view",
      "type": "function"
    },
    {
      "constant": true,
      "inputs": [
        {
          "name": "_current_item",
          "type": "bytes32"
        }
      ],
      "name": "test_next_item",
      "outputs": [
        {
          "name": "_next_item",
          "type": "bytes32"
        }
      ],
      "payable": false,
      "stateMutability": "view",
      "type": "function"
    }
  ],
  "bytecode": "0x608060405234801561001057600080fd5b50611755806100206000396000f30060806040526004361061013d576000357c0100000000000000000000000000000000000000000000000000000000900463ffffffff168062d635f714610142578063019c8e1e1461018757806306a3220e146101d45780631189bd44146101ff57806317f26cda14610248578063229270ff146102735780632686d2241461029e5780633eed8f50146102e35780634d85c29a1461032457806356f0f7b71461034f5780635b66906e146103985780636442a1c1146103e15780636df1452114610414578063735dc8fb146104555780637775d1df1461046c5780637fb9007014610497578063b9507dea146104ae578063bdb35622146104fb578063c6142b381461052e578063cad6f2701461056f578063eeba652b146105b4578063f26ef7e1146105df578063f3bedbdd14610620578063f53507821461064b575b600080fd5b34801561014e57600080fd5b506101716004803603810190808035600019169060200190929190505050610694565b6040518082815260200191505060405180910390f35b34801561019357600080fd5b506101b66004803603810190808035600019169060200190929190505050610755565b60405180826000191660001916815260200191505060405180910390f35b3480156101e057600080fd5b506101e9610816565b6040518082815260200191505060405180910390f35b34801561020b57600080fd5b5061022e60048036038101908080356000191690602001909291905050506108c5565b604051808215151515815260200191505060405180910390f35b34801561025457600080fd5b5061025d6108e2565b6040518082815260200191505060405180910390f35b34801561027f57600080fd5b506102886108ee565b6040518082815260200191505060405180910390f35b3480156102aa57600080fd5b506102c9600480360381019080803590602001909291905050506108fa565b604051808215151515815260200191505060405180910390f35b3480156102ef57600080fd5b5061030e60048036038101908080359060200190929190505050610917565b6040518082815260200191505060405180910390f35b34801561033057600080fd5b506103396109d0565b6040518082815260200191505060405180910390f35b34801561035b57600080fd5b5061037e6004803603810190808035600019169060200190929190505050610a7f565b604051808215151515815260200191505060405180910390f35b3480156103a457600080fd5b506103c76004803603810190808035600019169060200190929190505050610b40565b604051808215151515815260200191505060405180910390f35b3480156103ed57600080fd5b506103f6610b5d565b60405180826000191660001916815260200191505060405180910390f35b34801561042057600080fd5b5061043f60048036038101908080359060200190929190505050610c0c565b6040518082815260200191505060405180910390f35b34801561046157600080fd5b5061046a610cc5565b005b34801561047857600080fd5b50610481610cf4565b6040518082815260200191505060405180910390f35b3480156104a357600080fd5b506104ac610d03565b005b3480156104ba57600080fd5b506104dd6004803603810190808035600019169060200190929190505050610e70565b60405180826000191660001916815260200191505060405180910390f35b34801561050757600080fd5b50610510610f31565b60405180826000191660001916815260200191505060405180910390f35b34801561053a57600080fd5b5061055960048036038101908080359060200190929190505050610fe0565b6040518082815260200191505060405180910390f35b34801561057b57600080fd5b5061059a6004803603810190808035906020019092919050505061100f565b604051808215151515815260200191505060405180910390f35b3480156105c057600080fd5b506105c96110c8565b6040518082815260200191505060405180910390f35b3480156105eb57600080fd5b5061060a600480360381019080803590602001909291905050506110d4565b6040518082815260200191505060405180910390f35b34801561062c57600080fd5b50610635611103565b6040518082815260200191505060405180910390f35b34801561065757600080fd5b50610676600480360381019080803590602001909291905050506111b2565b60405180826000191660001916815260200191505060405180910390f35b60008073__DoublyLinkedList______________________633b6650fe9091846040518363ffffffff167c01000000000000000000000000000000000000000000000000000000000281526004018083815260200182600019166000191681526020019250505060206040518083038186803b15801561071357600080fd5b505af4158015610727573d6000803e3d6000fd5b505050506040513d602081101561073d57600080fd5b81019080805190602001909291905050509050919050565b60008073__DoublyLinkedList______________________63141f30d19091846040518363ffffffff167c01000000000000000000000000000000000000000000000000000000000281526004018083815260200182600019166000191681526020019250505060206040518083038186803b1580156107d457600080fd5b505af41580156107e8573d6000803e3d6000fd5b505050506040513d60208110156107fe57600080fd5b81019080805190602001909291905050509050919050565b60008073__DoublyLinkedList______________________63e29ae7ac90916040518263ffffffff167c01000000000000000000000000000000000000000000000000000000000281526004018082815260200191505060206040518083038186803b15801561088557600080fd5b505af4158015610899573d6000803e3d6000fd5b505050506040513d60208110156108af57600080fd5b8101908080519060200190929190505050905090565b60006108db82600061126b90919063ffffffff16565b9050919050565b60008060020154905090565b60008060010154905090565b60006109108260006112b190919063ffffffff16565b9050919050565b60008073__DoublyLinkedList______________________63303f71469091846040518363ffffffff167c0100000000000000000000000000000000000000000000000000000000028152600401808381526020018281526020019250505060206040518083038186803b15801561098e57600080fd5b505af41580156109a2573d6000803e3d6000fd5b505050506040513d60208110156109b857600080fd5b81019080805190602001909291905050509050919050565b60008073__DoublyLinkedList______________________63b894bf9390916040518263ffffffff167c01000000000000000000000000000000000000000000000000000000000281526004018082815260200191505060206040518083038186803b158015610a3f57600080fd5b505af4158015610a53573d6000803e3d6000fd5b505050506040513d6020811015610a6957600080fd5b8101908080519060200190929190505050905090565b60008073__DoublyLinkedList______________________6393e65fb79091846040518363ffffffff167c01000000000000000000000000000000000000000000000000000000000281526004018083815260200182600019166000191681526020019250505060206040518083038186803b158015610afe57600080fd5b505af4158015610b12573d6000803e3d6000fd5b505050506040513d6020811015610b2857600080fd5b81019080805190602001909291905050509050919050565b6000610b5682600061149e90919063ffffffff16565b9050919050565b60008073__DoublyLinkedList______________________63dc96b2fa90916040518263ffffffff167c01000000000000000000000000000000000000000000000000000000000281526004018082815260200191505060206040518083038186803b158015610bcc57600080fd5b505af4158015610be0573d6000803e3d6000fd5b505050506040513d6020811015610bf657600080fd5b8101908080519060200190929190505050905090565b60008073__DoublyLinkedList______________________6315e8f3359091846040518363ffffffff167c0100000000000000000000000000000000000000000000000000000000028152600401808381526020018281526020019250505060206040518083038186803b158015610c8357600080fd5b505af4158015610c97573d6000803e3d6000fd5b505050506040513d6020811015610cad57600080fd5b81019080805190602001909291905050509050919050565b600080600082016000905560018201600090556002820160009055600582016000610cf091906116a9565b5050565b60008060050180549050905090565b600080600082016000905560018201600090556002820160009055600582016000610d2e91906116a9565b5050610d647f7465737431000000000000000000000000000000000000000000000000000000600061149e90919063ffffffff16565b50610d997f7465737432000000000000000000000000000000000000000000000000000000600061149e90919063ffffffff16565b50610dce7f7465737433000000000000000000000000000000000000000000000000000000600061149e90919063ffffffff16565b50610e037f7465737434000000000000000000000000000000000000000000000000000000600061149e90919063ffffffff16565b50610e387f7465737435000000000000000000000000000000000000000000000000000000600061149e90919063ffffffff16565b50610e6d7f7465737436000000000000000000000000000000000000000000000000000000600061149e90919063ffffffff16565b50565b60008073__DoublyLinkedList______________________63fbec360f9091846040518363ffffffff167c01000000000000000000000000000000000000000000000000000000000281526004018083815260200182600019166000191681526020019250505060206040518083038186803b158015610eef57600080fd5b505af4158015610f03573d6000803e3d6000fd5b505050506040513d6020811015610f1957600080fd5b81019080805190602001909291905050509050919050565b60008073__DoublyLinkedList______________________632dfabf0d90916040518263ffffffff167c01000000000000000000000000000000000000000000000000000000000281526004018082815260200191505060206040518083038186803b158015610fa057600080fd5b505af4158015610fb4573d6000803e3d6000fd5b505050506040513d6020811015610fca57600080fd5b8101908080519060200190929190505050905090565b60008060050160018303815481101515610ff657fe5b9060005260206000209060030201600201549050919050565b60008073__DoublyLinkedList______________________63a9786fe59091846040518363ffffffff167c0100000000000000000000000000000000000000000000000000000000028152600401808381526020018281526020019250505060206040518083038186803b15801561108657600080fd5b505af415801561109a573d6000803e3d6000fd5b505050506040513d60208110156110b057600080fd5b81019080805190602001909291905050509050919050565b60008060000154905090565b600080600501600183038154811015156110ea57fe5b9060005260206000209060030201600101549050919050565b60008073__DoublyLinkedList______________________63b197bf0b90916040518263ffffffff167c01000000000000000000000000000000000000000000000000000000000281526004018082815260200191505060206040518083038186803b15801561117257600080fd5b505af4158015611186573d6000803e3d6000fd5b505050506040513d602081101561119c57600080fd5b8101908080519060200190929190505050905090565b60008073__DoublyLinkedList______________________63d2e98bca9091846040518363ffffffff167c0100000000000000000000000000000000000000000000000000000000028152600401808381526020018281526020019250505060206040518083038186803b15801561122957600080fd5b505af415801561123d573d6000803e3d6000fd5b505050506040513d602081101561125357600080fd5b81019080805190602001909291905050509050919050565b6000806112788484611642565b90506000811415156112a25761128e84826112b1565b151561129957600080fd5b600191506112a7565b600091505b8191505092915050565b60006112bb6116cd565b6001151584600401600085815260200190815260200160002060009054906101000a900460ff16151514156114925783600501600184038154811015156112fe57fe5b90600052602060002090600302016060604051908101604052908160008201546000191660001916815260200160018201548152602001600282015481525050905060008160200151141561135f5780604001518460000181905550611392565b806040015184600501600183602001510381548110151561137c57fe5b9060005260206000209060030201600201819055505b6000816040015114156113b157806020015184600101819055506113e4565b80602001518460050160018360400151038154811015156113ce57fe5b9060005260206000209060030201600101819055505b83600501600184038154811015156113f857fe5b9060005260206000209060030201600080820160009055600182016000905560028201600090555050600084600401600085815260200190815260200160002060006101000a81548160ff0219169083151502179055508360030160008260000151600019166000191681526020019081526020016000206000905583600201600081548092919060019003919050555060019150611497565b600091505b5092915050565b60008060006114ad8585611642565b1415806114c1575060008019168360001916145b156114cf576000915061163b565b8360050160606040519081016040528085600019168152602001866001015481526020016000815250908060018154018082558091505090600182039060005260206000209060030201600090919290919091506000820151816000019060001916905560208201518160010155604082015181600201555050905060008460010154141561159a576000846000015414158061157157506000846002015414155b1561157b57600080fd5b80846001018190558460000181905550600184600201819055506115e6565b808460050160018660010154038154811015156115b357fe5b90600052602060002090600302016002018190555080846001018190555083600201600081548092919060010191905055505b600184600401600083815260200190815260200160002060006101000a81548160ff02191690831515021790555080846003016000856000191660001916815260200190815260200160002081905550600191505b5092915050565b600080836003016000846000191660001916815260200190815260200160002054148015611674575060008360020154145b1561168257600090506116a3565b82600301600083600019166000191681526020019081526020016000205490505b92915050565b50805460008255600302906000526020600020908101906116ca91906116f2565b50565b6060604051908101604052806000801916815260200160008152602001600081525090565b61172691905b808211156117225760008082016000905560018201600090556002820160009055506003016116f8565b5090565b905600a165627a7a723058207a891500b30485dc36985eb76fc33d3ceb126103cc535f76d7190d60c27efe040029",
  "source": "pragma solidity ^0.4.19;\n\nimport './lib/DoublyLinkedList.sol';\n\n/**\n  @title Contract that Uses Data Struct of DoublyLinkedList Library for Testing\n  @author DigixGlobal Pte Ltd\n*/\ncontract TestDoublyLinkedList {\n  using DoublyLinkedList for DoublyLinkedList.Data;\n  DoublyLinkedList.Data testData;\n\n  /// @notice Deletes the `testData` values\n  function setup_reset_data () public {\n    delete testData;\n  }\n\n  /// @notice Setups `testData` values for testing\n  function setup_data_for_testing ()\n           public\n  {\n      delete testData;\n      testData.append('test1');\n      testData.append('test2');\n      testData.append('test3');\n      testData.append('test4');\n      testData.append('test5');\n      testData.append('test6');\n  }\n\n  /**\n  @notice Returns the total number of collection in `testData`\n  @return {\"_count\": \"The total number of collection in `testData`\"}\n  */\n  function test_check_collection_count () public constant returns (uint256 _count) {\n    _count = testData.collection.length;\n  }\n\n  /**\n  @notice Returns the first index of `testData`\n  @return {\"_first_index\": \"First index of `testData`\"}\n  */\n  function test_check_first_index () public constant returns (uint256 _first_index) {\n    _first_index = testData.first_index;\n  }\n\n  /**\n  @notice Returns the last index of `testData`\n  @return {\"_first_index\": \"Last index of `testData`\"}\n  */\n  function test_check_last_index () public constant returns (uint256 _last_index) {\n    _last_index = testData.last_index;\n  }\n\n  /**\n  @notice Returns the total number of items in `testData`\n  @return {\"_count\": \"Total number of items in `testData`\"}\n  */\n  function test_check_count () public constant returns (uint256 _count) {\n    _count = testData.count;\n  }\n\n  /**\n  @notice Returns the previous index in `testData` based on the given `_item_index`\n  @param _item_index Starting index of the item\n  @return {\"_previous_index\": \"Index of the previous item of `testData`\"}\n  */\n  function test_item_previous_index (uint256 _item_index) public constant returns (uint256 _previous_index) {\n    _previous_index = testData.collection[_item_index-1].previous_index;\n  }\n\n  /**\n  @notice Returns the next index in `testData` based on the given `_item_index`\n  @param _item_index Starting index of the item\n  @return {\"_next_index\": \"Index of the next item of `testData`\"}\n  */\n  function test_item_next_index (uint256 _item_index) public constant returns (uint256 _next_index) {\n    _next_index = testData.collection[_item_index-1].next_index;\n  }\n\n  /**\n  @notice Returns the index of the given `_item` in `testData`\n  @param _item Item to be found\n  @return {\"_item_index\": \"Index of the given `_item` in `testData`\"}\n  */\n  function test_find(bytes32 _item)\n           public\n           constant\n           returns (uint256 _item_index)\n  {\n    _item_index = testData.find(_item);\n  }\n\n  /**\n  @notice Returns the item of the given `_item_index` in `testData`\n  @param _item_index Index of the item to be get\n  @return {\"_item\": \"Item of the given `_item_index` in `testData`\"}\n  */\n  function test_get(uint256 _item_index)\n           public\n           constant\n           returns (bytes32 _item)\n  {\n    _item = testData.get(_item_index);\n  }\n\n  /**\n  @notice Appends a given `_data` into `testData`\n  @param _data Data to be appended\n  @return {\"_success\": \"If appending of `data` is successful\"}\n  */\n  function test_append(bytes32 _data)\n           public\n           returns (bool _success)\n  {\n    _success = testData.append(_data);\n  }\n\n  /**\n  @notice Removes an item index based on the given `_index` in `testData`\n  @param _index Index of the item to be removed\n  @return {\"_success\": \"If removing of the `_index` is successful\"}\n  */\n  function test_remove(uint256 _index)\n           public\n           returns (bool _success)\n  {\n    _success = testData.remove(_index);\n  }\n\n  /**\n  @notice Removes an item based on the given `_item` in `testData`\n  @param _item Item to be removed\n  @return {\"_success\": \"If removing of the `_item` is successful\"}\n  */\n  function test_remove_item(bytes32 _item)\n           public\n           returns (bool _success)\n  {\n    _success = testData.remove_item(_item);\n  }\n\n  /**\n  @notice Returns the total number of items in `testData`\n  @return {\"_total_count\": \"Total number of items in `testData`\"}\n  */\n  function test_total ()\n           public\n           constant\n           returns (uint256 _total_count)\n  {\n    _total_count = testData.total();\n  }\n\n  /**\n  @notice Returns the index of the first item in `testData`\n  @return {\"_start_index\": \"Index of the first item in `testData`\"}\n  */\n  function test_start ()\n           public\n           constant\n           returns (uint256 _start_index)\n  {\n    _start_index = testData.start();\n  }\n\n  /**\n  @notice Returns the first item of `testData`\n  @return {\"_item\": \"First item of `testData`\"}\n  */\n  function test_start_item ()\n           public\n           constant\n           returns (bytes32 _item)\n  {\n    _item = testData.start_item();\n  }\n\n  /**\n  @notice Returns the index of the last item of `testData`\n  @return {\"_end_index\": \"Index of the list item in `testData`\"}\n  */\n  function test_end ()\n           public\n           constant\n           returns (uint256 _end_index)\n  {\n    _end_index = testData.end();\n  }\n\n  /**\n  @notice Returns the last item of `testData`\n  @return {\"_item\": \"Last item of `testData`\"}\n  */\n  function test_end_item ()\n           public\n           constant\n           returns (bytes32 _item)\n  {\n    _item = testData.end_item();\n  }\n\n  /**\n  @notice Checks if a given `_item_index` is a valid index in `testData`\n  @param _item_index Index of the item to be checked\n  @return {\"_yes\": \"If `_item_index` is a valid index in `testData`\"}\n  */\n  function test_valid(uint256 _item_index)\n           public\n           constant\n           returns (bool _yes)\n  {\n    _yes = testData.valid(_item_index);\n  }\n\n  /**\n  @notice Checks if a given `_item_index` is a valid index in `testData`\n  @param _item Item to be checked\n  @return {\"_yes\": \"If `_item` is a valid item in `testData`\"}\n  */\n  function test_valid_item(bytes32 _item)\n           public\n           constant\n           returns (bool _yes)\n  {\n    _yes = testData.valid_item(_item);\n  }\n\n  /**\n  @notice Returns the previous index of `testData` based on the given `_current_index`\n  @param _current_index Current index of the item\n  @return {\"_previous_index\": \"Previous index of `testData`\"}\n  */\n  function test_previous(uint256 _current_index)\n           public\n           constant\n           returns (uint256 _previous_index)\n  {\n    _previous_index = testData.previous(_current_index);\n  }\n\n  /**\n  @notice Returns the previous item of `testData` based on the given `_current_item`\n  @param _current_item Current item\n  @return {\"_previous_item\": \"Previous item of `testData`\"}\n  */\n  function test_previous_item(bytes32 _current_item)\n           public\n           constant\n           returns (bytes32 _previous_item)\n  {\n    _previous_item = testData.previous_item(_current_item);\n  }\n\n  /**\n  @notice Returns the next index of `testData` based on the given `_current_index`\n  @param _current_index Current index of the item\n  @return {\"_next_index\": \"Next index of `testData`\"}\n  */\n  function test_next(uint256 _current_index)\n           public\n           constant\n           returns (uint256 _next_index)\n  {\n    _next_index = testData.next(_current_index);\n  }\n\n  /**\n  @notice Returns the next item of `testData` based on the given `_current_item`\n  @param _current_item Current item\n  @return {\"_next_item\": \"Next item of `testData`\"}\n  */\n  function test_next_item(bytes32 _current_item)\n           public\n           constant\n           returns (bytes32 _next_item)\n  {\n    _next_item = testData.next_item(_current_item);\n  }\n}\n",
  "sourcePath": "/home/rohit/Develop/solidity-collections-library/contracts/TestLibrary.sol",
  "compiler": {
    "name": "solc",
    "version": "0.4.24+commit.e67f0147.Emscripten.clang"
  },
  "schemaVersion": "2.0.0",
  "updatedAt": "2018-08-17T06:56:24.600Z"
}