{
  "contractName": "TestLibraryAddress",
  "abi": [
    {
      "constant": false,
      "inputs": [],
      "name": "setup_reset_data",
      "outputs": [],
      "payable": false,
      "stateMutability": "nonpayable",
      "type": "function"
    },
    {
      "constant": false,
      "inputs": [],
      "name": "setup_data_for_testing",
      "outputs": [],
      "payable": false,
      "stateMutability": "nonpayable",
      "type": "function"
    },
    {
      "constant": true,
      "inputs": [],
      "name": "test_check_collection_count",
      "outputs": [
        {
          "name": "_count",
          "type": "uint256"
        }
      ],
      "payable": false,
      "stateMutability": "view",
      "type": "function"
    },
    {
      "constant": true,
      "inputs": [],
      "name": "test_check_first_index",
      "outputs": [
        {
          "name": "_first_index",
          "type": "uint256"
        }
      ],
      "payable": false,
      "stateMutability": "view",
      "type": "function"
    },
    {
      "constant": true,
      "inputs": [],
      "name": "test_check_last_index",
      "outputs": [
        {
          "name": "_last_index",
          "type": "uint256"
        }
      ],
      "payable": false,
      "stateMutability": "view",
      "type": "function"
    },
    {
      "constant": true,
      "inputs": [],
      "name": "test_check_count",
      "outputs": [
        {
          "name": "_count",
          "type": "uint256"
        }
      ],
      "payable": false,
      "stateMutability": "view",
      "type": "function"
    },
    {
      "constant": true,
      "inputs": [
        {
          "name": "_item_index",
          "type": "uint256"
        }
      ],
      "name": "test_item_previous_index",
      "outputs": [
        {
          "name": "_previous_index",
          "type": "uint256"
        }
      ],
      "payable": false,
      "stateMutability": "view",
      "type": "function"
    },
    {
      "constant": true,
      "inputs": [
        {
          "name": "_item_index",
          "type": "uint256"
        }
      ],
      "name": "test_item_next_index",
      "outputs": [
        {
          "name": "_next_index",
          "type": "uint256"
        }
      ],
      "payable": false,
      "stateMutability": "view",
      "type": "function"
    },
    {
      "constant": true,
      "inputs": [
        {
          "name": "_item",
          "type": "address"
        }
      ],
      "name": "test_find",
      "outputs": [
        {
          "name": "_item_index",
          "type": "uint256"
        }
      ],
      "payable": false,
      "stateMutability": "view",
      "type": "function"
    },
    {
      "constant": true,
      "inputs": [
        {
          "name": "_item_index",
          "type": "uint256"
        }
      ],
      "name": "test_get",
      "outputs": [
        {
          "name": "_item",
          "type": "address"
        }
      ],
      "payable": false,
      "stateMutability": "view",
      "type": "function"
    },
    {
      "constant": false,
      "inputs": [
        {
          "name": "_data",
          "type": "address"
        }
      ],
      "name": "test_append",
      "outputs": [
        {
          "name": "_success",
          "type": "bool"
        }
      ],
      "payable": false,
      "stateMutability": "nonpayable",
      "type": "function"
    },
    {
      "constant": false,
      "inputs": [
        {
          "name": "_index",
          "type": "uint256"
        }
      ],
      "name": "test_remove",
      "outputs": [
        {
          "name": "_success",
          "type": "bool"
        }
      ],
      "payable": false,
      "stateMutability": "nonpayable",
      "type": "function"
    },
    {
      "constant": false,
      "inputs": [
        {
          "name": "_item",
          "type": "address"
        }
      ],
      "name": "test_remove_item",
      "outputs": [
        {
          "name": "_success",
          "type": "bool"
        }
      ],
      "payable": false,
      "stateMutability": "nonpayable",
      "type": "function"
    },
    {
      "constant": true,
      "inputs": [],
      "name": "test_total",
      "outputs": [
        {
          "name": "_total_count",
          "type": "uint256"
        }
      ],
      "payable": false,
      "stateMutability": "view",
      "type": "function"
    },
    {
      "constant": true,
      "inputs": [],
      "name": "test_start",
      "outputs": [
        {
          "name": "_start_index",
          "type": "uint256"
        }
      ],
      "payable": false,
      "stateMutability": "view",
      "type": "function"
    },
    {
      "constant": true,
      "inputs": [],
      "name": "test_start_item",
      "outputs": [
        {
          "name": "_item",
          "type": "address"
        }
      ],
      "payable": false,
      "stateMutability": "view",
      "type": "function"
    },
    {
      "constant": true,
      "inputs": [],
      "name": "test_end",
      "outputs": [
        {
          "name": "_end_index",
          "type": "uint256"
        }
      ],
      "payable": false,
      "stateMutability": "view",
      "type": "function"
    },
    {
      "constant": true,
      "inputs": [],
      "name": "test_end_item",
      "outputs": [
        {
          "name": "_item",
          "type": "address"
        }
      ],
      "payable": false,
      "stateMutability": "view",
      "type": "function"
    },
    {
      "constant": true,
      "inputs": [
        {
          "name": "_item_index",
          "type": "uint256"
        }
      ],
      "name": "test_valid",
      "outputs": [
        {
          "name": "_yes",
          "type": "bool"
        }
      ],
      "payable": false,
      "stateMutability": "view",
      "type": "function"
    },
    {
      "constant": true,
      "inputs": [
        {
          "name": "_item",
          "type": "address"
        }
      ],
      "name": "test_valid_item",
      "outputs": [
        {
          "name": "_yes",
          "type": "bool"
        }
      ],
      "payable": false,
      "stateMutability": "view",
      "type": "function"
    },
    {
      "constant": true,
      "inputs": [
        {
          "name": "_current_index",
          "type": "uint256"
        }
      ],
      "name": "test_previous",
      "outputs": [
        {
          "name": "_previous_index",
          "type": "uint256"
        }
      ],
      "payable": false,
      "stateMutability": "view",
      "type": "function"
    },
    {
      "constant": true,
      "inputs": [
        {
          "name": "_current_item",
          "type": "address"
        }
      ],
      "name": "test_previous_item",
      "outputs": [
        {
          "name": "_previous_item",
          "type": "address"
        }
      ],
      "payable": false,
      "stateMutability": "view",
      "type": "function"
    },
    {
      "constant": true,
      "inputs": [
        {
          "name": "_current_index",
          "type": "uint256"
        }
      ],
      "name": "test_next",
      "outputs": [
        {
          "name": "_next_index",
          "type": "uint256"
        }
      ],
      "payable": false,
      "stateMutability": "view",
      "type": "function"
    },
    {
      "constant": true,
      "inputs": [
        {
          "name": "_current_item",
          "type": "address"
        }
      ],
      "name": "test_next_item",
      "outputs": [
        {
          "name": "_next_item",
          "type": "address"
        }
      ],
      "payable": false,
      "stateMutability": "view",
      "type": "function"
    }
  ],
  "bytecode": "0x6060604052341561000f57600080fd5b611a5a8061001e6000396000f30060606040526004361061013e576000357c0100000000000000000000000000000000000000000000000000000000900463ffffffff16806306a3220e146101435780630bc92aa81461016c57806317f26cda146101e5578063229270ff1461020e5780632686d2241461023757806335191acb1461027257806337273e6c146102eb5780633eed8f501461033c5780634ce33143146103735780634d85c29a146103c45780636442a1c1146103ed5780636df1452114610442578063735dc8fb146104795780637775d1df1461048e5780637fb90070146104b757806386480b97146104cc578063bdb3562214610519578063c6142b381461056e578063cad6f270146105a5578063e1a6ba30146105e0578063eeba652b14610631578063f26ef7e11461065a578063f3bedbdd14610691578063f5350782146106ba575b600080fd5b341561014e57600080fd5b61015661071d565b6040518082815260200191505060405180910390f35b341561017757600080fd5b6101a3600480803573ffffffffffffffffffffffffffffffffffffffff169060200190919050506107b4565b604051808273ffffffffffffffffffffffffffffffffffffffff1673ffffffffffffffffffffffffffffffffffffffff16815260200191505060405180910390f35b34156101f057600080fd5b6101f8610881565b6040518082815260200191505060405180910390f35b341561021957600080fd5b610221610890565b6040518082815260200191505060405180910390f35b341561024257600080fd5b610258600480803590602001909190505061089f565b604051808215151515815260200191505060405180910390f35b341561027d57600080fd5b6102a9600480803573ffffffffffffffffffffffffffffffffffffffff169060200190919050506108bc565b604051808273ffffffffffffffffffffffffffffffffffffffff1673ffffffffffffffffffffffffffffffffffffffff16815260200191505060405180910390f35b34156102f657600080fd5b610322600480803573ffffffffffffffffffffffffffffffffffffffff16906020019091905050610989565b604051808215151515815260200191505060405180910390f35b341561034757600080fd5b61035d6004808035906020019091905050610a56565b6040518082815260200191505060405180910390f35b341561037e57600080fd5b6103aa600480803573ffffffffffffffffffffffffffffffffffffffff16906020019091905050610af7565b604051808215151515815260200191505060405180910390f35b34156103cf57600080fd5b6103d7610bc4565b6040518082815260200191505060405180910390f35b34156103f857600080fd5b610400610c5b565b604051808273ffffffffffffffffffffffffffffffffffffffff1673ffffffffffffffffffffffffffffffffffffffff16815260200191505060405180910390f35b341561044d57600080fd5b6104636004808035906020019091905050610cf2565b6040518082815260200191505060405180910390f35b341561048457600080fd5b61048c610d93565b005b341561049957600080fd5b6104a1610dc9565b6040518082815260200191505060405180910390f35b34156104c257600080fd5b6104ca610ddb565b005b34156104d757600080fd5b610503600480803573ffffffffffffffffffffffffffffffffffffffff1690602001909190505061132d565b6040518082815260200191505060405180910390f35b341561052457600080fd5b61052c6113fa565b604051808273ffffffffffffffffffffffffffffffffffffffff1673ffffffffffffffffffffffffffffffffffffffff16815260200191505060405180910390f35b341561057957600080fd5b61058f6004808035906020019091905050611491565b6040518082815260200191505060405180910390f35b34156105b057600080fd5b6105c660048080359060200190919050506114c3565b604051808215151515815260200191505060405180910390f35b34156105eb57600080fd5b610617600480803573ffffffffffffffffffffffffffffffffffffffff16906020019091905050611564565b604051808215151515815260200191505060405180910390f35b341561063c57600080fd5b610644611631565b6040518082815260200191505060405180910390f35b341561066557600080fd5b61067b6004808035906020019091905050611640565b6040518082815260200191505060405180910390f35b341561069c57600080fd5b6106a4611672565b6040518082815260200191505060405180910390f35b34156106c557600080fd5b6106db6004808035906020019091905050611709565b604051808273ffffffffffffffffffffffffffffffffffffffff1673ffffffffffffffffffffffffffffffffffffffff16815260200191505060405180910390f35b60008073__DoublyLinkedList______________________6312e3853d90916000604051602001526040518263ffffffff167c01000000000000000000000000000000000000000000000000000000000281526004018082815260200191505060206040518083038186803b151561079457600080fd5b6102c65a03f415156107a557600080fd5b50505060405180519050905090565b60008073__DoublyLinkedList______________________63a7b9777c9091846000604051602001526040518363ffffffff167c0100000000000000000000000000000000000000000000000000000000028152600401808381526020018273ffffffffffffffffffffffffffffffffffffffff1673ffffffffffffffffffffffffffffffffffffffff1681526020019250505060206040518083038186803b151561085f57600080fd5b6102c65a03f4151561087057600080fd5b505050604051805190509050919050565b60008060000160020154905090565b60008060000160010154905090565b60006108b58260006117aa90919063ffffffff16565b9050919050565b60008073__DoublyLinkedList______________________6387fca8a69091846000604051602001526040518363ffffffff167c0100000000000000000000000000000000000000000000000000000000028152600401808381526020018273ffffffffffffffffffffffffffffffffffffffff1673ffffffffffffffffffffffffffffffffffffffff1681526020019250505060206040518083038186803b151561096757600080fd5b6102c65a03f4151561097857600080fd5b505050604051805190509050919050565b60008073__DoublyLinkedList______________________63bf8a2ac69091846000604051602001526040518363ffffffff167c0100000000000000000000000000000000000000000000000000000000028152600401808381526020018273ffffffffffffffffffffffffffffffffffffffff1673ffffffffffffffffffffffffffffffffffffffff1681526020019250505060206040518083038186803b1515610a3457600080fd5b6102c65a03f41515610a4557600080fd5b505050604051805190509050919050565b60008073__DoublyLinkedList______________________632788c74d9091846000604051602001526040518363ffffffff167c0100000000000000000000000000000000000000000000000000000000028152600401808381526020018281526020019250505060206040518083038186803b1515610ad557600080fd5b6102c65a03f41515610ae657600080fd5b505050604051805190509050919050565b60008073__DoublyLinkedList______________________638dc8bc2b9091846000604051602001526040518363ffffffff167c0100000000000000000000000000000000000000000000000000000000028152600401808381526020018273ffffffffffffffffffffffffffffffffffffffff1673ffffffffffffffffffffffffffffffffffffffff1681526020019250505060206040518083038186803b1515610ba257600080fd5b6102c65a03f41515610bb357600080fd5b505050604051805190509050919050565b60008073__DoublyLinkedList______________________635abec84790916000604051602001526040518263ffffffff167c01000000000000000000000000000000000000000000000000000000000281526004018082815260200191505060206040518083038186803b1515610c3b57600080fd5b6102c65a03f41515610c4c57600080fd5b50505060405180519050905090565b60008073__DoublyLinkedList______________________63c333848890916000604051602001526040518263ffffffff167c01000000000000000000000000000000000000000000000000000000000281526004018082815260200191505060206040518083038186803b1515610cd257600080fd5b6102c65a03f41515610ce357600080fd5b50505060405180519050905090565b60008073__DoublyLinkedList______________________63c55491269091846000604051602001526040518363ffffffff167c0100000000000000000000000000000000000000000000000000000000028152600401808381526020018281526020019250505060206040518083038186803b1515610d7157600080fd5b6102c65a03f41515610d8257600080fd5b505050604051805190509050919050565b6000806000820160008082016000905560018201600090556002820160009055600582016000610dc391906119ae565b50505050565b60008060000160050180549050905090565b6000806000820160008082016000905560018201600090556002820160009055600582016000610e0b91906119ae565b50505050600073__DoublyLinkedList______________________63bf8a2ac6909173249b1bf054d2b2643a0e38948aa92ccb6c2ccd7e6000604051602001526040518363ffffffff167c0100000000000000000000000000000000000000000000000000000000028152600401808381526020018273ffffffffffffffffffffffffffffffffffffffff1673ffffffffffffffffffffffffffffffffffffffff1681526020019250505060206040518083038186803b1515610ecd57600080fd5b6102c65a03f41515610ede57600080fd5b5050506040518051905050600073__DoublyLinkedList______________________63bf8a2ac69091731cd24e853af2027df542551f393b1bd0db2f1a036000604051602001526040518363ffffffff167c0100000000000000000000000000000000000000000000000000000000028152600401808381526020018273ffffffffffffffffffffffffffffffffffffffff1673ffffffffffffffffffffffffffffffffffffffff1681526020019250505060206040518083038186803b1515610fa757600080fd5b6102c65a03f41515610fb857600080fd5b5050506040518051905050600073__DoublyLinkedList______________________63bf8a2ac690917354e3872db39fc3a1fa018688bff59dd6409b0a236000604051602001526040518363ffffffff167c0100000000000000000000000000000000000000000000000000000000028152600401808381526020018273ffffffffffffffffffffffffffffffffffffffff1673ffffffffffffffffffffffffffffffffffffffff1681526020019250505060206040518083038186803b151561108157600080fd5b6102c65a03f4151561109257600080fd5b5050506040518051905050600073__DoublyLinkedList______________________63bf8a2ac69091734db089d50f72996895dc4224c8c6fae0f104bc1d6000604051602001526040518363ffffffff167c0100000000000000000000000000000000000000000000000000000000028152600401808381526020018273ffffffffffffffffffffffffffffffffffffffff1673ffffffffffffffffffffffffffffffffffffffff1681526020019250505060206040518083038186803b151561115b57600080fd5b6102c65a03f4151561116c57600080fd5b5050506040518051905050600073__DoublyLinkedList______________________63bf8a2ac690917374cd5f20ee949189bdc83f7f6088063eb7fdcc866000604051602001526040518363ffffffff167c0100000000000000000000000000000000000000000000000000000000028152600401808381526020018273ffffffffffffffffffffffffffffffffffffffff1673ffffffffffffffffffffffffffffffffffffffff1681526020019250505060206040518083038186803b151561123557600080fd5b6102c65a03f4151561124657600080fd5b5050506040518051905050600073__DoublyLinkedList______________________63bf8a2ac6909173a1fada6e4f11770a672ca678d6290b311f53c2566000604051602001526040518363ffffffff167c0100000000000000000000000000000000000000000000000000000000028152600401808381526020018273ffffffffffffffffffffffffffffffffffffffff1673ffffffffffffffffffffffffffffffffffffffff1681526020019250505060206040518083038186803b151561130f57600080fd5b6102c65a03f4151561132057600080fd5b5050506040518051905050565b60008073__DoublyLinkedList______________________637ee0a5839091846000604051602001526040518363ffffffff167c0100000000000000000000000000000000000000000000000000000000028152600401808381526020018273ffffffffffffffffffffffffffffffffffffffff1673ffffffffffffffffffffffffffffffffffffffff1681526020019250505060206040518083038186803b15156113d857600080fd5b6102c65a03f415156113e957600080fd5b505050604051805190509050919050565b60008073__DoublyLinkedList______________________63f46574aa90916000604051602001526040518263ffffffff167c01000000000000000000000000000000000000000000000000000000000281526004018082815260200191505060206040518083038186803b151561147157600080fd5b6102c65a03f4151561148257600080fd5b50505060405180519050905090565b600080600001600501600183038154811015156114aa57fe5b9060005260206000209060030201600201549050919050565b60008073__DoublyLinkedList______________________63bed5fa9a9091846000604051602001526040518363ffffffff167c0100000000000000000000000000000000000000000000000000000000028152600401808381526020018281526020019250505060206040518083038186803b151561154257600080fd5b6102c65a03f4151561155357600080fd5b505050604051805190509050919050565b60008073__DoublyLinkedList______________________6350d740909091846000604051602001526040518363ffffffff167c0100000000000000000000000000000000000000000000000000000000028152600401808381526020018273ffffffffffffffffffffffffffffffffffffffff1673ffffffffffffffffffffffffffffffffffffffff1681526020019250505060206040518083038186803b151561160f57600080fd5b6102c65a03f4151561162057600080fd5b505050604051805190509050919050565b60008060000160000154905090565b6000806000016005016001830381548110151561165957fe5b9060005260206000209060030201600101549050919050565b60008073__DoublyLinkedList______________________6322fddb1690916000604051602001526040518263ffffffff167c01000000000000000000000000000000000000000000000000000000000281526004018082815260200191505060206040518083038186803b15156116e957600080fd5b6102c65a03f415156116fa57600080fd5b50505060405180519050905090565b60008073__DoublyLinkedList______________________6390716d419091846000604051602001526040518363ffffffff167c0100000000000000000000000000000000000000000000000000000000028152600401808381526020018281526020019250505060206040518083038186803b151561178857600080fd5b6102c65a03f4151561179957600080fd5b505050604051805190509050919050565b60006117b983600001836117c1565b905092915050565b60006117cb6119d2565b6001151584600401600085815260200190815260200160002060009054906101000a900460ff16151514156119a257836005016001840381548110151561180e57fe5b90600052602060002090600302016060604051908101604052908160008201546000191660001916815260200160018201548152602001600282015481525050905060008160200151141561186f57806040015184600001819055506118a2565b806040015184600501600183602001510381548110151561188c57fe5b9060005260206000209060030201600201819055505b6000816040015114156118c157806020015184600101819055506118f4565b80602001518460050160018360400151038154811015156118de57fe5b9060005260206000209060030201600101819055505b836005016001840381548110151561190857fe5b9060005260206000209060030201600080820160009055600182016000905560028201600090555050600084600401600085815260200190815260200160002060006101000a81548160ff02191690831515021790555083600301600082600001516000191660001916815260200190815260200160002060009055836002016000815480929190600190039190505550600191506119a7565b600091505b5092915050565b50805460008255600302906000526020600020908101906119cf91906119f7565b50565b6060604051908101604052806000801916815260200160008152602001600081525090565b611a2b91905b80821115611a275760008082016000905560018201600090556002820160009055506003016119fd565b5090565b905600a165627a7a723058201b7cc6417c1312624f4f161c88bfec0a93e83e3fa737c8994ca5f9a54bec316f0029",
  "source": "pragma solidity ^0.4.19;\n\nimport './lib/DoublyLinkedList.sol';\n\n/**\n  @title Contract that Uses Address Struct of DoublyLinkedList Library for Testing\n  @author DigixGlobal Pte Ltd\n*/\ncontract TestLibraryAddress {\n  using DoublyLinkedList for DoublyLinkedList.Address;\n  DoublyLinkedList.Address testData;\n\n  /// @notice Deletes the `testData` values\n  function setup_reset_data () public {\n    delete testData;\n  }\n\n  /// @notice Setups `testData` values for testing\n  function setup_data_for_testing ()\n           public\n  {\n      delete testData;\n      testData.append(address(0x249B1bF054d2b2643A0E38948aa92ccb6c2CCD7E));\n      testData.append(address(0x1Cd24e853aF2027dF542551f393b1bD0DB2f1a03));\n      testData.append(address(0x54E3872Db39FC3A1Fa018688bfF59dd6409B0a23));\n      testData.append(address(0x4DB089D50f72996895DC4224c8C6FaE0f104bc1D));\n      testData.append(address(0x74cD5f20eE949189bdc83F7F6088063EB7fdcc86));\n      testData.append(address(0xa1FADA6e4F11770A672Ca678d6290b311f53c256));\n  }\n\n  /**\n  @notice Returns the total number of collection in `testData.data`\n  @return {\"_count\": \"The total number of collection in `testData.data`\"}\n  */\n  function test_check_collection_count () public constant returns (uint256 _count) {\n    _count = testData.data.collection.length;\n  }\n\n  /**\n  @notice Returns the first index of `testData.data`\n  @return {\"_first_index\": \"First index of `testData.data`\"}\n  */\n  function test_check_first_index () public constant returns (uint256 _first_index) {\n    _first_index = testData.data.first_index;\n  }\n\n  /**\n  @notice Returns the last index of `testData.data`\n  @return {\"_first_index\": \"Last index of `testData.data`\"}\n  */\n  function test_check_last_index () public constant returns (uint256 _last_index) {\n    _last_index = testData.data.last_index;\n  }\n\n  /**\n  @notice Returns the total number of items in `testData.data`\n  @return {\"_count\": \"Total number of items in `testData.data`\"}\n  */\n  function test_check_count () public constant returns (uint256 _count) {\n    _count = testData.data.count;\n  }\n\n  /**\n  @notice Returns the previous index in `testData.data` based on the given `_item_index`\n  @param _item_index Starting index of the item\n  @return {\"_previous_index\": \"Index of the previous item of `testData.data`\"}\n  */\n  function test_item_previous_index (uint256 _item_index) public constant returns (uint256 _previous_index) {\n    _previous_index = testData.data.collection[_item_index-1].previous_index;\n  }\n\n  /**\n  @notice Returns the next index in `testData.data` based on the given `_item_index`\n  @param _item_index Starting index of the item\n  @return {\"_next_index\": \"Index of the next item of `testData.data`\"}\n  */\n  function test_item_next_index (uint256 _item_index) public constant returns (uint256 _next_index) {\n    _next_index = testData.data.collection[_item_index-1].next_index;\n  }\n\n  /**\n  @notice Returns the index of the given `_item` in `testData`\n  @param _item Address of item to be found\n  @return {\"_item_index\": \"Index of the given `_item` in `testData`\"}\n  */\n  function test_find(address _item)\n           public\n           constant\n           returns (uint256 _item_index)\n  {\n    _item_index = testData.find(_item);\n  }\n\n  /**\n  @notice Returns the item of the given `_item_index` in `testData`\n  @param _item_index Index of the item to be get\n  @return {\"_item\": \"Item of the given `_item_index` in `testData`\"}\n  */\n  function test_get(uint256 _item_index)\n           public\n           constant\n           returns (address _item)\n  {\n    _item = testData.get(_item_index);\n  }\n\n  /**\n  @notice Appends a given `_data` into `testData`\n  @param _data Data to be appended\n  @return {\"_success\": \"If appending of `data` is successful\"}\n  */\n  function test_append(address _data)\n           public\n           returns (bool _success)\n  {\n    _success = testData.append(_data);\n  }\n\n  /**\n  @notice Removes an item index based on the given `_index` in `testData`\n  @param _index Index of the item to be removed\n  @return {\"_success\": \"If removing of the `_index` is successful\"}\n  */\n  function test_remove(uint256 _index)\n           public\n           returns (bool _success)\n  {\n    _success = testData.remove(_index);\n  }\n\n  /**\n  @notice Removes an item based on the given `_item` in `testData`\n  @param _item Item to be removed\n  @return {\"_success\": \"If removing of the `_item` is successful\"}\n  */\n  function test_remove_item(address _item)\n           public\n           returns (bool _success)\n  {\n    _success = testData.remove_item(_item);\n  }\n\n  /**\n  @notice Returns the total number of items in `testData`\n  @return {\"_total_count\": \"Total number of items in `testData`\"}\n  */\n  function test_total ()\n           public\n           constant\n           returns (uint256 _total_count)\n  {\n    _total_count = testData.total();\n  }\n\n  /**\n  @notice Returns the index of the first item in `testData`\n  @return {\"_start_index\": \"Index of the first item in `testData`\"}\n  */\n  function test_start ()\n           public\n           constant\n           returns (uint256 _start_index)\n  {\n    _start_index = testData.start();\n  }\n\n  /**\n  @notice Returns the first item of `testData`\n  @return {\"_item\": \"First item of `testData`\"}\n  */\n  function test_start_item ()\n           public\n           constant\n           returns (address _item)\n  {\n    _item = testData.start_item();\n  }\n\n  /**\n  @notice Returns the index of the last item of `testData`\n  @return {\"_end_index\": \"Index of the list item in `testData`\"}\n  */\n  function test_end ()\n           public\n           constant\n           returns (uint256 _end_index)\n  {\n    _end_index = testData.end();\n  }\n\n  /**\n  @notice Returns the last item of `testData`\n  @return {\"_item\": \"Last item of `testData`\"}\n  */\n  function test_end_item ()\n           public\n           constant\n           returns (address _item)\n  {\n    _item = testData.end_item();\n  }\n\n  /**\n  @notice Checks if a given `_item_index` is a valid index in `testData`\n  @param _item_index Index of the item to be checked\n  @return {\"_yes\": \"If `_item_index` is a valid index in `testData`\"}\n  */\n  function test_valid(uint256 _item_index)\n           public\n           constant\n           returns (bool _yes)\n  {\n    _yes = testData.valid(_item_index);\n  }\n\n  /**\n  @notice Checks if a given `_item_index` is a valid index in `testData`\n  @param _item Item to be checked\n  @return {\"_yes\": \"If `_item` is a valid item in `testData`\"}\n  */\n  function test_valid_item(address _item)\n           public\n           constant\n           returns (bool _yes)\n  {\n    _yes = testData.valid_item(_item);\n  }\n\n  /**\n  @notice Returns the previous index of `testData` based on the given `_current_index`\n  @param _current_index Current index of the item\n  @return {\"_previous_index\": \"Previous index of `testData`\"}\n  */\n  function test_previous(uint256 _current_index)\n           public\n           constant\n           returns (uint256 _previous_index)\n  {\n    _previous_index = testData.previous(_current_index);\n  }\n\n  /**\n  @notice Returns the previous item of `testData` based on the given `_current_item`\n  @param _current_item Current item\n  @return {\"_previous_item\": \"Previous item of `testData`\"}\n  */\n  function test_previous_item(address _current_item)\n           public\n           constant\n           returns (address _previous_item)\n  {\n    _previous_item = testData.previous_item(_current_item);\n  }\n\n  /**\n  @notice Returns the next index of `testData` based on the given `_current_index`\n  @param _current_index Current index of the item\n  @return {\"_next_index\": \"Next index of `testData`\"}\n  */\n  function test_next(uint256 _current_index)\n           public\n           constant\n           returns (uint256 _next_index)\n  {\n    _next_index = testData.next(_current_index);\n  }\n\n  /**\n  @notice Returns the next item of `testData` based on the given `_current_item`\n  @param _current_item Current item\n  @return {\"_next_item\": \"Next item of `testData`\"}\n  */\n  function test_next_item(address _current_item)\n           public\n           constant\n           returns (address _next_item)\n  {\n    _next_item = testData.next_item(_current_item);\n  }\n}\n",
  "sourcePath": "/home/rohit/Develop/solidity-collections-library/contracts/TestLibraryAddress.sol",
  "compiler": {
    "name": "solc",
    "version": "0.4.19+commit.c4cbbb05.Emscripten.clang"
  },
  "schemaVersion": "1.0.1",
  "updatedAt": "2018-03-07T03:38:46.672Z"
}