{
  "contractName": "TestLibraryUint",
  "abi": [
    {
      "constant": false,
      "inputs": [],
      "name": "setup_reset_data",
      "outputs": [],
      "payable": false,
      "stateMutability": "nonpayable",
      "type": "function"
    },
    {
      "constant": false,
      "inputs": [],
      "name": "setup_data_for_testing",
      "outputs": [],
      "payable": false,
      "stateMutability": "nonpayable",
      "type": "function"
    },
    {
      "constant": true,
      "inputs": [],
      "name": "test_check_collection_count",
      "outputs": [
        {
          "name": "_count",
          "type": "uint256"
        }
      ],
      "payable": false,
      "stateMutability": "view",
      "type": "function"
    },
    {
      "constant": true,
      "inputs": [],
      "name": "test_check_first_index",
      "outputs": [
        {
          "name": "_first_index",
          "type": "uint256"
        }
      ],
      "payable": false,
      "stateMutability": "view",
      "type": "function"
    },
    {
      "constant": true,
      "inputs": [],
      "name": "test_check_last_index",
      "outputs": [
        {
          "name": "_last_index",
          "type": "uint256"
        }
      ],
      "payable": false,
      "stateMutability": "view",
      "type": "function"
    },
    {
      "constant": true,
      "inputs": [],
      "name": "test_check_count",
      "outputs": [
        {
          "name": "_count",
          "type": "uint256"
        }
      ],
      "payable": false,
      "stateMutability": "view",
      "type": "function"
    },
    {
      "constant": true,
      "inputs": [
        {
          "name": "_item_index",
          "type": "uint256"
        }
      ],
      "name": "test_item_previous_index",
      "outputs": [
        {
          "name": "_previous_index",
          "type": "uint256"
        }
      ],
      "payable": false,
      "stateMutability": "view",
      "type": "function"
    },
    {
      "constant": true,
      "inputs": [
        {
          "name": "_item_index",
          "type": "uint256"
        }
      ],
      "name": "test_item_next_index",
      "outputs": [
        {
          "name": "_next_index",
          "type": "uint256"
        }
      ],
      "payable": false,
      "stateMutability": "view",
      "type": "function"
    },
    {
      "constant": true,
      "inputs": [
        {
          "name": "_item",
          "type": "uint256"
        }
      ],
      "name": "test_find",
      "outputs": [
        {
          "name": "_item_index",
          "type": "uint256"
        }
      ],
      "payable": false,
      "stateMutability": "view",
      "type": "function"
    },
    {
      "constant": true,
      "inputs": [
        {
          "name": "_item_index",
          "type": "uint256"
        }
      ],
      "name": "test_get",
      "outputs": [
        {
          "name": "_item",
          "type": "uint256"
        }
      ],
      "payable": false,
      "stateMutability": "view",
      "type": "function"
    },
    {
      "constant": false,
      "inputs": [
        {
          "name": "_data",
          "type": "uint256"
        }
      ],
      "name": "test_append",
      "outputs": [
        {
          "name": "_success",
          "type": "bool"
        }
      ],
      "payable": false,
      "stateMutability": "nonpayable",
      "type": "function"
    },
    {
      "constant": false,
      "inputs": [
        {
          "name": "_index",
          "type": "uint256"
        }
      ],
      "name": "test_remove",
      "outputs": [
        {
          "name": "_success",
          "type": "bool"
        }
      ],
      "payable": false,
      "stateMutability": "nonpayable",
      "type": "function"
    },
    {
      "constant": false,
      "inputs": [
        {
          "name": "_item",
          "type": "uint256"
        }
      ],
      "name": "test_remove_item",
      "outputs": [
        {
          "name": "_success",
          "type": "bool"
        }
      ],
      "payable": false,
      "stateMutability": "nonpayable",
      "type": "function"
    },
    {
      "constant": true,
      "inputs": [],
      "name": "test_total",
      "outputs": [
        {
          "name": "_total_count",
          "type": "uint256"
        }
      ],
      "payable": false,
      "stateMutability": "view",
      "type": "function"
    },
    {
      "constant": true,
      "inputs": [],
      "name": "test_start",
      "outputs": [
        {
          "name": "_start_index",
          "type": "uint256"
        }
      ],
      "payable": false,
      "stateMutability": "view",
      "type": "function"
    },
    {
      "constant": true,
      "inputs": [],
      "name": "test_start_item",
      "outputs": [
        {
          "name": "_item",
          "type": "uint256"
        }
      ],
      "payable": false,
      "stateMutability": "view",
      "type": "function"
    },
    {
      "constant": true,
      "inputs": [],
      "name": "test_end",
      "outputs": [
        {
          "name": "_end_index",
          "type": "uint256"
        }
      ],
      "payable": false,
      "stateMutability": "view",
      "type": "function"
    },
    {
      "constant": true,
      "inputs": [],
      "name": "test_end_item",
      "outputs": [
        {
          "name": "_item",
          "type": "uint256"
        }
      ],
      "payable": false,
      "stateMutability": "view",
      "type": "function"
    },
    {
      "constant": true,
      "inputs": [
        {
          "name": "_item_index",
          "type": "uint256"
        }
      ],
      "name": "test_valid",
      "outputs": [
        {
          "name": "_yes",
          "type": "bool"
        }
      ],
      "payable": false,
      "stateMutability": "view",
      "type": "function"
    },
    {
      "constant": true,
      "inputs": [
        {
          "name": "_item",
          "type": "uint256"
        }
      ],
      "name": "test_valid_item",
      "outputs": [
        {
          "name": "_yes",
          "type": "bool"
        }
      ],
      "payable": false,
      "stateMutability": "view",
      "type": "function"
    },
    {
      "constant": true,
      "inputs": [
        {
          "name": "_current_index",
          "type": "uint256"
        }
      ],
      "name": "test_previous",
      "outputs": [
        {
          "name": "_previous_index",
          "type": "uint256"
        }
      ],
      "payable": false,
      "stateMutability": "view",
      "type": "function"
    },
    {
      "constant": true,
      "inputs": [
        {
          "name": "_current_item",
          "type": "uint256"
        }
      ],
      "name": "test_previous_item",
      "outputs": [
        {
          "name": "_previous_item",
          "type": "uint256"
        }
      ],
      "payable": false,
      "stateMutability": "view",
      "type": "function"
    },
    {
      "constant": true,
      "inputs": [
        {
          "name": "_current_index",
          "type": "uint256"
        }
      ],
      "name": "test_next",
      "outputs": [
        {
          "name": "_next_index",
          "type": "uint256"
        }
      ],
      "payable": false,
      "stateMutability": "view",
      "type": "function"
    },
    {
      "constant": true,
      "inputs": [
        {
          "name": "_current_item",
          "type": "uint256"
        }
      ],
      "name": "test_next_item",
      "outputs": [
        {
          "name": "_next_item",
          "type": "uint256"
        }
      ],
      "payable": false,
      "stateMutability": "view",
      "type": "function"
    }
  ],
  "bytecode": "0x6060604052341561000f57600080fd5b6116788061001e6000396000f30060606040526004361061013e576000357c0100000000000000000000000000000000000000000000000000000000900463ffffffff1680630370c6d51461014357806306a3220e1461017e57806317f26cda146101a7578063229270ff146101d05780632686d224146101f95780633eed8f50146102345780634d85c29a1461026b5780636442a1c1146102945780636df14521146102bd578063735dc8fb146102f45780637775d1df146103095780637fb9007014610332578063bdb3562214610347578063c6142b3814610370578063cad6f270146103a7578063e3e46797146103e2578063e503130c14610419578063e66610d114610450578063eeba652b1461048b578063f26ef7e1146104b4578063f3bedbdd146104eb578063f535078214610514578063f5bc270a1461054b578063fd107af614610582575b600080fd5b341561014e57600080fd5b61016460048080359060200190919050506105bd565b604051808215151515815260200191505060405180910390f35b341561018957600080fd5b61019161065e565b6040518082815260200191505060405180910390f35b34156101b257600080fd5b6101ba6106f5565b6040518082815260200191505060405180910390f35b34156101db57600080fd5b6101e3610704565b6040518082815260200191505060405180910390f35b341561020457600080fd5b61021a6004808035906020019091905050610713565b604051808215151515815260200191505060405180910390f35b341561023f57600080fd5b6102556004808035906020019091905050610730565b6040518082815260200191505060405180910390f35b341561027657600080fd5b61027e6107d1565b6040518082815260200191505060405180910390f35b341561029f57600080fd5b6102a7610868565b6040518082815260200191505060405180910390f35b34156102c857600080fd5b6102de60048080359060200190919050506108ff565b6040518082815260200191505060405180910390f35b34156102ff57600080fd5b6103076109a0565b005b341561031457600080fd5b61031c6109d6565b6040518082815260200191505060405180910390f35b341561033d57600080fd5b6103456109e8565b005b341561035257600080fd5b61035a610dc0565b6040518082815260200191505060405180910390f35b341561037b57600080fd5b6103916004808035906020019091905050610e57565b6040518082815260200191505060405180910390f35b34156103b257600080fd5b6103c86004808035906020019091905050610e89565b604051808215151515815260200191505060405180910390f35b34156103ed57600080fd5b6104036004808035906020019091905050610f2a565b6040518082815260200191505060405180910390f35b341561042457600080fd5b61043a6004808035906020019091905050610fcb565b6040518082815260200191505060405180910390f35b341561045b57600080fd5b610471600480803590602001909190505061106c565b604051808215151515815260200191505060405180910390f35b341561049657600080fd5b61049e61110d565b6040518082815260200191505060405180910390f35b34156104bf57600080fd5b6104d5600480803590602001909190505061111c565b6040518082815260200191505060405180910390f35b34156104f657600080fd5b6104fe61114e565b6040518082815260200191505060405180910390f35b341561051f57600080fd5b61053560048080359060200190919050506111e5565b6040518082815260200191505060405180910390f35b341561055657600080fd5b61056c6004808035906020019091905050611286565b6040518082815260200191505060405180910390f35b341561058d57600080fd5b6105a36004808035906020019091905050611327565b604051808215151515815260200191505060405180910390f35b60008073__DoublyLinkedList______________________63165a1b3e9091846000604051602001526040518363ffffffff167c0100000000000000000000000000000000000000000000000000000000028152600401808381526020018281526020019250505060206040518083038186803b151561063c57600080fd5b6102c65a03f4151561064d57600080fd5b505050604051805190509050919050565b60008073__DoublyLinkedList______________________633ae6974290916000604051602001526040518263ffffffff167c01000000000000000000000000000000000000000000000000000000000281526004018082815260200191505060206040518083038186803b15156106d557600080fd5b6102c65a03f415156106e657600080fd5b50505060405180519050905090565b60008060000160020154905090565b60008060000160010154905090565b60006107298260006113c890919063ffffffff16565b9050919050565b60008073__DoublyLinkedList______________________63bd3d106f9091846000604051602001526040518363ffffffff167c0100000000000000000000000000000000000000000000000000000000028152600401808381526020018281526020019250505060206040518083038186803b15156107af57600080fd5b6102c65a03f415156107c057600080fd5b505050604051805190509050919050565b60008073__DoublyLinkedList______________________6362bc354790916000604051602001526040518263ffffffff167c01000000000000000000000000000000000000000000000000000000000281526004018082815260200191505060206040518083038186803b151561084857600080fd5b6102c65a03f4151561085957600080fd5b50505060405180519050905090565b60008073__DoublyLinkedList______________________631240ff5a90916000604051602001526040518263ffffffff167c01000000000000000000000000000000000000000000000000000000000281526004018082815260200191505060206040518083038186803b15156108df57600080fd5b6102c65a03f415156108f057600080fd5b50505060405180519050905090565b60008073__DoublyLinkedList______________________63d70fcee49091846000604051602001526040518363ffffffff167c0100000000000000000000000000000000000000000000000000000000028152600401808381526020018281526020019250505060206040518083038186803b151561097e57600080fd5b6102c65a03f4151561098f57600080fd5b505050604051805190509050919050565b60008060008201600080820160009055600182016000905560028201600090556005820160006109d091906115cc565b50505050565b60008060000160050180549050905090565b6000806000820160008082016000905560018201600090556002820160009055600582016000610a1891906115cc565b50505050600073__DoublyLinkedList______________________63d372d5f6909160656000604051602001526040518363ffffffff167c0100000000000000000000000000000000000000000000000000000000028152600401808381526020018281526020019250505060206040518083038186803b1515610a9b57600080fd5b6102c65a03f41515610aac57600080fd5b5050506040518051905050600073__DoublyLinkedList______________________63d372d5f6909160666000604051602001526040518363ffffffff167c0100000000000000000000000000000000000000000000000000000000028152600401808381526020018281526020019250505060206040518083038186803b1515610b3657600080fd5b6102c65a03f41515610b4757600080fd5b5050506040518051905050600073__DoublyLinkedList______________________63d372d5f6909160676000604051602001526040518363ffffffff167c0100000000000000000000000000000000000000000000000000000000028152600401808381526020018281526020019250505060206040518083038186803b1515610bd157600080fd5b6102c65a03f41515610be257600080fd5b5050506040518051905050600073__DoublyLinkedList______________________63d372d5f6909160686000604051602001526040518363ffffffff167c0100000000000000000000000000000000000000000000000000000000028152600401808381526020018281526020019250505060206040518083038186803b1515610c6c57600080fd5b6102c65a03f41515610c7d57600080fd5b5050506040518051905050600073__DoublyLinkedList______________________63d372d5f6909160696000604051602001526040518363ffffffff167c0100000000000000000000000000000000000000000000000000000000028152600401808381526020018281526020019250505060206040518083038186803b1515610d0757600080fd5b6102c65a03f41515610d1857600080fd5b5050506040518051905050600073__DoublyLinkedList______________________63d372d5f69091606a6000604051602001526040518363ffffffff167c0100000000000000000000000000000000000000000000000000000000028152600401808381526020018281526020019250505060206040518083038186803b1515610da257600080fd5b6102c65a03f41515610db357600080fd5b5050506040518051905050565b60008073__DoublyLinkedList______________________635e0d4aa990916000604051602001526040518263ffffffff167c01000000000000000000000000000000000000000000000000000000000281526004018082815260200191505060206040518083038186803b1515610e3757600080fd5b6102c65a03f41515610e4857600080fd5b50505060405180519050905090565b60008060000160050160018303815481101515610e7057fe5b9060005260206000209060030201600201549050919050565b60008073__DoublyLinkedList______________________63cc71a88d9091846000604051602001526040518363ffffffff167c0100000000000000000000000000000000000000000000000000000000028152600401808381526020018281526020019250505060206040518083038186803b1515610f0857600080fd5b6102c65a03f41515610f1957600080fd5b505050604051805190509050919050565b60008073__DoublyLinkedList______________________6340c6bb189091846000604051602001526040518363ffffffff167c0100000000000000000000000000000000000000000000000000000000028152600401808381526020018281526020019250505060206040518083038186803b1515610fa957600080fd5b6102c65a03f41515610fba57600080fd5b505050604051805190509050919050565b60008073__DoublyLinkedList______________________6377ed072f9091846000604051602001526040518363ffffffff167c0100000000000000000000000000000000000000000000000000000000028152600401808381526020018281526020019250505060206040518083038186803b151561104a57600080fd5b6102c65a03f4151561105b57600080fd5b505050604051805190509050919050565b60008073__DoublyLinkedList______________________63d372d5f69091846000604051602001526040518363ffffffff167c0100000000000000000000000000000000000000000000000000000000028152600401808381526020018281526020019250505060206040518083038186803b15156110eb57600080fd5b6102c65a03f415156110fc57600080fd5b505050604051805190509050919050565b60008060000160000154905090565b6000806000016005016001830381548110151561113557fe5b9060005260206000209060030201600101549050919050565b60008073__DoublyLinkedList______________________63d9970ab390916000604051602001526040518263ffffffff167c01000000000000000000000000000000000000000000000000000000000281526004018082815260200191505060206040518083038186803b15156111c557600080fd5b6102c65a03f415156111d657600080fd5b50505060405180519050905090565b60008073__DoublyLinkedList______________________63e83733239091846000604051602001526040518363ffffffff167c0100000000000000000000000000000000000000000000000000000000028152600401808381526020018281526020019250505060206040518083038186803b151561126457600080fd5b6102c65a03f4151561127557600080fd5b505050604051805190509050919050565b60008073__DoublyLinkedList______________________63ec40b8979091846000604051602001526040518363ffffffff167c0100000000000000000000000000000000000000000000000000000000028152600401808381526020018281526020019250505060206040518083038186803b151561130557600080fd5b6102c65a03f4151561131657600080fd5b505050604051805190509050919050565b60008073__DoublyLinkedList______________________639500c08e9091846000604051602001526040518363ffffffff167c0100000000000000000000000000000000000000000000000000000000028152600401808381526020018281526020019250505060206040518083038186803b15156113a657600080fd5b6102c65a03f415156113b757600080fd5b505050604051805190509050919050565b60006113d783600001836113df565b905092915050565b60006113e96115f0565b6001151584600401600085815260200190815260200160002060009054906101000a900460ff16151514156115c057836005016001840381548110151561142c57fe5b90600052602060002090600302016060604051908101604052908160008201546000191660001916815260200160018201548152602001600282015481525050905060008160200151141561148d57806040015184600001819055506114c0565b80604001518460050160018360200151038154811015156114aa57fe5b9060005260206000209060030201600201819055505b6000816040015114156114df5780602001518460010181905550611512565b80602001518460050160018360400151038154811015156114fc57fe5b9060005260206000209060030201600101819055505b836005016001840381548110151561152657fe5b9060005260206000209060030201600080820160009055600182016000905560028201600090555050600084600401600085815260200190815260200160002060006101000a81548160ff02191690831515021790555083600301600082600001516000191660001916815260200190815260200160002060009055836002016000815480929190600190039190505550600191506115c5565b600091505b5092915050565b50805460008255600302906000526020600020908101906115ed9190611615565b50565b6060604051908101604052806000801916815260200160008152602001600081525090565b61164991905b8082111561164557600080820160009055600182016000905560028201600090555060030161161b565b5090565b905600a165627a7a723058203086ada2e0dcaa528c6bfa5782d7e7c1b840185d9c535d6bfffb08aceed6dd920029",
  "source": "pragma solidity ^0.4.19;\n\nimport './lib/DoublyLinkedList.sol';\n\n/**\n  @title Contract that Uses Uint Struct of DoublyLinkedList Library for Testing\n  @author DigixGlobal Pte Ltd\n*/\ncontract TestLibraryUint {\n  using DoublyLinkedList for DoublyLinkedList.Uint;\n  DoublyLinkedList.Uint testData;\n\n  /// @notice Deletes the `testData` values\n  function setup_reset_data () public {\n    delete testData;\n  }\n\n  /// @notice Setups `testData` values for testing\n  function setup_data_for_testing ()\n           public\n  {\n      delete testData;\n      testData.append(101);\n      testData.append(102);\n      testData.append(103);\n      testData.append(104);\n      testData.append(105);\n      testData.append(106);\n  }\n\n  /**\n  @notice Returns the total number of collection in `testData.data`\n  @return {\"_count\": \"The total number of collection in `testData.data`\"}\n  */\n  function test_check_collection_count () public constant returns (uint256 _count) {\n    _count = testData.data.collection.length;\n  }\n\n  /**\n  @notice Returns the first index of `testData.data`\n  @return {\"_first_index\": \"First index of `testData.data`\"}\n  */\n  function test_check_first_index () public constant returns (uint256 _first_index) {\n    _first_index = testData.data.first_index;\n  }\n\n  /**\n  @notice Returns the last index of `testData.data`\n  @return {\"_first_index\": \"Last index of `testData.data`\"}\n  */\n  function test_check_last_index () public constant returns (uint256 _last_index) {\n    _last_index = testData.data.last_index;\n  }\n\n  /**\n  @notice Returns the total number of items in `testData.data`\n  @return {\"_count\": \"Total number of items in `testData.data`\"}\n  */\n  function test_check_count () public constant returns (uint256 _count) {\n    _count = testData.data.count;\n  }\n\n  /**\n  @notice Returns the previous index in `testData.data` based on the given `_item_index`\n  @param _item_index Starting index of the item\n  @return {\"_previous_index\": \"Index of the previous item of `testData.data`\"}\n  */\n  function test_item_previous_index (uint256 _item_index) public constant returns (uint256 _previous_index) {\n    _previous_index = testData.data.collection[_item_index-1].previous_index;\n  }\n\n  /**\n  @notice Returns the next index in `testData.data` based on the given `_item_index`\n  @param _item_index Starting index of the item\n  @return {\"_next_index\": \"Index of the next item of `testData.data`\"}\n  */\n  function test_item_next_index (uint256 _item_index) public constant returns (uint256 _next_index) {\n    _next_index = testData.data.collection[_item_index-1].next_index;\n  }\n\n  /**\n  @notice Returns the index of the given `_item` in `testData`\n  @param _item Address of item to be found\n  @return {\"_item_index\": \"Index of the given `_item` in `testData`\"}\n  */\n  function test_find(uint256 _item)\n           public\n           constant\n           returns (uint256 _item_index)\n  {\n    _item_index = testData.find(_item);\n  }\n\n  /**\n  @notice Returns the item of the given `_item_index` in `testData`\n  @param _item_index Index of the item to be get\n  @return {\"_item\": \"Item of the given `_item_index` in `testData`\"}\n  */\n  function test_get(uint256 _item_index)\n           public\n           constant\n           returns (uint256 _item)\n  {\n    _item = testData.get(_item_index);\n  }\n\n  /**\n  @notice Appends a given `_data` into `testData`\n  @param _data Data to be appended\n  @return {\"_success\": \"If appending of `data` is successful\"}\n  */\n  function test_append(uint256 _data)\n           public\n           returns (bool _success)\n  {\n    _success = testData.append(_data);\n  }\n\n  /**\n  @notice Removes an item index based on the given `_index` in `testData`\n  @param _index Index of the item to be removed\n  @return {\"_success\": \"If removing of the `_index` is successful\"}\n  */\n  function test_remove(uint256 _index)\n           public\n           returns (bool _success)\n  {\n    _success = testData.remove(_index);\n  }\n\n  /**\n  @notice Removes an item based on the given `_item` in `testData`\n  @param _item Item to be removed\n  @return {\"_success\": \"If removing of the `_item` is successful\"}\n  */\n  function test_remove_item(uint256 _item)\n           public\n           returns (bool _success)\n  {\n    _success = testData.remove_item(_item);\n  }\n\n  /**\n  @notice Returns the total number of items in `testData`\n  @return {\"_total_count\": \"Total number of items in `testData`\"}\n  */\n  function test_total ()\n           public\n           constant\n           returns (uint256 _total_count)\n  {\n    _total_count = testData.total();\n  }\n\n  /**\n  @notice Returns the index of the first item in `testData`\n  @return {\"_start_index\": \"Index of the first item in `testData`\"}\n  */\n  function test_start ()\n           public\n           constant\n           returns (uint256 _start_index)\n  {\n    _start_index = testData.start();\n  }\n\n  /**\n  @notice Returns the first item of `testData`\n  @return {\"_item\": \"First item of `testData`\"}\n  */\n  function test_start_item ()\n           public\n           constant\n           returns (uint256 _item)\n  {\n    _item = testData.start_item();\n  }\n\n  /**\n  @notice Returns the index of the last item of `testData`\n  @return {\"_end_index\": \"Index of the list item in `testData`\"}\n  */\n  function test_end ()\n           public\n           constant\n           returns (uint256 _end_index)\n  {\n    _end_index = testData.end();\n  }\n\n  /**\n  @notice Returns the last item of `testData`\n  @return {\"_item\": \"Last item of `testData`\"}\n  */\n  function test_end_item ()\n           public\n           constant\n           returns (uint256 _item)\n  {\n    _item = testData.end_item();\n  }\n\n  /**\n  @notice Checks if a given `_item_index` is a valid index in `testData`\n  @param _item_index Index of the item to be checked\n  @return {\"_yes\": \"If `_item_index` is a valid index in `testData`\"}\n  */\n  function test_valid(uint256 _item_index)\n           public\n           constant\n           returns (bool _yes)\n  {\n    _yes = testData.valid(_item_index);\n  }\n\n  /**\n  @notice Checks if a given `_item_index` is a valid index in `testData`\n  @param _item Item to be checked\n  @return {\"_yes\": \"If `_item` is a valid item in `testData`\"}\n  */\n  function test_valid_item(uint256 _item)\n           public\n           constant\n           returns (bool _yes)\n  {\n    _yes = testData.valid_item(_item);\n  }\n\n  /**\n  @notice Returns the previous index of `testData` based on the given `_current_index`\n  @param _current_index Current index of the item\n  @return {\"_previous_index\": \"Previous index of `testData`\"}\n  */\n  function test_previous(uint256 _current_index)\n           public\n           constant\n           returns (uint256 _previous_index)\n  {\n    _previous_index = testData.previous(_current_index);\n  }\n\n  /**\n  @notice Returns the previous item of `testData` based on the given `_current_item`\n  @param _current_item Current item\n  @return {\"_previous_item\": \"Previous item of `testData`\"}\n  */\n  function test_previous_item(uint256 _current_item)\n           public\n           constant\n           returns (uint256 _previous_item)\n  {\n    _previous_item = testData.previous_item(_current_item);\n  }\n\n  /**\n  @notice Returns the next index of `testData` based on the given `_current_index`\n  @param _current_index Current index of the item\n  @return {\"_next_index\": \"Next index of `testData`\"}\n  */\n  function test_next(uint256 _current_index)\n           public\n           constant\n           returns (uint256 _next_index)\n  {\n    _next_index = testData.next(_current_index);\n  }\n\n  /**\n  @notice Returns the next item of `testData` based on the given `_current_item`\n  @param _current_item Current item\n  @return {\"_next_item\": \"Next item of `testData`\"}\n  */\n  function test_next_item(uint256 _current_item)\n           public\n           constant\n           returns (uint256 _next_item)\n  {\n    _next_item = testData.next_item(_current_item);\n  }\n}\n",
  "sourcePath": "/home/rohit/Develop/solidity-collections-library/contracts/TestLibraryUint.sol",
  "compiler": {
    "name": "solc",
    "version": "0.4.19+commit.c4cbbb05.Emscripten.clang"
  },
  "schemaVersion": "1.0.1",
  "updatedAt": "2018-03-07T03:38:46.674Z"
}