{
  "contractName": "TestDoublyLinkedList",
  "abi": [
    {
      "constant": false,
      "inputs": [],
      "name": "setup_reset_data",
      "outputs": [],
      "payable": false,
      "stateMutability": "nonpayable",
      "type": "function"
    },
    {
      "constant": false,
      "inputs": [],
      "name": "setup_data_for_testing",
      "outputs": [],
      "payable": false,
      "stateMutability": "nonpayable",
      "type": "function"
    },
    {
      "constant": true,
      "inputs": [],
      "name": "test_check_collection_count",
      "outputs": [
        {
          "name": "_count",
          "type": "uint256"
        }
      ],
      "payable": false,
      "stateMutability": "view",
      "type": "function"
    },
    {
      "constant": true,
      "inputs": [],
      "name": "test_check_first_index",
      "outputs": [
        {
          "name": "_first_index",
          "type": "uint256"
        }
      ],
      "payable": false,
      "stateMutability": "view",
      "type": "function"
    },
    {
      "constant": true,
      "inputs": [],
      "name": "test_check_last_index",
      "outputs": [
        {
          "name": "_last_index",
          "type": "uint256"
        }
      ],
      "payable": false,
      "stateMutability": "view",
      "type": "function"
    },
    {
      "constant": true,
      "inputs": [],
      "name": "test_check_count",
      "outputs": [
        {
          "name": "_count",
          "type": "uint256"
        }
      ],
      "payable": false,
      "stateMutability": "view",
      "type": "function"
    },
    {
      "constant": true,
      "inputs": [
        {
          "name": "_item_index",
          "type": "uint256"
        }
      ],
      "name": "test_item_previous_index",
      "outputs": [
        {
          "name": "_previous_index",
          "type": "uint256"
        }
      ],
      "payable": false,
      "stateMutability": "view",
      "type": "function"
    },
    {
      "constant": true,
      "inputs": [
        {
          "name": "_item_index",
          "type": "uint256"
        }
      ],
      "name": "test_item_next_index",
      "outputs": [
        {
          "name": "_next_index",
          "type": "uint256"
        }
      ],
      "payable": false,
      "stateMutability": "view",
      "type": "function"
    },
    {
      "constant": true,
      "inputs": [
        {
          "name": "_item",
          "type": "bytes32"
        }
      ],
      "name": "test_find",
      "outputs": [
        {
          "name": "_item_index",
          "type": "uint256"
        }
      ],
      "payable": false,
      "stateMutability": "view",
      "type": "function"
    },
    {
      "constant": true,
      "inputs": [
        {
          "name": "_item_index",
          "type": "uint256"
        }
      ],
      "name": "test_get",
      "outputs": [
        {
          "name": "_item",
          "type": "bytes32"
        }
      ],
      "payable": false,
      "stateMutability": "view",
      "type": "function"
    },
    {
      "constant": false,
      "inputs": [
        {
          "name": "_data",
          "type": "bytes32"
        }
      ],
      "name": "test_append",
      "outputs": [
        {
          "name": "_success",
          "type": "bool"
        }
      ],
      "payable": false,
      "stateMutability": "nonpayable",
      "type": "function"
    },
    {
      "constant": false,
      "inputs": [
        {
          "name": "_index",
          "type": "uint256"
        }
      ],
      "name": "test_remove",
      "outputs": [
        {
          "name": "_success",
          "type": "bool"
        }
      ],
      "payable": false,
      "stateMutability": "nonpayable",
      "type": "function"
    },
    {
      "constant": false,
      "inputs": [
        {
          "name": "_item",
          "type": "bytes32"
        }
      ],
      "name": "test_remove_item",
      "outputs": [
        {
          "name": "_success",
          "type": "bool"
        }
      ],
      "payable": false,
      "stateMutability": "nonpayable",
      "type": "function"
    },
    {
      "constant": true,
      "inputs": [],
      "name": "test_total",
      "outputs": [
        {
          "name": "_total_count",
          "type": "uint256"
        }
      ],
      "payable": false,
      "stateMutability": "view",
      "type": "function"
    },
    {
      "constant": true,
      "inputs": [],
      "name": "test_start",
      "outputs": [
        {
          "name": "_start_index",
          "type": "uint256"
        }
      ],
      "payable": false,
      "stateMutability": "view",
      "type": "function"
    },
    {
      "constant": true,
      "inputs": [],
      "name": "test_start_item",
      "outputs": [
        {
          "name": "_item",
          "type": "bytes32"
        }
      ],
      "payable": false,
      "stateMutability": "view",
      "type": "function"
    },
    {
      "constant": true,
      "inputs": [],
      "name": "test_end",
      "outputs": [
        {
          "name": "_end_index",
          "type": "uint256"
        }
      ],
      "payable": false,
      "stateMutability": "view",
      "type": "function"
    },
    {
      "constant": true,
      "inputs": [],
      "name": "test_end_item",
      "outputs": [
        {
          "name": "_item",
          "type": "bytes32"
        }
      ],
      "payable": false,
      "stateMutability": "view",
      "type": "function"
    },
    {
      "constant": true,
      "inputs": [
        {
          "name": "_item_index",
          "type": "uint256"
        }
      ],
      "name": "test_valid",
      "outputs": [
        {
          "name": "_yes",
          "type": "bool"
        }
      ],
      "payable": false,
      "stateMutability": "view",
      "type": "function"
    },
    {
      "constant": true,
      "inputs": [
        {
          "name": "_item",
          "type": "bytes32"
        }
      ],
      "name": "test_valid_item",
      "outputs": [
        {
          "name": "_yes",
          "type": "bool"
        }
      ],
      "payable": false,
      "stateMutability": "view",
      "type": "function"
    },
    {
      "constant": true,
      "inputs": [
        {
          "name": "_current_index",
          "type": "uint256"
        }
      ],
      "name": "test_previous",
      "outputs": [
        {
          "name": "_previous_index",
          "type": "uint256"
        }
      ],
      "payable": false,
      "stateMutability": "view",
      "type": "function"
    },
    {
      "constant": true,
      "inputs": [
        {
          "name": "_current_item",
          "type": "bytes32"
        }
      ],
      "name": "test_previous_item",
      "outputs": [
        {
          "name": "_previous_item",
          "type": "bytes32"
        }
      ],
      "payable": false,
      "stateMutability": "view",
      "type": "function"
    },
    {
      "constant": true,
      "inputs": [
        {
          "name": "_current_index",
          "type": "uint256"
        }
      ],
      "name": "test_next",
      "outputs": [
        {
          "name": "_next_index",
          "type": "uint256"
        }
      ],
      "payable": false,
      "stateMutability": "view",
      "type": "function"
    },
    {
      "constant": true,
      "inputs": [
        {
          "name": "_current_item",
          "type": "bytes32"
        }
      ],
      "name": "test_next_item",
      "outputs": [
        {
          "name": "_next_item",
          "type": "bytes32"
        }
      ],
      "payable": false,
      "stateMutability": "view",
      "type": "function"
    }
  ],
  "bytecode": "0x6060604052341561000f57600080fd5b6115b38061001e6000396000f30060606040526004361061013d576000357c0100000000000000000000000000000000000000000000000000000000900463ffffffff168062d635f714610142578063019c8e1e1461017d57806306a3220e146101c05780631189bd44146101e957806317f26cda14610228578063229270ff146102515780632686d2241461027a5780633eed8f50146102b55780634d85c29a146102ec57806356f0f7b7146103155780635b66906e146103545780636442a1c1146103935780636df14521146103c4578063735dc8fb146103fb5780637775d1df146104105780637fb9007014610439578063b9507dea1461044e578063bdb3562214610491578063c6142b38146104c2578063cad6f270146104f9578063eeba652b14610534578063f26ef7e11461055d578063f3bedbdd14610594578063f5350782146105bd575b600080fd5b341561014d57600080fd5b6101676004808035600019169060200190919050506105fc565b6040518082815260200191505060405180910390f35b341561018857600080fd5b6101a26004808035600019169060200190919050506106a5565b60405180826000191660001916815260200191505060405180910390f35b34156101cb57600080fd5b6101d361074e565b6040518082815260200191505060405180910390f35b34156101f457600080fd5b61020e6004808035600019169060200190919050506107e5565b604051808215151515815260200191505060405180910390f35b341561023357600080fd5b61023b610802565b6040518082815260200191505060405180910390f35b341561025c57600080fd5b61026461080e565b6040518082815260200191505060405180910390f35b341561028557600080fd5b61029b600480803590602001909190505061081a565b604051808215151515815260200191505060405180910390f35b34156102c057600080fd5b6102d66004808035906020019091905050610837565b6040518082815260200191505060405180910390f35b34156102f757600080fd5b6102ff6108d8565b6040518082815260200191505060405180910390f35b341561032057600080fd5b61033a60048080356000191690602001909190505061096f565b604051808215151515815260200191505060405180910390f35b341561035f57600080fd5b610379600480803560001916906020019091905050610a18565b604051808215151515815260200191505060405180910390f35b341561039e57600080fd5b6103a6610a35565b60405180826000191660001916815260200191505060405180910390f35b34156103cf57600080fd5b6103e56004808035906020019091905050610acc565b6040518082815260200191505060405180910390f35b341561040657600080fd5b61040e610b6d565b005b341561041b57600080fd5b610423610b9c565b6040518082815260200191505060405180910390f35b341561044457600080fd5b61044c610bab565b005b341561045957600080fd5b610473600480803560001916906020019091905050610d18565b60405180826000191660001916815260200191505060405180910390f35b341561049c57600080fd5b6104a4610dc1565b60405180826000191660001916815260200191505060405180910390f35b34156104cd57600080fd5b6104e36004808035906020019091905050610e58565b6040518082815260200191505060405180910390f35b341561050457600080fd5b61051a6004808035906020019091905050610e87565b604051808215151515815260200191505060405180910390f35b341561053f57600080fd5b610547610f28565b6040518082815260200191505060405180910390f35b341561056857600080fd5b61057e6004808035906020019091905050610f34565b6040518082815260200191505060405180910390f35b341561059f57600080fd5b6105a7610f63565b6040518082815260200191505060405180910390f35b34156105c857600080fd5b6105de6004808035906020019091905050610ffa565b60405180826000191660001916815260200191505060405180910390f35b60008073__DoublyLinkedList______________________633b6650fe9091846000604051602001526040518363ffffffff167c01000000000000000000000000000000000000000000000000000000000281526004018083815260200182600019166000191681526020019250505060206040518083038186803b151561068357600080fd5b6102c65a03f4151561069457600080fd5b505050604051805190509050919050565b60008073__DoublyLinkedList______________________63141f30d19091846000604051602001526040518363ffffffff167c01000000000000000000000000000000000000000000000000000000000281526004018083815260200182600019166000191681526020019250505060206040518083038186803b151561072c57600080fd5b6102c65a03f4151561073d57600080fd5b505050604051805190509050919050565b60008073__DoublyLinkedList______________________63e29ae7ac90916000604051602001526040518263ffffffff167c01000000000000000000000000000000000000000000000000000000000281526004018082815260200191505060206040518083038186803b15156107c557600080fd5b6102c65a03f415156107d657600080fd5b50505060405180519050905090565b60006107fb82600061109b90919063ffffffff16565b9050919050565b60008060020154905090565b60008060010154905090565b60006108308260006110e190919063ffffffff16565b9050919050565b60008073__DoublyLinkedList______________________63303f71469091846000604051602001526040518363ffffffff167c0100000000000000000000000000000000000000000000000000000000028152600401808381526020018281526020019250505060206040518083038186803b15156108b657600080fd5b6102c65a03f415156108c757600080fd5b505050604051805190509050919050565b60008073__DoublyLinkedList______________________63b894bf9390916000604051602001526040518263ffffffff167c01000000000000000000000000000000000000000000000000000000000281526004018082815260200191505060206040518083038186803b151561094f57600080fd5b6102c65a03f4151561096057600080fd5b50505060405180519050905090565b60008073__DoublyLinkedList______________________6393e65fb79091846000604051602001526040518363ffffffff167c01000000000000000000000000000000000000000000000000000000000281526004018083815260200182600019166000191681526020019250505060206040518083038186803b15156109f657600080fd5b6102c65a03f41515610a0757600080fd5b505050604051805190509050919050565b6000610a2e8260006112ce90919063ffffffff16565b9050919050565b60008073__DoublyLinkedList______________________63dc96b2fa90916000604051602001526040518263ffffffff167c01000000000000000000000000000000000000000000000000000000000281526004018082815260200191505060206040518083038186803b1515610aac57600080fd5b6102c65a03f41515610abd57600080fd5b50505060405180519050905090565b60008073__DoublyLinkedList______________________6315e8f3359091846000604051602001526040518363ffffffff167c0100000000000000000000000000000000000000000000000000000000028152600401808381526020018281526020019250505060206040518083038186803b1515610b4b57600080fd5b6102c65a03f41515610b5c57600080fd5b505050604051805190509050919050565b600080600082016000905560018201600090556002820160009055600582016000610b9891906114d5565b5050565b60008060050180549050905090565b600080600082016000905560018201600090556002820160009055600582016000610bd691906114d5565b5050610c0c7f746573743100000000000000000000000000000000000000000000000000000060006112ce90919063ffffffff16565b50610c417f746573743200000000000000000000000000000000000000000000000000000060006112ce90919063ffffffff16565b50610c767f746573743300000000000000000000000000000000000000000000000000000060006112ce90919063ffffffff16565b50610cab7f746573743400000000000000000000000000000000000000000000000000000060006112ce90919063ffffffff16565b50610ce07f746573743500000000000000000000000000000000000000000000000000000060006112ce90919063ffffffff16565b50610d157f746573743600000000000000000000000000000000000000000000000000000060006112ce90919063ffffffff16565b50565b60008073__DoublyLinkedList______________________63fbec360f9091846000604051602001526040518363ffffffff167c01000000000000000000000000000000000000000000000000000000000281526004018083815260200182600019166000191681526020019250505060206040518083038186803b1515610d9f57600080fd5b6102c65a03f41515610db057600080fd5b505050604051805190509050919050565b60008073__DoublyLinkedList______________________632dfabf0d90916000604051602001526040518263ffffffff167c01000000000000000000000000000000000000000000000000000000000281526004018082815260200191505060206040518083038186803b1515610e3857600080fd5b6102c65a03f41515610e4957600080fd5b50505060405180519050905090565b60008060050160018303815481101515610e6e57fe5b9060005260206000209060030201600201549050919050565b60008073__DoublyLinkedList______________________63a9786fe59091846000604051602001526040518363ffffffff167c0100000000000000000000000000000000000000000000000000000000028152600401808381526020018281526020019250505060206040518083038186803b1515610f0657600080fd5b6102c65a03f41515610f1757600080fd5b505050604051805190509050919050565b60008060000154905090565b60008060050160018303815481101515610f4a57fe5b9060005260206000209060030201600101549050919050565b60008073__DoublyLinkedList______________________63b197bf0b90916000604051602001526040518263ffffffff167c01000000000000000000000000000000000000000000000000000000000281526004018082815260200191505060206040518083038186803b1515610fda57600080fd5b6102c65a03f41515610feb57600080fd5b50505060405180519050905090565b60008073__DoublyLinkedList______________________63d2e98bca9091846000604051602001526040518363ffffffff167c0100000000000000000000000000000000000000000000000000000000028152600401808381526020018281526020019250505060206040518083038186803b151561107957600080fd5b6102c65a03f4151561108a57600080fd5b505050604051805190509050919050565b6000806110a8848461146e565b90506000811415156110d2576110be84826110e1565b15156110c957600080fd5b600191506110d7565b600091505b8191505092915050565b60006110eb6114f9565b6001151584600401600085815260200190815260200160002060009054906101000a900460ff16151514156112c257836005016001840381548110151561112e57fe5b90600052602060002090600302016060604051908101604052908160008201546000191660001916815260200160018201548152602001600282015481525050905060008160200151141561118f57806040015184600001819055506111c2565b80604001518460050160018360200151038154811015156111ac57fe5b9060005260206000209060030201600201819055505b6000816040015114156111e15780602001518460010181905550611214565b80602001518460050160018360400151038154811015156111fe57fe5b9060005260206000209060030201600101819055505b836005016001840381548110151561122857fe5b9060005260206000209060030201600080820160009055600182016000905560028201600090555050600084600401600085815260200190815260200160002060006101000a81548160ff02191690831515021790555083600301600082600001516000191660001916815260200190815260200160002060009055836002016000815480929190600190039190505550600191506112c7565b600091505b5092915050565b60008060006112dd858561146e565b1415806112f1575060008019168360001916145b156112ff5760009150611467565b836005018054806001018281611315919061151e565b91600052602060002090600302016000606060405190810160405280876000191681526020018860010154815260200160008152509091909150600082015181600001906000191690556020820151816001015560408201518160020155505090506000846001015414156113c6576000846000015414158061139d57506000846002015414155b156113a757600080fd5b8084600101819055846000018190555060018460020181905550611412565b808460050160018660010154038154811015156113df57fe5b90600052602060002090600302016002018190555080846001018190555083600201600081548092919060010191905055505b600184600401600083815260200190815260200160002060006101000a81548160ff02191690831515021790555080846003016000856000191660001916815260200190815260200160002081905550600191505b5092915050565b6000808360030160008460001916600019168152602001908152602001600020541480156114a0575060008360020154145b156114ae57600090506114cf565b82600301600083600019166000191681526020019081526020016000205490505b92915050565b50805460008255600302906000526020600020908101906114f69190611550565b50565b6060604051908101604052806000801916815260200160008152602001600081525090565b81548183558181151161154b5760030281600302836000526020600020918201910161154a9190611550565b5b505050565b61158491905b80821115611580576000808201600090556001820160009055600282016000905550600301611556565b5090565b905600a165627a7a72305820a17878bba238aab53defa828067b0b1df2a26dc7c81346a0c7e40637b741c6cc0029",
  "source": "pragma solidity ^0.4.19;\n\nimport './lib/DoublyLinkedList.sol';\n\n/**\n  @title Contract that Uses Data Struct of DoublyLinkedList Library for Testing\n  @author DigixGlobal Pte Ltd\n*/\ncontract TestDoublyLinkedList {\n  using DoublyLinkedList for DoublyLinkedList.Data;\n  DoublyLinkedList.Data testData;\n\n  /// @notice Deletes the `testData` values\n  function setup_reset_data () public {\n    delete testData;\n  }\n\n  /// @notice Setups `testData` values for testing\n  function setup_data_for_testing ()\n           public\n  {\n      delete testData;\n      testData.append('test1');\n      testData.append('test2');\n      testData.append('test3');\n      testData.append('test4');\n      testData.append('test5');\n      testData.append('test6');\n  }\n\n  /**\n  @notice Returns the total number of collection in `testData`\n  @return {\"_count\": \"The total number of collection in `testData`\"}\n  */\n  function test_check_collection_count () public constant returns (uint256 _count) {\n    _count = testData.collection.length;\n  }\n\n  /**\n  @notice Returns the first index of `testData`\n  @return {\"_first_index\": \"First index of `testData`\"}\n  */\n  function test_check_first_index () public constant returns (uint256 _first_index) {\n    _first_index = testData.first_index;\n  }\n\n  /**\n  @notice Returns the last index of `testData`\n  @return {\"_first_index\": \"Last index of `testData`\"}\n  */\n  function test_check_last_index () public constant returns (uint256 _last_index) {\n    _last_index = testData.last_index;\n  }\n\n  /**\n  @notice Returns the total number of items in `testData`\n  @return {\"_count\": \"Total number of items in `testData`\"}\n  */\n  function test_check_count () public constant returns (uint256 _count) {\n    _count = testData.count;\n  }\n\n  /**\n  @notice Returns the previous index in `testData` based on the given `_item_index`\n  @param _item_index Starting index of the item\n  @return {\"_previous_index\": \"Index of the previous item of `testData`\"}\n  */\n  function test_item_previous_index (uint256 _item_index) public constant returns (uint256 _previous_index) {\n    _previous_index = testData.collection[_item_index-1].previous_index;\n  }\n\n  /**\n  @notice Returns the next index in `testData` based on the given `_item_index`\n  @param _item_index Starting index of the item\n  @return {\"_next_index\": \"Index of the next item of `testData`\"}\n  */\n  function test_item_next_index (uint256 _item_index) public constant returns (uint256 _next_index) {\n    _next_index = testData.collection[_item_index-1].next_index;\n  }\n\n  /**\n  @notice Returns the index of the given `_item` in `testData`\n  @param _item Item to be found\n  @return {\"_item_index\": \"Index of the given `_item` in `testData`\"}\n  */\n  function test_find(bytes32 _item)\n           public\n           constant\n           returns (uint256 _item_index)\n  {\n    _item_index = testData.find(_item);\n  }\n\n  /**\n  @notice Returns the item of the given `_item_index` in `testData`\n  @param _item_index Index of the item to be get\n  @return {\"_item\": \"Item of the given `_item_index` in `testData`\"}\n  */\n  function test_get(uint256 _item_index)\n           public\n           constant\n           returns (bytes32 _item)\n  {\n    _item = testData.get(_item_index);\n  }\n\n  /**\n  @notice Appends a given `_data` into `testData`\n  @param _data Data to be appended\n  @return {\"_success\": \"If appending of `data` is successful\"}\n  */\n  function test_append(bytes32 _data)\n           public\n           returns (bool _success)\n  {\n    _success = testData.append(_data);\n  }\n\n  /**\n  @notice Removes an item index based on the given `_index` in `testData`\n  @param _index Index of the item to be removed\n  @return {\"_success\": \"If removing of the `_index` is successful\"}\n  */\n  function test_remove(uint256 _index)\n           public\n           returns (bool _success)\n  {\n    _success = testData.remove(_index);\n  }\n\n  /**\n  @notice Removes an item based on the given `_item` in `testData`\n  @param _item Item to be removed\n  @return {\"_success\": \"If removing of the `_item` is successful\"}\n  */\n  function test_remove_item(bytes32 _item)\n           public\n           returns (bool _success)\n  {\n    _success = testData.remove_item(_item);\n  }\n\n  /**\n  @notice Returns the total number of items in `testData`\n  @return {\"_total_count\": \"Total number of items in `testData`\"}\n  */\n  function test_total ()\n           public\n           constant\n           returns (uint256 _total_count)\n  {\n    _total_count = testData.total();\n  }\n\n  /**\n  @notice Returns the index of the first item in `testData`\n  @return {\"_start_index\": \"Index of the first item in `testData`\"}\n  */\n  function test_start ()\n           public\n           constant\n           returns (uint256 _start_index)\n  {\n    _start_index = testData.start();\n  }\n\n  /**\n  @notice Returns the first item of `testData`\n  @return {\"_item\": \"First item of `testData`\"}\n  */\n  function test_start_item ()\n           public\n           constant\n           returns (bytes32 _item)\n  {\n    _item = testData.start_item();\n  }\n\n  /**\n  @notice Returns the index of the last item of `testData`\n  @return {\"_end_index\": \"Index of the list item in `testData`\"}\n  */\n  function test_end ()\n           public\n           constant\n           returns (uint256 _end_index)\n  {\n    _end_index = testData.end();\n  }\n\n  /**\n  @notice Returns the last item of `testData`\n  @return {\"_item\": \"Last item of `testData`\"}\n  */\n  function test_end_item ()\n           public\n           constant\n           returns (bytes32 _item)\n  {\n    _item = testData.end_item();\n  }\n\n  /**\n  @notice Checks if a given `_item_index` is a valid index in `testData`\n  @param _item_index Index of the item to be checked\n  @return {\"_yes\": \"If `_item_index` is a valid index in `testData`\"}\n  */\n  function test_valid(uint256 _item_index)\n           public\n           constant\n           returns (bool _yes)\n  {\n    _yes = testData.valid(_item_index);\n  }\n\n  /**\n  @notice Checks if a given `_item_index` is a valid index in `testData`\n  @param _item Item to be checked\n  @return {\"_yes\": \"If `_item` is a valid item in `testData`\"}\n  */\n  function test_valid_item(bytes32 _item)\n           public\n           constant\n           returns (bool _yes)\n  {\n    _yes = testData.valid_item(_item);\n  }\n\n  /**\n  @notice Returns the previous index of `testData` based on the given `_current_index`\n  @param _current_index Current index of the item\n  @return {\"_previous_index\": \"Previous index of `testData`\"}\n  */\n  function test_previous(uint256 _current_index)\n           public\n           constant\n           returns (uint256 _previous_index)\n  {\n    _previous_index = testData.previous(_current_index);\n  }\n\n  /**\n  @notice Returns the previous item of `testData` based on the given `_current_item`\n  @param _current_item Current item\n  @return {\"_previous_item\": \"Previous item of `testData`\"}\n  */\n  function test_previous_item(bytes32 _current_item)\n           public\n           constant\n           returns (bytes32 _previous_item)\n  {\n    _previous_item = testData.previous_item(_current_item);\n  }\n\n  /**\n  @notice Returns the next index of `testData` based on the given `_current_index`\n  @param _current_index Current index of the item\n  @return {\"_next_index\": \"Next index of `testData`\"}\n  */\n  function test_next(uint256 _current_index)\n           public\n           constant\n           returns (uint256 _next_index)\n  {\n    _next_index = testData.next(_current_index);\n  }\n\n  /**\n  @notice Returns the next item of `testData` based on the given `_current_item`\n  @param _current_item Current item\n  @return {\"_next_item\": \"Next item of `testData`\"}\n  */\n  function test_next_item(bytes32 _current_item)\n           public\n           constant\n           returns (bytes32 _next_item)\n  {\n    _next_item = testData.next_item(_current_item);\n  }\n}\n",
  "sourcePath": "/home/rohit/Develop/solidity-collections-library/contracts/TestLibrary.sol",
  "compiler": {
    "name": "solc",
    "version": "0.4.19+commit.c4cbbb05.Emscripten.clang"
  },
  "schemaVersion": "1.0.1",
  "updatedAt": "2018-03-07T03:38:46.671Z"
}