{
  "contractName": "TestLibraryAddress",
  "abi": [
    {
      "constant": false,
      "inputs": [],
      "name": "setup_reset_data",
      "outputs": [],
      "payable": false,
      "stateMutability": "nonpayable",
      "type": "function"
    },
    {
      "constant": false,
      "inputs": [],
      "name": "setup_data_for_testing",
      "outputs": [],
      "payable": false,
      "stateMutability": "nonpayable",
      "type": "function"
    },
    {
      "constant": true,
      "inputs": [],
      "name": "test_check_collection_count",
      "outputs": [
        {
          "name": "_count",
          "type": "uint256"
        }
      ],
      "payable": false,
      "stateMutability": "view",
      "type": "function"
    },
    {
      "constant": true,
      "inputs": [],
      "name": "test_check_first_index",
      "outputs": [
        {
          "name": "_first_index",
          "type": "uint256"
        }
      ],
      "payable": false,
      "stateMutability": "view",
      "type": "function"
    },
    {
      "constant": true,
      "inputs": [],
      "name": "test_check_last_index",
      "outputs": [
        {
          "name": "_last_index",
          "type": "uint256"
        }
      ],
      "payable": false,
      "stateMutability": "view",
      "type": "function"
    },
    {
      "constant": true,
      "inputs": [],
      "name": "test_check_count",
      "outputs": [
        {
          "name": "_count",
          "type": "uint256"
        }
      ],
      "payable": false,
      "stateMutability": "view",
      "type": "function"
    },
    {
      "constant": true,
      "inputs": [
        {
          "name": "_item_index",
          "type": "uint256"
        }
      ],
      "name": "test_item_previous_index",
      "outputs": [
        {
          "name": "_previous_index",
          "type": "uint256"
        }
      ],
      "payable": false,
      "stateMutability": "view",
      "type": "function"
    },
    {
      "constant": true,
      "inputs": [
        {
          "name": "_item_index",
          "type": "uint256"
        }
      ],
      "name": "test_item_next_index",
      "outputs": [
        {
          "name": "_next_index",
          "type": "uint256"
        }
      ],
      "payable": false,
      "stateMutability": "view",
      "type": "function"
    },
    {
      "constant": true,
      "inputs": [
        {
          "name": "_item",
          "type": "address"
        }
      ],
      "name": "test_find",
      "outputs": [
        {
          "name": "_item_index",
          "type": "uint256"
        }
      ],
      "payable": false,
      "stateMutability": "view",
      "type": "function"
    },
    {
      "constant": true,
      "inputs": [
        {
          "name": "_item_index",
          "type": "uint256"
        }
      ],
      "name": "test_get",
      "outputs": [
        {
          "name": "_item",
          "type": "address"
        }
      ],
      "payable": false,
      "stateMutability": "view",
      "type": "function"
    },
    {
      "constant": false,
      "inputs": [
        {
          "name": "_data",
          "type": "address"
        }
      ],
      "name": "test_append",
      "outputs": [
        {
          "name": "_success",
          "type": "bool"
        }
      ],
      "payable": false,
      "stateMutability": "nonpayable",
      "type": "function"
    },
    {
      "constant": false,
      "inputs": [
        {
          "name": "_index",
          "type": "uint256"
        }
      ],
      "name": "test_remove",
      "outputs": [
        {
          "name": "_success",
          "type": "bool"
        }
      ],
      "payable": false,
      "stateMutability": "nonpayable",
      "type": "function"
    },
    {
      "constant": false,
      "inputs": [
        {
          "name": "_item",
          "type": "address"
        }
      ],
      "name": "test_remove_item",
      "outputs": [
        {
          "name": "_success",
          "type": "bool"
        }
      ],
      "payable": false,
      "stateMutability": "nonpayable",
      "type": "function"
    },
    {
      "constant": true,
      "inputs": [],
      "name": "test_total",
      "outputs": [
        {
          "name": "_total_count",
          "type": "uint256"
        }
      ],
      "payable": false,
      "stateMutability": "view",
      "type": "function"
    },
    {
      "constant": true,
      "inputs": [],
      "name": "test_start",
      "outputs": [
        {
          "name": "_start_index",
          "type": "uint256"
        }
      ],
      "payable": false,
      "stateMutability": "view",
      "type": "function"
    },
    {
      "constant": true,
      "inputs": [],
      "name": "test_start_item",
      "outputs": [
        {
          "name": "_item",
          "type": "address"
        }
      ],
      "payable": false,
      "stateMutability": "view",
      "type": "function"
    },
    {
      "constant": true,
      "inputs": [],
      "name": "test_end",
      "outputs": [
        {
          "name": "_end_index",
          "type": "uint256"
        }
      ],
      "payable": false,
      "stateMutability": "view",
      "type": "function"
    },
    {
      "constant": true,
      "inputs": [],
      "name": "test_end_item",
      "outputs": [
        {
          "name": "_item",
          "type": "address"
        }
      ],
      "payable": false,
      "stateMutability": "view",
      "type": "function"
    },
    {
      "constant": true,
      "inputs": [
        {
          "name": "_item_index",
          "type": "uint256"
        }
      ],
      "name": "test_valid",
      "outputs": [
        {
          "name": "_yes",
          "type": "bool"
        }
      ],
      "payable": false,
      "stateMutability": "view",
      "type": "function"
    },
    {
      "constant": true,
      "inputs": [
        {
          "name": "_item",
          "type": "address"
        }
      ],
      "name": "test_valid_item",
      "outputs": [
        {
          "name": "_yes",
          "type": "bool"
        }
      ],
      "payable": false,
      "stateMutability": "view",
      "type": "function"
    },
    {
      "constant": true,
      "inputs": [
        {
          "name": "_current_index",
          "type": "uint256"
        }
      ],
      "name": "test_previous",
      "outputs": [
        {
          "name": "_previous_index",
          "type": "uint256"
        }
      ],
      "payable": false,
      "stateMutability": "view",
      "type": "function"
    },
    {
      "constant": true,
      "inputs": [
        {
          "name": "_current_item",
          "type": "address"
        }
      ],
      "name": "test_previous_item",
      "outputs": [
        {
          "name": "_previous_item",
          "type": "address"
        }
      ],
      "payable": false,
      "stateMutability": "view",
      "type": "function"
    },
    {
      "constant": true,
      "inputs": [
        {
          "name": "_current_index",
          "type": "uint256"
        }
      ],
      "name": "test_next",
      "outputs": [
        {
          "name": "_next_index",
          "type": "uint256"
        }
      ],
      "payable": false,
      "stateMutability": "view",
      "type": "function"
    },
    {
      "constant": true,
      "inputs": [
        {
          "name": "_current_item",
          "type": "address"
        }
      ],
      "name": "test_next_item",
      "outputs": [
        {
          "name": "_next_item",
          "type": "address"
        }
      ],
      "payable": false,
      "stateMutability": "view",
      "type": "function"
    }
  ],
  "bytecode": "0x608060405234801561001057600080fd5b50611cea806100206000396000f30060806040526004361061013e576000357c0100000000000000000000000000000000000000000000000000000000900463ffffffff16806306a3220e146101435780630bc92aa81461016e57806317f26cda146101f1578063229270ff1461021c5780632686d2241461024757806335191acb1461028c57806337273e6c1461030f5780633eed8f501461036a5780634ce33143146103ab5780634d85c29a146104065780636442a1c1146104315780636df1452114610488578063735dc8fb146104c95780637775d1df146104e05780637fb900701461050b57806386480b9714610522578063bdb3562214610579578063c6142b38146105d0578063cad6f27014610611578063e1a6ba3014610656578063eeba652b146106b1578063f26ef7e1146106dc578063f3bedbdd1461071d578063f535078214610748575b600080fd5b34801561014f57600080fd5b506101586107b5565b6040518082815260200191505060405180910390f35b34801561017a57600080fd5b506101af600480360381019080803573ffffffffffffffffffffffffffffffffffffffff169060200190929190505050610864565b604051808273ffffffffffffffffffffffffffffffffffffffff1673ffffffffffffffffffffffffffffffffffffffff16815260200191505060405180910390f35b3480156101fd57600080fd5b50610206610949565b6040518082815260200191505060405180910390f35b34801561022857600080fd5b50610231610958565b6040518082815260200191505060405180910390f35b34801561025357600080fd5b5061027260048036038101908080359060200190929190505050610967565b604051808215151515815260200191505060405180910390f35b34801561029857600080fd5b506102cd600480360381019080803573ffffffffffffffffffffffffffffffffffffffff169060200190929190505050610984565b604051808273ffffffffffffffffffffffffffffffffffffffff1673ffffffffffffffffffffffffffffffffffffffff16815260200191505060405180910390f35b34801561031b57600080fd5b50610350600480360381019080803573ffffffffffffffffffffffffffffffffffffffff169060200190929190505050610a69565b604051808215151515815260200191505060405180910390f35b34801561037657600080fd5b5061039560048036038101908080359060200190929190505050610b4e565b6040518082815260200191505060405180910390f35b3480156103b757600080fd5b506103ec600480360381019080803573ffffffffffffffffffffffffffffffffffffffff169060200190929190505050610c07565b604051808215151515815260200191505060405180910390f35b34801561041257600080fd5b5061041b610cec565b6040518082815260200191505060405180910390f35b34801561043d57600080fd5b50610446610d9b565b604051808273ffffffffffffffffffffffffffffffffffffffff1673ffffffffffffffffffffffffffffffffffffffff16815260200191505060405180910390f35b34801561049457600080fd5b506104b360048036038101908080359060200190929190505050610e4a565b6040518082815260200191505060405180910390f35b3480156104d557600080fd5b506104de610f03565b005b3480156104ec57600080fd5b506104f5610f39565b6040518082815260200191505060405180910390f35b34801561051757600080fd5b50610520610f4b565b005b34801561052e57600080fd5b50610563600480360381019080803573ffffffffffffffffffffffffffffffffffffffff16906020019092919050505061152d565b6040518082815260200191505060405180910390f35b34801561058557600080fd5b5061058e611612565b604051808273ffffffffffffffffffffffffffffffffffffffff1673ffffffffffffffffffffffffffffffffffffffff16815260200191505060405180910390f35b3480156105dc57600080fd5b506105fb600480360381019080803590602001909291905050506116c1565b6040518082815260200191505060405180910390f35b34801561061d57600080fd5b5061063c600480360381019080803590602001909291905050506116f3565b604051808215151515815260200191505060405180910390f35b34801561066257600080fd5b50610697600480360381019080803573ffffffffffffffffffffffffffffffffffffffff1690602001909291905050506117ac565b604051808215151515815260200191505060405180910390f35b3480156106bd57600080fd5b506106c6611891565b6040518082815260200191505060405180910390f35b3480156106e857600080fd5b50610707600480360381019080803590602001909291905050506118a0565b6040518082815260200191505060405180910390f35b34801561072957600080fd5b506107326118d2565b6040518082815260200191505060405180910390f35b34801561075457600080fd5b5061077360048036038101908080359060200190929190505050611981565b604051808273ffffffffffffffffffffffffffffffffffffffff1673ffffffffffffffffffffffffffffffffffffffff16815260200191505060405180910390f35b60008073__DoublyLinkedList______________________6312e3853d90916040518263ffffffff167c01000000000000000000000000000000000000000000000000000000000281526004018082815260200191505060206040518083038186803b15801561082457600080fd5b505af4158015610838573d6000803e3d6000fd5b505050506040513d602081101561084e57600080fd5b8101908080519060200190929190505050905090565b60008073__DoublyLinkedList______________________63a7b9777c9091846040518363ffffffff167c0100000000000000000000000000000000000000000000000000000000028152600401808381526020018273ffffffffffffffffffffffffffffffffffffffff1673ffffffffffffffffffffffffffffffffffffffff1681526020019250505060206040518083038186803b15801561090757600080fd5b505af415801561091b573d6000803e3d6000fd5b505050506040513d602081101561093157600080fd5b81019080805190602001909291905050509050919050565b60008060000160020154905090565b60008060000160010154905090565b600061097d826000611a3a90919063ffffffff16565b9050919050565b60008073__DoublyLinkedList______________________6387fca8a69091846040518363ffffffff167c0100000000000000000000000000000000000000000000000000000000028152600401808381526020018273ffffffffffffffffffffffffffffffffffffffff1673ffffffffffffffffffffffffffffffffffffffff1681526020019250505060206040518083038186803b158015610a2757600080fd5b505af4158015610a3b573d6000803e3d6000fd5b505050506040513d6020811015610a5157600080fd5b81019080805190602001909291905050509050919050565b60008073__DoublyLinkedList______________________63bf8a2ac69091846040518363ffffffff167c0100000000000000000000000000000000000000000000000000000000028152600401808381526020018273ffffffffffffffffffffffffffffffffffffffff1673ffffffffffffffffffffffffffffffffffffffff1681526020019250505060206040518083038186803b158015610b0c57600080fd5b505af4158015610b20573d6000803e3d6000fd5b505050506040513d6020811015610b3657600080fd5b81019080805190602001909291905050509050919050565b60008073__DoublyLinkedList______________________632788c74d9091846040518363ffffffff167c0100000000000000000000000000000000000000000000000000000000028152600401808381526020018281526020019250505060206040518083038186803b158015610bc557600080fd5b505af4158015610bd9573d6000803e3d6000fd5b505050506040513d6020811015610bef57600080fd5b81019080805190602001909291905050509050919050565b60008073__DoublyLinkedList______________________638dc8bc2b9091846040518363ffffffff167c0100000000000000000000000000000000000000000000000000000000028152600401808381526020018273ffffffffffffffffffffffffffffffffffffffff1673ffffffffffffffffffffffffffffffffffffffff1681526020019250505060206040518083038186803b158015610caa57600080fd5b505af4158015610cbe573d6000803e3d6000fd5b505050506040513d6020811015610cd457600080fd5b81019080805190602001909291905050509050919050565b60008073__DoublyLinkedList______________________635abec84790916040518263ffffffff167c01000000000000000000000000000000000000000000000000000000000281526004018082815260200191505060206040518083038186803b158015610d5b57600080fd5b505af4158015610d6f573d6000803e3d6000fd5b505050506040513d6020811015610d8557600080fd5b8101908080519060200190929190505050905090565b60008073__DoublyLinkedList______________________63c333848890916040518263ffffffff167c01000000000000000000000000000000000000000000000000000000000281526004018082815260200191505060206040518083038186803b158015610e0a57600080fd5b505af4158015610e1e573d6000803e3d6000fd5b505050506040513d6020811015610e3457600080fd5b8101908080519060200190929190505050905090565b60008073__DoublyLinkedList______________________63c55491269091846040518363ffffffff167c0100000000000000000000000000000000000000000000000000000000028152600401808381526020018281526020019250505060206040518083038186803b158015610ec157600080fd5b505af4158015610ed5573d6000803e3d6000fd5b505050506040513d6020811015610eeb57600080fd5b81019080805190602001909291905050509050919050565b6000806000820160008082016000905560018201600090556002820160009055600582016000610f339190611c3e565b50505050565b60008060000160050180549050905090565b6000806000820160008082016000905560018201600090556002820160009055600582016000610f7b9190611c3e565b50505050600073__DoublyLinkedList______________________63bf8a2ac6909173249b1bf054d2b2643a0e38948aa92ccb6c2ccd7e6040518363ffffffff167c0100000000000000000000000000000000000000000000000000000000028152600401808381526020018273ffffffffffffffffffffffffffffffffffffffff1673ffffffffffffffffffffffffffffffffffffffff1681526020019250505060206040518083038186803b15801561103557600080fd5b505af4158015611049573d6000803e3d6000fd5b505050506040513d602081101561105f57600080fd5b810190808051906020019092919050505050600073__DoublyLinkedList______________________63bf8a2ac69091731cd24e853af2027df542551f393b1bd0db2f1a036040518363ffffffff167c0100000000000000000000000000000000000000000000000000000000028152600401808381526020018273ffffffffffffffffffffffffffffffffffffffff1673ffffffffffffffffffffffffffffffffffffffff1681526020019250505060206040518083038186803b15801561112757600080fd5b505af415801561113b573d6000803e3d6000fd5b505050506040513d602081101561115157600080fd5b810190808051906020019092919050505050600073__DoublyLinkedList______________________63bf8a2ac690917354e3872db39fc3a1fa018688bff59dd6409b0a236040518363ffffffff167c0100000000000000000000000000000000000000000000000000000000028152600401808381526020018273ffffffffffffffffffffffffffffffffffffffff1673ffffffffffffffffffffffffffffffffffffffff1681526020019250505060206040518083038186803b15801561121957600080fd5b505af415801561122d573d6000803e3d6000fd5b505050506040513d602081101561124357600080fd5b810190808051906020019092919050505050600073__DoublyLinkedList______________________63bf8a2ac69091734db089d50f72996895dc4224c8c6fae0f104bc1d6040518363ffffffff167c0100000000000000000000000000000000000000000000000000000000028152600401808381526020018273ffffffffffffffffffffffffffffffffffffffff1673ffffffffffffffffffffffffffffffffffffffff1681526020019250505060206040518083038186803b15801561130b57600080fd5b505af415801561131f573d6000803e3d6000fd5b505050506040513d602081101561133557600080fd5b810190808051906020019092919050505050600073__DoublyLinkedList______________________63bf8a2ac690917374cd5f20ee949189bdc83f7f6088063eb7fdcc866040518363ffffffff167c0100000000000000000000000000000000000000000000000000000000028152600401808381526020018273ffffffffffffffffffffffffffffffffffffffff1673ffffffffffffffffffffffffffffffffffffffff1681526020019250505060206040518083038186803b1580156113fd57600080fd5b505af4158015611411573d6000803e3d6000fd5b505050506040513d602081101561142757600080fd5b810190808051906020019092919050505050600073__DoublyLinkedList______________________63bf8a2ac6909173a1fada6e4f11770a672ca678d6290b311f53c2566040518363ffffffff167c0100000000000000000000000000000000000000000000000000000000028152600401808381526020018273ffffffffffffffffffffffffffffffffffffffff1673ffffffffffffffffffffffffffffffffffffffff1681526020019250505060206040518083038186803b1580156114ef57600080fd5b505af4158015611503573d6000803e3d6000fd5b505050506040513d602081101561151957600080fd5b810190808051906020019092919050505050565b60008073__DoublyLinkedList______________________637ee0a5839091846040518363ffffffff167c0100000000000000000000000000000000000000000000000000000000028152600401808381526020018273ffffffffffffffffffffffffffffffffffffffff1673ffffffffffffffffffffffffffffffffffffffff1681526020019250505060206040518083038186803b1580156115d057600080fd5b505af41580156115e4573d6000803e3d6000fd5b505050506040513d60208110156115fa57600080fd5b81019080805190602001909291905050509050919050565b60008073__DoublyLinkedList______________________63f46574aa90916040518263ffffffff167c01000000000000000000000000000000000000000000000000000000000281526004018082815260200191505060206040518083038186803b15801561168157600080fd5b505af4158015611695573d6000803e3d6000fd5b505050506040513d60208110156116ab57600080fd5b8101908080519060200190929190505050905090565b600080600001600501600183038154811015156116da57fe5b9060005260206000209060030201600201549050919050565b60008073__DoublyLinkedList______________________63bed5fa9a9091846040518363ffffffff167c0100000000000000000000000000000000000000000000000000000000028152600401808381526020018281526020019250505060206040518083038186803b15801561176a57600080fd5b505af415801561177e573d6000803e3d6000fd5b505050506040513d602081101561179457600080fd5b81019080805190602001909291905050509050919050565b60008073__DoublyLinkedList______________________6350d740909091846040518363ffffffff167c0100000000000000000000000000000000000000000000000000000000028152600401808381526020018273ffffffffffffffffffffffffffffffffffffffff1673ffffffffffffffffffffffffffffffffffffffff1681526020019250505060206040518083038186803b15801561184f57600080fd5b505af4158015611863573d6000803e3d6000fd5b505050506040513d602081101561187957600080fd5b81019080805190602001909291905050509050919050565b60008060000160000154905090565b600080600001600501600183038154811015156118b957fe5b9060005260206000209060030201600101549050919050565b60008073__DoublyLinkedList______________________6322fddb1690916040518263ffffffff167c01000000000000000000000000000000000000000000000000000000000281526004018082815260200191505060206040518083038186803b15801561194157600080fd5b505af4158015611955573d6000803e3d6000fd5b505050506040513d602081101561196b57600080fd5b8101908080519060200190929190505050905090565b60008073__DoublyLinkedList______________________6390716d419091846040518363ffffffff167c0100000000000000000000000000000000000000000000000000000000028152600401808381526020018281526020019250505060206040518083038186803b1580156119f857600080fd5b505af4158015611a0c573d6000803e3d6000fd5b505050506040513d6020811015611a2257600080fd5b81019080805190602001909291905050509050919050565b6000611a498360000183611a51565b905092915050565b6000611a5b611c62565b6001151584600401600085815260200190815260200160002060009054906101000a900460ff1615151415611c32578360050160018403815481101515611a9e57fe5b906000526020600020906003020160606040519081016040529081600082015460001916600019168152602001600182015481526020016002820154815250509050600081602001511415611aff5780604001518460000181905550611b32565b8060400151846005016001836020015103815481101515611b1c57fe5b9060005260206000209060030201600201819055505b600081604001511415611b515780602001518460010181905550611b84565b8060200151846005016001836040015103815481101515611b6e57fe5b9060005260206000209060030201600101819055505b8360050160018403815481101515611b9857fe5b9060005260206000209060030201600080820160009055600182016000905560028201600090555050600084600401600085815260200190815260200160002060006101000a81548160ff0219169083151502179055508360030160008260000151600019166000191681526020019081526020016000206000905583600201600081548092919060019003919050555060019150611c37565b600091505b5092915050565b5080546000825560030290600052602060002090810190611c5f9190611c87565b50565b6060604051908101604052806000801916815260200160008152602001600081525090565b611cbb91905b80821115611cb7576000808201600090556001820160009055600282016000905550600301611c8d565b5090565b905600a165627a7a723058206493986c9675769cd089d6cfdfe0047a5bf135553a8635bfecdf09bb57c81f0d0029",
  "source": "pragma solidity ^0.4.19;\n\nimport './lib/DoublyLinkedList.sol';\n\n/**\n  @title Contract that Uses Address Struct of DoublyLinkedList Library for Testing\n  @author DigixGlobal Pte Ltd\n*/\ncontract TestLibraryAddress {\n  using DoublyLinkedList for DoublyLinkedList.Address;\n  DoublyLinkedList.Address testData;\n\n  /// @notice Deletes the `testData` values\n  function setup_reset_data () public {\n    delete testData;\n  }\n\n  /// @notice Setups `testData` values for testing\n  function setup_data_for_testing ()\n           public\n  {\n      delete testData;\n      testData.append(address(0x249B1bF054d2b2643A0E38948aa92ccb6c2CCD7E));\n      testData.append(address(0x1Cd24e853aF2027dF542551f393b1bD0DB2f1a03));\n      testData.append(address(0x54E3872Db39FC3A1Fa018688bfF59dd6409B0a23));\n      testData.append(address(0x4DB089D50f72996895DC4224c8C6FaE0f104bc1D));\n      testData.append(address(0x74cD5f20eE949189bdc83F7F6088063EB7fdcc86));\n      testData.append(address(0xa1FADA6e4F11770A672Ca678d6290b311f53c256));\n  }\n\n  /**\n  @notice Returns the total number of collection in `testData.data`\n  @return {\"_count\": \"The total number of collection in `testData.data`\"}\n  */\n  function test_check_collection_count () public constant returns (uint256 _count) {\n    _count = testData.data.collection.length;\n  }\n\n  /**\n  @notice Returns the first index of `testData.data`\n  @return {\"_first_index\": \"First index of `testData.data`\"}\n  */\n  function test_check_first_index () public constant returns (uint256 _first_index) {\n    _first_index = testData.data.first_index;\n  }\n\n  /**\n  @notice Returns the last index of `testData.data`\n  @return {\"_first_index\": \"Last index of `testData.data`\"}\n  */\n  function test_check_last_index () public constant returns (uint256 _last_index) {\n    _last_index = testData.data.last_index;\n  }\n\n  /**\n  @notice Returns the total number of items in `testData.data`\n  @return {\"_count\": \"Total number of items in `testData.data`\"}\n  */\n  function test_check_count () public constant returns (uint256 _count) {\n    _count = testData.data.count;\n  }\n\n  /**\n  @notice Returns the previous index in `testData.data` based on the given `_item_index`\n  @param _item_index Starting index of the item\n  @return {\"_previous_index\": \"Index of the previous item of `testData.data`\"}\n  */\n  function test_item_previous_index (uint256 _item_index) public constant returns (uint256 _previous_index) {\n    _previous_index = testData.data.collection[_item_index-1].previous_index;\n  }\n\n  /**\n  @notice Returns the next index in `testData.data` based on the given `_item_index`\n  @param _item_index Starting index of the item\n  @return {\"_next_index\": \"Index of the next item of `testData.data`\"}\n  */\n  function test_item_next_index (uint256 _item_index) public constant returns (uint256 _next_index) {\n    _next_index = testData.data.collection[_item_index-1].next_index;\n  }\n\n  /**\n  @notice Returns the index of the given `_item` in `testData`\n  @param _item Address of item to be found\n  @return {\"_item_index\": \"Index of the given `_item` in `testData`\"}\n  */\n  function test_find(address _item)\n           public\n           constant\n           returns (uint256 _item_index)\n  {\n    _item_index = testData.find(_item);\n  }\n\n  /**\n  @notice Returns the item of the given `_item_index` in `testData`\n  @param _item_index Index of the item to be get\n  @return {\"_item\": \"Item of the given `_item_index` in `testData`\"}\n  */\n  function test_get(uint256 _item_index)\n           public\n           constant\n           returns (address _item)\n  {\n    _item = testData.get(_item_index);\n  }\n\n  /**\n  @notice Appends a given `_data` into `testData`\n  @param _data Data to be appended\n  @return {\"_success\": \"If appending of `data` is successful\"}\n  */\n  function test_append(address _data)\n           public\n           returns (bool _success)\n  {\n    _success = testData.append(_data);\n  }\n\n  /**\n  @notice Removes an item index based on the given `_index` in `testData`\n  @param _index Index of the item to be removed\n  @return {\"_success\": \"If removing of the `_index` is successful\"}\n  */\n  function test_remove(uint256 _index)\n           public\n           returns (bool _success)\n  {\n    _success = testData.remove(_index);\n  }\n\n  /**\n  @notice Removes an item based on the given `_item` in `testData`\n  @param _item Item to be removed\n  @return {\"_success\": \"If removing of the `_item` is successful\"}\n  */\n  function test_remove_item(address _item)\n           public\n           returns (bool _success)\n  {\n    _success = testData.remove_item(_item);\n  }\n\n  /**\n  @notice Returns the total number of items in `testData`\n  @return {\"_total_count\": \"Total number of items in `testData`\"}\n  */\n  function test_total ()\n           public\n           constant\n           returns (uint256 _total_count)\n  {\n    _total_count = testData.total();\n  }\n\n  /**\n  @notice Returns the index of the first item in `testData`\n  @return {\"_start_index\": \"Index of the first item in `testData`\"}\n  */\n  function test_start ()\n           public\n           constant\n           returns (uint256 _start_index)\n  {\n    _start_index = testData.start();\n  }\n\n  /**\n  @notice Returns the first item of `testData`\n  @return {\"_item\": \"First item of `testData`\"}\n  */\n  function test_start_item ()\n           public\n           constant\n           returns (address _item)\n  {\n    _item = testData.start_item();\n  }\n\n  /**\n  @notice Returns the index of the last item of `testData`\n  @return {\"_end_index\": \"Index of the list item in `testData`\"}\n  */\n  function test_end ()\n           public\n           constant\n           returns (uint256 _end_index)\n  {\n    _end_index = testData.end();\n  }\n\n  /**\n  @notice Returns the last item of `testData`\n  @return {\"_item\": \"Last item of `testData`\"}\n  */\n  function test_end_item ()\n           public\n           constant\n           returns (address _item)\n  {\n    _item = testData.end_item();\n  }\n\n  /**\n  @notice Checks if a given `_item_index` is a valid index in `testData`\n  @param _item_index Index of the item to be checked\n  @return {\"_yes\": \"If `_item_index` is a valid index in `testData`\"}\n  */\n  function test_valid(uint256 _item_index)\n           public\n           constant\n           returns (bool _yes)\n  {\n    _yes = testData.valid(_item_index);\n  }\n\n  /**\n  @notice Checks if a given `_item_index` is a valid index in `testData`\n  @param _item Item to be checked\n  @return {\"_yes\": \"If `_item` is a valid item in `testData`\"}\n  */\n  function test_valid_item(address _item)\n           public\n           constant\n           returns (bool _yes)\n  {\n    _yes = testData.valid_item(_item);\n  }\n\n  /**\n  @notice Returns the previous index of `testData` based on the given `_current_index`\n  @param _current_index Current index of the item\n  @return {\"_previous_index\": \"Previous index of `testData`\"}\n  */\n  function test_previous(uint256 _current_index)\n           public\n           constant\n           returns (uint256 _previous_index)\n  {\n    _previous_index = testData.previous(_current_index);\n  }\n\n  /**\n  @notice Returns the previous item of `testData` based on the given `_current_item`\n  @param _current_item Current item\n  @return {\"_previous_item\": \"Previous item of `testData`\"}\n  */\n  function test_previous_item(address _current_item)\n           public\n           constant\n           returns (address _previous_item)\n  {\n    _previous_item = testData.previous_item(_current_item);\n  }\n\n  /**\n  @notice Returns the next index of `testData` based on the given `_current_index`\n  @param _current_index Current index of the item\n  @return {\"_next_index\": \"Next index of `testData`\"}\n  */\n  function test_next(uint256 _current_index)\n           public\n           constant\n           returns (uint256 _next_index)\n  {\n    _next_index = testData.next(_current_index);\n  }\n\n  /**\n  @notice Returns the next item of `testData` based on the given `_current_item`\n  @param _current_item Current item\n  @return {\"_next_item\": \"Next item of `testData`\"}\n  */\n  function test_next_item(address _current_item)\n           public\n           constant\n           returns (address _next_item)\n  {\n    _next_item = testData.next_item(_current_item);\n  }\n}\n",
  "sourcePath": "/home/rohit/Develop/solidity-collections-library/contracts/TestLibraryAddress.sol",
  "compiler": {
    "name": "solc",
    "version": "0.4.24+commit.e67f0147.Emscripten.clang"
  },
  "schemaVersion": "2.0.0",
  "updatedAt": "2018-08-17T06:56:24.601Z"
}