{
  "contractName": "TestLibraryUint",
  "abi": [
    {
      "constant": false,
      "inputs": [],
      "name": "setup_reset_data",
      "outputs": [],
      "payable": false,
      "stateMutability": "nonpayable",
      "type": "function"
    },
    {
      "constant": false,
      "inputs": [],
      "name": "setup_data_for_testing",
      "outputs": [],
      "payable": false,
      "stateMutability": "nonpayable",
      "type": "function"
    },
    {
      "constant": true,
      "inputs": [],
      "name": "test_check_collection_count",
      "outputs": [
        {
          "name": "_count",
          "type": "uint256"
        }
      ],
      "payable": false,
      "stateMutability": "view",
      "type": "function"
    },
    {
      "constant": true,
      "inputs": [],
      "name": "test_check_first_index",
      "outputs": [
        {
          "name": "_first_index",
          "type": "uint256"
        }
      ],
      "payable": false,
      "stateMutability": "view",
      "type": "function"
    },
    {
      "constant": true,
      "inputs": [],
      "name": "test_check_last_index",
      "outputs": [
        {
          "name": "_last_index",
          "type": "uint256"
        }
      ],
      "payable": false,
      "stateMutability": "view",
      "type": "function"
    },
    {
      "constant": true,
      "inputs": [],
      "name": "test_check_count",
      "outputs": [
        {
          "name": "_count",
          "type": "uint256"
        }
      ],
      "payable": false,
      "stateMutability": "view",
      "type": "function"
    },
    {
      "constant": true,
      "inputs": [
        {
          "name": "_item_index",
          "type": "uint256"
        }
      ],
      "name": "test_item_previous_index",
      "outputs": [
        {
          "name": "_previous_index",
          "type": "uint256"
        }
      ],
      "payable": false,
      "stateMutability": "view",
      "type": "function"
    },
    {
      "constant": true,
      "inputs": [
        {
          "name": "_item_index",
          "type": "uint256"
        }
      ],
      "name": "test_item_next_index",
      "outputs": [
        {
          "name": "_next_index",
          "type": "uint256"
        }
      ],
      "payable": false,
      "stateMutability": "view",
      "type": "function"
    },
    {
      "constant": true,
      "inputs": [
        {
          "name": "_item",
          "type": "uint256"
        }
      ],
      "name": "test_find",
      "outputs": [
        {
          "name": "_item_index",
          "type": "uint256"
        }
      ],
      "payable": false,
      "stateMutability": "view",
      "type": "function"
    },
    {
      "constant": true,
      "inputs": [
        {
          "name": "_item_index",
          "type": "uint256"
        }
      ],
      "name": "test_get",
      "outputs": [
        {
          "name": "_item",
          "type": "uint256"
        }
      ],
      "payable": false,
      "stateMutability": "view",
      "type": "function"
    },
    {
      "constant": false,
      "inputs": [
        {
          "name": "_data",
          "type": "uint256"
        }
      ],
      "name": "test_append",
      "outputs": [
        {
          "name": "_success",
          "type": "bool"
        }
      ],
      "payable": false,
      "stateMutability": "nonpayable",
      "type": "function"
    },
    {
      "constant": false,
      "inputs": [
        {
          "name": "_index",
          "type": "uint256"
        }
      ],
      "name": "test_remove",
      "outputs": [
        {
          "name": "_success",
          "type": "bool"
        }
      ],
      "payable": false,
      "stateMutability": "nonpayable",
      "type": "function"
    },
    {
      "constant": false,
      "inputs": [
        {
          "name": "_item",
          "type": "uint256"
        }
      ],
      "name": "test_remove_item",
      "outputs": [
        {
          "name": "_success",
          "type": "bool"
        }
      ],
      "payable": false,
      "stateMutability": "nonpayable",
      "type": "function"
    },
    {
      "constant": true,
      "inputs": [],
      "name": "test_total",
      "outputs": [
        {
          "name": "_total_count",
          "type": "uint256"
        }
      ],
      "payable": false,
      "stateMutability": "view",
      "type": "function"
    },
    {
      "constant": true,
      "inputs": [],
      "name": "test_start",
      "outputs": [
        {
          "name": "_start_index",
          "type": "uint256"
        }
      ],
      "payable": false,
      "stateMutability": "view",
      "type": "function"
    },
    {
      "constant": true,
      "inputs": [],
      "name": "test_start_item",
      "outputs": [
        {
          "name": "_item",
          "type": "uint256"
        }
      ],
      "payable": false,
      "stateMutability": "view",
      "type": "function"
    },
    {
      "constant": true,
      "inputs": [],
      "name": "test_end",
      "outputs": [
        {
          "name": "_end_index",
          "type": "uint256"
        }
      ],
      "payable": false,
      "stateMutability": "view",
      "type": "function"
    },
    {
      "constant": true,
      "inputs": [],
      "name": "test_end_item",
      "outputs": [
        {
          "name": "_item",
          "type": "uint256"
        }
      ],
      "payable": false,
      "stateMutability": "view",
      "type": "function"
    },
    {
      "constant": true,
      "inputs": [
        {
          "name": "_item_index",
          "type": "uint256"
        }
      ],
      "name": "test_valid",
      "outputs": [
        {
          "name": "_yes",
          "type": "bool"
        }
      ],
      "payable": false,
      "stateMutability": "view",
      "type": "function"
    },
    {
      "constant": true,
      "inputs": [
        {
          "name": "_item",
          "type": "uint256"
        }
      ],
      "name": "test_valid_item",
      "outputs": [
        {
          "name": "_yes",
          "type": "bool"
        }
      ],
      "payable": false,
      "stateMutability": "view",
      "type": "function"
    },
    {
      "constant": true,
      "inputs": [
        {
          "name": "_current_index",
          "type": "uint256"
        }
      ],
      "name": "test_previous",
      "outputs": [
        {
          "name": "_previous_index",
          "type": "uint256"
        }
      ],
      "payable": false,
      "stateMutability": "view",
      "type": "function"
    },
    {
      "constant": true,
      "inputs": [
        {
          "name": "_current_item",
          "type": "uint256"
        }
      ],
      "name": "test_previous_item",
      "outputs": [
        {
          "name": "_previous_item",
          "type": "uint256"
        }
      ],
      "payable": false,
      "stateMutability": "view",
      "type": "function"
    },
    {
      "constant": true,
      "inputs": [
        {
          "name": "_current_index",
          "type": "uint256"
        }
      ],
      "name": "test_next",
      "outputs": [
        {
          "name": "_next_index",
          "type": "uint256"
        }
      ],
      "payable": false,
      "stateMutability": "view",
      "type": "function"
    },
    {
      "constant": true,
      "inputs": [
        {
          "name": "_current_item",
          "type": "uint256"
        }
      ],
      "name": "test_next_item",
      "outputs": [
        {
          "name": "_next_item",
          "type": "uint256"
        }
      ],
      "payable": false,
      "stateMutability": "view",
      "type": "function"
    }
  ],
  "bytecode": "0x608060405234801561001057600080fd5b50611908806100206000396000f30060806040526004361061013e576000357c0100000000000000000000000000000000000000000000000000000000900463ffffffff1680630370c6d51461014357806306a3220e1461018857806317f26cda146101b3578063229270ff146101de5780632686d224146102095780633eed8f501461024e5780634d85c29a1461028f5780636442a1c1146102ba5780636df14521146102e5578063735dc8fb146103265780637775d1df1461033d5780637fb9007014610368578063bdb356221461037f578063c6142b38146103aa578063cad6f270146103eb578063e3e4679714610430578063e503130c14610471578063e66610d1146104b2578063eeba652b146104f7578063f26ef7e114610522578063f3bedbdd14610563578063f53507821461058e578063f5bc270a146105cf578063fd107af614610610575b600080fd5b34801561014f57600080fd5b5061016e60048036038101908080359060200190929190505050610655565b604051808215151515815260200191505060405180910390f35b34801561019457600080fd5b5061019d61070e565b6040518082815260200191505060405180910390f35b3480156101bf57600080fd5b506101c86107bd565b6040518082815260200191505060405180910390f35b3480156101ea57600080fd5b506101f36107cc565b6040518082815260200191505060405180910390f35b34801561021557600080fd5b50610234600480360381019080803590602001909291905050506107db565b604051808215151515815260200191505060405180910390f35b34801561025a57600080fd5b50610279600480360381019080803590602001909291905050506107f8565b6040518082815260200191505060405180910390f35b34801561029b57600080fd5b506102a46108b1565b6040518082815260200191505060405180910390f35b3480156102c657600080fd5b506102cf610960565b6040518082815260200191505060405180910390f35b3480156102f157600080fd5b5061031060048036038101908080359060200190929190505050610a0f565b6040518082815260200191505060405180910390f35b34801561033257600080fd5b5061033b610ac8565b005b34801561034957600080fd5b50610352610afe565b6040518082815260200191505060405180910390f35b34801561037457600080fd5b5061037d610b10565b005b34801561038b57600080fd5b50610394610f78565b6040518082815260200191505060405180910390f35b3480156103b657600080fd5b506103d560048036038101908080359060200190929190505050611027565b6040518082815260200191505060405180910390f35b3480156103f757600080fd5b5061041660048036038101908080359060200190929190505050611059565b604051808215151515815260200191505060405180910390f35b34801561043c57600080fd5b5061045b60048036038101908080359060200190929190505050611112565b6040518082815260200191505060405180910390f35b34801561047d57600080fd5b5061049c600480360381019080803590602001909291905050506111cb565b6040518082815260200191505060405180910390f35b3480156104be57600080fd5b506104dd60048036038101908080359060200190929190505050611284565b604051808215151515815260200191505060405180910390f35b34801561050357600080fd5b5061050c61133d565b6040518082815260200191505060405180910390f35b34801561052e57600080fd5b5061054d6004803603810190808035906020019092919050505061134c565b6040518082815260200191505060405180910390f35b34801561056f57600080fd5b5061057861137e565b6040518082815260200191505060405180910390f35b34801561059a57600080fd5b506105b96004803603810190808035906020019092919050505061142d565b6040518082815260200191505060405180910390f35b3480156105db57600080fd5b506105fa600480360381019080803590602001909291905050506114e6565b6040518082815260200191505060405180910390f35b34801561061c57600080fd5b5061063b6004803603810190808035906020019092919050505061159f565b604051808215151515815260200191505060405180910390f35b60008073__DoublyLinkedList______________________63165a1b3e9091846040518363ffffffff167c0100000000000000000000000000000000000000000000000000000000028152600401808381526020018281526020019250505060206040518083038186803b1580156106cc57600080fd5b505af41580156106e0573d6000803e3d6000fd5b505050506040513d60208110156106f657600080fd5b81019080805190602001909291905050509050919050565b60008073__DoublyLinkedList______________________633ae6974290916040518263ffffffff167c01000000000000000000000000000000000000000000000000000000000281526004018082815260200191505060206040518083038186803b15801561077d57600080fd5b505af4158015610791573d6000803e3d6000fd5b505050506040513d60208110156107a757600080fd5b8101908080519060200190929190505050905090565b60008060000160020154905090565b60008060000160010154905090565b60006107f182600061165890919063ffffffff16565b9050919050565b60008073__DoublyLinkedList______________________63bd3d106f9091846040518363ffffffff167c0100000000000000000000000000000000000000000000000000000000028152600401808381526020018281526020019250505060206040518083038186803b15801561086f57600080fd5b505af4158015610883573d6000803e3d6000fd5b505050506040513d602081101561089957600080fd5b81019080805190602001909291905050509050919050565b60008073__DoublyLinkedList______________________6362bc354790916040518263ffffffff167c01000000000000000000000000000000000000000000000000000000000281526004018082815260200191505060206040518083038186803b15801561092057600080fd5b505af4158015610934573d6000803e3d6000fd5b505050506040513d602081101561094a57600080fd5b8101908080519060200190929190505050905090565b60008073__DoublyLinkedList______________________631240ff5a90916040518263ffffffff167c01000000000000000000000000000000000000000000000000000000000281526004018082815260200191505060206040518083038186803b1580156109cf57600080fd5b505af41580156109e3573d6000803e3d6000fd5b505050506040513d60208110156109f957600080fd5b8101908080519060200190929190505050905090565b60008073__DoublyLinkedList______________________63d70fcee49091846040518363ffffffff167c0100000000000000000000000000000000000000000000000000000000028152600401808381526020018281526020019250505060206040518083038186803b158015610a8657600080fd5b505af4158015610a9a573d6000803e3d6000fd5b505050506040513d6020811015610ab057600080fd5b81019080805190602001909291905050509050919050565b6000806000820160008082016000905560018201600090556002820160009055600582016000610af8919061185c565b50505050565b60008060000160050180549050905090565b6000806000820160008082016000905560018201600090556002820160009055600582016000610b40919061185c565b50505050600073__DoublyLinkedList______________________63d372d5f6909160656040518363ffffffff167c0100000000000000000000000000000000000000000000000000000000028152600401808381526020018281526020019250505060206040518083038186803b158015610bbb57600080fd5b505af4158015610bcf573d6000803e3d6000fd5b505050506040513d6020811015610be557600080fd5b810190808051906020019092919050505050600073__DoublyLinkedList______________________63d372d5f6909160666040518363ffffffff167c0100000000000000000000000000000000000000000000000000000000028152600401808381526020018281526020019250505060206040518083038186803b158015610c6e57600080fd5b505af4158015610c82573d6000803e3d6000fd5b505050506040513d6020811015610c9857600080fd5b810190808051906020019092919050505050600073__DoublyLinkedList______________________63d372d5f6909160676040518363ffffffff167c0100000000000000000000000000000000000000000000000000000000028152600401808381526020018281526020019250505060206040518083038186803b158015610d2157600080fd5b505af4158015610d35573d6000803e3d6000fd5b505050506040513d6020811015610d4b57600080fd5b810190808051906020019092919050505050600073__DoublyLinkedList______________________63d372d5f6909160686040518363ffffffff167c0100000000000000000000000000000000000000000000000000000000028152600401808381526020018281526020019250505060206040518083038186803b158015610dd457600080fd5b505af4158015610de8573d6000803e3d6000fd5b505050506040513d6020811015610dfe57600080fd5b810190808051906020019092919050505050600073__DoublyLinkedList______________________63d372d5f6909160696040518363ffffffff167c0100000000000000000000000000000000000000000000000000000000028152600401808381526020018281526020019250505060206040518083038186803b158015610e8757600080fd5b505af4158015610e9b573d6000803e3d6000fd5b505050506040513d6020811015610eb157600080fd5b810190808051906020019092919050505050600073__DoublyLinkedList______________________63d372d5f69091606a6040518363ffffffff167c0100000000000000000000000000000000000000000000000000000000028152600401808381526020018281526020019250505060206040518083038186803b158015610f3a57600080fd5b505af4158015610f4e573d6000803e3d6000fd5b505050506040513d6020811015610f6457600080fd5b810190808051906020019092919050505050565b60008073__DoublyLinkedList______________________635e0d4aa990916040518263ffffffff167c01000000000000000000000000000000000000000000000000000000000281526004018082815260200191505060206040518083038186803b158015610fe757600080fd5b505af4158015610ffb573d6000803e3d6000fd5b505050506040513d602081101561101157600080fd5b8101908080519060200190929190505050905090565b6000806000016005016001830381548110151561104057fe5b9060005260206000209060030201600201549050919050565b60008073__DoublyLinkedList______________________63cc71a88d9091846040518363ffffffff167c0100000000000000000000000000000000000000000000000000000000028152600401808381526020018281526020019250505060206040518083038186803b1580156110d057600080fd5b505af41580156110e4573d6000803e3d6000fd5b505050506040513d60208110156110fa57600080fd5b81019080805190602001909291905050509050919050565b60008073__DoublyLinkedList______________________6340c6bb189091846040518363ffffffff167c0100000000000000000000000000000000000000000000000000000000028152600401808381526020018281526020019250505060206040518083038186803b15801561118957600080fd5b505af415801561119d573d6000803e3d6000fd5b505050506040513d60208110156111b357600080fd5b81019080805190602001909291905050509050919050565b60008073__DoublyLinkedList______________________6377ed072f9091846040518363ffffffff167c0100000000000000000000000000000000000000000000000000000000028152600401808381526020018281526020019250505060206040518083038186803b15801561124257600080fd5b505af4158015611256573d6000803e3d6000fd5b505050506040513d602081101561126c57600080fd5b81019080805190602001909291905050509050919050565b60008073__DoublyLinkedList______________________63d372d5f69091846040518363ffffffff167c0100000000000000000000000000000000000000000000000000000000028152600401808381526020018281526020019250505060206040518083038186803b1580156112fb57600080fd5b505af415801561130f573d6000803e3d6000fd5b505050506040513d602081101561132557600080fd5b81019080805190602001909291905050509050919050565b60008060000160000154905090565b6000806000016005016001830381548110151561136557fe5b9060005260206000209060030201600101549050919050565b60008073__DoublyLinkedList______________________63d9970ab390916040518263ffffffff167c01000000000000000000000000000000000000000000000000000000000281526004018082815260200191505060206040518083038186803b1580156113ed57600080fd5b505af4158015611401573d6000803e3d6000fd5b505050506040513d602081101561141757600080fd5b8101908080519060200190929190505050905090565b60008073__DoublyLinkedList______________________63e83733239091846040518363ffffffff167c0100000000000000000000000000000000000000000000000000000000028152600401808381526020018281526020019250505060206040518083038186803b1580156114a457600080fd5b505af41580156114b8573d6000803e3d6000fd5b505050506040513d60208110156114ce57600080fd5b81019080805190602001909291905050509050919050565b60008073__DoublyLinkedList______________________63ec40b8979091846040518363ffffffff167c0100000000000000000000000000000000000000000000000000000000028152600401808381526020018281526020019250505060206040518083038186803b15801561155d57600080fd5b505af4158015611571573d6000803e3d6000fd5b505050506040513d602081101561158757600080fd5b81019080805190602001909291905050509050919050565b60008073__DoublyLinkedList______________________639500c08e9091846040518363ffffffff167c0100000000000000000000000000000000000000000000000000000000028152600401808381526020018281526020019250505060206040518083038186803b15801561161657600080fd5b505af415801561162a573d6000803e3d6000fd5b505050506040513d602081101561164057600080fd5b81019080805190602001909291905050509050919050565b6000611667836000018361166f565b905092915050565b6000611679611880565b6001151584600401600085815260200190815260200160002060009054906101000a900460ff16151514156118505783600501600184038154811015156116bc57fe5b90600052602060002090600302016060604051908101604052908160008201546000191660001916815260200160018201548152602001600282015481525050905060008160200151141561171d5780604001518460000181905550611750565b806040015184600501600183602001510381548110151561173a57fe5b9060005260206000209060030201600201819055505b60008160400151141561176f57806020015184600101819055506117a2565b806020015184600501600183604001510381548110151561178c57fe5b9060005260206000209060030201600101819055505b83600501600184038154811015156117b657fe5b9060005260206000209060030201600080820160009055600182016000905560028201600090555050600084600401600085815260200190815260200160002060006101000a81548160ff0219169083151502179055508360030160008260000151600019166000191681526020019081526020016000206000905583600201600081548092919060019003919050555060019150611855565b600091505b5092915050565b508054600082556003029060005260206000209081019061187d91906118a5565b50565b6060604051908101604052806000801916815260200160008152602001600081525090565b6118d991905b808211156118d55760008082016000905560018201600090556002820160009055506003016118ab565b5090565b905600a165627a7a7230582089b8ca61be56e392a8f4db8f7994dacbe3449885abc6863699d43f72e58b0af40029",
  "source": "pragma solidity ^0.4.19;\n\nimport './lib/DoublyLinkedList.sol';\n\n/**\n  @title Contract that Uses Uint Struct of DoublyLinkedList Library for Testing\n  @author DigixGlobal Pte Ltd\n*/\ncontract TestLibraryUint {\n  using DoublyLinkedList for DoublyLinkedList.Uint;\n  DoublyLinkedList.Uint testData;\n\n  /// @notice Deletes the `testData` values\n  function setup_reset_data () public {\n    delete testData;\n  }\n\n  /// @notice Setups `testData` values for testing\n  function setup_data_for_testing ()\n           public\n  {\n      delete testData;\n      testData.append(101);\n      testData.append(102);\n      testData.append(103);\n      testData.append(104);\n      testData.append(105);\n      testData.append(106);\n  }\n\n  /**\n  @notice Returns the total number of collection in `testData.data`\n  @return {\"_count\": \"The total number of collection in `testData.data`\"}\n  */\n  function test_check_collection_count () public constant returns (uint256 _count) {\n    _count = testData.data.collection.length;\n  }\n\n  /**\n  @notice Returns the first index of `testData.data`\n  @return {\"_first_index\": \"First index of `testData.data`\"}\n  */\n  function test_check_first_index () public constant returns (uint256 _first_index) {\n    _first_index = testData.data.first_index;\n  }\n\n  /**\n  @notice Returns the last index of `testData.data`\n  @return {\"_first_index\": \"Last index of `testData.data`\"}\n  */\n  function test_check_last_index () public constant returns (uint256 _last_index) {\n    _last_index = testData.data.last_index;\n  }\n\n  /**\n  @notice Returns the total number of items in `testData.data`\n  @return {\"_count\": \"Total number of items in `testData.data`\"}\n  */\n  function test_check_count () public constant returns (uint256 _count) {\n    _count = testData.data.count;\n  }\n\n  /**\n  @notice Returns the previous index in `testData.data` based on the given `_item_index`\n  @param _item_index Starting index of the item\n  @return {\"_previous_index\": \"Index of the previous item of `testData.data`\"}\n  */\n  function test_item_previous_index (uint256 _item_index) public constant returns (uint256 _previous_index) {\n    _previous_index = testData.data.collection[_item_index-1].previous_index;\n  }\n\n  /**\n  @notice Returns the next index in `testData.data` based on the given `_item_index`\n  @param _item_index Starting index of the item\n  @return {\"_next_index\": \"Index of the next item of `testData.data`\"}\n  */\n  function test_item_next_index (uint256 _item_index) public constant returns (uint256 _next_index) {\n    _next_index = testData.data.collection[_item_index-1].next_index;\n  }\n\n  /**\n  @notice Returns the index of the given `_item` in `testData`\n  @param _item Address of item to be found\n  @return {\"_item_index\": \"Index of the given `_item` in `testData`\"}\n  */\n  function test_find(uint256 _item)\n           public\n           constant\n           returns (uint256 _item_index)\n  {\n    _item_index = testData.find(_item);\n  }\n\n  /**\n  @notice Returns the item of the given `_item_index` in `testData`\n  @param _item_index Index of the item to be get\n  @return {\"_item\": \"Item of the given `_item_index` in `testData`\"}\n  */\n  function test_get(uint256 _item_index)\n           public\n           constant\n           returns (uint256 _item)\n  {\n    _item = testData.get(_item_index);\n  }\n\n  /**\n  @notice Appends a given `_data` into `testData`\n  @param _data Data to be appended\n  @return {\"_success\": \"If appending of `data` is successful\"}\n  */\n  function test_append(uint256 _data)\n           public\n           returns (bool _success)\n  {\n    _success = testData.append(_data);\n  }\n\n  /**\n  @notice Removes an item index based on the given `_index` in `testData`\n  @param _index Index of the item to be removed\n  @return {\"_success\": \"If removing of the `_index` is successful\"}\n  */\n  function test_remove(uint256 _index)\n           public\n           returns (bool _success)\n  {\n    _success = testData.remove(_index);\n  }\n\n  /**\n  @notice Removes an item based on the given `_item` in `testData`\n  @param _item Item to be removed\n  @return {\"_success\": \"If removing of the `_item` is successful\"}\n  */\n  function test_remove_item(uint256 _item)\n           public\n           returns (bool _success)\n  {\n    _success = testData.remove_item(_item);\n  }\n\n  /**\n  @notice Returns the total number of items in `testData`\n  @return {\"_total_count\": \"Total number of items in `testData`\"}\n  */\n  function test_total ()\n           public\n           constant\n           returns (uint256 _total_count)\n  {\n    _total_count = testData.total();\n  }\n\n  /**\n  @notice Returns the index of the first item in `testData`\n  @return {\"_start_index\": \"Index of the first item in `testData`\"}\n  */\n  function test_start ()\n           public\n           constant\n           returns (uint256 _start_index)\n  {\n    _start_index = testData.start();\n  }\n\n  /**\n  @notice Returns the first item of `testData`\n  @return {\"_item\": \"First item of `testData`\"}\n  */\n  function test_start_item ()\n           public\n           constant\n           returns (uint256 _item)\n  {\n    _item = testData.start_item();\n  }\n\n  /**\n  @notice Returns the index of the last item of `testData`\n  @return {\"_end_index\": \"Index of the list item in `testData`\"}\n  */\n  function test_end ()\n           public\n           constant\n           returns (uint256 _end_index)\n  {\n    _end_index = testData.end();\n  }\n\n  /**\n  @notice Returns the last item of `testData`\n  @return {\"_item\": \"Last item of `testData`\"}\n  */\n  function test_end_item ()\n           public\n           constant\n           returns (uint256 _item)\n  {\n    _item = testData.end_item();\n  }\n\n  /**\n  @notice Checks if a given `_item_index` is a valid index in `testData`\n  @param _item_index Index of the item to be checked\n  @return {\"_yes\": \"If `_item_index` is a valid index in `testData`\"}\n  */\n  function test_valid(uint256 _item_index)\n           public\n           constant\n           returns (bool _yes)\n  {\n    _yes = testData.valid(_item_index);\n  }\n\n  /**\n  @notice Checks if a given `_item_index` is a valid index in `testData`\n  @param _item Item to be checked\n  @return {\"_yes\": \"If `_item` is a valid item in `testData`\"}\n  */\n  function test_valid_item(uint256 _item)\n           public\n           constant\n           returns (bool _yes)\n  {\n    _yes = testData.valid_item(_item);\n  }\n\n  /**\n  @notice Returns the previous index of `testData` based on the given `_current_index`\n  @param _current_index Current index of the item\n  @return {\"_previous_index\": \"Previous index of `testData`\"}\n  */\n  function test_previous(uint256 _current_index)\n           public\n           constant\n           returns (uint256 _previous_index)\n  {\n    _previous_index = testData.previous(_current_index);\n  }\n\n  /**\n  @notice Returns the previous item of `testData` based on the given `_current_item`\n  @param _current_item Current item\n  @return {\"_previous_item\": \"Previous item of `testData`\"}\n  */\n  function test_previous_item(uint256 _current_item)\n           public\n           constant\n           returns (uint256 _previous_item)\n  {\n    _previous_item = testData.previous_item(_current_item);\n  }\n\n  /**\n  @notice Returns the next index of `testData` based on the given `_current_index`\n  @param _current_index Current index of the item\n  @return {\"_next_index\": \"Next index of `testData`\"}\n  */\n  function test_next(uint256 _current_index)\n           public\n           constant\n           returns (uint256 _next_index)\n  {\n    _next_index = testData.next(_current_index);\n  }\n\n  /**\n  @notice Returns the next item of `testData` based on the given `_current_item`\n  @param _current_item Current item\n  @return {\"_next_item\": \"Next item of `testData`\"}\n  */\n  function test_next_item(uint256 _current_item)\n           public\n           constant\n           returns (uint256 _next_item)\n  {\n    _next_item = testData.next_item(_current_item);\n  }\n}\n",
  "sourcePath": "/home/rohit/Develop/solidity-collections-library/contracts/TestLibraryUint.sol",
  "compiler": {
    "name": "solc",
    "version": "0.4.24+commit.e67f0147.Emscripten.clang"
  },
  "schemaVersion": "2.0.0",
  "updatedAt": "2018-08-17T06:56:24.604Z"
}